:020000040800F2
:10000000384F00205D020008B12E0008C12400080E
:100010009D2E00084F0800088936000800000000E7
:100020000000000000000000000000009D0100082A
:10003000050A000800000000F9010008292F000847
:1000400077020008770200087702000877020008AC
:10005000770200087702000877020008770200089C
:10006000770200087702000877020008770200088C
:10007000770200087702000877020008770200087C
:1000800005090008770200087702000877020008D7
:10009000770200087702000877020008770200085C
:1000A000770200087702000877020008770200084C
:1000B00005300008113000081D30000877020008E4
:1000C000770200087702000877020008770200082C
:1000D00077020008593600086536000871360008B6
:1000E000770200087702000877020008770200080C
:1000F00077020008770200087702000877020008FC
:10010000770200087702000829300008770200080B
:10011000B5320008C132000835300008413000080F
:1001200077020008770200084909000877020008F2
:1001300077020008770200087702000877020008BB
:1001400077020008770200087702000877020008AB
:100150007702000877020008550900087D3600087C
:10016000770200087702000877020008770200088B
:1001700077020008770200087702000800000000FC
:100180007702000877020008DFF80CD000F0DEFAF2
:100190000048004781420008384F00202C4B196866
:1001A0000868B0E8F04F80F30988BFF36F8F4FF015
:1001B000000080F3118870470000000008480068C4
:1001C000006880F308884FF0000080F3148862B65E
:1001D00061B6BFF34F8FBFF36F8F00DF00BF00BF6B
:1001E00008ED00E0DFF80C00016841F470010160E7
:1001F000704700BF88ED00E0EFF30980BFF36F8F19
:10020000134B1A681EF0100F08BF20ED108A20E96A
:10021000F04F106009B44FF0500080F31188BFF325
:100220004F8FBFF36F8F04F045FE4FF0000080F357
:10023000118809BC19680868B0E8F04F1EF0100F6B
:1002400008BFB0EC108A80F30988BFF36F8F704746
:1002500080000020EFF305807047000006488047CB
:1002600006480047FEE7FEE7FEE7FEE7FEE7FEE79B
:10027000FEE7FEE7FEE7FEE7E92F00088901000838
:100280002DE9F05F0546002092469B4688460646CB
:10029000814640241BE0284641464746224600F05E
:1002A0008CF853465A46C01A914110D3114618464D
:1002B000224600F073F82D1A67EB01084F462246DC
:1002C0000120002100F06AF817EB00094E41201EC2
:1002D000A4F10104DFDC484631462A464346BDE826
:1002E000F09F40EA01039B0703D009E008C9121FF1
:1002F00008C0042AFAD203E011F8013B00F8013BE0
:10030000521EF9D27047D2B201E000F8012B491E0B
:10031000FBD270470022F6E710B513460A460446A2
:100320001946FFF7F0FF204610BD421C10F8011BD4
:100330000029FBD1801A7047034611F8012B00F801
:10034000012B002AF9D11846704700F0004230F026
:1003500000400AD0C10D01F56071C0F3160042EAF9
:100360000151C20840071143704700200146704701
:1003700030B50B46014600202022012409E021FA75
:1003800002F59D4205D303FA02F5491B04FA02F572
:100390002844151EA2F10102F1DC30BD202A04DB45
:1003A000203A00FA02F1002070479140C2F1200388
:1003B00020FA03F3194390407047202A04DB203AC7
:1003C00021FA02F00021704721FA02F3D040C2F175
:1003D000200291400843194670472DE9FE4F8046A0
:1003E00081EA0300C00F0C46009021F0004123F089
:1003F0000045B8EB0200A94105D24046214690468F
:100400001C460B46024623F00040104347D0270D00
:10041000C7F30A00C3F30A510290401A0190402822
:100420006BDAC3F3130040F4801B0098924620B1AE
:100430000023D2EB030A63EB0B0B01985946C0F182
:1004400040025046FFF7AAFF06460D465046594661
:10045000019A00F08DF910EB08006141002487EA51
:10046000115284EAE7731A4340D0009A62B3019AAA
:10047000012A4FEA075215DC001B61EB02014FF025
:10048000004202EA0752CDE90042001C41F580110A
:1004900032462B4600F08DF903B0BDE8F08F4046A0
:1004A0002146F9E7001B61EB0201001C41F58013B6
:1004B00000185B412018A2F5001747EB030140EA42
:1004C000D570B6196D4111E06D084FEA360645EA60
:1004D000C0754FEA0752001B61EB0201001C41F599
:1004E000801149084FEA30000019514132462B462D
:1004F00003B0BDE8F04F00F04DB900980122400074
:100500000023D0EB020263EBE073009821464FEA30
:10051000E074B8EB000061EB0401E9E783F000430D
:100520005BE781F0004158E72DE9FE4F81EA0304C3
:1005300004F0004421F0004100944FF0000B23F040
:10054000004350EA01045ED052EA03045BD0C3F3D7
:100550000A54C1F30A552C44A4F2F3340194A0FBCD
:100560000254C1F3130141F48011C3F3130343F4A4
:10057000801301FB024400FB034E840A970A44EAFD
:10058000815447EA8357A4FB076802958D0A05FB4F
:1005900007854FEA932C04FB0C542705029D4FEA74
:1005A000065847EA1637B5EB08056EEB070C870EC1
:1005B000920E47EA811742EA8312A7FB0201B6EBCB
:1005C0000B0164EB00042B0D43EA0C335E1844EB83
:1005D0001C50DA465146E7FB0201C5F313044FEA0B
:1005E0000B3343EA14534FEA0432019C43EA0603F7
:1005F000A4F10C040294009CCDE900B400F0D9F8F9
:1006000003B0BDE8F08F00200146F9E72DE9F04D79
:1006100081EA030404F0004B21F0004514464FF03A
:10062000000A23F0004150EA050220D054EA0102FA
:100630001DD0C5F30A570246C5F31303C1F31300D7
:10064000C1F30A5640F4801543F48013A7EB060863
:10065000101BD64608F2FD3873EB050002D308F1F3
:10066000010801E092185B41B8F1000F03DA0020A5
:100670000146BDE8F08D00204FF480110646844607
:100680000EE0171B73EB050705D3121B63EB050385
:1006900006434CEA010C49084FEA300092185B41CE
:1006A00050EA0107EDD152EA030012D082EA0400B9
:1006B00083EA0501084305D0101BAB4106D2012295
:1006C000002306E000224FF0004302E06FF0010239
:1006D00053101AEB06004CEB085110EB0A0041EBEB
:1006E0000B01BDE8F04D00F055B8C1F30A52C1F35B
:1006F000130140F2FF3341F480119A4202DA0020E4
:100700000146704740F233439A42A2F2334202DC80
:100710005242FFF752BEFFF741BE000030B5041E43
:1007200071F1000404DB4FF00044404264EB01012E
:10073000141E73F1000405DB1C464FF000435242C7
:1007400063EB0403994208BF904230BD064C074D4D
:1007500006E0E06840F0010394E807009847103491
:10076000AC42F6D3FFF714FD985C0008B85C0008B3
:10077000202A06DBCB17203A41FA02F043EAE07365
:1007800006E041FA02F3D040C2F120029140084352
:100790001946704710B5141E73F1000408DA401CA6
:1007A00041F1000192185B411A4301D120F0010090
:1007B00010BD2DE9F04D92469B4611B1B1FA81F280
:1007C00002E0B0FA80F220329046FFF7E7FD0446DF
:1007D0000F4640EA0A0041EA0B0153465A460843D5
:1007E00013D0114653EA010019D0C8F14002504617
:1007F000FFF7E3FD05460E46504659464246FFF7D1
:10080000CDFD084305D0012004E020463946BDE86F
:10081000F08D0020054346EAE0762C4337430A98E2
:100820006305E40AA0EB08000022FD0A44EA4754ED
:100830000A3002D500200146E9E701051019694197
:10084000DDE9084500196941BDE8F04DA2E7FEE782
:100850002DE9F04700270425DFF8A080DFF8A090FD
:1008600050383E4601F1060A102845D2DFE800F074
:100870001108130C1517191B1D1F21444444442350
:1008800034240325402702E03D2403252E2701269A
:1008900013E0302411E037242BE03A2429E04124EE
:1008A0000BE0452409E0492407E04D2405E05124EC
:1008B00003E0552401E0D8F82440032A19D04DB1B3
:1008C0006A0009EB4400FFF70CFDD8F81420294614
:1008D00020469047002E0FD0720009EB470051468A
:1008E000FFF7FFFC31463846D8F81420BDE8F04742
:1008F000104703250026E3E7BDE8F087000000204D
:100900001602002008B5002000900B48007870B156
:100910000A486946006804F0DDFB009838B10849D0
:100920004FF080500860BFF34F8FBFF36F8F0548C3
:1009300000F080F808BD0000280000202C000020F6
:1009400004ED00E0A80D0020014800F073B800009D
:10095000E80C0020014800F06DB80000480D0020B0
:1009600001681823CAB2103AB2FBF3F2054B6FF3D9
:100970000901032A9B5CC36500D9091D81650846EE
:10098000704700000C5A000810B5014600208B6922
:100990008A6A4FF0C07453B1B3F5005F15D072B1DD
:1009A000012A0CD0022A0AD0032A09D104E01AB184
:1009B000012A06D0022A03D1C96AC90100D5012043
:1009C00010BDC96AA142FAD010BD002AF7D0012A91
:1009D000F2D0022AF3D0032AF3D010BD30B5046858
:1009E000256825F480252560046863608368402BB2
:1009F000036803D099600068C26030BD9A600068E7
:100A0000C16030BD704703F0A5BB72B6FEE790F839
:100A10003510022903D0802141650120704705214E
:100A200080F835100068016821F0010101600020A4
:100A3000704700002DE9F84304464FF00009CDF857
:100A4000009063484FF41651A56D0068B0FBF1F7B4
:100A50002E6894F85C10082000FA01F131420FD0A2
:100A600021680A6852070BD50A6822F004020A605E
:100A700094F85C108840A860606D40F001006065EB
:100A800094F85C104FF0010808FA01F0304208D0E9
:100A900021684969090604D5A860606D40F002002C
:100AA000606594F85C1004208840304208D02168CA
:100AB0000968890704D5A860606D40F0040060658E
:100AC00094F85C1010208840304218D021680968E2
:100AD000090714D5A86020680168490304D5006897
:100AE000000308D5A16C07E00168C90503D40168BB
:100AF00021F008010160216C09B12046884794F873
:100B00005C1020208840304231D021680968C90635
:100B10002DD5A86094F8350005282068016806D016
:100B2000490347D5006800031DD4616C1CE021F027
:100B3000160101602068416921F080014161206C4B
:100B400008B9A06C20B12068016821F0080101609B
:100B500094F85C103F208840A86084F8349084F8B2
:100B60003580216D1FE0E16B09B120468847606D3B
:100B700000282BD0606DC00714D0052084F8350004
:100B80002068016821F0010101600098401C00907C
:100B9000B84203D820680068C007F6D184F83490C2
:100BA00084F83580E16C002910D001B02046BDE802
:100BB000F04308470168C905D5D4016821F0100148
:100BC000016084F8349084F83580CCE7BDE8F88380
:100BD0007C0000202DE9F041044600F07FF9064634
:100BE0005CB1002584F83450022084F83500206878
:100BF000016821F0010101600DE00120BDE8F081F4
:100C000000F06CF9801B052805D9202060650320C1
:100C100084F83500F2E720680068C007F0D1226848
:100C2000116820480140D4E901031843D4E9033690
:100C30003343184363691843A3691843E3691843AE
:100C4000236A18430843616A042903D1D4E90B13CA
:100C500019430843106020684069666A20F0070164
:100C600030460E43012704280CD1A06A0643E06AEF
:100C700040B12046FFF788FE20B14020606584F82F
:100C80003570BAE7206846612046FFF769FE94F8A0
:100C90005C203F2191408160656584F835700020BB
:100CA000ACE700003F8010F02DE9F0410446866D6E
:100CB00090F83400002501280DD0012084F834007C
:100CC00094F835700020012F07D084F834000225F5
:100CD0002846BDE8F0810220FBE7022784F8357042
:100CE00060652046FFF77AFE94F85C103F2088404C
:100CF000B0602068016841F016010160206C20B1ED
:100D00002068016841F0080101602068016841F035
:100D100001010160DCE700002DE9F84F00224FF0EF
:100D2000010803254FF00F0E0B6808FA02F4234068
:100D3000A3426ED14E68012E05D0022E03D0112E93
:100D400001D0122E12D186684FEA420C05FA0CF738
:100D5000BE43CF6807FA0CF7374387604668A6435F
:100D60000C79C4F30014944034434460C6685700BF
:100D700005FA07FC8C6826EA0C06BC403443C460C4
:100D80004C68022C01D0122C13D1D40800EB84043F
:100D9000A346D4F8209054074FEAD46A0EFA0AF614
:100DA00029EA06090E6906FA0AF646EA0906CBF8A8
:100DB000206006680C7926EA0C0604F00304BC40A7
:100DC000344304604C68E40065D5364C266846F42C
:100DD00080462660246822F0030604F480440094D0
:100DE000314C3444A446D4F808489607370F0EFA1D
:100DF00007F6B4432D4EB04201D1002624E02C4E1C
:100E0000B04201D101261FE02A4EB04202D1022693
:100E10001AE040E0284EB04201D1032614E0274EEC
:100E2000B04201D104260FE0254EB04201D1052683
:100E30000AE0244EB04201D1062605E0224EB0421F
:100E400001D1072600E00826BE402643CCF80868FA
:100E50001E4E34684F689C43FF0300D51C4334602A
:100E60001A4C241D26684F689E43BF0300D51E43BD
:100E70002660164E083634684F689C43FF0200D542
:100E80001C433460114E0C3634684F689C43BF02DB
:100E900000D51C433460521C102AFFF445AFBDE856
:100EA000F88F00004438024000300140000002404A
:100EB0000004024000080240000C02400010024002
:100EC0000014024000180240001C0240003C014097
:100ED0000AB1816170470904FBE70000014880689E
:100EE00070470000700000200248816802781144B9
:100EF00081607047700000200B4810B5016841F414
:100F000000710160016841F480610160016841F491
:100F100080710160032000F08DF8002000F006F8D9
:100F200000F03EF8002010BD003C024010B5014624
:100F300088B00022372000F05DF8372000F04CF830
:100F400013480024016841F020010160006805A9F0
:100F500000F020000690684600F018F900F036F91D
:100F60000C494000B0FBF1F10C480B4A491E0260ED
:100F700040F2E732C0E90324C0E9011400F098FB15
:100F800010B1012008B010BD044800F001FCF9E7E1
:100F90004038024040420F0000140040080E00207C
:100FA0000C4882B0016841F480410160006800F49F
:100FB000804000900748001F016841F080510160A7
:100FC0000068002200F0805000900F21901E02B0B7
:100FD00000F010B844380240002809DB00F01F027E
:100FE000012191404009800000F1E020C0F800118B
:100FF00070470000F0B40E4B1B680C46C3F302238D
:10100000C3F10705042D00D90425191D072901D2B4
:10101000002300E0DB1E012606FA05F1491E2140EF
:1010200099409E40761E16403143F0BC02F014BC3D
:101030000CED00E0064900F0070208684FF6FF03D8
:10104000184040EA0220034A10430860704700003D
:101050000CED00E00000FA052DE9F0470E46050012
:1010600065D0DFF81481D8F80000F7B200F00F0067
:10107000B04207D288F80070D8F8000000F00F00E6
:10108000B04254D128683D4C810712D5400703D5A2
:10109000206840F4E05020602878000703D52068DD
:1010A00040F4604020602068A96820F0F000084308
:1010B00020602878C0072DD0304968680839012899
:1010C00012D0022813D0032811D0096889070029FB
:1010D0002DDA216821F0030101432160FFF7FEFEB4
:1010E000814641F2883A0EE009688903EFE7096812
:1010F0008901ECE7FFF7F2FEA0EB0901514502D9A7
:101100000320BDE8F0872068696800F00C00B0EBB0
:10111000810FEFD1D8F80010404601F00F01B14225
:1011200007D90770006800F00F00B04201D001201D
:10113000E7E72878400705D52068E96820F4E05003
:10114000084320602878000706D52068296920F424
:10115000604040EAC100206000F058F82168084A69
:10116000C1F30311515CC840064908600648006895
:10117000FFF7DCFE0020C4E7003C024008380240D4
:10118000145A00087C000020740000200F22026026
:101190000C4A136803F003034360136803F0F00381
:1011A0008360136803F4E053C36012684FF4E053A4
:1011B00003EAD20202610448006800F00F000860F0
:1011C0007047000008380240003C024004480549CE
:1011D00000680968044AC1F38221515CC840704725
:1011E0007C00002008380240245A000804480549C1
:1011F00000680968044AC1F34231515CC840704735
:101200007C00002008380240245A0008154810B518
:10121000006810F00C02144813D04110042A0FD0BB
:10122000082A0ED10F4C241F2268236802F03F02C7
:101230005B0207D52068C0F38810A0FB010106E01F
:10124000084610BD2168C1F38811A1FB00010023ED
:10125000FFF716F82168C1F30141491C4900B0FBB2
:10126000F1F010BD083802400024F4002DE9F84FD9
:1012700004006ED02078DFF83C93C007A9F1040584
:101280004AD009F104000168C1F38101012908D0A5
:101290000068C0F3810002280AD1D9F8000040029A
:1012A00006D52868800337D560680028E1D033E090
:1012B0006068B0F5803F10D0B0F5A02F286810D03E
:1012C00020F480302860286820F48020286060683E
:1012D000A8B1FFF703FE06460DE0286840F4803011
:1012E000F4E740F480202860F7E700BFFFF7F6FD41
:1012F000801B642873D828688003F7D50CE0FFF7BB
:10130000EDFD064605E000BFFFF7E8FD801B642801
:10131000F0D828688003F7D42078DFF89C82800713
:101320004FF0000A3ED5A348001D016811F00C0FD4
:1013300008D00068C0F3810002280BD1D9F8000062
:10134000400207D42868800716D5E068012800D13C
:1013500012E02BE1E068B8B10120C8F80000FFF707
:10136000BDFD064605E000BFFFF7B8FD801B022863
:10137000C0D828688007F7D52868216920F0F800D0
:1013800040EAC10028600DE0C8F800A0FFF7A6FD04
:10139000064604E0FFF7A2FD801B02281FD828683C
:1013A0008007F7D42078000722D5824E83486169F0
:1013B000703671B101210160FFF790FD074604E02E
:1013C000FFF78CFDC01B022809D830688007F7D5CD
:1013D0000EE0C0F800A0FFF781FD074605E082E0BF
:1013E000FFF77CFDC01B02287DD830688007F7D44A
:1013F0002078400768D5DFF8BCB100270BF13C0B23
:10140000DBF80000C0000BD4DBF8001041F0805185
:10141000CBF80010DBF80000012700F080500090AE
:10142000674E3068C00510D4306840F4807030607A
:10143000FFF754FD009005E0FFF750FD0099401ABA
:10144000022850D83068C005F6D55A4EA0686C36D0
:1014500001280FD00528306810D020F0010030603E
:10146000306820F004003060A068B8B1FFF736FDA6
:1014700000900FE0306840F00100F4E740F0040015
:101480003060F7E7FFF72AFD0099411A41F28830F2
:10149000814266D830688007F4D50EE0FFF71EFD64
:1014A000009007E0FFF71AFD0099411A41F28830D9
:1014B000814256D830688007F4D42FB1DBF8001091
:1014C00021F08051CBF80010A069C8B33949091D3B
:1014D0000968C1F3810102294AD00228504607D089
:1014E000C8F8600000E03CE0FFF7F8FC04463BE091
:1014F0004746C8F86000FFF7F1FC064605E000BF6C
:10150000FFF7ECFC801B02282BD828688001F7D459
:10151000D4E907010843A16A2A4A490802EB0141BC
:10152000626A41EA8211084394F82C1040EA016192
:10153000C9F8001001203866FFF7D0FC044606E029
:1015400036E000BFFFF7CAFC001B022809D8286854
:101550008001F7D52CE000BFFFF7C0FC001B02287C
:1015600002D90320BDE8F88F28688001F4D41FE079
:101570000128F7D0D9F80000E26900F48001914217
:1015800014D1226A00F03F0191420FD147F6C07199
:10159000626A0140914209D1A26A00F4403191424D
:1015A00004D1E16A00F07060884201D00120D9E7DF
:1015B0000020D7E70438024000004742800E47422F
:1015C000007000400000FFFF7047704710B590F8B2
:1015D0003C20012A22D0012280F83C20CA688C6875
:1015E00022F4407222434C6822F4806222430C6849
:1015F00022F4006222430C6922F4805222434C6997
:1016000022F400522243C969002322F480420A4393
:1016100001684A6480F83C30002010BD022010BDF3
:1016200070B590F83C20012A32D0012480F83C406B
:10163000022280F83D2003685A689D6822F07006F7
:101640000A6832435A60134B02689A4214D0B2F1CE
:10165000804F11D0104B9A420ED0104B9A420BD0B3
:101660000F4B9A4208D00F4B9A4205D00E4B9A422C
:1016700002D00E4B9A4204D1496825F080031943E9
:10168000916080F83D40002180F83C10084670BD14
:10169000022070BD0000014000040040000800402E
:1016A000000C0040000401400040014000180040D0
:1016B00010B5040003D094F83D0010B107E00120FC
:1016C00010BD002084F83C00204600F00DF80220F8
:1016D00084F83D00211D206801F0B8FC012084F849
:1016E0003D00002010BD000008B5234902682348D2
:1016F0008A4211D1016841F01001016000680022A6
:1017000000F01000009005213620FFF773FCBDE8C3
:1017100008403620FFF760BC1849194B091D9A4252
:1017200007D1086840F400300860086800F4003011
:1017300009E0144B9A4208D1086840F48020086000
:10174000086800F48020009008BD0F498A4207D144
:10175000016841F080010160006800F08000F2E75C
:101760000A498A42F0D1016841F480710160006841
:1017700000F48070E7E700000010004040380240AD
:101780000044014000480140001C0040002000408F
:101790000168CA6842F00102CA600068816801F00D
:1017A0000701062903D0016841F001010160002012
:1017B00070472DE9F0410D46040003D094F83D0038
:1017C00018B108E00120BDE8F081002084F83C0059
:1017D000204600F03BF8022084F83D002068816834
:1017E00044F2070291438160211D206801F02EFC24
:1017F000226890689169166A2B68AF69034340F2CA
:101800000330814341EA0721A868EF6908434FF696
:10181000FC418843E96840EA0720014328692F6AB0
:10182000000140EA0730084369686D6926F0AA069E
:1018300046EA051529439360226890612068016299
:10184000012084F83D000020BDE70000F0B587B01E
:10185000044614216846FEF75DFD574923680024BD
:10186000554810390225554A554EB3F1804F27D0BF
:10187000544FBB4258D1026842F002020260006835
:1018800000F002000590086840F002000860086857
:10189000694600F00200059030200090CDE9015427
:1018A0003046CDE90345FFF737FA002205211D2018
:1018B000FFF7A0FB5FF01D00FFF78EFB07B0F0BD48
:1018C000036843F001030360006800F00100059025
:1018D000086840F001000860086800F00100059009
:1018E000086840F0020008600868012700F0020064
:1018F000059020200090CDE90154CDE903476946C9
:101900001046FFF709FA08200090CDE90154CDE90F
:10191000034769463046FFF7FFF9002205211C20E6
:10192000FFF768FB1C20C7E7274FBB4220D10268A6
:1019300042F004020260006800F0040005900868AC
:1019400040F0020008600868694600F00200059057
:10195000C0200090CDE901543046CDE90345FFF7A2
:10196000DBF9002205211E20FFF744FB1E20A3E720
:10197000164EB342A2D1036843F008030360006827
:1019800000F008000590086840F001000860086851
:10199000694600F00100059003200090CDE9015454
:1019A0001046CDE90345FFF7B7F9002205213220A3
:1019B000FFF720FB32207FE7403802400000024062
:1019C000000402400004004000080040000C0040F9
:1019D00010B50446006891B1042904D00122002109
:1019E00001F098FB206801225FF0040101F092FBF6
:1019F0002068016841F001010160002010BD012252
:101A00000021F3E7704770B50446006801694FF0A4
:101A10000005C943890715D4C168C943890711D492
:101A2000E91E016101202077206880698007204637
:101A300002D0FFF7E7FF04E000F02CF9204600F0A9
:101A4000DDF9257720680169C943490717D4C168C2
:101A5000C943490713D46FF00401016102202077C4
:101A60002068806910F4407F204602D0FFF7CAFF4B
:101A700004E000F00FF9204600F0C0F92577206857
:101A80000169C943090716D4C168C943090712D4BB
:101A90006FF008010161042020772068C069800789
:101AA000204602D0FFF7AEFF04E000F0F3F8204636
:101AB00000F0A4F9257720680169C943C90617D445
:101AC000C168C943C90613D46FF010010161082031
:101AD00020772068C06910F4407F204602D0FFF7CD
:101AE00091FF04E000F0D6F8204600F087F9257752
:101AF00020680169C943C90708D1C168C943C9073A
:101B000004D1891E0161204600F09CF9206801691A
:101B1000C943090609D4C168C943090605D46FF051
:101B2000800101612046FFF74FFD20680169C9432C
:101B3000490609D4C168C943490605D46FF040017C
:101B40000161204600F094F920680169C9438906C3
:101B50000BD4C168C943890607D46FF02001016125
:101B60002046BDE87040FFF730BD70BD70B586B04F
:101B7000044614216846FEF7CDFB24683A4D002246
:101B80003A4902233A48AC4211D10C6844F010049F
:101B90000C60096801F0100105914FF4D4410091E7
:101BA000CDE901320121CDE9032169460DE0314E35
:101BB0000325B4420DD10C6844F010040C60096890
:101BC00001F010010591602146E0FFF7A5F806B08D
:101BD00070BD294E2948B44209D10C6844F0020472
:101BE0000C60096801F002010591811534E0244E72
:101BF000B44209D10C6844F002040C60096801F099
:101C000002010591711527E01E4E0925B44209D144
:101C10000C6844F002040C60096801F002010591AF
:101C2000F10019E0184E1948B44209D10C6844F08B
:101C300001040C60096801F00101059140210BE0ED
:101C4000134EB442C3D10C6844F001040C6009681F
:101C500001F00101059180210091CDE90132CDE92A
:101C600003256946B1E7000000000140303802401A
:101C700000100240004001400044014000040240C6
:101C80000048014000180040001C004000000240D5
:101C900000200040704770B5044690F83C000D46A7
:101CA00001280DD0012684F83C60022084F83D0014
:101CB00042B1042A18D0082A2AD00C2A4DD139E082
:101CC000022070BD206801F033FA2068816941F07C
:101CD000080181612068816921F004018161206827
:101CE00081692A69114311E0206801F051FA2068E6
:101CF000816941F4006181612068816921F480611A
:101D00008161206881692A6941EA0221816124E0B8
:101D1000206801F073FA2068C16941F00801C161CF
:101D20002068C16921F00401C1612068C1692A6984
:101D3000114311E0206801F095FA2068C16941F46F
:101D40000061C1612068C16921F48061C1612068BE
:101D5000C1692A6941EA0221C16184F83D6000201D
:101D600084F83C0070BD10B5040003D094F83D0029
:101D700010B107E0012010BD002084F83C0020468F
:101D800000F00CF8022084F83D00211D206801F0CD
:101D90005DF9012084F83D00002010BD08B5134A0C
:101DA00001681348914207D1016841F001010160C7
:101DB000006800F0010009E00E4A914208D1016874
:101DC00041F480310160006800F48030009008BD6B
:101DD00009488142FBD10648001F016841F04001DB
:101DE0000160006800F04000F0E7000000000140E2
:101DF0004438024000400140001800407047000095
:101E000010B504460068012201F084F90B492068EE
:101E1000884202D00A49884203D1416C41F4004112
:101E200041642068816801F00701062903D0016838
:101E300041F001010160002010BD000000000140E0
:101E40000004014010B5044600680749884201D1EA
:101E5000FFF74AF805492068884203D1BDE81040E1
:101E600002F032BE10BD000000140040001000401F
:101E70007047704770B5026804461068D1685369AE
:101E800010F00F0F52D003F0010501F490762E43AD
:101E90005FD0C20705D0CA0503D5E26B42F001024C
:101EA000E263420705D5DA0703D0E26B42F0020293
:101EB000E263820705D5DA0703D0E26B42F0040241
:101EC000E263020707D501F020022A4303D0E26B48
:101ED00042F00802E263E26B002A33D0800604D5A8
:101EE000880602D5204601F074FA20684069E16B4B
:101EF000C0F38010090700D428B3204601F052FA3D
:101F00002068416949061AD5416921F040014161C3
:101F1000606BA0B11B490165606BFEF778FD00287E
:101F200010D0606B016DBDE870400847830610D586
:101F30008B060ED52046BDE8704001F04ABA204617
:101F4000FFF797FF70BD2046FFF793FF0020E06387
:101F500070BD030606D50B0604D52046BDE87040CB
:101F600001F016BB4006F3D54806F1D5D1682046EE
:101F700021F04001D160202184F8391000F09EFA50
:101F800070BD0000CD32000870B5040004D094F894
:101F90003900002510B106E0012070BD84F83850EA
:101FA000204600F023F8242084F839002068C16816
:101FB00021F40051C160204601F056FA2068016901
:101FC00021F4904101612068416921F02A014161B9
:101FD0002068C16841F40051C160E563202084F8A5
:101FE000390084F83A00002070BD00002DE9F04F60
:101FF00087B0064614216846FEF78CF9AC48AB4A18
:102000003368AB49103802250327DFF8A8A2002463
:102010004FF4406B4FF001094FF00808934220D174
:102020000A6842F400220A60096801F4002105915F
:10203000016841F0040101600068CDF800B000F0D3
:102040000400CDE904800397CDE901596946504663
:10205000FEF762FE002205213420FEF7CBFF34207C
:1020600032E0954A934234D10A6842F480120A6001
:10207000096801F480110591016841F004010160D3
:10208000016801F004010591016841F00801016057
:102090000068694600F00800059098148DE8210258
:1020A000CDE903785046FEF737FE04208DE8210283
:1020B000CDE9037869468148FEF72EFE002205210E
:1020C0003520FEF797FF3520FEF786FF07B0BDE805
:1020D000F08FDFF8ECC1DFF8D8910722DFF8E4E1F8
:1020E00009F10409634556D1D9F8003043F01003D3
:1020F000C9F80030D9F8001001F01001059101680D
:1021000041F0010101600068029400F001000590B7
:102110004FF4C060CDE90005CDE903726946704611
:10212000FEF7FAFD694D68484FF000682860C5E980
:1021300001844FF48069C5E903496C614FF480372D
:10214000AC61C5E9074728466C62FEF743FD08B15C
:10215000FEF75BFC7563AE635C4D5B4860357830C1
:10216000E5E802084020A5E81102584845F814495E
:102170006030AC61C5E907476C62FEF72BFD08B122
:10218000FEF743FC3563002205212520AE63FEF7F0
:1021900031FF252098E7DFF838C1634539D10B6856
:1021A00043F400330B60096801F4003105910168C4
:1021B00041F0010101600068029400F00100059007
:1021C0000C20CDE90005CDE9037269467046FEF7A3
:1021D000A3FD3E4D3F48C03528604FF00060C5E983
:1021E00001044014C5E903406C618001AC61C5E99C
:1021F000074028466C62FEF7EDFC08B1FEF705FCCF
:102200007563002205212620AE63FEF7F3FE26202B
:102210005AE7314EB34220D10B6843F480230B6060
:10222000096801F480210591016841F00201016013
:102230000068CDF800B000F00200CDE9042003975B
:10224000CDE9015469462548FEF766FD00220521C7
:102250002720FEF7CFFE272036E721498B427FF467
:1022600035AFD9F8002042F02002C9F80020D9F893
:10227000001001F020010591016841F004010160A6
:10228000006802AA00F004000590C020CDE9000516
:1022900082E8900169465046FEF73EFD0022052186
:1022A0004720FEF7A7FE47200EE70000004C004045
:1022B000403802400008024000500040000C02403C
:1022C000001001400000024040640240E80C002081
:1022D0000044004088600240004800400004024082
:1022E00000140140F8B5044690F83A0020283CD18B
:1022F000C1B3BAB394F83800012836D0012084F86D
:102300003800A162A2850025E563222084F83A0006
:10231000636B1748D863636B16481864636B164881
:10232000D864606B134605650846666B21680246F3
:102330003046091DFEF7B8FC20680168416800912D
:1023400084F83850C16841F48071C16020684169E7
:1023500041F0010141612068416941F04001416162
:102360000020F8BDFFE70120FBE70220F9E70000AD
:102370002733000863330008DD32000870477047D8
:102380002DE9F843044690F839001F4616460D46DD
:10239000202850D1B5B1AEB194F8380001284AD008
:1023A000012084F838004FF00008C4F83C80212058
:1023B00084F83900FEF792FDA6848146E68484F80D
:1023C000388026E00120BDE8F883E08C401EE084E0
:1023D000A0684B46B0F5805F4FF000024FF08001DF
:1023E0002046009703D001F004F9E8B90DE001F0B0
:1023F00000F9C8B928882168C0F30800486020693E
:1024000008B16D1C05E0AD1C03E0216815F8010B57
:102410004860E08C0028D8D14B460022402120465D
:10242000009701F0E6F808B10320CCE7202084F8FB
:1024300039000020C7E70220C5E7000070B5044658
:1024400090F83900202830D169B362B394F838008D
:1024500001282AD0012084F838002162A284E28475
:102460000025E563212084F83900236B1048D863E8
:10247000236B10481864236B0F48D864206B1346F5
:1024800005652668206B321DFEF70EFC21686FF093
:102490004000086084F838502068416941F08001AC
:1024A0004161002070BD012070BD022070BD0000A0
:1024B0006D3300089B330008DD3200087047704719
:1024C000FEE700002DED028B4FF0FF3A1B4C1A4D3A
:1024D0001B4EDFF870809FED1C8ADFED1C8A04F133
:1024E00050095146686802F043FE0027E05D01F0A4
:1024F000EFF87F1C502FF9DB3078B0B10020414657
:102500004FEA090201EB4003B3F97A3000EE103ACA
:1025100002EB8003401CB8EEC00A032820EE080A34
:1025200020EE280A83ED080AECDB50220349084814
:10253000FFF7D8FED5E70000280000209005002016
:102540000100002016020020000000380000344383
:10255000280C0020154808B5016841F4800101608D
:10256000016801F480010091016841F400110160EB
:102570000068002200F40010009005211020FEF7F2
:1025800039FD1020FEF728FD002205213A20FEF734
:1025900031FD3A20FEF720FD002205214620FEF7FE
:1025A00029FDBDE808404620FEF716BD3038024040
:1025B00010B5D4B003220021012002F023FD464CC7
:1025C000606010B145A001F00DF91C224E4968462B
:1025D000FDF787FE0021684601F02EFF4A49A06002
:1025E0001C221C3107A8FDF77CFE002107A801F082
:1025F00023FF4549E0601C2238310EA8FDF771FE2B
:1026000000210EA801F018FF3F4920611C2254311F
:1026100015A8FDF766FE002115A801F00DFF3A4947
:1026200060611C2270311CA8FDF75BFE00211CA814
:1026300001F002FF3449A0611C228C3123A8FDF770
:1026400050FE002123A801F0F7FE2F49E0611C2273
:10265000A8312AA8FDF745FE00212AA801F0ECFECA
:10266000294920621C22C43131A8FDF73AFE00211D
:1026700031A801F0E1FE244960621C22E03138A853
:10268000FDF72FFE002138A801F0D6FE1E49A062FA
:102690001C22FC313FA8FDF724FE00213FA801F0D9
:1026A000CBFEE0621C22194946A8FDF71AFE002164
:1026B00046A801F0C1FE154920631C221C314DA81B
:1026C000FDF70FFE00214DA801F0B6FE606301206A
:1026D000207054B010BD000028000020494D556402
:1026E0006174655F52585F53656D5F48616E646CDD
:1026F00065B6FED6B5D0C5BAC5C1BFB4B4BDA8B322
:10270000C9B9A6210D0A0000BC580008D459000818
:102710002DE9F04786B014216846FDF7FBFD3848E7
:102720000024016841F010010160016801F010010E
:102730000591016841F004010160016801F00401A4
:102740000591016841F080010160016801F080019C
:102750000591016841F001010160016801F001018A
:102760000591016841F002010160016801F0020178
:102770000591016841F0080101600068DFF884807C
:1027800000F008004FF4C04505900022294640465D
:10279000FEF79EFBDFF870904FF480560022314622
:1027A0004846FEF795FBDFF864A04FF47F47002210
:1027B00039465046FEF78CFB00950125CDE90154C2
:1027C000694640460394FEF7A7FA0096CDE9015406
:1027D000694648460394FEF79FFA0097CDE90154F5
:1027E000694650460394FEF797FAE8038DE83100F6
:1027F00069460748FEF790FA06B0BDE8F08700008A
:10280000303802400008024000100240000C024034
:102810000000024010B588B01C216846FDF77AFD23
:10282000154814490024016040F61F51C0E9011405
:1028300040F2E731C0E903148461FEF739FF08B1C3
:10284000FEF7E3F80C48FFF78EFA08B1FEF7DDF863
:102850006020CDE9000402940022694606480494F1
:10286000FFF719FA08B1FEF7D0F80348FFF77EF931
:1028700008B010BD00440140280A002010B588B0FF
:102880001C216846FDF746FD1548144900240160E7
:1028900040F61F51C0E9011440F2E731C0E90314CA
:1028A0008461FEF705FF08B1FEF7AFF80C48FFF7AB
:1028B0005AFA08B1FEF7A9F86020CDE900040294A5
:1028C0000022694606480494FFF7E5F908B1FEF7CF
:1028D0009CF80348FFF74AF908B010BD00480140D2
:1028E000680A002010B588B01C216846FDF712FD6B
:1028F000164815490024016040F28F61C0E90114B7
:1029000040F2E731C0E903148461FFF72CFA08B103
:10291000FEF77BF86020CDE90004029400226946AE
:102920000A480494FFF7B7F908B1FEF76EF80422DD
:1029300069460648FFF7AFF908B1FEF766F80348A5
:10294000FFF714F908B010BD00180040A80A0020D5
:1029500010B588B01C216846FDF7DCFC1548144909
:102960000024016040F28F61C0E9011440F2E731B8
:10297000C0E903148461FEF79BFE08B1FEF745F839
:102980000C48FFF7F0F908B1FEF73FF86020CDE9F9
:10299000000402940022694606480494FFF77BF97C
:1029A00008B1FEF732F80348FFF7E0F808B010BDB1
:1029B000001C0040E80A002010B588B01C216846C1
:1029C000FDF7A8FC154814490024016040F28F610E
:1029D000C0E9011440F2E731C0E903148461FEF755
:1029E00067FE08B1FEF711F80C48FFF7BCF908B113
:1029F000FEF70BF86020CDE900040294002269463E
:102A000006480494FFF747F908B1FDF7FEFF0348B5
:102A1000FFF7ACF808B010BD00200040280B0020E4
:102A200010B592B000240F941C2168461094FDF755
:102A300071FC202107A8FDF76DFC2C482A49016094
:102A40001021C0E9011440F2E731C0E903144461E8
:102A50008461FFF788F908B1FDF7D7FF0F940FA93C
:102A600022481094FEF7DCFD08B1FDF7CEFF602090
:102A7000CDE900040294039404940594002269466D
:102A80001A480694FFF707F908B1FDF7BEFF0422C4
:102A900069461648FFF7FFF808B1FDF7B6FF0822B0
:102AA00069461248FFF7F7F808B1FDF7AEFF0C22B0
:102AB00069460E48FFF7EFF808B1FDF7A6FF079447
:102AC000089409944FF400500A94CDE90B4007A9EB
:102AD00006480E94FEF77AFD08B1FDF796FF03480D
:102AE000FFF744F812B010BD000001406808002054
:102AF00010B58CB024216846FDF70CFC0024154865
:102B000009944FF080410A94C0E900144FF45251E7
:102B1000C0E90241046184610320CDE90004012081
:102B2000CDE902040494CDE90540079469460948BB
:102B30000894FEF73EFE08B1FDF767FF099409A966
:102B400004480A94FEF76CFD002801D0FDF75DFFF4
:102B50000CB010BDA808002010B58CB02421684628
:102B6000FDF7D8FB00241648099414490A94C0E9DB
:102B700000144FF45251C0E9024104618461032002
:102B8000CDE900040120CDE902040494CDE905401B
:102B9000079469460A480894FEF70BFE08B1FDF752
:102BA00034FF099409A906480A94FEF739FD002864
:102BB00001D0FDF72AFF0CB010BD0000000400405A
:102BC000E808002010B58CB024216846FDF7A2FB70
:102BD00000241648099414490A94C0E900144FF4DB
:102BE0005251C0E90241046184610320CDE900042F
:102BF0000120CDE902040494CDE90540079469461B
:102C00000A480894FEF7D5FD08B1FDF7FEFE0994C9
:102C100009A906480A94FEF703FD002801D0FDF734
:102C2000F4FE0CB010BD0000000800402809002090
:102C300010B58CB024216846FDF76CFB00241648C3
:102C4000099414490A94C0E900144FF45251C0E9A0
:102C50000241046184610320CDE900040120CDE933
:102C600002040494CDE90540079469460A48089493
:102C7000FEF79FFD08B1FDF7C8FE099409A90648B3
:102C80000A94FEF7CDFC002801D0FDF7BEFE0CB083
:102C900010BD0000000C0040680900201CB5002495
:102CA0000E4800940C49019401605321C0E90114BD
:102CB00042F20F718461C160FEF7FAFC08B1FDF7C2
:102CC000A4FE0094694605480194FEF7A9FC00287B
:102CD00001D0FDF79AFE1CBD00100040A80900209D
:102CE00010B588B01C216846FDF714FB164815493D
:102CF0000024016040F61F51C0E9011440F2E731A1
:102D0000C0E903148461FFF72EF808B1FDF77DFEDA
:102D10006020CDE900040294002269460A48049428
:102D2000FEF7B9FF08B1FDF770FE042269460648B8
:102D3000FEF7B1FF08B1FDF768FE0348FEF716FF86
:102D400008B010BD00400140E80900200C4810B553
:102D50000A4901604FF4E1314160002181600C2299
:102D6000C160C0E904128161C161FFF70DF900285B
:102D700003D0BDE81040FDF748BE10BD004C004038
:102D8000680B00200C4810B50A4901604FF4E1318E
:102D90004160002181600C22C160C0E904128161A0
:102DA000C161FFF7F1F8002803D0BDE81040FDF73E
:102DB0002CBE10BD00500040A80B00200C4810B5E0
:102DC0000A4901604FF4E1314160002181600C2229
:102DD000C160C0E904128161C161FFF7D5F8002824
:102DE00003D0BDE81040FDF710BE10BD001001403B
:102DF000E80B00200C4810B50A4901604FF4E1319E
:102E00004160002181600C22C160C0E9041281612F
:102E1000C161FFF7B9F8002803D0BDE81040FDF705
:102E2000F4BD10BD00440040280C00200C4810B533
:102E30000A4901604FF4E1314160002181600C22B8
:102E4000C160C0E904128161C161FFF79DF80028EB
:102E500003D0BDE81040FDF7D8BD10BD00480040CC
:102E6000680C00200C4810B50A4901604FF4E131AC
:102E70004160002181600C22C160C0E904128161BF
:102E8000C161FFF781F8002803D0BDE81040FDF7CD
:102E9000BCBD10BD00140140A80C0020FEE70000DE
:102EA000024A136881400B4313607047140C0240C0
:102EB000FEE7000010B50023104A15E0362809D0BF
:102EC00039280BD03C2812D054783F2813D044F036
:102ED000800406E0547844F0010402E0547844F0A1
:102EE0000204401C54705B1C8B42E7D310BD547825
:102EF00044F00804F5E744F00404F2E70000002081
:102F00008AB2014664230148FFF73ABA280C002030
:102F1000044C206880F400502060642001F080FAA6
:102F2000F7E700001408024010B5502080F3118824
:102F3000BFF34F8FBFF36F8F02F076FA18B10449D9
:102F40004FF080500860002080F3118810BD000011
:102F500004ED00E030B593B030216846FDF7DAF9B2
:102F600014210CA8FDF7D6F91D480025016841F091
:102F700080510160006800F080501190194801688C
:102F800041F4804101600068022400F48040119007
:102F90000120039010200490009406940820CDE9AD
:102FA0000750A820CDE9090404200B906846FEF7DD
:102FB0005DF908B172B6FEE70CA90F2081E8310077
:102FC0004FF4A0500F904FF48050109005210CA8A2
:102FD000FEF742F8002801D072B6FEE713B030BD0C
:102FE00040380240007000400548016841F470011B
:102FF000016003494FF000608039086070470000AD
:1030000088ED00E00148FEF7FEBC0000A8080020A3
:103010000148FEF7F8BC0000E80800200148FEF770
:10302000F2BC0000280900200148FEF7ECBC0000BB
:10303000680900200148FEF7E6BC0000A80900204E
:103040000148FEF7E0BC0000080E0020F0B5026861
:10305000254C264D264E274F274B4FF0804CA04243
:1030600009D0604507D0A84205D0B04203D0B8428D
:1030700001D0984204D122F0700E4A6842EA0E0252
:10308000A0421BD0604519D0A84217D0B04215D03D
:10309000B84213D0984211D0184DA8420ED0184D06
:1030A000A8420BD0174DA84208D0174DA84205D012
:1030B000164DA84202D0164DA84203D122F4407505
:1030C000CA682A434D6922F080022A4302608A6856
:1030D000C2620A688262A04201D0984201D10969A5
:1030E000016301214161F0BD000001400004004086
:1030F00000080040000C0040000401400040014076
:10310000004401400048014000180040001C0040FD
:103110000020004010B501F01F030121046A99400E
:103120008C430462016A9A401143016210BD0000A1
:10313000F0B5026A22F001020262036A4268846901
:10314000124E24F073050C682C4323F002058B68A3
:103150002B430D4DA84201D0B04205D123F0080702
:10316000CB683B4323F00403A84201D0B04205D111
:103170004D6922F4407215438A692A434260846192
:10318000496841630362F0BD000001400004014052
:10319000F0B5026A22F010020262026A4368846992
:1031A0000D6824F4E64444EA05248D6822F02002E8
:1031B00042EA05120F4D104EA84201D0B04206D18E
:1031C000CF6822F0800242EA071222F04002A842B1
:1031D00001D0B04207D14D6923F4406343EA85032F
:1031E0008D6943EA850343608461496881630262B3
:1031F000F0BD00000000014000040140F0B5026A8B
:1032000022F480720262026A4368C46922F4007286
:1032100024F073050C68124E2C438D6842EA052297
:103220000E4DA84201D0B04206D1CF6822F4006210
:1032300042EA072222F48062A84201D0B04207D1BC
:103240004D6923F4405343EA05138D6943EA05139E
:103250004360C4614968C1630262F0BD000001407F
:103260000004014030B5026A22F480520262046A0E
:103270004268C3690D6823F4E64343EA05238D6879
:1032800024F4005444EA0534084DA84202D0084D05
:10329000A84204D14D6922F4804242EA851242607C
:1032A000C36149680164046230BD00000000014050
:1032B000000401400148FEF7DDBD0000680B00205E
:1032C0000148FEF7D7BD0000A80B002010B5806BA9
:1032D0000021C185C184FEF7CCFD10BD70B5846BA3
:1032E0002068406994F83910C0F3C01000252129E6
:1032F00004D118B1E584204600F062F820684069E6
:1033000094F83A10C0F38010222904D118B1E58551
:10331000204600F047F8E06B40F01000E0632046E4
:10332000FEF7A7FD70BD10B50146806B09680968FE
:10333000C90513D40021C1850168CA6822F48072CE
:10334000CA6001684A6922F001024A6101684A695B
:1033500022F040024A61202180F83A10FFF70EF86F
:1033600010BD10B5806BFFF70AF810BD10B501460F
:10337000806B09680968C9050CD40021C184016803
:103380004A6922F080024A610068C16841F0400148
:10339000C16010BDFFF792F810BD10B5806BFFF74C
:1033A0008EF810BD0168CA6822F49072CA60016884
:1033B0004A6922F001024A61202180F83A107047E0
:1033C0000168CA6822F0C002CA60202180F8391062
:1033D000704710B590F83A10222901D0022010BD94
:1033E0008168B1F5805F11D00169002901681FD0A3
:1033F000496801F07F03816A4A1C82620B70C18DAB
:10340000491E0904090CC18518D02BE00269816AA4
:10341000002A0268526805D0D2B20A80816A491C2B
:103420008162ECE7C2F308020A80816A891CF7E72F
:103430004A68816A4B1C83620A70E0E70168CA68C7
:1034400022F02002CA600168CA6822F48072CA6051
:1034500001684A6922F001024A61202180F83A108D
:10346000FEF78CFF002010BD2DE9F04104460068F6
:103470000169E26821F44051114301612169A068AA
:10348000E26908436169114308432168CA6849F247
:103490000C639A430243CA6020684169A26921F41F
:1034A000407111434161E069192764253226B0F566
:1034B000004F354A354920684FF0000806D0884251
:1034C00001D0904236D1FDF791FE35E0884201D01F
:1034D000904202D1FDF78AFE01E0FDF777FE6168B8
:1034E0004A18A0FB070148EB0803FCF7C9FE014698
:1034F000B0FBF5F00201B1FBF5F06FF01803584393
:1035000001EB800006EBC000B0FBF5F000F0F80026
:1035100002EB4002B1FBF5F0584301EB800006EBF3
:10352000C000B0FBF5F000F007002168104488608F
:10353000BDE8F081FDF74AFE61688B0F8A00A0FBB1
:103540000701FCF79DFE0146B0FBF5F06FF0180295
:10355000504301EB800006EB0010B0FBF5F000F0EB
:10356000F002B1FBF5F002EB0012B1FBF5F06FF0E9
:103570001803584301EB800006EB0010B0FBF5F098
:1035800000F00F00D1E700000014014000100140DE
:1035900090F83910212901D0022070478168B1F5D7
:1035A000805F016A0BD04A1C026202680978516090
:1035B000C18C491E0904090CC1840ED017E009888A
:1035C0000268C1F30801516001690029016A02D053
:1035D000491C0162ECE7891CFBE70168CA6822F01C
:1035E0008002CA600068C16841F04001C1600020EB
:1035F00070472DE9F041984617460E460446069D51
:103600001DE0681C1BD02DB1FDF768FCA0EB080085
:10361000A84214D92068C16821F4D071C160206823
:10362000416921F001014161202084F8390084F8CA
:103630003A00002084F838000320BDE8F0812068BB
:10364000006836EA000004D00020B842D9D000203B
:10365000F3E70120F9E700000148FEF70BBC00008A
:10366000E80B00200148FEF705BC0000280C0020F4
:103670000148FEF7FFBB0000680C00200148FEF780
:10368000F9BB0000A80C0020FEE7000018B10349B8
:103690008861002070476FF005007047000000202F
:1036A000032802D96FF005007047034A10621170B9
:1036B0000020D061704700000000002018B10349CD
:1036C0004861002070476FF005007047000000203F
:1036D0002DE9FC413B4C6169002955D03A49E2692A
:1036E0008854521CE261206A002630B101282FD094
:1036F000022865D0032860D162E00878552804D0FC
:10370000521E3148491CE2613CE00B2A55D30A2580
:103710002D4F00204FEA000317F803C05B1C6044E4
:10372000C0B2AB42F8D38B7A8342E9D14888ADF876
:1037300000008888ADF80200C888ADF80400088948
:10374000ADF80600487804226946FDF781F837E0B5
:10375000022A32D948780328D2D18878401D904275
:1037600012D888180D4630F8020C921E47BA91B252
:10377000154800F05BF8874208D0E269691C521EC8
:103780001148E261FCF7ADFDBDE8FC81A8780F4B64
:1037900042080021606A0AE005EB410701EB000CDA
:1037A000B7F80370491C7FBA23F81C7089B29142A4
:1037B000F2D311466269904702E0B2F5807FE3D10F
:1037C000E661E1E70000002016010020160200205B
:1037D00018B103494860002070476FF0050070473A
:1037E000000000200FB4054B10B503A9044A02984D
:1037F00000F014F910BC5DF814FB0000154200083D
:10380000E00000200FB4084B10B504A902AA0398E9
:1038100000F004F9044602A9002000F096FC2046BE
:1038200010BC5DF814FB00004B410008F0B5FF230D
:10383000084E1C46002206F5807705E0855C5D4059
:10384000735D63407C5D521C8A42F7DB44EA0320CF
:10385000F0BD0000BC5600080907090E002804DB73
:1038600000F1E02080F80014704700F00F0000F134
:10387000E02080F8141D704702E008C8121F08C13C
:10388000002AFAD170477047002001E001C1121FE1
:10389000002AFBD1704700002DE9FF5F82B00021B4
:1038A000DDE90430020DDDF840B0034318D044F6E2
:1038B0001050A2F2FF3242431514119801281FD074
:1038C000A5EB0B00401C5FEA000A4FF000064E4FCC
:1038D000DFF83891B046504615D5CAF1000413E020
:1038E000119801244AA3012801D16FEA0B01029823
:1038F000119AC0E90031C0E9024206B0BDE8F09F6C
:10390000CBF10000DFE704460021404A491842EBB2
:103910000450CDE9001012E0E00707D032463B46E4
:1039200040464946FCF700FE8046894632463B4603
:1039300010461946FCF7F8FD06460F466410002CA9
:10394000EAD1DDE90401DDE90023BAF1000F06DA6E
:10395000FCF7EAFD42464B46FCF7E6FD05E0FCF7C6
:1039600055FE42464B46FCF751FE04460E460022E9
:10397000284BFCF7D3FE03D84FF0FF30014607E099
:103980000022254B20463146FCF727FDFCF7ADFE13
:10399000102409E0002C0ADB0A220023FCF770FC4B
:1039A000039B30321A55641E50EA0102F2D1641CA6
:1039B000039AC4F111031444119A012A03D001227D
:1039C00008430DD10AE0084304D000204FF0110B4A
:1039D000119072E7A3EB0B056D1E0DE05B4504DD56
:1039E0004FF0000205F1010504E003DA4FF0000298
:1039F000A5F10105002AECD002981199C0E9023125
:103A0000C0E9004579E70000000014400000F03FE5
:103A1000300000000000F0430000E03F2DE9FF4FC0
:103A200095B09B468946064600250FE2252877D1AA
:103A300000242746F84A0121059400E0044316F8C3
:103A4000013F203B01FA03F01042F7D130782A28D9
:103A500011D06FF02F033078A0F13002092A16D868
:103A6000059A44F0020402EB820203EB4202104486
:103A7000761C0590EFE759F8042B0592002A03DA2B
:103A8000504244F40054059044F00204761C30780F
:103A90002E2816D116F8010F44F004042A280DD060
:103AA0006FF02F023078A0F13003092B09D807EB13
:103AB000870302EB4303C718761CF3E759F8047B2E
:103AC000761C30786C280FD006DC4C2817D068287C
:103AD0000DD06A2814D104E0742810D07A280FD1B0
:103AE0000DE044F400140AE044F4801401E044F4CE
:103AF00040147278824202D104F58014761C761C40
:103B0000307866280BD013DC582877D009DC0028E1
:103B100075D04528F6D04628F4D047281AD19DE123
:103B200018E0632835D0642879D0652812D195E152
:103B3000702873D008DC6728F1D069286FD06E2810
:103B40000DD06F2806D1B5E073282CD0752875D01C
:103B5000782874D05A46179990476D1C75E1C4F3C4
:103B60000250022809D003280DD0D9F800100428EB
:103B70000DD00D6009F1040967E1D9F80010EA17CA
:103B8000C1E90052F6E7D9F800100D80F2E70D7098
:103B9000F0E719F8041B8DF8001000208DF80100E3
:103BA000EA46012003E059F804AB4FF0FF3061070B
:103BB0004FF0000102D40DE008F101018846B9423E
:103BC0000FDA8045F8DB1AF808100029F4D108E074
:103BD00008F1010188468142FADB1AF80810002931
:103BE000F6D105985B46A0EB080721463846179AA0
:103BF00000F094FA284400EB080507E04DE029E1C5
:103C00000DE01AF8010B5A4617999047B8F10108D0
:103C1000F7D25B4621463846179A13E142E00A2262
:103C20000092C4F302524FF0000A022A08D059F859
:103C300004CB032A4FEAEC710AD00DE029E02AE018
:103C400009F1070121F00702F2E802C1914609E0FB
:103C50000FFA8CFC4FEAEC71042A03D14FFA8CFC6A
:103C60004FEAEC71002907DA0A460021DCF1000C6A
:103C700061EB02012D2202E0220504D52B228DF8F2
:103C80000420012203E0E20701D02022F7E790465A
:103C900059E00A2102E010220DE010214FF0000A45
:103CA00000910BE010224FF0000A44F004040827B2
:103CB000009203E008224FF0000A0092C4F302527F
:103CC000022A05D059F804CB0021032A08D009E0C4
:103CD00009F1070121F00702F2E802C1914605E06F
:103CE0001FFA8CFC042A01D10CF0FF0C4FF00008E5
:103CF000220728D5702806D0009B83F0100353EAD2
:103D00000A0305D00EE040228DF80420012208E0CD
:103D10005CEA010206D030228DF804208DF80500FF
:103D200002229046009B83F0080353EA0A030AD15B
:103D30005CEA010201D1620705D530228DF804202A
:103D40004FF001087F1E582804D034A003900EA81D
:103D500002900DE036A0F9E753466046009AFCF762
:103D60008FFA84460398825C0298401E029002708B
:103D70005CEA0100F0D1029806A9081A00F1200AB5
:103D8000600702D524F4803400E00127574502DDA6
:103D9000A7EB0A0000E0002000EB0A010090059864
:103DA0004144401A0590E00306D45B462146179A29
:103DB000059800F0B3F90544002706E001A85A462B
:103DC000C05D179990476D1C7F1C4745F6DBE003EB
:103DD0000CD55B462146179A059800F09FF90544DB
:103DE00004E030205A46179990476D1C0099481EF0
:103DF00000900029F5DC08E0029802995A46007804
:103E0000491C0291179990476D1CBAF10001AAF163
:103E1000010AF1DC65E1000009280100303132338C
:103E200034353637383961626364656600000000F6
:103E300030313233343536373839414243444546E0
:103E40000000000000F058F90544761C3078002886
:103E50007FF4ECAD19B02846BDE8F08F620700D4BE
:103E6000062709F1070222F0070CFCE80223E146CD
:103E700003F000485FEA080C02D00FF2702C0DE04E
:103E80005FEA045C02D50FF2682C07E05FEAC47CAD
:103E900002D00FF2602C01E0AFF2700C4FF0FF384F
:103EA00023F00043CDF850C065280CD006DC45282F
:103EB00009D046281DD047283DD13DE0662818D0BE
:103EC00067287ED138E00021112F01DB112000E0AE
:103ED000781CCDE9000106A90EA8FFF7DDFCDDE99D
:103EE0000F010E9A03910021009207F1010A04913B
:103EF0004DE04FF000400097CDE9011006A90EA853
:103F0000FFF7CAFCDDE90F0203920E9B1199002214
:103F1000DDF80CA00093049211B9791C00EB010AA2
:103F2000B7EB0A0004D4C0F1FF3007F1010A049096
:103F3000AAEB0700019044E0012F00DA01270021DD
:103F4000112F01DD112000E03846CDE9000106A95E
:103F50000EA8FFF7A1FCDDE90F010E9A03910021E5
:103F600004910092BA4621070CD40399514500DA16
:103F70008A46BAF1010F05DD009AAAF10101515CF0
:103F8000302908D0B84202DA10F1040F06DA012114
:103F9000CDE9011015E0AAF10101E9E7002805DCEF
:103FA000049901440491AAEB000102E0411C51452F
:103FB00000DD8A460499401A401C01904FF00040F1
:103FC0000290200704D40198504501DBCDF804800D
:103FD00000208DF84F0002980DF14F07B0F1004F0F
:103FE00025D02B200E9002984FF0020800280CDA02
:103FF000404202902D200E9007E00A210298FCF723
:10400000B7F93031029007F8011DB8F10001A8F1AD
:104010000108F2DC02980028EFD1791E0E98087092
:10402000307800F0200040F0450007F8020D12A89B
:10403000C01B00F107081498007800B1012000EBC4
:104040000A01019801EBE07105984144401A401EB5
:104050000590E00306D45B462146179A059800F0C8
:104060005DF805441498007818B15A46179990479E
:104070006D1CE00324D55B462146179A059800F095
:104080004DF805441CE00498002807DBDDE9030136
:10409000884203DD0098405C179901E017993020B1
:1040A0005A469047049805F10105401C0490019878
:1040B000401E019004D12E205A46179990476D1C3E
:1040C000BAF10001AAF1010ADDDC05E017F8010BE5
:1040D0005A46179990476D1CB8F10001A8F10108E4
:1040E000F4DC5B462146179A0598ABE62D000000EC
:1040F0002B000000200000002DE9F04104460025BF
:104100001E461746880404D405E039462020B047EF
:104110006D1C641EF9D52846BDE8F0812DE9F041FB
:10412000044600251E469046C80301D5302700E00E
:104130002027880404D505E041463846B0476D1C69
:10414000641EF9D52846BDE8F0810A68531C0B604F
:104150001070704710B5002145F2082405E0224692
:1041600002235B1C9342FCD3491C8142F7D310BD50
:1041700094B0214C0FAF4FF47A7B00BF94F830001D
:1041800018B91E490FA8FCF7D7F8A06AFCF7DDF8AC
:1041900005460E46606AFCF7D8F881468A46206AD2
:1041A000FCF7D3F80A460146D4E906C0E368CDE936
:1041B0000C30CDF82CC00E97D4E9013CD4E90408AA
:1041C000CDE90703CDE9098C20680495CDE90560A8
:1041D0008DE80606E38DA28D09490A48FFF712FB18
:1041E0000848FCF7A2F882B206490748FEF726F90C
:1041F000584600F015F9C1E7E005002060000020F6
:104200002C5A000838030020E80B0020012000F0A1
:1042100007F9FBE713B56423012269460248FEF75C
:10422000AFF800981CBD0000E80B00200C4C0D4DB1
:104230000026206900040FD40A2000F0F1F820695C
:10424000000409D420690004FCD507A0FFF7CAFACE
:104250002E616E61AE61EE61012000F0E1F8E8E7E9
:1042600000000240E0050020B0B4BCFCB4A5B7A239
:104270000A0000004FF47A74204600F0D1F8FBE702
:10428000FCF73AFEFEF766FEFEF742FAFEF762F929
:10429000FEF794FDFEF7AEFDFEF7C2FBFEF728FC2D
:1042A000FEF75AFCFEF78EFCFEF7C2FCFEF7F6FCAA
:1042B000FEF716FDFEF7AEFAFEF7E0FAFEF712FB88
:1042C000FEF746FBFEF778FBFEF740FDFEF75AFDD2
:1042D000FEF7ACFDFEF7C6FD00F058F84FF4FA7497
:1042E0002146082000F0C4FB21460A2000F0C0FB54
:1042F00021460C2000F0BCFB21460E2000F0B8FB4C
:104300001148016841F42A41016000F04BFB0F485D
:10431000FDF73EFA0EA0FFF765FA50210020FFF7E7
:10432000BFF91048FFF754FA0F48FFF7C7F90F48D5
:10433000FFF7ACF964220E490E48FDF7D3FFFEF7F4
:1043400037F900F074F8FEE7140C0240A8090020C9
:10435000425350B3F5CABCBBAFB3C9B9A6210A0AD0
:1043600000000000012F0008B52E0008070A000811
:1043700090050020280C002001460020842900D050
:10438000C81C7047012000F04BF8FBE710B53C213A
:104390001C48FDF71DFB1B480068C16841F0010186
:1043A000C1603C211848FDF713FB17480068C1683D
:1043B00041F00101C1603C211448FDF709FB13489D
:1043C0000068C16841F00101C1603C211048FDF75F
:1043D000FFFA0F480068C16841F00101C160002187
:1043E0000C48FDF70DFD04210A48FDF709FD0821E1
:1043F0000848FDF705FDBDE810400C210548FDF714
:10440000FFBC0000A8080020E808002028090020C0
:104410006809002068080020012000F001F8FBE78F
:1044200010B500B9012000F067FC002010BD10B5E8
:1044300000F002FD002010BD7FB50D460446416925
:10444000B0F9080081B1A16971B1FFF795FFD4E916
:1044500005128DE80700D4E900102B46226900F010
:10446000AAFF039004B070BDFFF786FF03A9CDE952
:104470000001208A2B4682B2D4E9001000F06EFFC2
:10448000012801D00020EDE70398EBE70120FFF7BA
:10449000C7FFFBE72DE9F041184C0F46054666695A
:1044A0002068001D00F03AFB38B9206890F82C1005
:1044B00001208840A1698143A161681C07D137B1FF
:1044C0002168BDE8F0410E48091D00F06BBB206873
:1044D0003544B5424560216805D2A068BDE8F04189
:1044E000091D00F047BB6068091D00F043FB206B0D
:1044F000854200D22563BDE8F081000080000020E5
:10450000240F00202DE9F041054600F057FB2E4C0A
:104510002069401C206120682C4F10B1E06940B335
:104520002DE025602069012829D1002606EB8600B0
:1045300007EB800000F010FB761C072EF6D3234813
:104540008C3000F009FB2148A03000F005FB1F482B
:10455000B43000F001FB1D48C83000F0FDFA1B48E4
:10456000DC3000F0F9FA19488C3060601430A0603B
:1045700005E02068E96AC06A884200D82560E06AE0
:10458000401CE062E96A0120A26988401043A061F2
:1045900001EB810007EB8000291D00F003FB00F018
:1045A0002DFBE06900280CD02068E96AC06A8842C7
:1045B00007D207494FF080500860BFF34F8FBFF319
:1045C0006F8FBDE8F081000080000020480E0020C1
:1045D00004ED00E010B5044690F8510058B10128F0
:1045E0000CD002280FD0502080F31188BFF34F8FDA
:1045F000BFF36F8FFEE7206B00F014FB2046BDE891
:10460000104000F00FBB10BD10484FF4705142072E
:1046100006D0C01D0D4920F00700411AC1F57051A8
:104620000B4A00230144C2E900030839103A21F083
:10463000070111604B600B600B1AC0E90013936017
:104640004FF000405360D06070470000380F0020EA
:10465000CC000020144E154CA6F1C8074FF080582E
:10466000DFF84C9012E000BF00F0A8FAF068C568CF
:10467000281D00F053FA2069401E2061E068401EAA
:10468000E06000F0BBFA2846FFF7A4FFE0680028CE
:10469000EAD138680128F9D9C9F80080BFF34F8FF3
:1046A000BFF36F8FF2E70000100F002080000020A2
:1046B00004ED00E00346009829B10260C0E90F3123
:1046C000012100F0C3BC0060F8E72DE9F0479A46ED
:1046D000DDE9098481466FF00303206B03EB82025E
:1046E0001044089E20F00707780707D0502080F379
:1046F0001188BFF34F8FBFF36F8FFEE7002561B1C5
:10470000002023180A5C83F834200A5C12B1401C94
:104710001028F6D384F8435001E084F83450072E73
:1047200000D30626E662C4E91165201D00F01FFAD9
:1047300004F1180000F01BFA2461C6F1070064625E
:10474000A061E56484F8505052464946384600F06E
:104750000FF92060B8F1000F01D0C8F80040BDE8A3
:10476000F087000030B5114900E011460A68824226
:10477000FBD34B685C18844203D1406818444860FE
:10478000084643681C18944209D1084C103C246820
:10479000A24209D052681A4442600A681268026054
:1047A000814200D0086030BD0460F9E7CC000020F1
:1047B00010B5044600F002FAA06B28B15FF00004C7
:1047C00000F01CFA204610BD0124F9E706484168B4
:1047D000096829B14168C968C968496801637047B7
:1047E0004FF0FF31FAE700008000002008484068E1
:1047F000401C4FF0500080F3118804D0BFF34F8F5E
:10480000BFF36F8FFEE7BFF34F8FBFF36F8FFEE7EE
:10481000D40000202DE9F041044600F0CFF994F9CE
:10482000455004F1240609E0606A48B1304600F0C2
:10483000A9FE08B100F08EFA6D1E6DB2002DF3DCFA
:104840004FF0FF3684F8456000F0D8F900F0B6F973
:1048500094F9445004F1100709E0206948B1384642
:1048600000F090FE08B100F075FA6D1E6DB2002DDB
:10487000F3DC84F84460BDE8F04100F0BFB900000B
:104880002DE9F0410546002700F00CFB314E306861
:1048900008B9FFF7B9FEF06805424BD1C5B308353A
:1048A00068070ED005F00700C0F10800054468074E
:1048B00007D0502080F31188BFF34F8FBFF36F8F65
:1048C000FEE72DB37068854234D822481030014687
:1048D0000C6801E020460C466168A94202D22168BA
:1048E0000029F7D131688C4224D007682168016023
:1048F00060680837411B10290FD96019420708D09A
:10490000502080F31188BFF34F8FBFF36F8FFEE706
:1049100010E041606560FFF725FF61687068401A2C
:104920007060B268904200D2B060F068014300202D
:10493000C4E9000100F060FE780707D0502080F342
:104940001188BFF34F8FBFF36F8FFEE73846BDE886
:10495000F0810000BC0000200449086818B1086814
:10496000826C521C8264086870470000800000203E
:1049700010B5031F4FF080741C601B1F21F0010154
:104980001960191F044B0B6014390A60091F6FF07E
:10499000020244380A6010BDED4700080120FFF70D
:1049A0003FFDFBE710B500210E48FDF729FA042171
:1049B0000C48FDF725FA00210B48FDF721FA0021EC
:1049C0000A48FDF71DFA00210948FDF719FA0421EC
:1049D0000748FDF715FA5A21BDE810403F2000F0C6
:1049E00009B80000E8090020280A0020680A002011
:1049F000A80A002000EE101ADFED150A9FED151A27
:104A0000B8EE400A144AC30760EE200A80EE810A1D
:104A1000F3EE090A30EE200ABCEEC00A10EE101ABE
:104A200089B200D05163830700D59163420701D555
:104A30000A4A1160020701D5094A1160C20601D570
:104A4000084A1160800602D50648001D01607047C3
:104A50000000C8420000344300400140344401409B
:104A600034480140341800400120FFF7D9FCFBE72F
:104A700030B50C1E054601DD022103E001DA0121FB
:104A800000E00321FEF70CFA61420E4A082D0AD01D
:104A90000A2D0DD00C2D10D00E2D03D1002C00DCD2
:104AA0000C46146430BD002C00DC0C46546330BD51
:104AB000002C00DC0C46946330BD002C00DC0C465E
:104AC000D46330BD000001404FF08042516A0D4870
:104AD000A1F5D25101604FF4D25151620A4A1368D4
:104AE000A3F5D25343601160084A1368A3F5D2536B
:104AF00083601160064A1368A3F5D253C360116046
:104B000070470000E0050020240400402408004015
:104B1000240C00400120FFF783FCFBE7D0E90132C1
:104B200001699A60D0E901235A604A68824201D142
:104B300082684A60002202610868401E08600868B6
:104B400070470000034B036003F1540008608020AD
:104B5000106070471406002000F108014FF0FF328A
:104B6000C0E90112C16001610021016070470021AC
:104B70000161704730B50B685A1C02D000F1080281
:104B800002E0026904E02246546825689D42FAD991
:104B900053684B6099608A60516008610168491CE4
:104BA000016030BD42684A6093688B6093685960C9
:104BB000916008610168491C01607047502080F3D2
:104BC0001188BFF34F8FBFF36F8F0A494868401CAD
:104BD000486001280CD10848006810F0FF0F07D08A
:104BE000502080F31188BFF34F8FBFF36F8FFEE724
:104BF00070470000D400002004ED00E00849486838
:104C000028B1401E486001D180F3118870475020C0
:104C100080F31188BFF34F8FBFF36F8FFEE7000063
:104C2000D400002070B5002827D0144DA0F108044E
:104C30006168E868014207D1502080F31188BFF312
:104C40004F8FBFF36F8FFEE722683AB1502080F399
:104C50001188BFF34F8FBFF36F8FFEE78143616011
:104C600000F020F960686968084468602046FFF732
:104C700079FDBDE8704000F0BFBC70BDBC000020F5
:104C80004FF0E02000210161816105494FF47A7203
:104C90000968B1FBF2F1491E4161072101617047CA
:104CA0007C00002010B5FBF7D5FA114910280ED36F
:104CB00000F1E02090F8F0030A78904207D25020EB
:104CC00080F31188BFF34F8FBFF36F8FFEE7094862
:104CD0000068896800F4E060884207D9502080F3BA
:104CE0001188BFF34F8FBFF36F8FFEE710BD000039
:104CF000D40000200CED00E010B5020014D00F48E5
:104D0000806B38B1502080F31188BFF34F8FBFF311
:104D10006F8FFEE700F0C6F800211046FFF7BAFBE0
:104D200000F06AFC002807D105494FF08050086068
:104D3000BFF34F8FBFF36F8F10BD000080000020C6
:104D400004ED00E002498A6A0260496941607047E7
:104D50008000002001490120486270478000002047
:104D600010B50C4650B1094909681831FFF702FF28
:104D70002046BDE810400121FFF78CBB502080F396
:104D80001188BFF34F8FBFF36F8FFEE780000020C5
:104D900070B504004BD0A26CA2B1606C884200D305
:104DA0000146E06A884242D0012A40D1204D2A685B
:104DB00094420FD1502080F31188BFF34F8FBFF37F
:104DC0006F8FFEE7502080F31188BFF34F8FBFF342
:104DD0006F8FFEE7E162A269002A02DBC1F10701E1
:104DE000A161144E00EB8000616906EB80008142F6
:104DF0001DD1201DFFF792FE012150B9E06A00EBA2
:104E0000800256F8222022B9AA6901FA00F08243F2
:104E1000AA61E06AAA6981401143A96100EB8000A0
:104E200006EB8000211DBDE87040FFF7BBBE70BDE2
:104E300080000020480E002010B586B000240394A6
:104E400005AA04A903A80494FFF77CFEDDE9030189
:104E50000094CDE9011000230EA11048059A00F03E
:104E6000AAFA0F490028486311D0502080F3118816
:104E7000BFF34F8FBFF36F8F4FF0FF3008630120F8
:104E8000C8614C6106B0BDE8104000F041B806B002
:104E900010BD000049444C45000000005546000884
:104EA000800000200248816B491C8163704700002C
:104EB000800000201448816B11B1012141627047CC
:104EC000002141628169B1FA81F1C1F11F0101EB59
:104ED00081020E4951F822306BB101EB820101F1E0
:104EE00008034A6852684A609A4201D152684A608F
:104EF000D16801607047502080F31188BFF34F8F55
:104F0000BFF36F8FFEE7000080000020480E0020F6
:104F10001CB537480168374A914207D1502080F3C9
:104F20001188BFF34F8FBFF36F8FFEE700683149E1
:104F3000491E884207D1502080F31188BFF34F8F5C
:104F4000BFF36F8FFEE72C4908780190FF200870AF
:104F500008788DF800009DF800009DF8002000F012
:104F6000F000904207D0502080F31188BFF34F8F9C
:104F7000BFF36F8FFEE79DF80000204B00F050005C
:104F800018700720986005E09DF8002052008DF809
:104F90000020401E9DF800201206F5D498600328DA
:104FA00007D0502080F31188BFF34F8FBFF36F8F6E
:104FB000FEE74FF440709860019808700C4820306C
:104FC000016841F470010160016841F070410160C5
:104FD000FFF756FE00205860FBF704F90848016807
:104FE00041F040410160FBF7E9F800201CBD0000E2
:104FF00000ED00E071C20F4100E400E0D4000020A9
:1050000034EF00E0F8B517460E46050014D0DEB1C7
:1050100005FB06F04830FFF733FC04000AD00020FF
:1050200084F8460004F148023B4631462846009485
:10503000FFF740FB2046F8BD502080F31188BFF3F6
:105040004F8FBFF36F8FFEE70020E3E770B50D468B
:10505000040025D0FFF7B2FDD4E90F20216802FB40
:105060000011A1600021A163216861600A46D4E9B2
:105070000F01401E00FB0121E16021464FF0FF308F
:1050800001F8440F487004F110008DB1FFF764FD82
:1050900004F12400FFF760FDFFF7B0FD012070BDB3
:1050A000502080F31188BFF34F8FBFF36F8FFEE75F
:1050B00021690029F0D000F065FA0028ECD00449FD
:1050C0004FF080500860BFF34F8FBFF36F8FE3E75F
:1050D00004ED00E070B50E46040009D0206C78B1F4
:1050E000502080F31188BFF34F8FBFF36F8FFEE71F
:1050F000502080F31188BFF34F8FBFF36F8FFEE70F
:10510000206848B9A06838B1502080F31188BFF3F7
:105110004F8FBFF36F8FFEE7FFF7C4FD5020EFF313
:10512000118580F31188BFF34F8FBFF36F8FA16B91
:10513000E06B884218D994F94500491CA163411CD1
:1051400004D0401C84F8450001200EE0606A00286D
:10515000FAD004F1240000F015FA0028F4D0002E53
:10516000F2D001203060EFE7002085F3118870BD98
:105170002DE9F343002683B00400354609D0206CA6
:1051800078B1502080F31188BFF34F8FBFF36F8F3A
:10519000FEE7502080F31188BFF34F8FBFF36F8F6E
:1051A000FEE700F033F9DFF83C814FF000094FF0E3
:1051B000805748B9049838B1502080F31188BFF364
:1051C0004F8FBFF36F8FFEE7FFF7F8FCA06BC8B1FE
:1051D000401EA063206810B9FFF7BEFBA0602069E5
:1051E00050B104F1100000F0CDF928B1C8F80070FA
:1051F000BFF34F8FBFF36F8FFFF700FD012005B0A6
:10520000BDE8F083049808B166B10FE03DB15020CD
:1052100080F31188BFF34F8FBFF36F8FFEE7FFF767
:10522000EDFC5DE06846FFF78DFD0126FFF7E6FC2B
:10523000FFF738FEFFF7C2FC94F94400401C01D18F
:1052400084F8449094F94500401C01D184F84590BD
:10525000FFF7D4FC04A9684600F046F80028204671
:1052600012D0FFF7D7FA00F0C7F92046FFF7A0FAEF
:105270000028A9D09DB3FFF7A1FC606A50B3206B52
:105280000068C0F1070126E0FFF792FAE0B120685C
:1052900038B9FFF793FCA06800F02AF90546FFF73C
:1052A000ADFC04F124000499FFF75AFD2046FFF7F6
:1052B000B1FA00F0A1F9002886D1C8F80070BFF358
:1052C0004F8FBFF36F8F7FE72046FFF7A3FA00F001
:1052D00093F979E70021A068FFF75AFD9FE7FFE700
:1052E00000208CE704ED00E02DE9F0410C460500BC
:1052F00011D0C4B1FFF762FC174B5A696E68206881
:10530000911B471C17D02F689B6A9F4219D0964269
:1053100017D8012410E0502080F31188BFF34F8F7D
:10532000BFF36F8FFEE7502080F31188BFF34F8FDC
:10533000BFF36F8FFEE70024FFF760FC2046BDE857
:10534000F081884205D9401A20602846FFF7FAFC10
:10535000F1E700202060DCE7800000202DE9FF5FFE
:105360008346DDE90E87994616468A469000FFF788
:1053700087FA05001CD05420FFF782FA040014D0ED
:105380000020256384F85100CDE90240CDE9008773
:105390004B46324651465846FFF797F92046FFF7ED
:1053A000B1F8012004B0BDE8F09F2846FFF73AFCB1
:1053B0004FF0FF30F6E7F0B585B0DDE90B640A9DEC
:1053C000A6B1DCB1542700972663022684F8516009
:1053D000002604AFCDE90246CDE90057FFF775F985
:1053E0002046FFF78FF8049805B0F0BD502080F3F9
:1053F0001188BFF34F8FBFF36F8FFEE7502080F30C
:105400001188BFF34F8FBFF36F8FFEE70548C16967
:1054100019B1806B18B1002070470120704702203D
:1054200070470000800000202DE9F0412E4C00273D
:10543000A06B40B1206A401C2062606A00B1012765
:105440003846BDE8F0816669761C666113D16068F4
:10545000006838B1502080F31188BFF34F8FBFF33D
:105460006F8FFEE76068A1686160A060A06A401C61
:10547000A062FFF7ABF9206BDFF87080864209D39A
:105480006068006880B16068C068C5686868864206
:105490000DD220632068C06A00EB800158F821001B
:1054A0000128CAD90127C8E74FF0FF30F1E7281DCE
:1054B000FFF734FBA86A18B105F11800FFF72EFBBF
:1054C000E86A0121A26981401143A16100EB8001DA
:1054D00008EB8100291DFFF765FBE86A2168C96AAE
:1054E0008842CDD30127CBE780000020480E002062
:1054F00070B504004FF0000038D0204DE16A2A68F2
:10550000D26A914233D2A069002804DB2868C06ABD
:10551000C0F10700A0611A4E01EB8101606906EB42
:10552000810188421ED1201DFFF7F8FA012150B9F0
:10553000E06A00EB800256F8222022B9AA6901FA3B
:1055400000F08243AA612868C06AE062AA698140CB
:105550001143A96100EB800006EB8000211DFFF7DD
:1055600021FB02E02868C06AE062012070BD616C26
:105570002A68D26A9142F8D370BD000080000020F2
:10558000480E00202DE9F041C068C468ACB104F1B8
:1055900018000746FFF7C2FA154DA86B0126A0B107
:1055A00039461448FFF7FEFAE06A2968C96A88425A
:1055B0001CD901206E62BDE8F081502080F3118873
:1055C000BFF34F8FBFF36F8FFEE7201DFFF7A6FAE3
:1055D000E16AAA6906FA01F01043A86101EB8100B3
:1055E0000449B43901EB8000211DDBE70020E2E72C
:1055F00080000020FC0E00202DE9F0472C4D0024F7
:105600002746A86B38B1FFF7D9FAA86B401EA863EC
:10561000A86B40B146E0502080F31188BFF34F8F54
:10562000BFF36F8FFEE72969224E0120D1B3A6F1A7
:10563000B40980463068E8B1F068C46804F1180025
:10564000FFF76CFA201DFFF769FAE06AAA6908FA09
:1056500000F11143A96100EB800109EB8100211DDC
:10566000FFF7A0FAE06A2968C96A8842E2D3C5F860
:105670002480DFE70CB1FFF7A9F82C6A44B1464655
:10568000FFF7D2FE00B16E62641EF9D100202862DD
:10569000686A38B10849012738070860BFF34F8F9F
:1056A000BFF36F8FFFF7AAFA3846BDE8F087000016
:1056B00080000020FC0E002004ED00E000C18140CD
:1056C00001C0804101C0804100C1814001C08041D2
:1056D00000C1814000C1814001C0804101C08041C2
:1056E00000C1814000C1814001C0804100C18140B2
:1056F00001C0804101C0804100C1814001C08041A2
:1057000000C1814000C1814001C0804100C1814091
:1057100001C0804101C0804100C1814000C1814081
:1057200001C0804101C0804100C1814001C0804171
:1057300000C1814000C1814001C0804101C0804161
:1057400000C1814000C1814001C0804100C1814051
:1057500001C0804101C0804100C1814000C1814041
:1057600001C0804101C0804100C1814001C0804131
:1057700000C1814000C1814001C0804100C1814021
:1057800001C0804101C0804100C1814001C0804111
:1057900000C1814000C1814001C0804101C0804101
:1057A00000C1814000C1814001C0804100C18140F1
:1057B00001C0804101C0804100C1814000C0C101E1
:1057C000C30302C2C60607C705C5C404CC0C0DCD71
:1057D0000FCFCE0E0ACACB0BC90908C8D81819D9E1
:1057E0001BDBDA1A1EDEDF1FDD1D1CDC14D4D51511
:1057F000D71716D6D21213D311D1D010F03031F101
:1058000033F3F23236F6F737F53534F43CFCFD3D30
:10581000FF3F3EFEFA3A3BFB39F9F83828E8E92920
:10582000EB2B2AEAEE2E2FEF2DEDEC2CE42425E5D0
:1058300027E7E62622E2E323E12120E0A06061A140
:1058400063A3A26266A6A767A56564A46CACAD6DF0
:10585000AF6F6EAEAA6A6BAB69A9A86878B8B97960
:10586000BB7B7ABABE7E7FBF7DBDBC7CB47475B590
:1058700077B7B67672B2B373B17170B05090915180
:105880009353529296565797559594549C5C5D9DB0
:105890005F9F9E5E5A9A9B5B9959589888484989A0
:1058A0004B8B8A4A4E8E8F4F8D4D4C8C4484854550
:1058B000874746868242438341818040505C00088E
:1058C000112F0008FDFF0000000000008000000014
:1058D00000000000000000008C5C00082D42000861
:1058E0000100000000000000800000000000000037
:1058F000000000000C5C000875420008FDFF00007D
:105900000000000080000000000000000000000017
:10591000F05B0008C5240008000000000000000043
:10592000000100000000000000000000405C0008D2
:1059300071410008FEFF00000000000000020000AE
:1059400000000000000000006C5C000885430008B7
:105950000100000000000000000100000000000045
:10596000000000007C5C0008154B000800000000EF
:105970000000000000020000000000000000000025
:10598000185C000819440008FEFF00000000000039
:105990008000000000000000000000005C5C0008C7
:1059A0009D49000801000000000000000001000007
:1059B0000000000000000000FC5B0008694A0008CD
:1059C0000200000000000000800000000000000055
:1059D00000000000245C00088D4400080200000064
:1059E00000000000000100000000000000000000B6
:1059F000305C00080D4200080200000000000000BA
:105A00000002000000000000000000000006101668
:105A10000006101600000000000000000102030450
:105A2000060708090000000001020304B3B5C9ED30
:105A3000CEBBD6C33A583A2564636D2020593A2527
:105A400064636D0A20202020202020202020202098
:105A50002020202020202020202020202020202046
:105A60002020200AB3B5C9EDD7B4CCAC3A20506998
:105A70007463683A252E3266202020526F6C6C3A8F
:105A8000252E3266202020205961773A252E326655
:105A90000A2020202020202020202020202020201C
:105AA00020202020202020202020202020202020F6
:105AB0000A2020202020202020202020CBC4C2D655
:105AC000D7AACBD93A2020202020C4BFB1EAD7AA38
:105AD000CBD93A2020202020202020202020202048
