:020000040800F2
:10000000605200205D020008A53100088D2600081E
:1000100049310008910800087D39000800000000FF
:100020000000000000000000000000009D0100082A
:10003000C90A000800000000F90100081D3200088C
:1000400077020008770200087702000877020008AC
:10005000770200087702000877020008770200089C
:1000600077020008770200087702000849090008B3
:1000700055090008610900086D09000877020008A9
:100080007909000877020008770200087702000863
:10009000770200087702000877020008770200085C
:1000A000770200087702000877020008770200084C
:1000B000F932000805330008113300087702000800
:1000C000770200087702000877020008770200082C
:1000D000770200084D3900085939000865390008D1
:1000E000770200087702000877020008770200080C
:1000F00077020008770200087702000877020008FC
:1001000077020008770200081D3300087702000814
:10011000A9350008B5350008293300083533000833
:1001200077020008BD090008C90900087702000825
:1001300077020008770200087702000877020008BB
:1001400077020008770200087702000877020008AB
:10015000770200080D0A0008190A00087139000822
:10016000770200087702000877020008770200088B
:1001700077020008770200087702000800000000FC
:100180007702000877020008DFF80CD000F0D4FAFC
:1001900000480047ED480008605200202C4B1968C9
:1001A0000868B0E8F04F80F30988BFF36F8F4FF015
:1001B000000080F3118870470000000008480068C4
:1001C000006880F308884FF0000080F3148862B65E
:1001D00061B6BFF34F8FBFF36F8F00DF00BF00BF6B
:1001E00008ED00E0DFF80C00016841F470010160E7
:1001F000704700BF88ED00E0EFF30980BFF36F8F19
:10020000134B1A681EF0100F08BF20ED108A20E96A
:10021000F04F106009B44FF0500080F31188BFF325
:100220004F8FBFF36F8F05F077FC4FF0000080F326
:10023000118809BC19680868B0E8F04F1EF0100F6B
:1002400008BFB0EC108A80F30988BFF36F8F704746
:10025000F0000020EFF3058070470000064880475B
:1002600006480047FEE7FEE7FEE7FEE7FEE7FEE79B
:10027000FEE7FEE7FEE7FEE7DD3200088901000841
:100280002DE9F05F0546002092469B4688460646CB
:10029000814640241BE0284641464746224600F05E
:1002A00083F853465A46C01A914110D31146184656
:1002B000224600F06AF82D1A67EB01084F462246E5
:1002C0000120002100F061F817EB00094E41201ECB
:1002D000A4F10104DFDC484631462A464346BDE826
:1002E000F09F40EA01039B0703D009E008C9121FF1
:1002F00008C0042AFAD203E011F8013B00F8013BE0
:10030000521EF9D27047D2B201E000F8012B491E0B
:10031000FBD270470022F6E710B513460A460446A2
:100320001946FFF7F0FF204610BD421C10F8011BD4
:100330000029FBD1801A704700F0004230F00040E5
:100340000AD0C10D01F56071C0F3160042EA0151F7
:10035000C20840071143704700200146704730B57E
:100360000B46014600202022012409E021FA02F573
:100370009D4205D303FA02F5491B04FA02F528440D
:10038000151EA2F10102F1DC30BD202A04DB203A67
:1003900000FA02F1002070479140C2F1200320FAD8
:1003A00003F3194390407047202A04DB203A21FAD6
:1003B00002F00021704721FA02F3D040C2F120027E
:1003C00091400843194670472DE9FE4F804681EA67
:1003D0000300C00F0C46009021F0004123F00045BF
:1003E000B8EB0200A94105D24046214690461C4682
:1003F0000B46024623F00040104347D0270DC7F3B9
:100400000A00C3F30A510290401A019040286BDAA7
:10041000C3F3130040F4801B0098924620B10023E0
:10042000D2EB030A63EB0B0B01985946C0F1400273
:100430005046FFF7AAFF06460D4650465946019A18
:1004400000F08CF910EB08006141002487EA11529A
:1004500084EAE7731A4340D0009A62B3019A012AF2
:100460004FEA075215DC001B61EB02014FF000421E
:1004700002EA0752CDE90042001C41F580113246E4
:100480002B4600F08CF903B0BDE8F08F40462146C2
:10049000F9E7001B61EB0201001C41F58013001815
:1004A0005B412018A2F5001747EB030140EAD57025
:1004B000B6196D4111E06D084FEA360645EAC07580
:1004C0004FEA0752001B61EB0201001C41F580114D
:1004D00049084FEA30000019514132462B4603B01B
:1004E000BDE8F04F00F04CB9009801224000002315
:1004F000D0EB020263EBE073009821464FEAE07410
:10050000B8EB000061EB0401E9E783F000435BE72F
:1005100081F0004158E72DE9FE4F81EA030404F021
:10052000004421F0004100944FF0000B23F0004301
:1005300050EA01045ED052EA03045BD0C3F30A54CC
:10054000C1F30A552C44A4F2F3340194A0FB0254E5
:10055000C1F3130141F48011C3F3130343F4801377
:1005600001FB024400FB034E840A970A44EA8154CB
:1005700047EA8357A4FB076802958D0A05FB0785A8
:100580004FEA932C04FB0C542705029D4FEA0658B2
:1005900047EA1637B5EB08056EEB070C870E920E8F
:1005A00047EA811742EA8312A7FB0201B6EB0B016F
:1005B00064EB00042B0D43EA0C335E1844EB1C5033
:1005C000DA465146E7FB0201C5F313044FEA0B3349
:1005D00043EA14534FEA0432019C43EA0603A4F1B0
:1005E0000C040294009CCDE900B400F0D8F803B0EC
:1005F000BDE8F08F00200146F9E72DE9F04D81EAD2
:10060000030404F0004B21F0004514464FF0000AAB
:1006100023F0004150EA050220D054EA01021DD027
:10062000C5F30A570246C5F31303C1F31300C1F320
:100630000A5640F4801543F48013A7EB0608101BFC
:10064000D64608F2FD3873EB050002D308F1010825
:1006500001E092185B41B8F1000F03DA0020014677
:10066000BDE8F08D00204FF48011064684460EE070
:10067000171B73EB050705D3121B63EB050306433A
:100680004CEA010C49084FEA300092185B4150EAED
:100690000107EDD152EA030012D082EA040083EA96
:1006A0000501084305D0101BAB4106D201220023EF
:1006B00006E000224FF0004302E06FF00102531009
:1006C0001AEB06004CEB085110EB0A0041EB0B0152
:1006D000BDE8F04D00F054B8C1F30A52C1F3130164
:1006E00040F2FF3341F480119A4202DA00200146C1
:1006F000704740F233439A42A2F2334202DC524244
:10070000FFF752BEFFF741BE30B5041E71F1000481
:1007100004DB4FF00044404264EB0101141E73F10E
:10072000000405DB1C464FF00043524263EB040318
:10073000994208BF904230BD064C074D06E0E06884
:1007400040F0010394E8070098471034AC42F6D318
:10075000FFF71EFD9C6B0008BC6B0008202A06DB1F
:10076000CB17203A41FA02F043EAE07306E041FA7F
:1007700002F3D040C2F1200291400843194670476D
:1007800010B5141E73F1000408DA401C41F1000199
:1007900092185B411A4301D120F0010010BD2DE9F0
:1007A000F04D92469B4611B1B1FA81F202E0B0FAE7
:1007B00080F220329046FFF7E8FD04460F4640EAFB
:1007C0000A0041EA0B0153465A46084313D011462A
:1007D00053EA010019D0C8F140025046FFF7E4FD8A
:1007E00005460E46504659464246FFF7CEFD0843A1
:1007F00005D0012004E020463946BDE8F08D0020F8
:10080000054346EAE0762C4337430A986305E40A39
:10081000A0EB08000022FD0A44EA47540A3002D542
:1008200000200146E9E7010510196941DDE90845A5
:1008300000196941BDE8F04DA2E770B58C1810F8B9
:10084000015B15F0070301D110F8013B2A1106D115
:1008500010F8012B03E010F8016B01F8016B5B1E2F
:10086000F9D12B0705D40023521E0DD401F8013B0A
:10087000FAE710F8013BCB1A921C03E013F8015B76
:1008800001F8015B521EF9D5A142D8D3002070BDFA
:10089000FEE700002DE9F04700270425DFF8A080DF
:1008A000DFF8A09050383E4601F1060A102845D2E4
:1008B000DFE800F01108130C1517191B1D1F214448
:1008C0004444442334240325402702E03D240325E7
:1008D0002E27012613E0302411E037242BE03A24A0
:1008E00029E041240BE0452409E0492407E04D2498
:1008F00005E0512403E0552401E0D8F82440032A00
:1009000019D04DB16A0009EB4400FFF7EAFCD8F8B2
:100910001420294620469047002E0FD0720009EB84
:1009200047005146FFF7DDFC31463846D8F8142021
:10093000BDE8F047104703250026E3E7BDE8F08750
:100940000000002086020020014800F0D5B8000019
:10095000300E0020014800F0CFB80000B00F00209A
:10096000014800F0C9B80000D00D0020014800F097
:10097000C3B800001010002008B5002000900B48FC
:10098000007870B10A486946006805F085FA009859
:1009900038B108494FF080500860BFF34F8FBFF364
:1009A0006F8F054800F0A8F808BD000088000020FF
:1009B0008C00002004ED00E0500F0020014800F002
:1009C0009BB800007010002008B5002000900B4874
:1009D000007870B10A486946006805F05DFA009831
:1009E00038B108494FF080500860BFF34F8FBFF314
:1009F0006F8F054800F080F808BD000088000020D7
:100A00009000002004ED00E0900E0020014800F06E
:100A100073B80000D0100020014800F06DB800004D
:100A2000F00E002001681823CAB2103AB2FBF3F2AC
:100A3000054B6FF30901032A9B5CC36500D9091DAF
:100A40008165084670470000D46A000810B5014669
:100A500000208B698A6A4FF0C07453B1B3F5005F10
:100A600015D072B1012A0CD0022A0AD0032A09D16A
:100A700004E01AB1012A06D0022A03D1C96AC901C9
:100A800000D5012010BDC96AA142FAD010BD002ACC
:100A9000F7D0012AF2D0022AF3D0032AF3D010BDF6
:100AA00030B50468256825F48025256004686360F6
:100AB0008368402B036803D099600068C26030BD32
:100AC0009A600068C16030BD704703F085BD72B6A2
:100AD000FEE790F83510022903D0802141650120FE
:100AE0007047052180F835100068016821F0010188
:100AF00001600020704700002DE9F84304464FF0E4
:100B00000009CDF8009063484FF41651A56D0068B8
:100B1000B0FBF1F72E6894F85C10082000FA01F1A0
:100B200031420FD021680A6852070BD50A6822F0BB
:100B300004020A6094F85C108840A860606D40F080
:100B40000100606594F85C104FF0010808FA01F0AC
:100B5000304208D021684969090604D5A860606D53
:100B600040F00200606594F85C1004208840304238
:100B700008D021680968890704D5A860606D40F035
:100B80000400606594F85C1010208840304218D052
:100B900021680968090714D5A8602068016849031D
:100BA00004D50068000308D5A16C07E00168C905F9
:100BB00003D4016821F008010160216C09B12046CD
:100BC000884794F85C1020208840304231D021685A
:100BD0000968C9062DD5A86094F835000528206855
:100BE000016806D0490347D5006800031DD4616C35
:100BF0001CE021F0160101602068416921F08001AC
:100C00004161206C08B9A06C20B12068016821F016
:100C10000801016094F85C103F208840A86084F8C7
:100C2000349084F83580216D1FE0E16B09B12046D6
:100C30008847606D00282BD0606DC00714D0052058
:100C400084F835002068016821F0010101600098F6
:100C5000401C0090B84203D820680068C007F6D155
:100C600084F8349084F83580E16C002910D001B00C
:100C70002046BDE8F04308470168C905D5D401689E
:100C800021F01001016084F8349084F83580CCE7BD
:100C9000BDE8F883EC0000202DE9F041044600F0A7
:100CA00091F906465CB1002584F83450022084F89E
:100CB00035002068016821F0010101600DE001208C
:100CC000BDE8F08100F07EF9801B052805D92020C1
:100CD0006065032084F83500F2E720680068C007EB
:100CE000F0D12268116820480140D4E9010318437B
:100CF000D4E903363343184363691843A36918439F
:100D0000E3691843236A18430843616A042903D13D
:100D1000D4E90B1319430843106020684069666AE0
:100D200020F0070130460E43012704280CD1A06AA9
:100D30000643E06A40B12046FFF788FE20B140201C
:100D4000606584F83570BAE7206846612046FFF791
:100D500069FE94F85C203F2191408160656584F8CC
:100D600035700020ACE700003F8010F02DE9F04125
:100D70000446866D90F83400002501280DD001202E
:100D800084F8340094F835700020012F07D084F8DF
:100D9000340002252846BDE8F0810220FBE7022747
:100DA00084F8357060652046FFF77AFE94F85C1091
:100DB0003F208840B0602068016841F01601016062
:100DC000206C20B12068016841F0080101602068B2
:100DD000016841F001010160DCE7000070B50446E4
:100DE00000F0F0F80546601C02D004480078044486
:100DF00000F0E8F8401BA042FAD370BDE0000020EC
:100E00002DE9F84F00224FF0010803254FF00F0E97
:100E10000B6808FA02F42340A3426ED14E68012EFB
:100E200005D0022E03D0112E01D0122E12D18668C9
:100E30004FEA420C05FA0CF7BE43CF6807FA0CF7ED
:100E4000374387604668A6430C79C4F30014944086
:100E500034434460C668570005FA07FC8C6826EAEC
:100E60000C06BC403443C4604C68022C01D0122CE8
:100E700013D1D40800EB8404A346D4F8209054077F
:100E80004FEAD46A0EFA0AF629EA06090E6906FA4A
:100E90000AF646EA0906CBF8206006680C7926EACD
:100EA0000C0604F00304BC40344304604C68E400C6
:100EB00065D5364C266846F480462660246822F0C4
:100EC000030604F480440094314C3444A446D4F81E
:100ED00008489607370F0EFA07F6B4432D4EB04276
:100EE00001D1002624E02C4EB04201D101261FE0A2
:100EF0002A4EB04202D102261AE040E0284EB0420B
:100F000001D1032614E0274EB04201D104260FE0A0
:100F1000254EB04201D105260AE0244EB04201D14F
:100F2000062605E0224EB04201D1072600E0082641
:100F3000BE402643CCF808681E4E34684F689C4378
:100F4000FF0300D51C4334601A4C241D26684F68EB
:100F50009E43BF0300D51E432660164E08363468F4
:100F60004F689C43FF0200D51C433460114E0C3681
:100F700034684F689C43BF0200D51C433460521C48
:100F8000102AFFF445AFBDE8F88F00004438024056
:100F9000003001400000024000040240000802400E
:100FA000000C0240001002400014024000180240F1
:100FB000001C0240003C01400AB1816170470904F5
:100FC000FBE700000148806870470000E000002057
:100FD000024881680278114481607047E000002077
:100FE0000B4810B5016841F400710160016841F4DB
:100FF00080610160016841F480710160032000F0AC
:101000008DF8002000F006F800F03EF8002010BD3A
:10101000003C024010B5014688B00022372000F0A5
:101020005DF8372000F04CF813480024016841F0C7
:1010300020010160006805A900F0200006906846C4
:1010400000F018F900F036F90C494000B0FBF1F15E
:101050000C480B4A491E026040F2E732C0E9032403
:10106000C0E9011400F098FB10B1012008B010BDD8
:10107000044800F001FCF9E74038024040420F000C
:1010800000140040301100200C4882B0016841F487
:1010900080410160006800F4804000900748001F14
:1010A000016841F0805101600068002200F080502A
:1010B00000900F21901E02B000F010B8443802409A
:1010C000002809DB00F01F02012191404009800047
:1010D00000F1E020C0F8001170470000F0B40E4BA2
:1010E0001B680C46C3F30223C3F10705042D00D986
:1010F0000425191D072901D2002300E0DB1E01266B
:1011000006FA05F1491E214099409E40761E164080
:101110003143F0BC02F01ABD0CED00E0064900F0CE
:10112000070208684FF6FF03184040EA0220034A0E
:1011300010430860704700000CED00E00000FA0565
:101140002DE9F0470E46050065D0DFF81481D8F888
:101150000000F7B200F00F00B04207D288F800702C
:10116000D8F8000000F00F00B04254D128683D4C80
:10117000810712D5400703D5206840F4E050206075
:101180002878000703D5206840F46040206020687C
:10119000A96820F0F000084320602878C0072DD00F
:1011A000304968680839012812D0022813D0032872
:1011B00011D00968890700292DDA216821F003017F
:1011C00001432160FFF7FEFE814641F2883A0EE0BE
:1011D00009688903EFE709688901ECE7FFF7F2FE88
:1011E000A0EB0901514502D90320BDE8F087206832
:1011F000696800F00C00B0EB810FEFD1D8F8001057
:10120000404601F00F01B14207D90770006800F0B5
:101210000F00B04201D00120E7E72878400705D54C
:101220002068E96820F4E05008432060287800072F
:1012300006D52068296920F4604040EAC10020609A
:1012400000F058F82168084AC1F30311515CC84006
:101250000649086006480068FFF7DCFE0020C4E786
:10126000003C024008380240DC6A0008EC00002024
:10127000E40000200F2202600C4A136803F003030D
:101280004360136803F0F0038360136803F4E053D2
:10129000C36012684FF4E05303EAD20202610448CB
:1012A000006800F00F000860704700000838024036
:1012B000003C02400448054900680968044AC1F33B
:1012C0008221515CC8407047EC0000200838024081
:1012D000EC6A00080448054900680968044AC1F33B
:1012E0004231515CC8407047EC0000200838024091
:1012F000EC6A0008154810B5006810F00C0214489C
:1013000013D04110042A0FD0082A0ED10F4C241FED
:101310002268236802F03F025B0207D52068C0F311
:101320008810A0FB010106E0084610BD2168C1F34A
:101330008811A1FB00010023FEF7A2FF2168C1F381
:101340000141491C4900B0FBF1F010BD08380240D2
:101350000024F4002DE9F84F04006ED02078DFF867
:101360003C93C007A9F104054AD009F104000168C3
:10137000C1F38101012908D00068C0F3810002286F
:101380000AD1D9F80000400206D52868800337D575
:1013900060680028E1D033E06068B0F5803F10D08D
:1013A000B0F5A02F286810D020F48030286028687D
:1013B00020F4802028606068A8B1FFF703FE06468D
:1013C0000DE0286840F48030F4E740F48020286085
:1013D000F7E700BFFFF7F6FD801B642873D8286885
:1013E0008003F7D50CE0FFF7EDFD064605E000BFF2
:1013F000FFF7E8FD801B6428F0D828688003F7D445
:101400002078DFF89C8280074FF0000A3ED5A34881
:10141000001D016811F00C0F08D00068C0F38100B6
:1014200002280BD1D9F80000400207D428688007B1
:1014300016D5E068012800D112E02BE1E068B8B1D0
:101440000120C8F80000FFF7BDFD064605E000BF1B
:10145000FFF7B8FD801B0228C0D828688007F7D5A1
:101460002868216920F0F80040EAC10028600DE0FA
:10147000C8F800A0FFF7A6FD064604E0FFF7A2FDAE
:10148000801B02281FD828688007F7D4207800071F
:1014900022D5824E83486169703671B101210160A5
:1014A000FFF790FD074604E0FFF78CFDC01B022804
:1014B00009D830688007F7D50EE0C0F800A0FFF724
:1014C00081FD074605E082E0FFF77CFDC01B022896
:1014D0007DD830688007F7D42078400768D5DFF8DA
:1014E000BCB100270BF13C0BDBF80000C0000BD4B3
:1014F000DBF8001041F08051CBF80010DBF8000061
:10150000012700F080500090674E3068C00510D46D
:10151000306840F480703060FFF754FD009005E0C3
:10152000FFF750FD0099401A022850D83068C005D6
:10153000F6D55A4EA0686C3601280FD005283068C1
:1015400010D020F001003060306820F004003060DE
:10155000A068B8B1FFF736FD00900FE0306840F0AA
:101560000100F4E740F004003060F7E7FFF72AFDE0
:101570000099411A41F28830814266D8306880076C
:10158000F4D50EE0FFF71EFD009007E0FFF71AFD0F
:101590000099411A41F28830814256D8306880075C
:1015A000F4D42FB1DBF8001021F08051CBF80010FB
:1015B000A069C8B33949091D0968C1F3810102292D
:1015C0004AD00228504607D0C8F8600000E03CE04E
:1015D000FFF7F8FC04463BE04746C8F86000FFF719
:1015E000F1FC064605E000BFFFF7ECFC801B02287B
:1015F0002BD828688001F7D4D4E907010843A16AF1
:101600002A4A490802EB0141626A41EA8211084311
:1016100094F82C1040EA0161C9F8001001203866E6
:10162000FFF7D0FC044606E036E000BFFFF7CAFC37
:10163000001B022809D828688001F7D52CE000BFDC
:10164000FFF7C0FC001B022802D90320BDE8F88F79
:1016500028688001F4D41FE00128F7D0D9F80000F1
:10166000E26900F48001914214D1226A00F03F0146
:1016700091420FD147F6C071626A0140914209D18F
:10168000A26A00F44031914204D1E16A00F0706036
:10169000884201D00120D9E70020D7E70438024072
:1016A00000004742800E4742007000400000FFFFEC
:1016B0007047704710B590F83C20012A22D00122D3
:1016C00080F83C20CA688C6822F4407222434C683F
:1016D00022F4806222430C6822F4006222430C69E7
:1016E00022F4805222434C6922F400522243C969F9
:1016F000002322F480420A4301684A6480F83C30A7
:10170000002010BD022010BD70B590F83C20012AC9
:1017100032D0012480F83C40022280F83D2003684A
:101720005A689D6822F070060A6832435A60134B6B
:1017300002689A4214D0B2F1804F11D0104B9A42F5
:101740000ED0104B9A420BD00F4B9A4208D00F4B41
:101750009A4205D00E4B9A4202D00E4B9A4204D1C7
:10176000496825F080031943916080F83D400021CD
:1017700080F83C10084670BD022070BD000001409A
:101780000004004000080040000C0040000401403C
:10179000004001400018004010B5040003D094F848
:1017A0003D0010B107E0012010BD002084F83C008E
:1017B000204600F00DF8022084F83D00211D20682D
:1017C00001F0BEFD012084F83D00002010BD0000A6
:1017D00008B52349026823488A4211D1016841F0C3
:1017E000100101600068002200F010000090052147
:1017F0003620FFF773FCBDE808403620FFF760BCD9
:101800001849194B091D9A4207D1086840F4003065
:101810000860086800F4003009E0144B9A4208D1CF
:10182000086840F480200860086800F48020009078
:1018300008BD0F498A4207D1016841F0800101606B
:10184000006800F08000F2E70A498A42F0D101689E
:1018500041F480710160006800F48070E7E70000E7
:101860000010004040380240004401400048014060
:10187000001C0040002000400168CA6842F00102DC
:10188000CA600068816801F00701062903D0016879
:1018900041F001010160002070472DE9F0410D4643
:1018A000040003D094F83D0018B108E00120BDE821
:1018B000F081002084F83C00204600F03BF8022034
:1018C00084F83D002068816844F2070291438160FA
:1018D000211D206801F034FD226890689169166A24
:1018E0002B68AF69034340F20330814341EA07218B
:1018F000A868EF6908434FF6FC418843E96840EA6D
:101900000720014328692F6A000140EA0730084395
:1019100069686D6926F0AA0646EA051529439360B1
:101920002268906120680162012084F83D00002057
:10193000BDE70000F0B587B0044614216846FEF705
:10194000E9FC574923680024554810390225554AB7
:10195000554EB3F1804F27D0544FBB4258D1026847
:1019600042F002020260006800F002000590086880
:1019700040F0020008600868694600F00200059027
:1019800030200090CDE901543046CDE90345FFF702
:1019900037FA002205211D20FFF7A0FB5FF01D0094
:1019A000FFF78EFB07B0F0BD036843F0010303604F
:1019B000006800F001000590086840F00100086030
:1019C000086800F001000590086840F00200086017
:1019D0000868012700F00200059020200090CDE962
:1019E0000154CDE9034769461046FFF709FA08207C
:1019F0000090CDE90154CDE9034769463046FFF731
:101A0000FFF9002205211C20FFF768FB1C20C7E717
:101A1000274FBB4220D1026842F0040202600068F6
:101A200000F004000590086840F0020008600868B3
:101A3000694600F002000590C0200090CDE90154F5
:101A40003046CDE90345FFF7DBF9002205211E20D2
:101A5000FFF744FB1E20A3E7164EB342A2D1036852
:101A600043F008030360006800F008000590086870
:101A700040F0010008600868694600F00100059028
:101A800003200090CDE901541046CDE90345FFF74E
:101A9000B7F9002205213220FFF720FB32207FE733
:101AA00040380240000002400004024000040040B0
:101AB00000080040000C004010B50446006891B1D9
:101AC000042904D00122002101F09EFC206801229B
:101AD0005FF0040101F098FC2068016841F0010109
:101AE0000160002010BD01220021F3E7704770B5AE
:101AF0000446006801694FF00005C943890715D401
:101B0000C168C943890711D4E91E0161012020770A
:101B1000206880698007204602D0FFF7E7FF04E0D5
:101B200000F02CF9204600F0DDF9257720680169E6
:101B3000C943490717D4C168C943490713D46FF093
:101B400004010161022020772068806910F4407F41
:101B5000204602D0FFF7CAFF04E000F00FF920464C
:101B600000F0C0F9257720680169C943090716D438
:101B7000C168C943090712D46FF00801016104204C
:101B800020772068C0698007204602D0FFF7AEFFAB
:101B900004E000F0F3F8204600F0A4F9257720686F
:101BA0000169C943C90617D4C168C943C90613D41A
:101BB0006FF010010161082020772068C06910F4DF
:101BC000407F204602D0FFF791FF04E000F0D6F8F6
:101BD000204600F087F9257720680169C943C907C5
:101BE00008D1C168C943C90704D1891E01612046D3
:101BF00000F09CF920680169C943090609D4C1684D
:101C0000C943090605D46FF0800101612046FFF742
:101C10004FFD20680169C943490609D4C168C94319
:101C2000490605D46FF040010161204600F088F9B3
:101C300020680169C94389060BD4C168C943890674
:101C400007D46FF0200101612046BDE87040FFF726
:101C500030BD70BD70B586B0044614216846FEF7ED
:101C600059FB24683A4D00223A4902233A48AC42D3
:101C700011D10C6844F010040C60096801F01001E7
:101C800005914FF4D4410091CDE901320121CDE914
:101C9000032169460DE0314E0325B4420DD10C6895
:101CA00044F010040C60096801F0100105916021F6
:101CB00046E0FFF7A5F806B070BD294E2948B442AA
:101CC00009D10C6844F002040C60096801F00201BB
:101CD0000591811534E0244EB44209D10C6844F0DA
:101CE00002040C60096801F002010591711527E0FA
:101CF0001E4E0925B44209D10C6844F002040C6060
:101D0000096801F002010591F10019E0184E194827
:101D1000B44209D10C6844F001040C60096801F078
:101D20000101059140210BE0134EB442C3D10C6870
:101D300044F001040C60096801F001010591802163
:101D40000091CDE90132CDE903256946B1E70000F4
:101D500000000140303802400010024000400140C5
:101D600000440140000402400048014000180040C7
:101D7000001C00400000024000200040704770B589
:101D8000044690F83C000D4601280DD0012684F849
:101D90003C60022084F83D0042B1042A18D0082A91
:101DA0002AD00C2A4DD139E0022070BD206801F004
:101DB00039FB2068816941F00801816120688169EF
:101DC00021F004018161206881692A69114311E0D1
:101DD000206801F057FB2068816941F4006181614E
:101DE0002068816921F480618161206881692A69A4
:101DF00041EA0221816124E0206801F079FB20683A
:101E0000C16941F00801C1612068C16921F0040184
:101E1000C1612068C1692A69114311E0206801F09D
:101E20009BFB2068C16941F40061C1612068C16900
:101E300021F48061C1612068C1692A6941EA0221F7
:101E4000C16184F83D60002084F83C0070BD10B58D
:101E5000040003D094F83D0010B107E0012010BD4C
:101E6000002084F83C00204600F00CF8022084F8A2
:101E70003D00211D206801F063FA012084F83D0037
:101E8000002010BD08B5134A01681348914207D1DC
:101E9000016841F001010160006800F0010009E003
:101EA0000E4A914208D1016841F480310160006816
:101EB00000F48030009008BD09488142FBD10648FB
:101EC000001F016841F040010160006800F040001F
:101ED000F0E70000000001404438024000400140AB
:101EE000001800407047000010B504460068012249
:101EF00001F08AFA0B492068884202D00A498842D8
:101F000003D1416C41F4004141642068816801F0D3
:101F10000701062903D0016841F00101016000209A
:101F200010BD0000000001400004014000680349AA
:101F3000884201D1FFF74CB8704700000014004000
:101F40007047704770B5026804461068D1685369DD
:101F500010F00F0F52D003F0010501F490762E43DC
:101F60005FD0C20705D0CA0503D5E26B42F001027B
:101F7000E263420705D5DA0703D0E26B42F00202C2
:101F8000E263820705D5DA0703D0E26B42F0040270
:101F9000E263020707D501F020022A4303D0E26B77
:101FA00042F00802E263E26B002A33D0800604D5D7
:101FB000880602D5204601F086FB20684069E16B67
:101FC000C0F38010090700D428B3204601F064FB59
:101FD0002068416949061AD5416921F040014161F3
:101FE000606BA0B11B490165606BFEF772FD0028B4
:101FF00010D0606B016DBDE870400847830610D5B6
:102000008B060ED52046BDE8704001F05CBB204633
:10201000FFF797FF70BD2046FFF793FF0020E063B6
:1020200070BD030606D50B0604D52046BDE87040FA
:1020300001F028BC4006F3D54806F1D5D16820460A
:1020400021F04001D160202184F8391000F01CFB00
:1020500070BD0000C135000870B5040004D094F8CC
:102060003900002510B106E0012070BD84F8385019
:10207000204600F023F8242084F839002068C16845
:1020800021F40051C160204601F068FB206801691D
:1020900021F4904101612068416921F02A014161E8
:1020A0002068C16841F40051C160E563202084F8D4
:1020B000390084F83A00002070BD00002DE9F04F8F
:1020C00087B0044614216846FEF724F9E948DFF892
:1020D000A0831038D4F800C0E64A02210327082361
:1020E000DFF894E3002506154FF0010B4FF000696F
:1020F000C44535D1D2F800C04CF4002CC2F800C061
:10210000126802F400220592026842F004020260A2
:10211000006800F004000590B8028DE80308CDE9DE
:10212000037369467046FEF76BFED54FD34838609F
:10213000C7E90195C7E903567D61BD61FD613D6257
:1021400038467D62FEF7A8FD08B1FEF7C0FC676364
:10215000002205213420BC63FEF7C0FF342052E08A
:10216000DFF82083C44553D1D2F800C04CF4801C62
:10217000C2F800C0126802F480120592026842F0B0
:1021800004020260026802F004020592026842F052
:102190000802026000688A4600F0080005904FF4CB
:1021A0008050D846CDE9000ACDE902879B466946B2
:1021B00004937046FEF724FE0420CDE9000ACDE921
:1021C00002876946CDF810B0AF48FEF719FEAC4F54
:1021D000AA48603730383860C7E90195C7E9035627
:1021E0007D61BD61FD613D6238467D62FEF754FD53
:1021F00008B1FEF76CFC6763002205213520BC6343
:10220000FEF76CFF3520FEF75BFF07B0BDE8F08FEF
:10221000DFF878824FF0070A4FF0400BC4454CD1ED
:10222000944A121D136843F010031360126802F001
:1022300010020592026842F001020260006800F09C
:10224000010005904FF4C0608DE8A30469469048F2
:10225000FEF7D6FD8A4F8F48C037B0463860C7E9D1
:102260000195C7E903567D614FF48036BD61C7E92A
:10227000075638467D62FEF70FFD08B1FEF727FCD2
:102280006763BC63844F8348C7E903587D61BD61C0
:10229000C7E9075678307D6287E8010A3846FEF7BD
:1022A000FBFC08B1FEF713FC276300220521252063
:1022B000BC63FEF713FF2520A5E7DFF8E081C445E6
:1022C00035D1136843F400331360126802F400320E
:1022D0000592026842F001020260006800F001000D
:1022E00005900C208DE8A30469466948FEF788FD37
:1022F000694F6248603748303860C7E90195C7E9DF
:1023000003567D614FF48030BD61C7E90750384600
:102310007D62FEF7C1FC08B1FEF7D9FB67630022BE
:1023200005212620BC63FEF7D9FE26206BE7DFF8E7
:102330007081C44548D1136843F480231360126848
:1023400002F480220592026842F0020202600068F4
:1023500000F0020005904FF440608DE8A304694648
:102360005048FEF74DFD4C4F4448C0371838386090
:10237000C7E90195C7E903567D61BD61FD613D6215
:1023800038467D62FEF788FC08B1FEF7A0FB676364
:10239000BC63454F3948C7E903567D61BD61FD61A6
:1023A0003D6218307D6287E8010A3846FEF774FC0A
:1023B00008B1FEF78CFB2763002205212720BC63B0
:1023C000FEF78CFE27201EE7384A94457FF41DAFA8
:1023D000284A121DD2F800C04CF0200CC2F800C0F0
:1023E000126802F020020592026842F004020260C4
:1023F0000068049300F004000590C0208DE8A3005D
:1024000069467046FEF7FCFC274F224860371838B3
:1024100038604FF02068C7E90185C7E903567D6140
:10242000BD61FD613D6238467D62FEF735FC08B155
:10243000FEF74DFB6763BC631B4F1648C037603027
:10244000C7E903567D61BD61FD613D627D6287E83C
:1024500001093846FEF720FC08B1FEF738FB276378
:10246000002205214720BC63FEF738FE4720CAE65C
:10247000004C0040403802400008024040600240EA
:10248000D00D002000500040000C02400010014020
:102490000000024040640240F00E00200044004072
:1024A00000480040000402401010002000140140C9
:1024B000F8B5044690F83A0020283CD1C1B3BAB32D
:1024C00094F83800012836D0012084F83800A16241
:1024D000A2850025E563222084F83A00636B174843
:1024E000D863636B16481864636B1648D864606BD6
:1024F000134605650846666B216802463046091D8D
:10250000FEF734FC206801684168009184F8385077
:10251000C16841F48071C1602068416941F00101E6
:1025200041612068416941F0400141610020F8BDEE
:10253000FFE70120FBE70220F9E700001B36000857
:1025400057360008D1350008704770472DE9F84329
:10255000044690F839001F4616460D46202850D1F3
:10256000B5B1AEB194F8380001284AD0012084F802
:1025700038004FF00008C4F83C80212084F839006E
:10258000FEF720FDA6848146E68484F8388026E0A4
:102590000120BDE8F883E08C401EE084A0684B4633
:1025A000B0F5805F4FF000024FF0800120460097A9
:1025B00003D001F098F9E8B90DE001F094F9C8B939
:1025C00028882168C0F308004860206908B16D1CA4
:1025D00005E0AD1C03E0216815F8010B4860E08CB4
:1025E0000028D8D14B46002240212046009701F018
:1025F0007AF908B10320CCE7202084F839000020C4
:10260000C7E70220C5E7000070B5044690F839001E
:10261000202830D169B362B394F8380001282AD059
:10262000012084F838002162A284E2840025E56359
:10263000212084F83900236B1048D863236B10489D
:102640001864236B0F48D864206B13460565266811
:10265000206B321DFEF78AFB21686FF04000086096
:1026600084F838502068416941F0800141610020C0
:1026700070BD012070BD022070BD000061360008F1
:102680008F360008D135000870477047FEE700001C
:102690000EB5254D01205022287024492448FFF70B
:1026A00007FF224E4FF0FF373946686803F078FD88
:1026B00003F058F80024305D01F084F9641C502CBC
:1026C000F9DB1C480078D0B11B4A9FED1C0ADFEDF6
:1026D0001C0A0020694600BF02EB4003B3F97A30C0
:1026E00001EE103A01EB8003401CB8EEC11A03283A
:1026F00021EE001A21EE201A83ED001AECDB5022A5
:102700000A490B48FFF7D4FE03F04CF800231A46A1
:102710006946686903F010FB00231A466946E869B8
:1027200003F00AFBC0E700008800002060060020DC
:10273000100D00200100002086020020000000385B
:10274000000034432D4808B5016841F48001016060
:10275000016801F480010091016841F400110160F9
:102760000068002200F40010009005210B20FEF705
:10277000B5FC0B20FEF7A4FC002205210C20FEF77F
:10278000ADFC0C20FEF79CFC002205210D20FEF77D
:10279000A5FC0D20FEF794FC002205210E20FEF77B
:1027A0009DFC0E20FEF78CFC002205211020FEF778
:1027B00095FC1020FEF784FC002205213920FEF74D
:1027C0008DFC3920FEF77CFC002205213A20FEF723
:1027D00085FC3A20FEF774FC002205214520FEF717
:1027E0007DFC4520FEF76CFC002205214620FEF70B
:1027F00075FCBDE808404620FEF762BC3038024058
:1028000010B5D4B003220021012003F02DFA5D4C55
:10281000606010B15CA001F05FF90322002101208B
:1028200003F022FAA06000221021012003F01CFA1C
:10283000E06000221021022003F016FA206100223D
:102840000C21012003F010FA606100221021012008
:1028500003F00AFAA06100220C21012003F004FA1F
:10286000E06100221021012003F0FEF92062002225
:102870001021012003F0F8F960621C224D496846DE
:10288000FDF72FFD0021684602F012F94949A062C8
:102890001C221C3107A8FDF724FD002107A802F027
:1028A00007F94449E0621C2238310EA8FDF719FDF2
:1028B00000210EA802F0FCF83E4920631C2254318E
:1028C00015A8FDF70EFD002115A802F0F1F8394911
:1028D00060631C2270311CA8FDF703FD00211CA8B9
:1028E00002F0E6F83349A0631C228C3123A8FDF7DF
:1028F000F8FC002123A802F0DBF82E49E0631C223B
:10290000A8312AA8FDF7EDFC00212AA802F0D0F892
:10291000284920641C22C43131A8FDF7E2FC0021C3
:1029200031A802F0C5F8234960641C22E03138A8C0
:10293000FDF7D7FC002138A802F0BAF81D49A064C1
:102940001C22FC313FA8FDF7CCFC00213FA802F07F
:10295000AFF8E0641C22184946A8FDF7C2FC00212C
:1029600046A802F0A5F8144920651C221C314DA888
:10297000FDF7B7FC00214DA802F09AF8606554B04D
:1029800010BD000088000020494D55646174655FEA
:1029900052585F53656D5F48616E646C65B6FED6D4
:1029A000B5D0C5BAC5C1BFB4B4BDA8B3C9B9A62115
:1029B0000D0A0000846900089C6A00082DE9F047B0
:1029C00086B014216846FDF7A5FC3848002401684C
:1029D00041F010010160016801F0100105910168EA
:1029E00041F004010160016801F0040105910168F2
:1029F00041F080010160016801F0800105910168EA
:102A000041F001010160016801F0010105910168D7
:102A100041F002010160016801F0020105910168C5
:102A200041F0080101600068DFF8848000F00800D0
:102A30004FF4C0450590002229464046FEF7BCFAF7
:102A4000DFF870904FF48056002231464846FEF77A
:102A5000B3FADFF864A04FF47F47002239465046AE
:102A6000FEF7AAFA00950125CDE9015469464046D2
:102A70000394FEF7C5F90096CDE90154694648462E
:102A80000394FEF7BDF90097CDE90154694650461D
:102A90000394FEF7B5F9E8038DE83100694607486D
:102AA000FEF7AEF906B0BDE8F0870000303802400E
:102AB0000008024000100240000C024000000240EA
:102AC00010B588B01C216846FDF724FC1548144950
:102AD00000240160A721C0E9011444F61F61C0E988
:102AE00003148461FEF758FE08B1FDF7F0FF0D48AE
:102AF000FFF7ADF908B1FDF7EAFF6020CDE900046A
:102B000002940022694607480494FFF738F908B197
:102B1000FDF7DDFF0348FFF79DF808B010BD00008A
:102B200000440140100B002010B588B01C216846FD
:102B3000FDF7F0FB1548144900240160A721C0E906
:102B4000011444F61F61C0E903148461FEF724FEFA
:102B500008B1FDF7BCFF0D48FFF779F908B1FDF7A3
:102B6000B6FF6020CDE900040294002269460748C0
:102B70000494FFF704F908B1FDF7A9FF0348FFF734
:102B800069F808B010BD000000480140500B00205B
:102B900010B588B01C216846FDF7BCFB16481549E6
:102BA000002401605321C0E9011444F61F61C0E90B
:102BB00003148461FFF74BF908B1FDF788FF60202B
:102BC000CDE900040294002269460B480494FFF703
:102BD000D6F808B1FDF77BFF042269460648FFF7E7
:102BE000CEF808B1FDF773FF0348FFF733F808B0DC
:102BF00010BD000000180040900B002010B588B0F8
:102C00001C216846FDF786FB154814490024016025
:102C100040F28F61C0E9011440F2E731C0E90314CA
:102C20008461FEF7B9FD08B1FDF751FF0C48FFF7CD
:102C30000EF908B1FDF74BFF6020CDE900040294C6
:102C40000022694606480494FFF799F808B1FDF799
:102C50003EFF0348FEF7FEFF08B010BD001C004019
:102C6000D00B002010B588B01C216846FDF752FB40
:102C7000154814490024016040F28F61C0E9011435
:102C800040F2E731C0E903148461FEF785FD08B125
:102C9000FDF71DFF0C48FFF7DAF808B1FDF717FF45
:102CA0006020CDE90004029400226946064804949D
:102CB000FFF765F808B1FDF70AFF0348FEF7CAFF02
:102CC00008B010BD00200040100C002010B592B0DC
:102CD00000240F941C2168461094FDF71BFB202153
:102CE00007A8FDF717FB2C482A4901601021C0E90D
:102CF000011440F2E731C0E9031444618461FFF735
:102D0000A6F808B1FDF7E3FE0F940FA9224810942E
:102D1000FEF7FAFC08B1FDF7DAFE6020CDE9000409
:102D20000294039404940594002269461A48069478
:102D3000FFF725F808B1FDF7CAFE042269461648D8
:102D4000FFF71DF808B1FDF7C2FE082269461248D8
:102D5000FFF715F808B1FDF7BAFE0C2269460E48D8
:102D6000FFF70DF808B1FDF7B2FE07940894099437
:102D70004FF400500A94CDE90B4007A906480E9481
:102D8000FEF798FC08B1FDF7A2FE0348FEF762FFCC
:102D900012B010BD000001405009002010B58CB0E9
:102DA00024216846FDF7B6FA0024154809944FF02F
:102DB00080410A94C0E900144FF45251C0E9024125
:102DC000046184610320CDE900040120CDE90204FF
:102DD0000494CDE905400794694609480894FEF734
:102DE0005CFD08B1FDF773FE099409A904480A9433
:102DF000FEF78AFC002801D0FDF769FE0CB010BD7B
:102E00009009002010B58CB024216846FDF782FAA5
:102E100000241648099414490A94C0E900144FF498
:102E20005251C0E90241046184610320CDE90004EC
:102E30000120CDE902040494CDE9054007946946D8
:102E40000A480894FEF729FD08B1FDF740FE0994F1
:102E500009A906480A94FEF757FC002801D0FDF79F
:102E600036FE0CB010BD000000040040D009002068
:102E700010B58CB024216846FDF74CFA00241648A2
:102E8000099414490A94C0E900144FF45251C0E95E
:102E90000241046184610320CDE900040120CDE9F1
:102EA00002040494CDE90540079469460A48089451
:102EB000FEF7F3FC08B1FDF70AFE099409A90648DC
:102EC0000A94FEF721FC002801D0FDF700FE0CB0AB
:102ED00010BD000000080040100A002010B58CB0A2
:102EE00024216846FDF716FA00241648099414496F
:102EF0000A94C0E900144FF45251C0E90241046140
:102F000084610320CDE900040120CDE9020404948A
:102F1000CDE90540079469460A480894FEF7BDFCD0
:102F200008B1FDF7D4FD099409A906480A94FEF7F3
:102F3000EBFB002801D0FDF7CAFD0CB010BD00006E
:102F4000000C0040500A00201CB500240E480094DC
:102F50000C49019401605321C0E9011442F20F7140
:102F60008461C160FEF718FC08B1FDF7B0FD009464
:102F7000694605480194FEF7C7FB002801D0FDF71C
:102F8000A6FD1CBD00100040900A002010B588B0BE
:102F90001C216846FDF7BEF916481549002401605A
:102FA000A721C0E9011444F61F61C0E9031484613C
:102FB000FEF74DFF08B1FDF78AFD6020CDE9000462
:102FC0000294002269460B480494FEF7D8FE08B12B
:102FD000FDF77DFD042269460648FEF7D0FE08B1E4
:102FE000FDF775FD0348FEF735FE08B010BD000083
:102FF00000400140D00A00200C4810B50A49016089
:103000004FF4E1314160002181600C22C160C0E9D0
:1030100004128161C161FFF71FF8002803D0BDE8E9
:103020001040FDF754BD10BD004C0040500C002076
:103030000C4810B50A4901604FF4E13141600021AC
:1030400081600C22C160C0E904128161C161FFF797
:1030500003F8002803D0BDE81040FDF738BD10BDCF
:1030600000500040900C00200C4810B50A49016047
:103070004FF4E1314160002181600C22C160C0E960
:1030800004128161C161FEF7E7FF002803D0BDE8AB
:103090001040FDF71CBD10BD00100140D00C0020F9
:1030A0000C4810B50A4901604FF4E131416000213C
:1030B00081600C22C160C0E904128161C161FEF728
:1030C000CBFF002803D0BDE81040FDF700BD10BDC8
:1030D00000440040100D00200C4810B50A49016062
:1030E0004FF4E1314160002181600C22C160C0E9F0
:1030F00004128161C161FEF7AFFF002803D0BDE873
:103100001040FDF7E4BC10BD00480040500D002009
:103110000C4810B50A4901604FF4E13141600021CB
:1031200081600C22C160C0E904128161C161FEF7B7
:1031300093FF002803D0BDE81040FDF7C8BC10BDC8
:1031400000140140900D0020FEE70000144A0828FA
:103150000ED00A2814D00C281AD00E2807D11068D7
:1031600020F440401060106840EA813010607047E1
:10317000106820F440701060106840EA0120F5E704
:10318000106820F440601060106840EA8120EDE78C
:10319000106820F440501060106840EA0130E5E704
:1031A000140C0240FEE7000010B50023104A15E0A1
:1031B000362809D039280BD03C2812D054783F2823
:1031C00013D044F0800406E0547844F0010402E097
:1031D000547844F00204401C54705B1C8B42E7D3CB
:1031E00010BD547844F00804F5E744F00404F2E715
:1031F000000000208AB2014664230148FFF7A6B907
:10320000100D0020044C206880F4005020606420E1
:1032100001F042FCF7E700001408024010B550200E
:1032200080F31188BFF34F8FBFF36F8F03F014F952
:1032300018B104494FF080500860002080F31188D5
:1032400010BD000004ED00E030B593B030216846B9
:10325000FDF760F814210CA8FDF75CF81D48002567
:10326000016841F080510160006800F080501190C9
:103270001948016841F4804101600068022400F4AB
:103280008040119001200390102004900094069437
:103290000820CDE90750A820CDE9090404200B90AF
:1032A0006846FEF757F808B172B6FEE70CA90F2082
:1032B00081E831004FF4A0500F904FF480501090EF
:1032C00005210CA8FDF73CFF002801D072B6FEE7EF
:1032D00013B030BD4038024000700040054801681E
:1032E00041F47001016003494FF0006080390860CB
:1032F0007047000088ED00E00148FEF7F8BB0000D1
:10330000900900200148FEF7F2BB0000D009002020
:103310000148FEF7ECBB0000100A00200148FEF750
:10332000E6BB0000500A00200148FEF7E0BB0000A9
:10333000900A00200148FEF7DABB0000301100209F
:10334000F0B50268254C264D264E274F274B4FF0EF
:10335000804CA04209D0604507D0A84205D0B042B9
:1033600003D0B84201D0984204D122F0700E4A68CE
:1033700042EA0E02A0421BD0604519D0A84217D0E5
:10338000B04215D0B84213D0984211D0184DA8427F
:103390000ED0184DA8420BD0174DA84208D0174D9B
:1033A000A84205D0164DA84202D0164DA84203D11E
:1033B00022F44075CA682A434D6922F080022A43EC
:1033C00002608A68C2620A688262A04201D09842A2
:1033D00001D10969016301214161F0BD0000014093
:1033E0000004004000080040000C004000040140C0
:1033F00000400140004401400048014000180040E6
:10340000001C00400020004010B501F01F03012106
:10341000046A99408C430462016A9A401143016234
:1034200010BD0000F0B5026A22F001020262036AD8
:1034300042688469124E24F073050C682C4323F013
:1034400002058B682B430D4DA84201D0B04205D137
:1034500023F00807CB683B4323F00403A84201D0C4
:10346000B04205D14D6922F4407215438A692A435E
:1034700042608461496841630362F0BD000001401D
:1034800000040140F0B5026A22F010020262026AF2
:10349000436884690D6824F4E64444EA05248D6891
:1034A00022F0200242EA05120F4D104EA84201D030
:1034B000B04206D1CF6822F0800242EA071222F021
:1034C0004002A84201D0B04207D14D6923F44063C5
:1034D00043EA85038D6943EA850343608461496853
:1034E00081630262F0BD0000000001400004014061
:1034F000F0B5026A22F480720262026A4368C4690B
:1035000022F4007224F073050C68124E2C438D686F
:1035100042EA05220E4DA84201D0B04206D1CF6842
:1035200022F4006242EA072222F48062A84201D01B
:10353000B04207D14D6923F4405343EA05138D6926
:1035400043EA05134360C4614968C1630262F0BD88
:10355000000001400004014030B5026A22F48052AC
:103560000262046A4268C3690D6823F4E64343EAD1
:1035700005238D6824F4005444EA0534084DA8421C
:1035800002D0084DA84204D14D6922F4804242EA9B
:1035900085124260C36149680164046230BD000065
:1035A00000000140000401400148FEF7CBBC0000D0
:1035B000500C00200148FEF7C5BC0000900C002014
:1035C00010B5806B0021C185C184FEF7BAFC10BD27
:1035D00070B5846B2068406994F83910C0F3C0104E
:1035E0000025212904D118B1E584204600F062F8B5
:1035F0002068406994F83A10C0F38010222904D161
:1036000018B1E585204600F047F8E06B40F0100067
:10361000E0632046FEF795FC70BD10B50146806B57
:1036200009680968C90513D40021C1850168CA6801
:1036300022F48072CA6001684A6922F001024A617C
:1036400001684A6922F040024A61202180F83A105C
:10365000FEF77AFF10BD10B5806BFEF776FF10BD48
:1036600010B50146806B09680968C9050CD40021B2
:10367000C18401684A6922F080024A610068C16819
:1036800041F04001C16010BDFEF7FEFF10BD10B556
:10369000806BFEF7FAFF10BD0168CA6822F49072D1
:1036A000CA6001684A6922F001024A61202180F85B
:1036B0003A1070470168CA6822F0C002CA6020212F
:1036C00080F83910704710B590F83A10222901D0CF
:1036D000022010BD8168B1F5805F11D00169002919
:1036E00001681FD0496801F07F03816A4A1C826229
:1036F0000B70C18D491E0904090CC18518D02BE03F
:103700000269816A002A0268526805D0D2B20A8032
:10371000816A491C8162ECE7C2F308020A80816A6F
:10372000891CF7E74A68816A4B1C83620A70E0E7EC
:103730000168CA6822F02002CA600168CA6822F4DF
:103740008072CA6001684A6922F001024A61202140
:1037500080F83A10FEF7F8FE002010BD2DE9F04188
:10376000044600680169E26821F440511143016197
:103770002169A068E269084361691143084321682F
:10378000CA6849F20C639A430243CA6020684169DF
:10379000A26921F4407111434161E0691927642550
:1037A0003226B0F5004F354A354920684FF0000801
:1037B00006D0884201D0904236D1FDF78BFD35E02E
:1037C000884201D0904202D1FDF784FD01E0FDF76F
:1037D00071FD61684A18A0FB070148EB0803FCF77C
:1037E0004FFD0146B0FBF5F00201B1FBF5F06FF0C3
:1037F0001803584301EB800006EBC000B0FBF5F066
:1038000000F0F80002EB4002B1FBF5F0584301EB89
:10381000800006EBC000B0FBF5F000F00700216867
:1038200010448860BDE8F081FDF744FD61688B0FAE
:103830008A00A0FB0701FCF723FD0146B0FBF5F071
:103840006FF01802504301EB800006EB0010B0FB54
:10385000F5F000F0F002B1FBF5F002EB0012B1FB65
:10386000F5F06FF01803584301EB800006EB0010F1
:10387000B0FBF5F000F00F00D1E7000000140140AC
:103880000010014090F83910212901D00220704722
:103890008168B1F5805F016A0BD04A1C0262026840
:1038A00009785160C18C491E0904090CC1840ED0ED
:1038B00017E009880268C1F3080151600169002915
:1038C000016A02D0491C0162ECE7891CFBE7016830
:1038D000CA6822F08002CA600068C16841F04001F5
:1038E000C160002070472DE9F041984617460E460A
:1038F0000446069D1DE0681C1BD02DB1FDF762FB40
:10390000A0EB0800A84214D92068C16821F4D07146
:10391000C1602068416921F001014161202084F8E3
:10392000390084F83A00002084F838000320BDE80C
:10393000F0812068006836EA000004D00020B84218
:10394000D9D00020F3E70120F9E700000148FEF795
:10395000F9BA0000D00C00200148FEF7F3BA0000CD
:10396000100D00200148FEF7EDBA0000500D0020B8
:103970000148FEF7E7BA0000900D0020FEE70000C6
:1039800018B103498861002070476FF00500704747
:1039900000000020032802D96FF005007047034A99
:1039A000106211700020D0617047000000000020FC
:1039B00018B103494861002070476FF00500704757
:1039C000000000202DE9FC413B4C6169002955D0E5
:1039D0003A49E2698854521CE261206A002630B1FB
:1039E00001282FD0022865D0032860D162E0087832
:1039F000552804D0521E3148491CE2613CE00B2A94
:103A000055D30A252D4F00204FEA000317F803C0B5
:103A10005B1C6044C0B2AB42F8D38B7A8342E9D1DD
:103A20004888ADF800008888ADF80200C888ADF875
:103A300004000889ADF80600487804226946FCF7BE
:103A400029FF37E0022A32D948780328D2D1887872
:103A5000401D904212D888180D4630F8020C921E74
:103A600047BA91B2154800F05BF8874208D0E26986
:103A7000691C521E1148E261FCF733FCBDE8FC8171
:103A8000A8780F4B42080021606A0AE005EB410765
:103A900001EB000CB7F80370491C7FBA23F81C70C7
:103AA00089B29142F2D311466269904702E0B2F5C1
:103AB000807FE3D1E661E1E700000020860100207D
:103AC0008602002018B103494860002070476FF05B
:103AD00005007047000000200FB4054B10B503A986
:103AE000044A029800F014F910BC5DF814FB0000C1
:103AF00081480008500100200FB4084B10B504A9FC
:103B000002AA039800F004F9044602A9002000F07C
:103B100096FC204610BC5DF814FB00003F440008F2
:103B2000F0B5FF23084E1C46002206F5807705E01D
:103B3000855C5D40735D63407C5D521C8A42F7DBAF
:103B400044EA0320F0BD0000846700080907090E5D
:103B5000002804DB00F1E02080F80014704700F03A
:103B60000F0000F1E02080F8141D704702E008C843
:103B7000121F08C1002AFAD170477047002001E0E7
:103B800001C1121F002AFBD1704700002DE9FF5F21
:103B900082B00021DDE90430020DDDF840B00343BE
:103BA00018D044F61050A2F2FF3242431514119877
:103BB00001281FD0A5EB0B00401C5FEA000A4FF064
:103BC00000064E4FDFF83891B046504615D5CAF181
:103BD000000413E0119801244AA3012801D16FEADF
:103BE0000B010298119AC0E90031C0E9024206B007
:103BF000BDE8F09FCBF10000DFE704460021404A1A
:103C0000491842EB0450CDE9001012E0E00707D05C
:103C100032463B4640464946FCF77DFC8046894695
:103C200032463B4610461946FCF775FC06460F46E1
:103C30006410002CEAD1DDE90401DDE90023BAF1CA
:103C4000000F06DAFCF767FC42464B46FCF763FCC4
:103C500005E0FCF7D2FC42464B46FCF7CEFC04469E
:103C60000E460022284BFCF74FFD03D84FF0FF30E3
:103C7000014607E00022254B20463146FCF7A4FB15
:103C8000FCF72AFD102409E0002C0ADB0A2200239D
:103C9000FCF7F6FA039B30321A55641E50EA010213
:103CA000F2D1641C039AC4F111031444119A012A3D
:103CB00003D0012208430DD10AE0084304D00020BC
:103CC0004FF0110B119072E7A3EB0B056D1E0DE089
:103CD0005B4504DD4FF0000205F1010504E003DA65
:103CE0004FF00002A5F10105002AECD002981199CD
:103CF000C0E90231C0E9004579E700000000144046
:103D00000000F03F300000000000F0430000E03F02
:103D10002DE9FF4F95B09B468946064600250FE2E8
:103D2000252877D100242746F84A0121059400E090
:103D3000044316F8013F203B01FA03F01042F7D18B
:103D400030782A2811D06FF02F033078A0F130029C
:103D5000092A16D8059A44F0020402EB820203EB0A
:103D600042021044761C0590EFE759F8042B0592A7
:103D7000002A03DA504244F40054059044F002044F
:103D8000761C30782E2816D116F8010F44F0040462
:103D90002A280DD06FF02F023078A0F13003092BC4
:103DA00009D807EB870302EB4303C718761CF3E738
:103DB00059F8047B761C30786C280FD006DC4C2830
:103DC00017D068280DD06A2814D104E0742810D0C8
:103DD0007A280FD10DE044F400140AE044F4801472
:103DE00001E044F440147278824202D104F5801458
:103DF000761C761C307866280BD013DC582877D0D8
:103E000009DC002875D04528F6D04628F4D047288C
:103E10001AD19DE118E0632835D0642879D065284F
:103E200012D195E1702873D008DC6728F1D0692899
:103E30006FD06E280DD06F2806D1B5E073282CD036
:103E4000752875D0782874D05A46179990476D1CFC
:103E500075E1C4F30250022809D003280DD0D9F827
:103E6000001004280DD00D6009F1040967E1D9F8AC
:103E70000010EA17C1E90052F6E7D9F800100D80EA
:103E8000F2E70D70F0E719F8041B8DF80010002020
:103E90008DF80100EA46012003E059F804AB4FF029
:103EA000FF3061074FF0000102D40DE008F101017D
:103EB0008846B9420FDA8045F8DB1AF80810002965
:103EC000F4D108E008F1010188468142FADB1AF8D2
:103ED00008100029F6D105985B46A0EB080721469B
:103EE0003846179A00F094FA284400EB080507E0DA
:103EF0004DE029E10DE01AF8010B5A461799904759
:103F0000B8F10108F7D25B4621463846179A13E10B
:103F100042E00A220092C4F302524FF0000A022A41
:103F200008D059F804CB032A4FEAEC710AD00DE00F
:103F300029E02AE009F1070121F00702F2E802C1B5
:103F4000914609E00FFA8CFC4FEAEC71042A03D188
:103F50004FFA8CFC4FEAEC71002907DA0A4600217F
:103F6000DCF1000C61EB02012D2202E0220504D5F8
:103F70002B228DF80420012203E0E20701D0202249
:103F8000F7E7904659E00A2102E010220DE01021E7
:103F90004FF0000A00910BE010224FF0000A44F0AD
:103FA00004040827009203E008224FF0000A009260
:103FB000C4F30252022A05D059F804CB0021032A87
:103FC00008D009E009F1070121F00702F2E802C177
:103FD000914605E01FFA8CFC042A01D10CF0FF0C7D
:103FE0004FF00008220728D5702806D0009B83F0E8
:103FF000100353EA0A0305D00EE040228DF8042096
:10400000012208E05CEA010206D030228DF804208B
:104010008DF8050002229046009B83F0080353EAC6
:104020000A030AD15CEA010201D1620705D53022F8
:104030008DF804204FF001087F1E582804D034A0CA
:1040400003900EA802900DE036A0F9E753466046B3
:10405000009AFCF715F984460398825C0298401E8A
:10406000029002705CEA0100F0D1029806A9081AD9
:1040700000F1200A600702D524F4803400E0012713
:10408000574502DDA7EB0A0000E0002000EB0A0123
:10409000009005984144401A0590E00306D45B4621
:1040A0002146179A059800F0B3F90544002706E069
:1040B00001A85A46C05D179990476D1C7F1C474563
:1040C000F6DBE0030CD55B462146179A059800F015
:1040D0009FF9054404E030205A46179990476D1C1B
:1040E0000099481E00900029F5DC08E0029802992A
:1040F0005A460078491C0291179990476D1CBAF1F5
:104100000001AAF1010AF1DC65E1000009280100C3
:10411000303132333435363738396162636465663D
:1041200000000000303132333435363738394142FF
:10413000434445460000000000F058F90544761C51
:10414000307800287FF4ECAD19B02846BDE8F08F38
:10415000620700D4062709F1070222F0070CFCE8E9
:104160000223E14603F000485FEA080C02D00FF298
:10417000702C0DE05FEA045C02D50FF2682C07E0BA
:104180005FEAC47C02D00FF2602C01E0AFF2700C49
:104190004FF0FF3823F00043CDF850C065280CD015
:1041A00006DC452809D046281DD047283DD13DE0F2
:1041B000662818D067287ED138E00021112F01DB56
:1041C000112000E0781CCDE9000106A90EA8FFF738
:1041D000DDFCDDE90F010E9A03910021009207F149
:1041E000010A04914DE04FF000400097CDE9011025
:1041F00006A90EA8FFF7CAFCDDE90F0203920E9B89
:1042000011990022DDF80CA00093049211B9791CD9
:1042100000EB010AB7EB0A0004D4C0F1FF3007F14C
:10422000010A0490AAEB0700019044E0012F00DA94
:1042300001270021112F01DD112000E03846CDE9D2
:10424000000106A90EA8FFF7A1FCDDE90F010E9AF7
:104250000391002104910092BA4621070CD40399DE
:10426000514500DA8A46BAF1010F05DD009AAAF13C
:104270000101515C302908D0B84202DA10F1040F74
:1042800006DA0121CDE9011015E0AAF10101E9E703
:10429000002805DC049901440491AAEB000102E026
:1042A000411C514500DD8A460499401A401C01908A
:1042B0004FF000400290200704D40198504501DBE4
:1042C000CDF8048000208DF84F0002980DF14F07C3
:1042D000B0F1004F25D02B200E9002984FF002082D
:1042E00000280CDA404202902D200E9007E00A21AF
:1042F0000298FCF734F83031029007F8011DB8F14C
:104300000001A8F10108F2DC02980028EFD1791E23
:104310000E980870307800F0200040F0450007F853
:10432000020D12A8C01B00F107081498007800B114
:10433000012000EB0A01019801EBE071059841446E
:10434000401A401E0590E00306D45B462146179AAA
:10435000059800F05DF805441498007818B15A46A5
:10436000179990476D1CE00324D55B462146179AA8
:10437000059800F04DF805441CE00498002807DB80
:10438000DDE90301884203DD0098405C179901E0F4
:10439000179930205A469047049805F10105401CB2
:1043A00004900198401E019004D12E205A4617997E
:1043B00090476D1CBAF10001AAF1010ADDDC05E0AD
:1043C00017F8010B5A46179990476D1CB8F1000178
:1043D000A8F10108F4DC5B462146179A0598ABE684
:1043E0002D0000002B000000200000002DE9F0410E
:1043F000044600251E461746880404D405E03946C5
:104400002020B0476D1C641EF9D52846BDE8F08118
:104410002DE9F041044600251E469046C80301D50B
:10442000302700E02027880404D505E041463846BF
:10443000B0476D1C641EF9D52846BDE8F0810A68B6
:10444000531C0B60107070472DE9F041B0EE604ACC
:10445000F0EE404A00269FED543ADFED542A9FEDDE
:10446000542ADFED543ADFED540A544D069CAF6BED
:10447000A74204D0524F87E80F00AC6308E05049D0
:104480000A68C968801A1844401A00EBD0704610B8
:10449000A11B00EE101AE86B0844B8EEC00AE863EE
:1044A0006A6B63EE803A8A1A00EE102A4FF47A7231
:1044B0005442B8EEC05AB0EE420A40EE053A00EE61
:1044C000100AB8EEC00A40EE803ABDEEE30A10EEE4
:1044D000106A964201DD164602E0A64200DC26463E
:1044E00047F23053984202DC5B42984200DC1846A7
:1044F00069636331E863C72908D200231A46194665
:10450000184601F007F80120BDE8F081F0EE610ADD
:10451000B0EE640A00F06EF810EE100A29498842E5
:1045200006DDF0EE440AB0EE640A00F0F1F838E07F
:10453000F0EE610AB0EE640A00F05CF8D5ED0B0A0B
:10454000214970EE800A10EE900AC5ED0B0A8842F0
:1045500002DDDFED1E0A06E010EE900A1C498842DB
:1045600001D3DFED1C0A20EE031AC5ED0B0A85ED21
:104570000C0A30EE400A00EEA21A00EE021ABDEE5E
:10458000C10A10EE100A904201DD144602E0A0427A
:1045900000DD0446301BA11933194242494200F0A4
:1045A000B9FF0020B0E7000066666640CDCC4C3E07
:1045B00000000000CDCCCC3D0AD7233C28000020D1
:1045C000E80300200000F0410060EA460060EA468F
:1045D0000060EAC60060EAC610B5002145F2082472
:1045E00005E0224602235B1C9342FCD3491C814216
:1045F000F7D310BD30EE600AB5EEC00AF1EE10FA46
:1046000004DD10EE100A0C49884211DD10EE101A7C
:104610000A48814204D8B5EEC00AF1EE10FA07D973
:1046200010EE101ADFED060A814202D930EE200AA0
:10463000704730EE600A704700003443000034C316
:104640000000B44398B0DFF894800A220CA94446D5
:10465000D8F8140001F008FD0A2213A9A06901F09E
:1046600003FD0A220FA9E06801F064FC01F07AF86A
:104670000E98FBF761FE06460F460D98FBF75CFEB1
:1046800004460D460C98FBF757FE41EC100BDDE994
:104690001513DDE911020DF1200C8CE80F00DDE9A6
:1046A0001320DDE90F310790CDE90521CDE9037332
:1046B0008DE8700053EC102B09A11348FFF71CFA8A
:1046C0001148FBF732FE82B20F491048FDF79CFFFC
:1046D00001F068F8462000F0DFF9B6E78800002016
:1046E000252E32662C252E32662C252E32662C2560
:1046F000642C25642C25642C25642C25642C2564CD
:104700002C25642C25640A0008040020D00C00200D
:1047100010B5F0EE0C2A9FED2D2A9FED2D1AF0EE2C
:10472000610AFFF767FF2B482B4AD0ED000A70EEB5
:10473000800A10EE901AC0ED000A914202DDDFED12
:10474000270A06E010EE901A254A914201D3DFEDC8
:10475000250A10EE101AC0ED000A80ED010A11F1D1
:10476000814F12D2F0EE401A11EE901AB1F17E5F35
:104770000BDA80ED011A80ED001A002003461A467C
:10478000114600F0C7FE012010BDF0EE401A4FF4B4
:104790007A7161EEA21A40EE821AF0EE400A30EE13
:1047A000C00A40EE011ABDEEE10A10EE100A88427E
:1047B00002DC4942884200DC084640424342194636
:1047C000024600F0A7FE002010BD00000AD7233DDE
:1047D00000000000280000200060EA460060EA4671
:1047E0000060EAC60060EAC62DED028B88B09FED3E
:1047F000218A214C4FF0FF352A4605A9E06901F0D6
:1048000033FC052201A9606A01F02EFC607850B3E8
:10481000012802D0022829D112E047F230500DF1D0
:10482000040C00909CE80F000DF1140CB0EE480A47
:10483000DCEC030AFFF708FE012817D1022010E084
:104840000E480DF1040C00909CE80F000DF1140CC3
:10485000B0EE480ADCEC030AFFF7F6FD012805D1AB
:104860000020607002E0002001F0F0F80A2000F063
:1048700013F9C1E70000000088000020D08AFFFF84
:1048800013B56423012269460248FDF75FFE0098D4
:104890001CBD0000D00C00200F4C104D20690004FE
:1048A00015D40A2000F0F8F82069000403D50EE0C2
:1048B000012000F0F1F820690004F9D5686D01F0DD
:1048C000C5F800231A461946184600F023FE0120B9
:1048D00000F0E2F8E2E7000000000240880000205B
:1048E0004FF47A74204600F0D7F8FBE7FCF778FB2A
:1048F000FEF7AAFCFEF762F8FDF724FFFEF7B4FB13
:10490000FEF7CEFBFEF7E2F9FEF748FAFEF77AFA79
:10491000FEF7AEFAFEF7E2FAFEF716FBFEF736FBFD
:10492000FEF7CEF8FEF700F9FEF732F9FEF766F96A
:10493000FEF798F9FEF760FBFEF77AFBFEF7CCFB7B
:10494000FEF7E6FB00F050F800F03AFD00210820E9
:1049500000F04AFE00210A2000F046FE00210C2053
:1049600000F042FE00210E2000F03EFE0DA0FFF7F9
:10497000B3F850210020FFF70DF80F48FFF7A2F819
:104980000E48FFF715F80E48FEF7FAFF6420FCF713
:1049900025FA0C48FCF770FFFDF732FF00F083F8B2
:1049A000FEE70000425350B3F5CABCBBAFB3C9B970
:1049B000A6210A0A00000000F5310008A93100080C
:1049C000CB0A0008900A002001460020842900D06C
:1049D000C81C704741F28834002001F037F82046A7
:1049E00000F05AF8F8E7000010B53C212048FDF728
:1049F00063F81F480068C16841F00101C1603C21B3
:104A00001C48FDF759F81B480068C16841F00101D6
:104A1000C1603C211848FDF74FF817480068C1688D
:104A200041F00101C1603C211448FDF745F81348ED
:104A30000068C16841F00101C16000211048FDF724
:104A400053FA04210E48FDF74FFA08210C48FDF7F0
:104A50004BFA0C210A48FDF747FA4FF4D2500106F1
:104A6000486208490860084908600849086010BDA4
:104A700090090020D0090020100A0020500A0020D0
:104A8000500900202404004024080040240C004069
:104A9000012000F001F8FBE710B500B9012000F09B
:104AA000FFFE002010BD10B500F09AFF002010BDE1
:104AB0007FB50D4604464169B0F9080081B1A1698E
:104AC00071B1FFF781FFD4E905128DE80700D4E941
:104AD00000102B46226901F086FC039004B070BDE3
:104AE000FFF772FF03A9CDE90001208A2B4682B2AD
:104AF000D4E9001001F04AFC012801D00020EDE7C4
:104B00000398EBE70F4C8CB0052208A9E06801F090
:104B1000ABFA052204A9206901F0A6FA00F022FEF2
:104B20000DF1200C9CE80F008DE80F000DF1100C2A
:104B30009CE80F0000F008F800F034FE0A20FFF7B0
:104B4000ABFFE1E7880000202DE9FF4782B000209D
:104B50009FED4E0A4E49F6EE000A81EC020A81ED05
:104B6000020A9FED4C0A81ED030ADFED4B0AC1ED0D
:104B7000040AC1ED050A9FED490A81ED060AC1ED5F
:104B8000070A9FED470A474A81ED080A81ED090AA5
:104B900081ED0A0A42F2107C81ED0B0A0DF1080A40
:104BA0000DF13809CCF100086B46A2F11006A2F114
:104BB000080500BF3AF8207039F820403C1B24B2A9
:104BC00023F8104032F8107027443FB222F81070DA
:104BD000674501DD674602E0474500DA474622F8AF
:104BE000107036F8107025F8107026F81040401C30
:104BF000C0B20428DED32B4C0020083433F910C097
:104C000001EB800700EE10CAD7ED000A32F91080E0
:104C1000B8EEC00A97ED041A20EE800A00EE908AE2
:104C200035F91080F8EEE00AC44436F91080C8F176
:104C3000000801EE200A0CEB480C00EE90CA97ED3C
:104C4000081AF8EEE00A01EE200ABDEEC00A10EEE6
:104C5000107A24F81070401CC0B20428CED3B4F9E6
:104C60000010082000F0C0FCB4F902100A2000F087
:104C7000BBFCB4F904100C2000F0B6FCB4F906102B
:104C80000E2000F0B1FC06B0BDE8F0879A99193FFC
:104C9000A80300201F85EB3ECDCCCC3D8FC2F53D57
:104CA00000000000780000202DE9F041184C0F466C
:104CB000054666692068001D00F004FD38B92068CB
:104CC00090F82C1001208840A1698143A161681CE3
:104CD00007D137B12168BDE8F0410E48091D00F049
:104CE00035BD20683544B5424560216805D2A068CD
:104CF000BDE8F041091D00F011BD6068091D00F01C
:104D00000DFD206B854200D22563BDE8F0810000D7
:104D1000F00000204C1200202DE9F041054600F083
:104D200021FD2E4C2069401C206120682C4F10B1C1
:104D3000E06940B32DE025602069012829D10026D3
:104D400006EB860007EB800000F0DAFC761C072EED
:104D5000F6D323488C3000F0D3FC2148A03000F07B
:104D6000CFFC1F48B43000F0CBFC1D48C83000F029
:104D7000C7FC1B48DC3000F0C3FC19488C30606075
:104D80001430A06005E02068E96AC06A884200D853
:104D90002560E06A401CE062E96A0120A26988405F
:104DA0001043A06101EB810007EB8000291D00F09A
:104DB000CDFC00F0F7FCE06900280CD02068E96A1F
:104DC000C06A884207D207494FF080500860BFF39D
:104DD0004F8FBFF36F8FBDE8F0810000F00000201F
:104DE0007011002004ED00E030B4026C0B46002A84
:104DF0000BD0C1681144C1608468A14201D301682D
:104E0000C16030BC1846FBF76CBA30BC70472DE966
:104E1000F041856B174604460026026C82B1C7B18B
:104E2000E068FBF75EFAE168206C091AE16022682D
:104E3000914202D2A168081AE060022F16D017E052
:104E40002068A8B9A06801F06BFB06460020A060AE
:104E50000EE06068FBF745FA216C6068084460600A
:104E6000A168884204D32068606001E005B16D1E2E
:104E70006D1CA5633046BDE8F08110B5044690F87E
:104E8000510058B101280CD002280FD0502080F3D7
:104E90001188BFF34F8FBFF36F8FFEE7206B00F0D9
:104EA00095FC2046BDE8104000F090BC10BD00000D
:104EB00010484FF47051420706D0C01D0D4920F034
:104EC0000700411AC1F570510B4A00230144C2E9A1
:104ED00000030839103A21F0070111604B600B60A4
:104EE0000B1AC0E9001393604FF000405360D0608C
:104EF00070470000601200203C010020144E154C49
:104F0000A6F1C8074FF08058DFF84C9012E000BFC0
:104F100000F028FCF068C568281D00F0D3FB20696C
:104F2000401E2061E068401EE06000F03BFC284627
:104F3000FFF7A3FFE0680028EAD138680128F9D913
:104F4000C9F80080BFF34F8FBFF36F8FF2E7000007
:104F500038120020F000002004ED00E00346009825
:104F600029B10260C0E90F31012100F0A1BE00604B
:104F7000F8E72DE9F0479A46DDE9098481466FF0AC
:104F80000303206B03EB82021044089E20F0070706
:104F9000780707D0502080F31188BFF34F8FBFF3FD
:104FA0006F8FFEE7002561B1002023180A5C83F8AB
:104FB00034200A5C12B1401C1028F6D384F8435008
:104FC00001E084F83450072E00D30626E662C4E9D7
:104FD0001165201D00F09FFB04F1180000F09BFB01
:104FE0002461C6F107006462A061E56484F8505052
:104FF00052464946384600F00FF92060B8F1000FDC
:1050000001D0C8F80040BDE8F087000030B5114974
:1050100000E011460A688242FBD34B685C18844268
:1050200003D1406818444860084643681C189442FD
:1050300009D1084C103C2468A24209D052681A4495
:1050400042600A6812680260814200D0086030BD88
:105050000460F9E73C01002010B5044600F082FB33
:10506000A06B28B15FF0000400F09CFB204610BD4F
:105070000124F9E706484168096829B14168C9680F
:10508000C9684968016370474FF0FF31FAE70000D3
:10509000F000002008484068401C4FF0500080F3AA
:1050A000118804D0BFF34F8FBFF36F8FFEE7BFF3BC
:1050B0004F8FBFF36F8FFEE7440100202DE9F041D1
:1050C000044600F04FFB94F9455004F1240609E032
:1050D000606A48B1304601F0B9FA08B100F00EFC40
:1050E0006D1E6DB2002DF3DC4FF0FF3684F8456085
:1050F00000F058FB00F036FB94F9445004F110071F
:1051000009E0206948B1384601F0A0FA08B100F082
:10511000F5FB6D1E6DB2002DF3DC84F84460BDE834
:10512000F04100F03FBB00002DE9F04105460027AB
:1051300000F0EAFC314E306808B9FFF7B9FEF068BC
:1051400005424BD1C5B3083568070ED005F00700FE
:10515000C0F108000544680707D0502080F311888B
:10516000BFF34F8FBFF36F8FFEE72DB3706885429B
:1051700034D82248103001460C6801E020460C4625
:105180006168A94202D221680029F7D131688C42B6
:1051900024D007682168016060680837411B102926
:1051A0000FD96019420708D0502080F31188BFF34F
:1051B0004F8FBFF36F8FFEE710E041606560FFF730
:1051C00025FF61687068401A7060B268904200D232
:1051D000B060F06801430020C4E9000101F070FAFA
:1051E000780707D0502080F31188BFF34F8FBFF3AB
:1051F0006F8FFEE73846BDE8F08100002C010020EB
:105200000449086818B10868826C521C82640868F6
:1052100070470000F000002010B5031F4FF08074AD
:105220001C601B1F21F001011960191F044B0B604A
:1052300014390A60091F6FF0020244380A6010BD79
:105240009550000808B5DFF86091DFF860A1DFF83D
:1052500060B100BF58484FF0FF325649006A00F075
:1052600003FF002000F0F2FB524FB88908B94FF459
:105270007A704FF06408B0FBF8F00090388800288E
:105280007ED000F041FC3988B1F5BE6F01D94FF4F2
:10529000BE6148480180D9F8002043888A1A4146F7
:1052A00092FBF1F262F30F04DAF800209A1A92FBF3
:1052B000F1F262F31F448388DBF800209A1A92FB14
:1052C000F1F262F30F053A4AC388121D1268DFF843
:1052D000EC809A1A92FBF1F20389D8F8387062F3E5
:1052E0001F45DB1B93FBF1F34089D8F8342063F3AF
:1052F0000F06801A90FBF1F060F31F4601F0E0F911
:105300005FF0000700F000FCD9F8001022B2114451
:10531000C9F80010DAF8001001EB2441CAF80010B7
:10532000DBF800102AB21144CBF800102048001D11
:10533000016801EB25410160D8F8381032B2114400
:10534000C8F83810D8F8341001EB2641C8F83410EA
:1053500001F0B6F90098FFF79FFB7F1CBFB2642FE6
:10536000D0D300F0D1FB13484FF4BE6201889142C4
:1053700000D91146C9F800104288CAF8002000E0A0
:105380000EE08288CBF800200949C288091D0A6016
:105390000289C8F838204089C8F8340001F090F933
:1053A0000A20FFF779FB55E73444014034480140B7
:1053B00034180040DA060020880000200040014038
:1053C00010B500211648FCF78FFD04211448FCF7A6
:1053D0008BFD00211348FCF787FD00211248FCF7E4
:1053E00083FD00211148FCF77FFD04210F48FCF7E5
:1053F0007BFD0F494FF4FA7008600E4940F2DC5013
:1054000008600D4940F6C4100860091D08600B488B
:105410004FF4E16181634FF42F71416310BD0000CF
:10542000D00A0020100B0020500B0020900B002011
:1054300034440140344801403418004000400140E9
:1054400030B40C780023324A552C02D14C78552CBC
:1054500001D0937357E08C78082C05D0172CF8D125
:10546000CB79012B1BD04CE00B7A4C7AC97903EB3A
:1054700004239BB2072910D2DFE801F00F040608CD
:105480000A0C0E00138008E0538006E0938004E0CD
:10549000D38002E0138100E05381012132E08B7A56
:1054A000022B2ED14B7B032B2BD10B7C042B28D131
:1054B000CB7C052B25D18B7D062B22D14B798C798A
:1054C00003EB042393810B7A4C7A03EB04231380C0
:1054D000CB7A0C7B03EB042353808B7BCC7B03EBDD
:1054E000042393804B7C8C7C03EB0423D3800B7DC3
:1054F0004C7D03EB04231381CB7D097E03EB01215B
:1055000051810221917330BC10220149FAF7E9BEA2
:10551000F80300201FB58DE80F00074800231A4646
:105520006946006800F008FC044800231A466946F2
:10553000006800F001FC1FBD98000020A0000020C2
:105540001FB5244EDFF89080DFF890A0DFF8909030
:105550004FF080454FF4D254EB4600BF00F0D4FA30
:10556000686AC0F5D25000906C623068A0F5D250E5
:1055700001903460D8F80010C1F5D2510291C8F8FA
:105580000040DAF80010A1F5D2510391CAF80040AA
:1055900000205A464FEA090152F8207051F8203095
:1055A0003B4441F82030401CC0B20428F4D301F041
:1055B00087F80C4F00231A466946F86800F0BCFBD8
:1055C00000231A460649786A00F0B6FB0A20FFF766
:1055D00063FAC3E72404004024080040240C004080
:1055E000EC0600208800002010B504464FF47A70C5
:1055F0000B46814201DD034606E01548834201DA8D
:10560000034603E0002B01DD022100E0D90F204614
:10561000FDF79CFD0F49082C0AD00A2C0DD00C2C4C
:1056200010D00E2C03D1002B00DA5B420B6410BDAE
:10563000002B00DA5B424B6310BD002B00DA5B42AB
:105640008B6310BD002B00DA5B42CB6310BD000002
:1056500018FCFFFF000001401FB51922164917482A
:10566000FCF726FF144D164C4FF0FF361A35314625
:10567000A06800F095FD00F047FA0F496846FFF773
:10568000DFFE0D48102269461A30FAF72AFE01F0B3
:1056900017F8A87B30B1084900231A461A31206A4E
:1056A00000F04AFB192204490448FCF701FF0A20D4
:1056B000FFF7F2F9DBE70000B0060020D00C002075
:1056C00088000020D0E9013201699A60D0E9012305
:1056D0005A604A68824201D182684A6000220261AF
:1056E0000868401E0860086870470000034B0360AC
:1056F00003F154000860802010607047FC06002011
:1057000000F108014FF0FF32C0E90112C1600161F0
:1057100000210160704700210161704730B50B68BE
:105720005A1C02D000F1080202E0026904E022469D
:10573000546825689D42FAD953684B6099608A6025
:10574000516008610168491C016030BD42684A60CF
:1057500093688B6093685960916008610168491C87
:1057600001607047502080F31188BFF34F8FBFF363
:105770006F8F0A494868401C486001280CD10848CE
:10578000006810F0FF0F07D0502080F31188BFF39E
:105790004F8FBFF36F8FFEE770470000440100207A
:1057A00004ED00E00849486828B1401E486001D176
:1057B00080F311887047502080F31188BFF34F8F1A
:1057C000BFF36F8FFEE700004401002070B5002892
:1057D00027D0144DA0F108046168E868014207D1A0
:1057E000502080F31188BFF34F8FBFF36F8FFEE718
:1057F00022683AB1502080F31188BFF34F8FBFF376
:105800006F8FFEE78143616000F07EF96068696830
:10581000084468602046FFF7F9FBBDE8704000F0DF
:105820004FBF70BD2C0100204FF0E020002101612E
:10583000816105494FF47A720968B1FBF2F1491EA2
:105840004161072101617047EC00002010B5FAF7B3
:1058500001FD114910280ED300F1E02090F8F0036B
:105860000A78904207D2502080F31188BFF34F8FFF
:10587000BFF36F8FFEE709480068896800F4E060B5
:10588000884207D9502080F31188BFF34F8FBFF3B0
:105890006F8FFEE710BD0000440100200CED00E01A
:1058A00010B5020014D00F48806B38B1502080F33F
:1058B0001188BFF34F8FBFF36F8FFEE700F024F91D
:1058C00000211046FFF7F0F900F0FAFE002807D19A
:1058D00005494FF080500860BFF34F8FBFF36F8FC3
:1058E00010BD0000F000002004ED00E002498A6ACB
:1058F0000260496941607047F000002001490120C1
:1059000048627047F000002010B50C4650B10949BC
:1059100009681831FFF702FF2046BDE81040012159
:10592000FFF7C2B9502080F31188BFF34F8FBFF348
:105930006F8FFEE7F000002070B504004BD0A26C22
:10594000A2B1606C884200D30146E06A884242D02E
:10595000012A40D1204D2A6894420FD1502080F373
:105960001188BFF34F8FBFF36F8FFEE7502080F396
:105970001188BFF34F8FBFF36F8FFEE7E162A2691B
:10598000002A02DBC1F10701A161144E00EB800087
:10599000616906EB800081421DD1201DFFF792FE58
:1059A000012150B9E06A00EB800256F8222022B9AA
:1059B000AA6901FA00F08243AA61E06AAA698140FB
:1059C0001143A96100EB800006EB8000211DBDE8BA
:1059D0007040FFF7BBBE70BDF000002070110020CA
:1059E00010B586B00024039405AA04A903A8049462
:1059F000FFF77CFEDDE903010094CDE901100023EF
:105A00000EA11048059A00F0EEFC0F4900284863EB
:105A100011D0502080F31188BFF34F8FBFF36F8FE9
:105A20004FF0FF3008630120C8614C6106B0BDE84B
:105A3000104000F09FB806B010BD000049444C452E
:105A400000000000FD4E0008F000002070B5044684
:105A5000FFF788FE294D04B92C68201DFFF732FEA0
:105A600058B9E06A264A00EB800152F8211021B9AA
:105A700001218140A8698843A861A06A18B104F196
:105A80001800FFF71FFE1E48211DDC30FFF75EFEE9
:105A900094F850000026012801D184F85060FFF7E7
:105AA00081FEE86928B1FFF75DFEFFF7E3FAFFF733
:105AB00079FE2868844213D1E86990B1A86B38B1A7
:105AC000502080F31188BFF34F8FBFF36F8FFEE735
:105AD0000C494FF080500860BFF34F8FBFF36F8FBA
