:020000040800F2
:1000000048C601209D0100080B0D00087D05000871
:10001000090D000809030008AD14000800000000E5
:10002000000000000000000000000000C90E0008F1
:100030002303000800000000B10D0008ED0F0008C8
:10004000B7010008B7010008B7010008B7010008B0
:10005000B7010008B7010008B7010008B7010008A0
:10006000B7010008B7010008B7010008B701000890
:10007000B7010008B7010008B7010008B701000880
:10008000B7010008B7010008B7010008B701000870
:10009000B7010008B7010008B7010008B701000860
:1000A000B7010008B7010008B7010008B701000850
:1000B000B7010008B7010008B7010008B701000840
:1000C000B7010008B7010008B7010008B701000830
:1000D000B701000819130008B7010008B7010008AC
:1000E000B7010008B7010008B7010008B701000810
:1000F000B7010008B7010008B7010008B701000800
:10010000B7010008B7010008B7010008B7010008EF
:10011000B7010008B7010008B7010008B7010008DF
:10012000B7010008B7010008B7010008B7010008CF
:10013000B7010008B7010008B7010008B7010008BF
:10014000B7010008B7010008B7010008B7010008AF
:10015000B7010008B7010008B7010008B70100089F
:10016000B7010008B7010008B7010008B70100088F
:10017000B7010008B7010008B7010008B70100087F
:10018000B7010008B7010008DFF80CD000F05CF8F8
:10019000004800477919000848C6012006488047F2
:1001A00006480047FEE7FEE7FEE7FEE7FEE7FEE75C
:1001B000FEE7FEE7FEE7FEE71110000889010008F0
:1001C000D2B201E000F8012B491EFBD27047002299
:1001D000F6E710B513460A4604461946FFF7F0FF46
:1001E000204610BD2DE9F05F0546002092469B4653
:1001F00088460646814640241BE02846414647463D
:10020000224600F042F853465A46C01A914110D394
:1002100011461846224600F029F82D1A67EB01080E
:100220004F4622460120002100F020F817EB00097C
:100230004E41201EA4F10104DFDC484631462A4627
:100240004346BDE8F09F0000064C074D06E0E0681D
:1002500040F0010394E8070098471034AC42F6D30D
:10026000FFF796FFF837000818380008202A04DB4B
:10027000203A00FA02F1002070479140C2F12003B9
:1002800020FA03F3194390407047202A04DB203AF8
:1002900021FA02F00021704721FA02F3D040C2F1A6
:1002A0002002914008431946704770B58D1810F828
:1002B000014B14F0030201D110F8012B231106D1D8
:1002C00010F8013B03E010F8016B01F8016B521EBE
:1002D000F9D1ABB110F8012B04F00C048A1A0C2CE4
:1002E00003D0A2EB84129B1C08E010F8014BA2EB98
:1002F0000422F8E712F8014B01F8014B5B1EF9D517
:10030000A942D4D3002070BDFEE710B500F0CEFFA7
:1003100000F0C4FEFF22BDE810401146104600F078
:10032000D5BD704770B586B00121084600F042FD8A
:100330000121102000F068FD00248DF816400120F6
:100340008DF8170002258DF815508DF814504002D5
:1003500004901C4E04A9304600F0BEF88DF81450ED
:100360006902049104A9304600F0B6F807220A2178
:10037000304600F0EFF807220921304600F0EAF895
:100380004FF4E1300090ADF80440ADF80640ADF810
:100390000840ADF80C400C20ADF80A000A4C694644
:1003A000204601F01DF800F0B1FC012240F2255179
:1003B000204600F0FAFF0121204600F0C3FF06B0FE
:1003C00070BD000000000240001001408000A0F15C
:1003D000C040002904D0016841F00101016070476C
:1003E0000168024A1140016070470000FEFF0F00E3
:1003F00070B501688900A1F1C0410B68344A13400F
:10040000D0E901242243D0E903452C432243446927
:10041000224384692243C4692243046A2243446A12
:100420002243846A2243C46A2243046B22431A4350
:100430000A608168082907D101688900A1F1C041DB
:100440000A6842F040020A600168491C8A00A2F171
:10045000C042116801F04044416BD1E9003543EAE4
:1004600005138D688E892D0245EA06452B430D8ABA
:1004700043EA05530D7D896943EA05630B43234332
:100480001360C16AB1F5804F08D000686FF0704109
:100490008000A0F1C040C0F8041170BD016889005F
:1004A000A1F1C041D1F804210A4B1A40806BD0E978
:1004B000003443EA041384688589240244EA05442D
:1004C0008069234303431343C1F8043170BD000026
:1004D0008000F7FF0000F0CF2DE9F0410022012756
:1004E0004FF0030C07FA02F50B682B40AB422CD1FE
:1004F000066853000CFA03F4A64306600E79D0F8A0
:1005000000809E4046EA080606600E79012E01D062
:10051000022E12D18668A64386604E79D0F80880F4
:100520009E4046EA080686604668AE4346604568D7
:100530008E799640B6B235434560C568A543C5601F
:10054000CC799C40C3681C43C460521C102AC9D398
:10055000BDE8F08110B54B07DB0E9A40C90800EBEF
:100560008100016A0F249C40A1430162016A11438A
:10057000016210BD4183704701837047FEE70000B0
:10058000054A4FF40071002802D01046FFF7F2BF71
:100590001046FFF7F1BF00000014024070B514468A
:1005A0001D462B46224600F0B5F9044904FB05F030
:1005B0004989BDE8704000F040B8000034C2012015
:1005C00001B502E00098401E009000980028F9D183
:1005D00008BD00B597B03C2108A8FFF7F8FD1C2125
:1005E00001A8FFF7F4FD0121084600F0F1FB04210A
:1005F00001910F200390880607900020029004903C
:10060000059006900891099008210A9110210B91FC
:100610000C900E900F90109009021191129013906F
:10062000149001A81590169008A8FFF7E1FE01218B
:100630000420FFF7CBFE17B000BD10B500222C241C
:100640004FF0D0431C8001E05980521C8242FBD302
:1006500010BD00002DE9FC5F0121782000F0AAFB0D
:1006600002248DF804408DF805404FF48049CDF800
:10067000009069467848FFF72FFF0C220E2176483C
:10068000FFF768FF4FF4004ACDF800A069467248B2
:10069000FFF722FF0C220F216F48FFF75BFF0125B8
:1006A000009569466C48FFF717FF0C2200216A4845
:1006B000FFF750FF009469466748FFF70DFF0C22D3
:1006C00001216548FFF746FF802000906946634896
:1006D000FFF702FF0C2207216048FFF73BFF4FF4B2
:1006E000807BCDF800B069465C48FFF7F5FE0C2230
:1006F00008215A48FFF72EFF260200966946574800
:10070000FFF7EAFE0C2209215448FFF723FF670296
:10071000009769465148FFF7DFFE0C220A214F4837
:10072000FFF718FF4FF40068CDF8008069464B488A
:10073000FFF7D2FE0C220B214848FFF70BFFE00227
:10074000009069464548FFF7C7FE0C221146434812
:10075000FFF700FF2003009069464048FFF7BCFE0A
:100760000C220D213D48FFF7F5FECDF800906946BB
:100770003A48FFF7B1FE0C220E213848FFF7EAFE97
:10078000CDF800A069463548FFF7A6FE0C220F21E0
:100790003248FFF7DFFECDF800B069462E48FFF77C
:1007A0009BFE0C2208212C48FFF7D4FE00966946D8
:1007B0002948FFF791FE0C2209212748FFF7CAFEBE
:1007C000009769462448FFF787FE0C220A21224839
:1007D000FFF7C0FE1020009069461F48FFF77CFE1F
:1007E0000C2204211C48FFF7B5FE2020009069462A
:1007F0001948FFF771FE0C2205211748FFF7AAFEE2
:100800000097174F69463846FFF766FE0C220A210B
:100810003846FFF79FFE0095124F69463846FFF7AE
:100820005BFE0C2200213846FFF794FE8DF8045041
:1008300000208DF806008DF807508DF80540CDF8A2
:10084000008069463846FFF747FE009669463846FD
:10085000FFF742FEBDE8FC9F000C02400010024082
:10086000001802400014024010B507283BD81E4B68
:100870001870C4074FF0F0014FF4A07214D05A80E2
:10088000998036224FF0D0410A80DA88A2F51344CD
:10089000413C04D0A2F50544523C08D009E00822AE
:1008A00042EA4010488004E059809A80E9E740011C
:1008B00048802A2008800020488048805888401EB0
:1008C000C0F307224A80C0B248802B200880002055
:1008D000488048809888401EC0F307224A80C0B2F2
:1008E00048802C20088010BD34C2012010B5FFF7CD
:1008F000B1FEFFF76EFE0120FFF742FE00F0C0F9E7
:1009000000F024F802480078BDE81040FFF7ACBFC3
:1009100034C2012030B52A254FF0D0442580050A85
:100920006580C5B265801044401E020A6280C0B274
:1009300060802B202080080A6080C8B26080C818C0
:10094000401E010A6180C0B2608030BD10B500F069
:100950006BF9B349C880B349A0F513424FF0D044B6
:10096000413A7DD0A0F50542523A7AD1CF2020807D
:1009700000206080C120608030206080ED202080D9
:10098000642060800320608012206080812060806D
:10099000E8202080852060801020608078206080A2
:1009A000CB202080392060802C2060800020608057
:1009B0003420608002206080F7202080202060802A
:1009C000EA202080002060806080C02020802120DC
:1009D0006080C120208011206080C52020802D20D3
:1009E00060803320608036202080002060803A20A4
:1009F000208055206080B12020800020608017205A
:100A00006080B62020800A206080A2206080F620CE
:100A100020800120608030206080F2202080002033
:100A200060802620208001206080E0202080D0206F
:100A300060800020608002206080072060800B20A2
:100A400060801A20608031206080542060804020C7
:100A5000608029206080122060806080608001E0DA
:100A60002AE028E017206080E1202080D0206080EC
:100A70000020608002206080072060800520608068
:100A8000252060802D20608044206080452060808B
:100A90001C20608018206080162060801C206080F0
:100AA0001D206080112020800846FFF789FD292045
:100AB00020802C20208010BDCF202080002060804E
:100AC0008120608030206080ED2020806420608064
:100AD000032060801220608081206080E8202080D8
:100AE000852060801020608078206080CB2020806E
:100AF000392060802C20608000206080342060805D
:100B000002206080F720208020206080EA20208062
:100B1000002060806080B1202080002060801B2049
:100B20006080B62020800A206080A2206080C020E3
:100B3000208035206080C120208011206080C52069
:100B40002080452060806080C7202080A2206080B7
:100B5000F2202080002060802620208001206080FC
:100B6000E02020800F20608026206080242060808C
:100B70000B2060800E2060800920608054206080FF
:100B8000A8206080462060800C2060801720608054
:100B9000092060800F206080072060800020608036
:100BA000E120208000206080192060801B20608070
:100BB0000420608010206080072060802A206080F0
:100BC000472060803920608003206080062060809C
:100BD000608030206080382060800F206080362068
:100BE0002080C82060802A202080002060806080D3
:100BF0006080EF2060802B2020800020608060805B
:100C0000012060803F2060803A2020805520608055
:100C1000112020800846FFF7D3FC2920208010BD3A
:100C200034C20120FCBF020010B504204FF0D041B7
:100C300008804888488848884FF6FF7303EA0022F6
:100C400048881043A0F50542523A0FD0D3200880BF
:100C500048884888488803EA00204C880443214695
:100C600004A000F025FC14B149F2413010BD002071
:100C700010BD00006964203D202534780D0A000075
:100C800070B50A4D4FF4006421462846FFF772FC08
:100C900040F6FF263046FFF793FC21462846FFF733
:100CA0006BFC3046BDE87040FFF78ABC0014024080
:100CB00001231A46FFF72EBE1CB50121052000F0C6
:100CC00079F80120009000208DF804008DF80700CD
:100CD00069460548FFF700FC4FF400500090694654
:100CE0000248FFF7F9FB1CBD00000240000802406B
:100CF000014A10815181704734C201200149C86006
:100D00007047000034C20120FEE7704708B54FF479
:100D1000A06000F043F825208DF8000001208DF838
:100D200001008DF802008DF80300684600F002F81B
:100D300008BD000030B50F23C27801250178002AD4
:100D40001FD0154A126802F4E062C2F5E062C2F3F5
:100D50000722C2F10404D3404278A24084781C40A8
:100D60001443220101F1E02181F80024007800F011
:100D70001F018D404009800000F1E020C0F80051C3
:100D800030BD01F01F0085404809800000F1E020DF
:100D9000C0F8805130BD00000CED00E0024908436E
:100DA00002490860704700000000FA050CED00E001
:100DB00070470000054A002903D011680143116003
:100DC000704711688143116070470000303802405D
:100DD000054A002903D0116801431160704711686A
:100DE000814311607047000038380240054A0029ED
:100DF00003D011680143116070471168814311608D
:100E00007047000040380240054A002903D01168AD
:100E10000143116070471168814311607047000001
:100E20004438024070B5244B196801F00C01234C82
:100E300000291ED0224E04291DD008291DD004608F
:100E4000196801F0F00109091E4A545C0168E1408B
:100E500041601C6804F4E054A40A145D21FA04F40F
:100E600084601B6803F460435B0BD25CD140C160BB
:100E700070BD0460E4E70660E2E70F4A121F1168E4
:100E8000C1F38055116801F03F0135B1B6FBF1F1B6
:100E90001468C4F38814614305E0B4FBF1F11468ED
:100EA000C4F3881461431268C2F30142521C520019
:100EB000B1FBF2F10160C3E7083802400024F400FE
:100EC00040787D011400002070470000034B18603B
:100ED0000348016003480260704700003444014049
:100EE00034480140341C0040054AC0F307411160FA
:100EF000044AC0F3072111600349C0B2086070477B
:100F00003444014034480140341C00400CB50022F8
:100F1000019200922749086840F4803008604FF43D
:100F2000A043086800F4003000900198401C019034
:100F3000009810B901989842F3D10868800302D54F
:100F40000120009000E000920098012831D119485A
:100F50004030026842F0805202601748026842F452
:100F6000404202601348083002680260026842F49E
:100F700000420260026842F4A0520260021F0F4B5E
:100F800013600A6842F080720A600A689201FCD518
:100F90000B4A40F205711160016821F00301016004
:100FA000016841F0020101600168C1F38101022979
:100FB000FAD10CBD003802400070004019544007BF
:100FC000003C0240401EB0F1807F01D301207047F9
:100FD0004FF0E0214861044AF02010700020886141
:100FE000072008610020704723ED00E070470000F3
:100FF00010B5054805490068B0FBF1F0FFF7E2FFC6
:10100000002800D0FEE710BD00000020A0860100EF
:1010100010B51248016841F4700101601048016880
:1010200041F0010101600E4A00210832116002689E
:101030000C4B1A400260031D0B4A1A60026822F42E
:101040008022026006480C300160FFF75FFF034911
:101050004FF000608039086010BD000088ED00E0AE
:1010600000380240FFFFF6FE10300024002904D0B3
:10107000018841F0800101807047018821F08001E2
:1010800001807047002904D0018841F001010180EE
:101090007047018821F00101018070472DE9F0417E
:1010A00088B001214804FFF7AFFE01218804FFF753
:1010B000ABFE01218020FFF799FEFF200690394CFE
:1010C000394F4FF0FF352068B0FBF7F0C0EB001050
:1010D00005EB4000ADF814000026ADF81C60ADF83B
:1010E0001660DFF8C88005A9404600F0A1F8206826
:1010F000B0FBF7F1C1EB011005EB4000ADF81400B7
:101100002B4F05A9384600F093F82A492068B0FB18
:10111000F1F1C1EB011005EB4000ADF81400264CD5
:1011200005A9204600F084F86020ADF800000120F9
:10113000ADF8020002960220ADF80C006946404668
:1011400000F03CF80821404600F06CF8694638464B
:1011500000F034F80821384600F064F8694620466B
:1011600000F02CF80821204600F05CF801214046F0
:10117000FFF77CFF01213846FFF778FF0121204669
:10118000FFF774FF01214046FFF77CFF012138463D
:10119000FFF778FF01212046FFF774FF08B0BDE894
:1011A000F08100000000002040420F000044014098
:1011B0000048014080841E00001C004030B5028CB5
:1011C00022F001020284058C8388028B22F07002D7
:1011D00022F003020C88144325F002028D89154386
:1011E0004A882A430D4DA84202D00D4DA8420FD186
:1011F00022F00805CA892A4322F004058A882A4376
:1012000023F4807323F400730D8A1D434B8A2B4310
:101210008380048389684163028430BD00000140FB
:1012200000040140028B22F008020A430283704747
:1012300030B50288164C174DA0420DD0A8420BD0F5
:10124000B0F1804F08D0144B984205D0134B984210
:1012500002D0134B984203D122F070034A881A43FC
:10126000104B984206D0104B984203D022F44073A2
:101270000A891A4302804A68C2620A880285A0422B
:1012800001D0A84201D1897A01860121818230BD35
:10129000000001400004014000040040000800403C
:1012A000000C004000100040001400401CB501215B
:1012B0002020FFF77FFD174C032206212046FFF771
:1012C00049F9032207212046FFF744F909220821A2
:1012D0002046FFF73FF94021009102218DF80410CC
:1012E00000218DF806108DF8071003218DF80510E8
:1012F00069462046FFF7F0F88021009169462046B4
:10130000FFF7EAF8A115009169462046FFF7E4F8D7
:101310001CBD00000014024010B5094C40F22551DC
:10132000204600F022F8002808D0204600F0B6F849
:10133000C1B22046BDE8104000F0B4B810BD0000B6
:1013400000100140002904D0818941F400518181BD
:101350007047818921F40051818170470246002045
:1013600012880A4200D00120704770B5002440F670
:101370006A12C1F3421301F01F05012606FA05F2B5
:10138000012B0CD0022B0DD0838A1340090A8E400A
:10139000008830400BB100B10124204670BD838924
:1013A0001340F3E7038A1340F0E710B540F66A13E1
:1013B000C1F3421301F01F040121A140012B07D00A
:1013C000022B07D014303AB102680A43026010BD04
:1013D0000C30F8E71030F6E702688A43026010BD6F
:1013E0007FB504460D46208A20F44051E888084322
:1013F0002082A08941F20C618843A9882A8911437F
:101400006A8902431143A181A08A20F44071A8890E
:101410000843A0826846FFF705FD1E48844202D0BB
:101420001D48844201D1039800E00298A189090473
:1014300008D500EBC00101EB001029684900B0FBA2
:10144000F1F007E000EBC00101EB00102968890012
:10145000B0FBF1F06422B0FBF2F109010B096FF06F
:1014600018056B4300EB8300A3891D044FF0320382
:1014700007D503EBC000B0FBF2F000F00700084313
:1014800006E003EB0010B0FBF2F000F00F000843A1
:1014900020817FBD00100140001401408088C0F30E
:1014A00008007047C1F3080181807047FEE7000023
:1014B0000FB4054B10B503A9044A029800F018F8C0
:1014C00010BC5DF814FB00005519000844C201204F
:1014D00002E008C8121F08C1002AFAD170477047FD
:1014E000002001E001C1121F002AFBD1704700005B
:1014F0002DE9FF4F8DB00F460546002606E0252852
:101500000BD0DDE90F1290476D1C761C287800285F
:10151000F5D111B03046BDE8F08F0024A246A146B7
:101520000122EC4900E0044315F8013F203B02FA98
:1015300003F00842F7D128782A2810D06FF02F0244
:101540002878A0F13001092914D80AEB8A0102EBAE
:10155000410144F0020400EB010A6D1CF0E701CFE9
:101560005FEA000A03D544F40054CAF1000A44F0CB
:1015700002046D1C28782E2817D115F8010F44F0AD
:1015800004042A280ED06FF02F022878A0F1300131
:1015900009290AD809EB890102EB410100EB010995
:1015A0006D1CF2E757F8049B6D1C28786C280FD04F
:1015B00006DC4C2817D068280DD06A2814D104E026
:1015C000742810D07A280FD10DE044F400140AE0FA
:1015D00044F4801401E044F440146978814202D15B
:1015E00004F580146D1C6D1C2A786E2A1FD00CDC4B
:1015F000632A31D004DC002A8BD0582A11D1A3E011
:10160000642A68D0692A0CD165E0732A2ED004DCE4
:101610006F2A73D0702A04D19BE0752A6FD0782A84
:101620006ED01046DDE90F129047761C50E1C4F3EE
:101630000250022806D0032809D0042801CF09D07F
:10164000066045E101CFF117C0E9006140E101CF3B
:1016500006803DE106703BE117F8040B8DF80000B1
:1016600000208DF80100EB46012003E057F804BB91
:101670004FF0FF3061074FF0000102D40DE008F198
:101680000101884649450FDA8045F8DB1BF8081050
:101690000029F4D108E008F1010188468142FADB13
:1016A0001BF808100029F6D1DDE90F23AAEB08008A
:1016B0008146214600F036F9304400EB080604E08C
:1016C000DDE90F121BF8010B9047B8F10108F7D2C2
:1016D00021464846F7E00A21C4F302534FF0000BBD
:1016E0000891022B04D001CFC117032B09D00AE0C7
:1016F000FF1D27F00707F7E8020108E032E01FE0CE
:1017000020E000B2C117042B01D140B2C117031E63
:1017100071F1000307DA4FF0000CD0EB0C006CEB1A
:1017200001012D2302E0230504D52B238DF824305D
:10173000012303E0E30701D02023F7E7984658E0B0
:101740000A2110E010210EE010204FF0000B08904D
:101750000CE010214FF0000B44F004044FF0080996
:10176000089103E008214FF0000B0891C4F30253E5
:10177000022B04D001CF0021032B06D006E0FF1D71
:1017800027F00707F7E8020103E080B2042B00D13D
:10179000C0B24FF0000823072BD5702A07D0DDF820
:1017A00020C08CF0100C5CEA0B0C05D00EE040233E
:1017B0008DF82430012308E050EA010306D03023DD
:1017C0008DF824308DF8252002239846DDF820C0BE
:1017D0008CF0080C5CEA0B0C0BD150EA010301D130
:1017E000630706D530238DF824304FF00108A9F1A6
:1017F0000109582A04D038A20B9208AA0A920BE0D9
:101800003AA2F9E75B46089AFEF7ECFC0B9B9B5C5F
:101810000A9A521E0A92137050EA0102F2D10A98F3
:10182000ADEB000000F1200B600702D524F48034FA
:1018300001E04FF00109D94502DDA9EB0B0000E002
:10184000002000EB0B0141440890AAEB010AE003E1
:1018500006D4DDE90F232146504600F063F8064424
:101860004FF0000908E009A911F80900DDE90F129D
:10187000904709F10109761CC145F4DBE0030CD562
:10188000DDE90F232146504600F04CF8064404E001
:10189000DDE90F1230209047761C0899481E089009
:1018A0000029F5DC08E00A980A990078491C0A9199
:1018B000DDE90F129047761CBBF10001ABF1010B83
:1018C000F1DC21465046DDE90F2300F019F806440B
:1018D0006D1C1BE6092801003031323334353637B0
:1018E000383961626364656600000000303132336C
:1018F000343536373839414243444546000000000C
:101900002DE9F041044600251E461746880404D4FC
:1019100005E039462020B0476D1C641EF9D52846E5
:10192000BDE8F0812DE9F041044600251E469046B1
:10193000C80301D5302700E02027880404D505E03E
:1019400041463846B0476D1C641EF9D52846BDE8AF
:10195000F081000070B50446064DE1B22846FFF75D
:10196000A1FD80212846FFF7F9FC0028F9D0204688
:1019700070BD000000100140FEF7D4FCFFF738FBFB
:10198000FFF79AF9FEF7B2FF0620FEF76DFFFEF7AC
:10199000BCFC0C48FFF7B2F900210846FFF7A8F994
:1019A000094800210388094802880846FEF7F6FD29
:1019B0000748FFF799FAF021064A084600F00CF8AC
:1019C000FEE700002CC2012038C2012036C20120EF
:1019D000A9B70D00240000202DE9F04707468946ED
:1019E00090460026002500214FF49630FEF725FE94
:1019F00025E000241FE06B1C18F8050018F8031000
:101A0000AD1C00EB012AC9F5A07303EBD37006EB04
:101A1000600081B2C7F1F00000EBD07004EB600011
:101A200080B2FFF745F92C204FF0D0410880A1F893
:101A300002A0641CA4B2BC42DDD3761CB6B24E45F3
:101A4000D7D3BDE8F08700000000000000000000D0
:101A500000000000000000000018181818181808EE
:101A600000081800000000000034242424000000B6
:101A70000000000000000000000016247F24242441
:101A80007E2424000000000000083E6848681C1600
:101A900012127C10100000000061D296740810161B
:101AA0002949C6000000000000003C646438724A06
:101AB000CE467F0000000000001818181800000033
:101AC0000000000000000000000408181030303052
:101AD000301010180C04000000201008080C04043A
:101AE000040C08181020000000080A341C6A0800C2
:101AF0000000000000000000000000001818187F1F
:101B0000181818000000000000000000000000008D
:101B10000018180830000000000000000000003C21
:101B200000000000000000000000000000000000B5
:101B30000018180000000000000206040C0808103D
:101B4000102020400000000000003C6642475B730C
:101B500042663C00000000000000187848080808B1
:101B600008087E000000000000003C46060604084D
:101B700010207E000000000000007C0606043C02ED
:101B800002067C000000000000000C1C14246444C9
:101B9000FF0404000000000000007E6060607E0220
:101BA00002067C000000000000001E306048764203
:101BB00042623C000000000000007E0206040C08A7
:101BC000181030000000000000003C6242361C6625
:101BD00042423C000000000000003C664242661A9F
:101BE0000204780000000000000000001818000047
:101BF0000018180000000000000000001818000085
:101C000000181808300000000000000004183060C0
:101C1000100C0600000000000000000000007E0024
:101C20007E000000000000000000000030180406E4
:101C30000C1020000000000000301C0606061810E2
:101C40000010100000000000001C224141DDB5A57D
:101C5000A5AF94C0403C00000000181C342426624C
:101C60007E43C1000000000000007C4642467C42EA
:101C700042427C000000000000001E204040404026
:101C800040603E000000000000007C4642434343A9
:101C9000424678000000000000007E6060607E60C8
:101CA00060607E000000000000007E6060607E607A
:101CB000606060000000000000001E604040CE42F6
:101CC00042623E00000000000000424242427E426A
:101CD000424242000000000000007E181818181848
:101CE00018187E000000000000007C0404040404B6
:101CF000044478000000000000004244485070583E
:101D00004C44420000000000000020202020202041
:101D100020203E000000000000006266675F5B5B01
:101D2000C1C1C100000000000000626272525A4A44
:101D30004E4646000000000000003C6243C3C3C39F
:101D400043623C000000000000007C4642424678AE
:101D5000404040000000000000003C6243C3C3C399
:101D600043623C180F00000000007C6662667C6CD9
:101D7000646662000000000000003E6040601C06D7
:101D800002027C000000000000007F1818181818DC
:101D9000181818000000000000004242424242426F
:101DA00042623C00000000000000C1434262262461
:101DB000341C1800000000000000C1C141495B5BF9
:101DC0007666660000000000000043663418181CA8
:101DD0002466C300000000000000C14266341C18E5
:101DE000181818000000000000007E02040C1810F3
:101DF00020607E0000000000001C10101010101069
:101E000010101010101C00000040202010100808B6
:101E10000C04060200000000003C0C0C0C0C0C0C26
:101E20000C0C0C0C0C3C00000000181C2462000080
:101E300000000000000000000000000000000000A2
:101E40000000000000FF0000002010000000000063
:101E50000000000000000000000000003C06023E00
:101E600042467A0000000000004040405C6242426E
:101E700042427C0000000000000000001E20604084
:101E800060203E0000000000000202023E6242426A
:101E900042663A0000000000000000003C62427E02
:101EA00040603E0000000000000F1810107E10106F
:101EB0001010100000000000000000003F664266A5
:101EC00058403E43423C0000004040405C62424279
:101ED000424242000000000000181800780808087C
:101EE00008087E000000000000040C007C040404CC
:101EF000040404040C78000000606060626C787078
:101F000068646200000000000078080808080808FB
:101F100008087E000000000000000000764B4B4BDC
:101F20004B4B4B0000000000000000005C6242428E
:101F30004242420000000000000000003C624243B8
:101F400042623C0000000000000000005C6242426F
:101F500042427C4040400000000000003E6242429D
:101F600042663A0202020000000000006E726360E6
:101F70006060600000000000000000003E20203C87
:101F800006027C000000000000001010FE1010107F
:101F900010101E00000000000000000042424242FB
:101FA00042663A0000000000000000004342662440
:101FB000341818000000000000000000C1C15B5A86
:101FC0005E666600000000000000000062261C182B
:101FD0001C2662000000000000000000434266244E
:101FE000341C181830E00000000000007E060C18B9
:101FF00010207E0000000000000E1810101030703D
:1020000010101010180E000008080808080808082A
:1020100008080808080800000030180808080C0E16
:102020000808080818300000000000000000714B8C
:10203000060000000000000000000000000000009A
:102040000000000000000000000000000000000090
:102050000000000000000000000000000000000080
:102060000000000000000000000000000000000070
:102070000000000000000000000000000000000060
:1020800000000380038001800180018001800180C5
:1020900001800180018001800180018001800000B9
:1020A0000000038003C00380000000000000000067
:1020B0000000000000000000000000000000000020
:1020C00000000E700E700E700E700E700C300C3022
:1020D0000000000000000000000000000000000000
:1020E00000000000000000000000000000000000F0
:1020F00000000000000000000000000000000000E0
:1021000000000000000006180638063006307FFE8A
:102110007FFE0C300C300C300C307FFE7FFE0C60EC
:102120001C601860186018600000000000000000CB
:10213000000000000000000000000000000000009F
:1021400000C000C000C007F81FF838C031C031809F
:1021500039803D801F8007F001F803BC031C030C8D
:10216000031C233C3FF83FE0070006000600000088
:10217000000000000000000000000000000000005F
:1021800000001C077E06630C6318633863307E60B2
:102190003CE000C0018003800338067E0CC61CC6EC
:1021A00018C630C670EE607C000000000000000021
:1021B000000000000000000000000000000000001F
:1021C000000000000FC01FE01870387038701870E1
:1021D0001CE00FC00F003F8C3B8C71CC60EC607C2E
:1021E0007038707C3FFE1FCF000000000000000030
:1021F00000000000000000000000000000000000DF
:10220000000003C003C003800180018001800180C1
:1022100000000000000000000000000000000000BE
:1022200000000000000000000000000000000000AE
:10223000000000000000000000000000000000009E
:1022400000000030006000E001C0038003000700D0
:10225000070006000E000E000E000E000E000E001D
:102260000600070007000380038001C000E0007043
:10227000003000000000000000000000000000002E
:1022800000000C000E000700038001C001C000E048
:1022900000E000600070007000700070007000606E
:1022A000006000E000E001C001C0038007000E00F4
:1022B0000C00000000000000000000000000000012
:1022C000000001800180018819980FF803C003C045
:1022D0001FF81998018001800180000000000000B3
:1022E00000000000000000000000000000000000EE
:1022F00000000000000000000000000000000000DE
:1023000000000000000000000000000001800180CB
:1023100001800180018001807FFE7FFE01800180BD
:10232000018001800180000000000000000000002A
:10233000000000000000000000000000000000009D
:10234000000000000000000000000000000000008D
:10235000000000000000000000000000000000007D
:10236000038003C003C001C001C001C007801F007B
:10237000100000000000000000000000000000004D
:10238000000000000000000000000000000000004D
:1023900000000000000000000FF00FF0000000003F
:1023A000000000000000000000000000000000002D
:1023B000000000000000000000000000000000001D
:1023C000000000000000000000000000000000000D
:1023D00000000000000000000000000000000000FD
:1023E00003C003C003C003C00000000000000000E1
:1023F00000000000000000000000000000000000DD
:102400000000001C00180038003000700060006000
:1024100000C000C001C00180038003000700060067
:102420000E000C000C0018001800380030000000EE
:10243000000000000000000000000000000000009C
:1024400000000000000007F01FF81838381C300C9E
:10245000303C707E71EE73CE7F0E7E0E380C300CE9
:10246000381C1C381FF007E00000000000000000CE
:10247000000000000000000000000000000000005C
:1024800000000000000003C00FC03FC039C001C001
:1024900001C001C001C001C001C001C001C001C034
:1024A00001C001C03FFC3FFC000000000000000034
:1024B000000000000000000000000000000000001C
:1024C0000000000000000FE03FF01838003800184E
:1024D000001800380030007000E001C003800700E1
:1024E0000E001C003FFC3FFC00000000000000004C
:1024F00000000000000000000000000000000000DC
:102500000000000000001FE01FF000380038003815
:102510000038007007E007F00078001C001C001C69
:10252000001C00383FF03FC0000000000000000029
:10253000000000000000000000000000000000009B
:1025400000000000000000F001F001B0033007308F
:1025500006300C301C303830303070307FFE7FFE5B
:1025600000300030003000300000000000000000AB
:10257000000000000000000000000000000000005B
:102580000000000000001FF81FF8180018001800D5
:10259000180018001FE01FF80038001C001C001C69
:1025A000001800381FF01FC00000000000000000ED
:1025B000000000000000000000000000000000001B
:1025C00000000000000001F807F80E001C001800D1
:1025D000380031C03FF83E3C301C300C300C380C19
:1025E000380C1C1C1FF807E0000000000000000071
:1025F00000000000000000000000000000000000DB
:102600000000000000003FFC3FFC001C00180038E8
:1026100000300070006000E000C001C00180038055
:10262000070007000E000E00000000000000000080
:10263000000000000000000000000000000000009A
:102640000000000000000FF01E78381C381C381CF9
:102650003C181E780FE007E01E783C3C381C300C1C
:10266000300C381C1FF80FF00000000000000000C4
:10267000000000000000000000000000000000005A
:102680000000000000000FE01E783838301C701C7D
:10269000700C300C381C3EFC0FEC001C001C0018A9
:1026A000003800F01FE01F000000000000000000E4
:1026B000000000000000000000000000000000001A
:1026C000000000000000000000000000000003C047
:1026D00003C003C0018000000000000000000000F3
:1026E000018003C003C003C0000000000000000020
:1026F00000000000000000000000000000000000DA
:10270000000000000000000000000000000003C006
:1027100003C003C0018000000000000000000000B2
:1027200003C003C003C001C001C001C007800F0087
:102730000000000000000000000000000000000099
:1027400000000000000000000000001000380070D1
:1027500001E003C007000E003C001C000E000780D3
:1027600001C000E000780010000000000000000040
:102770000000000000000000000000000000000059
:102780000000000000000000000000000000000049
:10279000000000003FFC0000000000003FFC3FFC88
:1027A0000000000000000000000000000000000029
:1027B0000000000000000000000000000000000019
:1027C0000000000000000000000008001C000E00D7
:1027D000070003C000E00070003C0038007001E01A
:1027E000038007001E000800000000000000000039
:1027F00000000000000000000000000000000000D9
:1028000000000E000FC003E00070003800380038F0
:102810000038007803F003C0030003000300000049
:102820000000070007800700000000000000000013
:102830000000000000000000000000000000000098
:10284000000001E007F80E1C1C0E180630063003CD
:1028500061F363F36633E673CE63CC63CC66CC6618
:10286000CCE6CFFCC73C60006000600030003C302C
:102870001FF0000000000000000000000000000049
:1028800000000000000003C003C007E006E006608F
:102890000E700C700C301C381838381C3FFC3FFC94
:1028A000700E700E6006E0070000000000000000DF
:1028B0000000000000000000000000000000000018
:1028C0000000000000003FF03FF83838381C381C8A
:1028D000381838383FF03FF0383C381C380C380C8A
:1028E000381C383C3FF83FE00000000000000000CA
:1028F00000000000000000000000000000000000D8
:1029000000000000000007FC0FFC1E00380038002B
:1029100030007000700070007000700030003800EF
:102920003C001E040FFC03FC00000000000000003F
:102930000000000000000000000000000000000097
:102940000000000000003FE03FF03038301C300C49
:10295000300E300E300E300E300E300E300C301C7B
:10296000301C30783FF03F80000000000000000085
:102970000000000000000000000000000000000057
:102980000000000000001FF81FF8180018001800D1
:10299000180018001FF81FF8180018001800180079
:1029A000180018001FF81FF80000000000000000C9
:1029B0000000000000000000000000000000000017
:1029C0000000000000001FF81FF818001800180091
:1029D000180018001FF81FF8180018001800180039
:1029E0001800180018001800000000000000000087
:1029F00000000000000000000000000000000000D7
:102A000000000000000007FC0FFC1C003800300034
:102A10007000700070FC70FC700C700C700C300C4E
:102A2000380C1C0C0FFC07FC00000000000000002C
:102A30000000000000000000000000000000000096
:102A4000000000000000300C300C300C300C300C5A
:102A5000300C300C3FFC3FFC300C300C300C300C98
:102A6000300C300C300C300C000000000000000076
:102A70000000000000000000000000000000000056
:102A80000000000000003FFC3FFC0180018001804D
:102A9000018001800180018001800180018001802E
:102AA000018001803FFC3FFC0000000000000000AE
:102AB0000000000000000000000000000000000016
:102AC0000000000000001FF01FF000300030003058
:102AD0000030003000300030003000300030003076
:102AE000003010701FE01FC0000000000000000058
:102AF00000000000000000000000000000000000D6
:102B0000000000000000381C3838387038E038C049
:102B100039803B003F003F003B003B8039C038E03C
:102B200038703838383C381C0000000000000000C5
:102B30000000000000000000000000000000000095
:102B40000000000000001C001C001C001C001C00F9
:102B50001C001C001C001C001C001C001C001C0095
:102B60001C001C001FFC1FFC0000000000000000F7
:102B70000000000000000000000000000000000055
:102B8000000000000000381C381C6C3E6C3E6C6E6F
:102B9000666E666E67CE63CE63866186600660068B
:102BA000600660066006600600000000000000008D
:102BB0000000000000000000000000000000000015
:102BC000000000000000380C3C0C3C0C3E0C360CA5
:102BD000370C330C338C318C31CC30CC30EC306C46
:102BE000307C303C303C301C000000000000000015
:102BF00000000000000000000000000000000000D5
:102C00000000000000000FF01FF8381C381C700E88
:102C1000700E700E600660066006700E700E700C0E
:102C2000381C3C381FF80FE00000000000000000D6
:102C30000000000000000000000000000000000094
:102C40000000000000003FE03FF8383C381C380C22
:102C5000380C380C381C38783FF03FC0380038004A
:102C60003800380038003800000000000000000084
:102C70000000000000000000000000000000000054
:102C80000000000000000FF01FF8381C381C700E08
:102C9000700E700E600660066006700E700E700C8E
:102CA000381C3C381FF80FE00180018001E200FF72
:102CB000003C0000000000000000000000000000D8
:102CC0000000000000003FE03FF83838381838189E
:102CD000381838383FF03FC039E03860387038383D
:102CE0003838381C381C380E000000000000000086
:102CF00000000000000000000000000000000000D4
:102D00000000000000000FF81FF838003800300005
:102D100038001E000F8007F000F8003C001C001C6B
:102D2000001C003C3FF83FE00000000000000000F5
:102D30000000000000000000000000000000000093
:102D40000000000000007FFE7FFE01800180018006
:102D5000018001800180018001800180018001806B
:102D6000018001800180018000000000000000005F
:102D70000000000000000000000000000000000053
:102D8000000000000000300C300C300C300C300C17
:102D9000300C300C300C300C300C300C300C300C53
:102DA000301C381C1FF80FE000000000000000007D
:102DB0000000000000000000000000000000000013
:102DC000000000000000E0077006700E700E380C66
:102DD000381C38181C181C380C300E700E70066029
:102DE00007E007E003C003C000000000000000008F
:102DF00000000000000000000000000000000000D3
:102E000000000000000060066006600660066006C4
:102E10006006618663C673C673CE76EE366C366C1A
:102E20003C7C3C3C3C3C381C0000000000000000A6
:102E30000000000000000000000000000000000092
:102E4000000000000000700E381C1C381C380E708A
:102E500006E007E003C003C003C007E00E701C30AB
:102E60001C38381C701E700E0000000000000000AE
:102E70000000000000000000000000000000000052
:102E8000000000000000E006700E380C381C1C38F2
:102E90001C300E70066007E003C0018001800180D5
:102EA000018001800180018000000000000000001E
:102EB0000000000000000000000000000000000012
:102EC0000000000000003FFC3FFC001C00380070C8
:102ED000006000E001C00380038007000E000C00CA
:102EE0001C0038003FFC3FFC000000000000000018
:102EF00000000000000000000000000000000000D2
:102F0000000007F007F006000600060006000600B5
:102F10000600060006000600060006000600060081
:102F20000600060006000600060006000600060071
:102F300007F000000000000000000000000000009A
:102F40000000380018001C000C000C0006000600F1
:102F5000070003000380018001C000C000E00060A2
:102F600000600030003000380018001C000C000029
:102F70000000000000000000000000000000000051
:102F800000000FE00FE00060006000600060006083
:102F90000060006000600060006000600060006031
:102FA0000060006000600060006000600060006021
:102FB0000FE0000000000000000000000000000022
:102FC000000000000000038003C006E006600C3033
:102FD0001C381818301C0000000000000000000021
:102FE00000000000000000000000000000000000E1
:102FF00000000000000000000000000000000000D1
:1030000000000000000000000000000000000000C0
:1030100000000000000000000000000000000000B0
:103020000000000000000000000000000000FFFFA2
:10303000FFFF000000000000000000000000000092
:1030400000001C000E0007000180000000000000CE
:103050000000000000000000000000000000000070
:103060000000000000000000000000000000000060
:103070000000000000000000000000000000000050
:1030800000000000000000000000000000001FF031
:103090001EF80018001C001C07FC1FFC3C1C381C00
:1030A000301C387C3FFC1FDC0000000000000000EA
:1030B0000000000000000000000000000000000010
:1030C00000003800380038003800380038003BF085
:1030D0003FF83E1C380C380C380C380C380C380CC7
:1030E000381C38383FF01FE00000000000000000EE
:1030F00000000000000000000000000000000000D0
:10310000000000000000000000000000000003F8C4
:103110000FF81E001C003800380038003800380056
:103120001C001E000FF803F8000000000000000063
:10313000000000000000000000000000000000008F
:103140000000001C001C001C001C001C001C07FCD4
:103150001FFC181C381C301C301C301C301C301C50
:10316000383C387C1FDC0F9C000000000000000091
:10317000000000000000000000000000000000004F
:10318000000000000000000000000000000007F048
:103190001E78181C381C300C3FFC3FFC30003000FF
:1031A00038001C001FFC07FC0000000000000000AD
:1031B000000000000000000000000000000000000F
:1031C0000000007E01FE03C0038003000300030033
:1031D00003007FFC7FFC03000300030003000300E7
:1031E00003000300030003000000000000000000D3
:1031F00000000000000000000000000000000000CF
:1032000000000000000000000000000000000FFEB1
:103210001C7E18383818381838381C781FF03B8056
:10322000300038001FF81FFC300E700E700C3C3C54
:103230001FF80180000000000000000000000000F6
:1032400000003800380038003800380038003BF003
:103250003FF83C18381C381C381C381C381C381CEB
:10326000381C381C381C381C00000000000000000E
:10327000000000000000000000000000000000004E
:103280000000018003C003C00180000000001FC0D7
:103290001FC001C001C001C001C001C001C001C008
:1032A00001C001C03FFC3FFC000000000000000026
:1032B000000000000000000000000000000000000E
:1032C00000000060007000700070000000003FF01F
:1032D0003FF00070007000700070007000700070AF
:1032E000007000700070007000700070006039E0C5
:1032F0003FC00600000000000000000000000000C9
:103300000000180018001800180018001800181CF9
:103310001838187019E01BC01F001B8019C019E075
:1033200018F01878183C181E00000000000000007B
:10333000000000000000000000000000000000008D
:1033400000001FC01FC001C001C001C001C001C0FA
:1033500001C001C001C001C001C001C001C001C065
:1033600001C001C03FFC3FFC000000000000000065
:10337000000000000000000000000000000000004D
:1033800000000000000000000000000000006F3C92
:103390006FEC79CE71CE718E718E718E718E718E51
:1033A000718E718E718E718E000000000000000021
:1033B000000000000000000000000000000000000D
:1033C000000000000000000000000000000033F0DA
:1033D0003FF83C18381C381C381C381C381C381C6A
:1033E000381C381C381C381C00000000000000008D
:1033F00000000000000000000000000000000000CD
:1034000000000000000000000000000000000FF0BD
:103410001FF8381C300C300C700E700E700E300C13
:10342000381C38381FF80FE00000000000000000D2
:10343000000000000000000000000000000000008C
:1034400000000000000000000000000000003BF051
:103450003FF83E1C380C380C380C380C380C380C43
:10346000381C38383FF03FE038003800380038006A
:103470003800000000000000000000000000000014
:10348000000000000000000000000000000007FC39
:103490001F7C181C381C301C301C301C301C301C8D
:1034A000383C387C1FDC0F9C001C001C001C001CDE
:1034B000001C0000000000000000000000000000F0
:1034C000000000000000000000000000000019F8EB
:1034D0001BFC1E0C1C0C180E1800180018001800FD
:1034E000180018001800180000000000000000007C
:1034F00000000000000000000000000000000000CC
:1035000000000000000000000000000000000FF8B4
:103510001E38180018001C000F8007F000F8003853
:10352000001C00181FF81FE0000000000000000051
:10353000000000000000000000000000000000008B
:1035400000000000000006000600060006007FFCE8
:103550007FFC0600060006000600060006000600C6
:103560000600070003FC01FC000000000000000052
:10357000000000000000000000000000000000004B
:103580000000000000000000000000000000381CE7
:10359000381C381C381C381C381C381C381C381C8B
:1035A000383C187C1FFC0F9C00000000000000004D
:1035B000000000000000000000000000000000000B
:1035C0000000000000000000000000000000700E7D
:1035D000300C381C18181C381C300C300E7006606B
:1035E00007E007C003C003C00000000000000000A7
:1035F00000000000000000000000000000000000CB
:103600000000000000000000000000000000600654
:10361000600660066186718E73CE33CC32EC366CF8
:10362000366C3C7C3C3C1C38000000000000000074
:10363000000000000000000000000000000000008A
:103640000000000000000000000000000000381C26
:103650001C181C380E7007E003C003C003C007E04D
:103660000E701C38381C781E00000000000000009E
:10367000000000000000000000000000000000004A
:103680000000000000000000000000000000700EBC
:10369000300C381C18181C381C380E300E700660A0
:1036A00007E003E003C003C00380038007007E003F
:1036B0007C0000000000000000000000000000008E
:1036C00000000000000000000000000000001FF8E3
:1036D0001FF80038007000E001C0038003000700FD
:1036E0000E001C003FFC3FFC00000000000000003A
:1036F00000000000000000000000000000000000CA
:10370000000000F801F8018003800380038003803B
:103710000380038003003F003C000F000300038090
:10372000038003800380038003800380018001E025
:1037300000F800000000000000000000018001808F
:103740000180018001800180018001800180018071
:103750000180018001800180018001800180018061
:103760000180018001800180018001800180018051
:1037700001800000000000000000000000000000C8
:1037800000001E001F80018001C001C001C001C0F7
:1037900001C001C000C000FC003C00E000C001C04E
:1037A00001C001C001C001C001C001C0018007808B
:1037B0001F000000000000000000000000000000EA
:1037C00000000000000000000000000000000000F9
:1037D000000000001E003F06738661FC60FC0000D4
:1037E00000000000000000000000000000000000D9
:1037F0000000000000000000183800080000002051
:1038000048C20100AA020008BC70000848C201209A
:1038100000040000E01400085006007A030A0001CA
:10382000600901020304060708090C611003FFDFA9
:10383000FF0201FF0201FF0201FF0201FF0201FF7F
:103840000201FF0201FF0201FF0201FF0201FF026C
:1038500001FF0201FF0201DC0212F702B1120006B1
:10386000BCBFF7DEFFBFD401FF0295CE75EAB6DE1E
:10387000E43004BFE79F02300ADFCEBFC6BFCEBF31
:10388000CE7F0E13BFE71A191202BDDEF601D80271
:10389000B6DEC84DBC0300121D9FEFDFCE9A5B550C
:1038A0000956093709390139013A02212412572EE4
:1038B000180555097A53009EEF060406BCF71E0151
:1038C000C5021D840304071EBFEF94425709CA01B5
:1038D0002A0214055709933AEC06FFF7E40D69AC88
:1038E00003EDB803040849BFF7FFD6701139D605B8
:1038F00012EA0406FF7111FFD6BFE60D6A62070CDB
:103900000623BFF7F74A56AE03400D390158017040
:10391000196F19F86B9FC6022D7E0730049FC67F72
:103920000E08092438746F19701158012234055695
:1039300009D742E83DBC0506FFBEF20D548C050FC9
:103940001C9FA588055C075709132A997C5A050511
:103950001E84AEF7780B2DE60500061DDA84132AC7
:1039600037600405FF7F9DBFF7DE0D5064070C0430
:1039700016EF7511A4032C0756093C6C3FDF5E0956
:103980000D490A0D0C0816F73FD75D745609DC0384
:103990002B75114485E80DFF840D0D39D40E0712E7
:1039A000DEAD661E5AF60A1F3632F40C5D2E050E89
:1039B00050BF6A0D4D900B0C0414E736320E060C06
:1039C00005FF39019DA59A070D3B6E070F125B7429
:1039D000160B440539015FBE580F18DEF784090D38
:1039E00050A60B0B127FBE68480557091A74644D28
:1039F0004A110DFFCA030D25B603FC04D842380A4C
:103A0000078C055801923A32030F5BDEFFA60E0EBB
:103A100010F7BE0B1DDE09F805F7B34258748C058C
:103A20003801773AAE0505FFE20D1E240B0E10F7A4
:103A300044090005895609FFD6A40C0410F71FD7C6
:103A4000C20B2F5709600B0DFF7C090D1D0605EDFC
:103A5000EC063C053901D61956120189A66DDC1613
:103A60000404FFD71939E40D28B803EF5FDFFA0427
:103A700004043F53119FDA20054529EF7B08A00578
:103A800024212421184C0508428E7338072D9E09E5
:103A90000C0528BEF7E739DE16AD6E04DC049FEF97
:103AA00053DA0B0C05FF38095FDF240FED0A18FD10
:103AB000B8030F3CD4219C0A80052421452908C461
:103AC00007BEF72421B6B5F8211A6F4529360741FC
:103AD0002E0D367211EFD42150060DFFDA147DF051
:103AE00019ED70070C062F39011FB6BEB6070F106F
:103AF000694ABA031C089AD6BEF7694A9E3205CCB9
:103B0000052842C73952034DCE0324052421AA5269
:103B1000E645EC0C0736E739694A8A523815CF3F3B
:103B2000B6AE051658E48EBFCE0505BDAC0D3648C1
:103B300010CF33328C0A0F2C174BB21B47FBDEA081
:103B4000CC0524210842A8096C09BEF71CE7FBDE5E
:103B5000B294AA03212881242DD60321106F694A2B
:103B6000B8054C071CE708424529B6050D35680B1A
:103B7000C404F73853E4A7F221E401EA022DD80483
:103B8000C7785B0E3F7FC6FC130D2398052D5C059F
:103B90001E9E76055E967605AF8A52620585D25CDA
:103BA0000618C69AD65DC607A40524216529E0CD6E
:103BB00092076DF4030D10D20B0C0727BEF74529B1
:103BC000518C44156EC640083E3B8E0419B202E289
:103BD000FF028DB00E4DFE19BE5572140C0526F372
:103BE00021DFF7CE0E4D50052D1405B4043CE745FA
:103BF000B201120CC13885E025B6692A61020D18A0
:103C0000A6090D2C3C0FAFF3299C185F55099011A4
:103C100005BDC20D282818AF743ACE150F2A7411AD
:103C2000A6108405BEF7D7BDCE41084D4607A5E0D6
:103C30002D520985BA2D66092D60096D84102DFA63
:103C400003091006EF1CE722042F18C65E0B072697
:103C50006529E08DD814B005DFFF7319E40EE63A4C
:103C6000A605AFBFF702120C053238097FE75E14D4
:103C70004D40076D7E030F108631920C6F1084FA51
:103C8000081E285807C5BC2DB6072D440B2F1084DD
:103C9000380D2D8A09EF3CE7D20C8F55ADDA030FB2
:103CA000322842180CB39FE7EA06E201E29EF54A89
:103CB0000C0C05283901FFAD6E07CD5E0745962D2A
:103CC0008A034D4E09EDC203A90A2DF003CD8E0ED5
:103CD0002809694ACB5ADFFFE739182F7DEF240FF7
:103CE00045E80D12260D4DC2092DDC050F3096B5A5
:103CF000A80DBE1F560B0FDBD5214C0BBDE60E3EAB
:103D000057240E0D1CE0282D7E104D1A07ADDC0C3B
:103D10002D060B6D82075E7566039C048631BAC260
:103D20001423FBDE022D3C0BE1028D48094C05DB20
:103D3000DE242198038DAC050D12941061360F120C
:103D4000C739A4070D10A4090D1C70150DD41A0F46
:103D50002D2E0BBF5FDF041A0E1CE73C1D2D7810C3
:103D60002FCB5A960E0F14F39CC0102D92122C05D7
:103D70007DEF2421C203274529DEAFDBDE5E0B2D5C
:103D80000E0D0C05129AD69AD6140B213A840545CD
:103D9000294D6BC04D06110D203C0492FB646F55FC
:103DA000ADA4090F160C639C094DE40FAF5FE7C685
:103DB000030D8B4C170D45EC1BAF352AEC221D9AD9
:103DC0002A0D1D46090F1CA631D40A4D98126D907C
:103DD000034DB2050C0512242118C64A0D0F1834E4
:103DE000A5100B4FF39C000F414A0F12CF7B880D9B
:103DF0000D148E0B4DBA072D7C0D4D64040D1E362F
:103E000019ADBC0407BCF421CEDD8A03BDA2040FAA
:103E10001EFFAD9A158D4A050F141CE738141EFBC2
:103E20005C054DB4034D0A0F2DA6030D24BC07AD50
:103E3000760B4D140D4D92036112CD64094DDE14C5
:103E40000E116560096D4C0F2D1C066D3C13434D22
:103E50006BB80114E01EBF8C07ED9E0601BE022D5B
:103E6000821F8FBFF7862C0F2C390156162D7E0727
:103E70000E1108BC0A2596CFF7BDD2102DA418E765
:103E80005DEFCC85C2A1988FC739CA07A954AD325E
:103E90000D2D160D4DDC12EF6D6B0A114D96188F1E
:103EA0003CE76C112F59CE46138DB40B0D10A206B2
:103EB0004DF60FB50C06BCEFDE2D84218F575B3419
:103EC000180F30B419700B0F12E739C208AD540542
:103ED0002DFE054F3084A0050C053D24219AD66C9B
:103EE000041DD4096F494A42048D7E18CD600D8DA2
:103EF00024066D40132DF0090D20841A2D26269ED0
:103F0000B4180F0EBD16DC12877EA5DEBF963A0AE6
:103F1000210D29EA0E0F165DEFFA088DCE12AF7D46
:103F2000EF9A0901120C0530EACD0E08CD0A116591
:103F3000FA2DFA079E1CC8030D20500B8C05BEF706
:103F4000D642041D07B83D95DE8DAC1F4D98050681
:103F50001BDE4C0F180842FC0E7EBE762C4F0C6305
:103F6000CC104D440B03660842CCADA40D4D2A0D78
:103F70006F2C63F2031E651C0F3E4984072DA805B4
:103F80000D20E011CDB4061DF82105B3DE7E54549A
:103F9000090F105801300B2518ADB6104DC4060D91
:103FA0001CFE152DEC0CADEA100E6B5DC0066D50BD
:103FB0000D8DD0182DBA035E69CC054D66090D1024
:103FC000B2180D12D8054D500B8D60260FAF54114D
:103FD0006C0999A00C04175609DE08274F4529489B
:103FE000120C05162421F7BD2C0B4DE8062D0416E6
:103FF0000D14DE190D77160C3DFA126D1C150D1CF3
:1040000066200D14E0040FB55509BC149DEC0D0F8E
:104010001AB51948302DE60E8D3A230D16A2084D1B
:104020009014018EE62D56065EDBBC140D12361E72
:104030008F6D6BA0040C0511BAD6F7BDC625AC0474
:10404000F7D519D812DEBFA2180596DE8D040C0F25
:104050001E34327621AD5A16EF75AD880C1E2C1821
:10406000126D4225058EDE2DBC166D5406EDBC1674
:104070004D5E134C0718C64529494A8A060B143869
:10408000C6E20F36953A3C0E0D80DE2A0F1E1D8DBE
:104090002425CF2421981FCC0545296D6BA41F0D25
:1040A0006842090D327209ADB427CD6E1CAD600BAC
:1040B0000D1CDE12AF5D95D2234D662D0595DCBD3E
:1040C000180A1D1C1A0D1D80214D50096D88126D96
:1040D0002A218D261A07963CE7DC0D201A0E89A8A6
:1040E0002D82040F1AEB5AFA3A8FFFB5521B0D9B23
:1040F0009C059D78078D86140E1DBF12212D9E1DD7
:104100008DAA350F344529CA28BEDE6A300E7FBE1F
:10411000841B6D761A2D82180F1C79CE68090C0548
:10412000A2DEFF3FBE601A9DBC030E2AB5880AAD11
:104130003C108DF0260D2EA21A4D8E34040B7E7D80
:10414000FF88C201C1E0D006B20E4DDE1421062D5B
:10415000CC148D30170D14302F8D9C161D88070D33
:104160009372290F1E54119A050D12801BE5E00968
:104170001CEA0D1A4E366009BEFF94FD22B9E0D04C
:10418000020E731B7609AD4E084D1E0A6D8C172D5D
:10419000EE1C0D1A56269F3FB6100F0D8F460B0DC5
:1041A0001056098DCE466F8A52020D0F102421A899
:1041B0002CA5E00D299E057DF03B2EBEB40386B2F2
:1041C000D881020671BE24ADB0142D220D4DFE0D16
:1041D0000D202815BEBF6A091D5E1A0D858E27DECB
:1041E000BF68160F12342A80371EC726182D8A067C
:1041F0002D6E2C0D10AA170D383C300407129DFFB0
:10420000079201C9DC25E004047143B1BF262D6E7D
:104210001A4D10262D96112DFA32FC044529C7D8C7
:104220000F0E13D3B6209F543298160D86C0038EFE
:10423000F7241A0F1CB519B02CEDC2040535E01D8A
:10424000861904051699FE42B1D881020F74E5B1B2
:10425000DA12CD6E1C0F105DEF4A150D16BA209FB5
:10426000D6215C1A0581E21EBEF4379D76330D1708
:104270008A042D4C1B4D1A182DF4110D1A9C190D82
:1042800024DE190520DC4DA4050E759DE8352D545E
:104290002B0F1879CE6E082D9C2F0D13BE148EF7A0
:1042A000B6142D5E370D7666097DFA047DF20E0F89
:1042B0001258010E0D6C071CE7242114A526254D6C
:1042C0007E072DB204AD120D0F307DEF2C4905266F
:1042D000E0C00BE1D07DFF7CFF34E5C9AA021C04DD
:1042E00095ED5C6C0B15FE5D4C0D0D521C14ED181C
:1042F000288DE40F4F9EF7D21C0D144E1C6DDA3E34
:104300004D761B0E83BF58090D169A214D9A134DF9
:104310003E1BCD30254D221E0E357DDC3B0526E0B3
:104320004D4E0B0A1BC0020C085143B1279AFBFEED
:104330009D2C032DBC27EED77A162EFFD829091500
:10434000D43D3C4F8D26120D7AC6232DF2097E34C2
:104350003627E5DE2D60192D62174D221D4F518C39
:10436000A4242D92156D8A140F3A6529482D052C29
:10437000E00D26CE050C074A21C126CADAFEC84345
:104380002DC0294D00358F10844C1C7E7D4824EFB4
:10439000694AE2034D723A6D86070F78152AC20FFB
:1043A000CF3FDF9C210E15BFA6282DA4288D901588
:1043B0001E751E0F2DB839069145E05DD203CC075E
:1043C000C822B979FEBEB03F0E42F7D2122FEB5A87
:1043D0001A332DC82B8C0514A592948422ED8A15CE
:1043E0001D84337DE4210C04743FDFBF86077D58B4
:1043F000090C0419B421DE60322DCE242DAE394DC6
:10440000BC2A6FAE73783D0D3CF21B055AE06D225D
:10441000110C064101C9EAAA9E8A3F8D284B2D78CE
:10442000074D04284D92222D88070C0512DFFFD777
:10443000BD8C090F16B4211C050D6C7E230F1A3993
:104440000142292DCC226D4C3D2F4529BC036D42E4
:10445000180538360E41DEA005301001C921C143D0
:10446000B106C299FEDAFE7DFF9E022D6C09100492
:10447000BEFFFC121C084CCBE5C142B922E8140C6B
:104480000645E0D063A99D6A0C6D56096D8C2B4DD5
:10449000782F2D5C400F1AAA52F0152D980C0F6C36
:1044A000DEF73C0B8D48348DB04F0E15DEB0136D2A
:1044B000443D4DCC110D180A320D22CC412D662AF7
:1044C000040536BEFF0ABBDA140463A937D00E23F5
:1044D000BE5C431DFC0D1D620B0C093E7CFFC691AA
:1044E00001C1D1EC1E4F2DCC3A4D8A3C2DF6106DFA
:1044F000280D2DBA2D0F1E9EF77A0E0F76B5199C3A
:10450000050D12AE2E0D10F0282D8A072FFBDE129E
:104510002E0D10A22C0D28BA5B45DC0C053295FD42
:10452000E1C8B4032784A9D80E17DEE44A0D1C6A3B
:104530005A0C073A9DFF33DD58FE88076D081D4D64
:10454000BA3A6DA2054DA2240D1726510E73BEA4D2
:10455000057D1C26031A3609CAAD4C3B6D8A3D0DFC
:104560003A78070C0532BEFFA9AA46070C042EAD07
:10457000DB7D823A0E20F7D0180D3A88182D880777
:104580000F180C63BC038D643A6D721D1D5E100D17
:10459000678E5A6D9E3D0D14F40E0D12E82D2D26DA
:1045A000430D31CC2ABDF8050E315C74079C060121
:1045B000C137FEDE7E4E0D229605011A1A0D48C245
:1045C000544DC6030E1FAACE458DF2300F60122A3D
:1045D0004A18BEDE9C0D0F185FE7AE2CAF9EF7E0C9
:1045E0000E0F3C7DEF0E0D0F187DFF46180D165E69
:1045F000185C0442B19DDE4A0192022DD0320F1C9C
:104600008631C0034D7E1BAF7FE764100D6030190B
:104610006D20152DC41A0E11BF78046D92448DC201
:10462000100D284C090D140E3C0F3047B294050EA6
:104630009B7D463D2D780A2D78078DDA386F08422C
:1046400090244D8042AD5E3A6D9E370E61550E74DA
:104650000F18785B9C058D3E254DBE390D2C6C07DF
:104660000E13BF284E0E2F3CBA03BC0401C11B70B1
:10467000040190022D162ADE7D840A6DBC2FDDE632
:1046800036CEF7922A0D5BB034AEF7940DADA4216F
:104690006D06056DC80DAD86140D269A445C067D29
:1046A000FF22C15CE00A6D4C250C052EBEFFF6FD15
:1046B00096050C04A127B2DE504C0D10142F7E6518
:1046C000D0368DEC139D2A145D480B0E5959802766
:1046D0002DB0136D8E4C0F125809B23BCDD446ADA0
:1046E00028500D1EC0205C049EFFE180036FC5C1F1
:1046F000EC0A0E2F9E74070C04AF22C19DDC426DA4
:10470000260D4D541A4D301D0D11844B7DB20C0FEA
:1047100058332AB26B8D700F0F169FE7C01F4D2CB8
:1047200041AD56486DD60F0D1AF80C2D12279D1A63
:10473000090C062EB999FEFBFE52090C047384A9DC
:10474000BE92050D3E885A6F79CE480B2F2421C0AA
:1047500031FC044529AE0E311EBF8C470D600A0F97
:104760006DE8070F1274112A272DD41C8D143D8F6C
:1047700092940C1C0D1E6623C5DE0D3370140F7D44
:10478000C87DE4202DFC560F305FBE460DCDE00401
:104790004D764D8DF210ADEC3A6D504B0C045D58DA
:1047A00009DEBE030D18843FADA40541A60D1E12FF
:1047B0003B0C053FBEF76CCB4C166FC13CA41F0DE4
:1047C0006F6E6E3DDC195FF7BFE83C0E2D54385616
:1047D0004D884B2D403E8C0518C6BAD6A825EDA8AD
:1047E00047BEDE34140C0459DFF7BFCE3B0F20F375
:1047F0002150060C052424213084643D0F3E68BA04
:10480000BC030C057B42B1DEFFFE4F9FF7593A45D2
:104810000C062D59099FE7DEA84DCDF2202D7444DA
:104820004D6837DE86BA248F343270180D4EF20987
:104830007E7FEC1D0920A22D32280D24D0680E3F6A
:104840007DA81F3EA576070D76E6200E13DE4E608E
:104850003EDFBC310D240E15BEAA8035ADCE3E0D17
:10486000105E0E9D5A120E4EDF70116D5C5D0F20B2
:104870009FC628190D22F60E2DD8040540DE0D7DA9
:10488000A6308EF7041FED72630E27BF44054D3826
:1048900044CDD6322DAE170D12583C6FFFCED651F7
:1048A0000D4C5A646D3022AD00352DC2532DBC2DF8
:1048B0000D104C180E23BAE4440E3FBF8421AFE51F
:1048C000A9045E0D56221D0E15DEAE74AD3A2A6D9A
:1048D000BA678DAA051E5A78210D26D0182F8A5244
:1048E000C8472D204F6DB4080D18A0250E5339462A
:1048F0000B6DCC1FADCC580C07129EF7F39C308487
:104900005C550D2090142D2C680E3D22360B0F1097
:1049100097ED3E1C0D6A0457AD904F69FC9C04BF97
:10492000FF73F6580E337578410D1C2C4D6D4014F5
:104930000B485709BA0D12BE032D184E2F3084D8DC
:10494000606DA8530D2AB4460C053CBEF743B10A6E
:10495000277F11D480149D9A6EDEDE560C2D6A746A
:104960000D3D5E234C0CF7BFCE5509B5199A5B1F60
:10497000B61E7A1C05DFCE1FD79E6ECECE5C786F3A
:10498000380942468DE05B4D7A440D2AC4232D76CA
:10499000180F1A8A52920ACEBFC2030E4AF7042B8E
:1049A000CF1FB61A7B8DB42E0D2ED6390F3C89AA97
:1049B000BC034E859830DDB645ED02615E5ABC7988
:1049C000410225A6400534329342021C0515533896
:1049D00074305E92EF024D947271022DDC7B0F26D3
:1049E000BFEF3078BDB272BD48550F2055326656C4
:1049F0004D7C440D1CE6506DA0170F477FBEC203CF
:104A000045408D780D0D154A5D2DF6446D340B4DE6
:104A1000D20D091A820C053CBEF7B9FE56091C09D5
:104A200002C933326F19112A9A77DEEFF65D0C0452
:104A30005CF7380910780D123C76A35509864D5461
:104A4000049E94A8052D20470E21DE5E290D127EBE
:104A5000440D12462C9DCA0C0E3EF76E771EBE2AE0
:104A60006E6DB2660D16CA1F4D08396D44550D2086
:104A70006C530E3D3C1E27CFD2303C03AD465A044A
:104A8000056CBFFF7211DE3DCE390E12F7CC40BD72
:104A900030570E34DF744B4D9428CD14325E1476AB
:104AA0002E0F4AB73A1A0D0D1036114D405D4F24A6
:104AB00021F2296F8631785B0D20E41D0F3863A940
:104AC000D0100F1226B1900C6D065EBEBF78480D57
:104AD00060BC030F17D3216A781D58558D143D0C07
:104AE00005303A011322DE438F7DEF5C3B0D10CE83
:104AF0000C0D4256496F5B744C6C0D1004524FF70D
:104B0000BDB0512D18296D5C180D268C1A0635E1A3
:104B1000DE0F1925B104073D06052DB0560E65536D
:104B2000C4030D1F5E30AEF7C05D0D26201E2DB2F2
:104B300042AD0A648DB0476D3C4E61E00F46FA6BA2
:104B40005418BE9FE0516D5C432DAE2E6DCC1F0DF1
:104B50001472660D164E410F33C9C25A300719D070
:104B600018BA6DC40ABEBF604D0D58BC030F24DED9
:104B7000843C109E38C0080D26140F2D16056DA21A
:104B80005A2DFE2E8DFC652D94570F449FEF64091E
:104B90006D54188F5901AC7A4DF65E4D1A0DCD1A31
:104BA00008AF38C6E0480D1E143EAD4C410D260C32
:104BB000380F1EF428727F4DF22076DE020D5A9CCB
:104BC000050C04237FEFDEB02D0C072CDFF77FC62A
:104BD0009242706F2D3E604DE87F2D42572D802A06
:104BE000DD64380D272E160D1BE6275D1819CFD76B
:104BF00019C03C7E0842042FBEF77A648D2E460D04
:104C000029242A0E48FF9C05CDE0604D166E0E5FEC
:104C10005486070E5B9F00532DD6336FA6319C51EF
:104C2000ED520D5E1764090F397D9DE00F9D121C3A
:104C30000E13BF1A0D2DA8624D0E264D82410D296F
:104C400006830D3136270D24FC0CEF93198E1705C2
:104C500081E00D31D21BAD58640D10083E8DAE1DA4
:104C60000D38141D6DDE0F0D10C62E6C05B6B50C7B
:104C70006324616DB41C8D32060D22E22D0F429D1E
:104C8000FF380B0D1418072D10832DB8570FB6578A
:104C900009C0036D92678DB025FD4C1A7DB01D0FC4
:104CA00033DFEF7C2F1D20555E74A6091EFF702395
:104CB0000D141E382C0518C62842E21A2DC6120EF5
:104CC000299E7A5F0E31DED02C0F24161992886E41
:104CD0005A60480D5F84070D54605F8D4E55AD449A
:104CE0003B0D10E6176D00170F3655119E460D222D
:104CF000F2234D125F2DC64B0F28A631CC790D3013
:104D00008C30AF6E796C880C0917D34ABFEF555BB6
:104D100058096609DDC23A05AAE0BE65BC426DBE0F
:104D2000140D1108230E2EF7780D0D15460F0D1BCF
:104D3000840B8D185F0D28EC2C0E31BEC0126D183F
:104D40000D2D84534EDECA170F17F7DF080D4F19CC
:104D50006CC48C0D5C080F0D6010344F59CE586D2B
:104D60004DC065EDEA3F6D7A120E33BF82075F9F3B
:104D70009DB0080D1B7C6F0D3002320E31BF263600
:104D8000AF04B9000D86BEE01D080D0512E24D32DC
:104D90000804055BBFFF5FBEE00D63C6520E17C778
:104DA000B6635FF44AE23F0D31C4617EDEB468ADA4
:104DB000801B0F1024216C660D2D98801DBE790D6F
:104DC00030F80E6FF52022780D1124120E10CE84CB
:104DD000076DA02D07BCBFEFE02D626D0D164203DD
:104DE0002DE2165E5ABA130D30DC209DF41D0D1114
:104DF000C82EAD6E0F0F2ACF7B1C1C1EBFC03B0DF3
:104E000036F80E0D163E570D185C030D5C240D0D83
:104E10002E22530D4A428D4DDA1B9E38643F0D2CD5
:104E2000A89A5EF7FC036DD42B4D8E144DE40E5EF4
:104E3000E76A716D0E6E4D982D0D25901A0E30FF9C
:104E40009E3D6DB6120D168E130596E08D18910CD1
:104E5000054E934294198A892D326B5EBFBC040CB7
:104E60000435963ABF0E2BCDB221ADC6802D5452DB
:104E70004D44640D14FE690D14CA1E0E2F0B5A41C9
:104E8000DFE1D0461F0588E00E22F7BA788DF07872
:104E90000D3A7849CFBEF79225BEDE40160D30326E
:104EA0002B0D12D41F2DAE4BED82710F2A8E73BCC9
:104EB000210D32F80E9F4899920C0E1AF7C847BD83
:104EC000FC170D39A0050E253BFC970F2058097ED5
:104ED000230F3CD84290098DDE830D14A86599D02C
:104EE0000D29EE1F6D5818ED404D6DB4030D34665D
:104EF000090D34122B8FD1384E990F105B744A1F55
:104F00008D3859CD60097DF07FAD702351022D722F
:104F1000948D9A235008FEB5F76B723A32015C0605
:104F2000D321941155D4230D2042980D1B3680AE09
:104F3000F704170F32731102400D12E0500D12E00A
:104F40001B0D2CCA505FFFD6F88DCE325C4B4D2E18
:104F50007B8D686A0D2B1C0D1D48640D325627CDC4
:104F6000121CED763C0D1422254DB0040E15BFE247
:104F70009B0D288843AD2C270D16C0210E153F9A96
:104F800021BDF0780E4209EC126D9C87AD8A8B0F23
:104F900026973A982EAD62430F1470112838ADC091
:104FA000710D30987E0D30321A1DAE21EEA9908E13
:104FB0009D0A510D1700270C043BBFA5DF4C45A9E6
:104FC000400C0C15D742172A172AD721961156D60E
:104FD000030D116818BC05F7B3193BF0780D360ABC
:104FE000714D9A6F2D9C346DC2322DFC3F8D8C8B90
:104FF0006D58380F2A7011A40E8DE8139EBF687586
:105000002D6A1ECDEE674DC25A0D266A2A0E2FA9B3
:10501000321A0C0512E0D08E790C9D0C081A783AE1
:105020007A5B983238A0143D406A0D50C831CDA447
:105030002A6D303BBE970A25AF9FEFDC940F383FB7
:10504000BE98452DF04E4D6C804DCE500D129656AB
:105050000E303876360D1396092D22424D7C072DE1
:1050600012796DF2712F24214A1A0D24B0300D32BD
:10507000B84A0D1ED21F0D12BE032D88763D6E77E5
:105080000E56EF64770510E20F127F9D10082DF485
:105090002E0D3A802D2DB86DCD5C670D105A380D50
:1050A00012EA0C0D24181CCF3C6CB8061EC7A08D4C
:1050B0004DEE8B6D30732D8C4D0D2472770E33BFFA
:1050C0009E050F3801C9B80C4FBFFF2C9F0F5036FB
:1050D00053CC91BEDE50648D00268D8C232D302E56
:1050E0000C04411E95DEE41F0D10BE37DD02180EC4
:1050F0002A74CE1A2D822F5E94A0760F121FD7CC61
:10510000382C05CB5A24218A232DE0270D229E0519
:105110000C07349EFFBAFEA591744E0F3003C116E2
:1051200016FFF429644F0E54D6E899EDF492AD2899
:10513000912E39BC080D4174560E1F344A086DB8C3
:10514000820F3A3232DC10EDBC496DD64A0D1ABEE0
:105150003D0F3027AA6425CD02650F2EA6B9B02ECB
:105160007E530C8BAD262B0F549411C09B0F14FF54
:10517000AD60A102457370ADCC60ED2A6A0D11CC13
:105180000E0D25F47EDDC4150D1DCA8D0D18AC1253
:105190000D30CC10ED88591E7F44170E29599230DE
:1051A0003DD25E2D36AECC04FF3FD720070F547B97
:1051B0007CC6990F11164B4022EECE12350D3A7077
:1051C000674C0534A5FBDE227C0E11C7583DAEBFEF
:1051D000A81F0D30BC120E7AF7A4590C042B01C97C
:1051E000BF74329DDC6D1DF8290E145A24340D4F06
:1051F0006064CD26220F4C5609BA398D96890E1758
:1052000049125D0D2E901E0546100D3EBE3D0C044C
:105210001502C1BFDE99051EDE0D143C290E555343
:10522000287B7EBF841E0D58624E2DBC030F1CCF01
:105230007BA42E0D2CB8210780132AE09DC88D0E6B
:105240001ADF3E295E5982934DD04F0D1864AA0D86
:1052500051A0735D58801C04D021708AAE0D5A761F
:105260009D8D020FFD166B0E2B3A10265D741A07EA
:105270007E997CE04F01C9C4A66DD04E0E139D7E71
:10528000AC7E58FC134D443B0E1B549C320E4F37E2
:10529000E2A00D68D6A60D1696390F2ADA8CA41452
:1052A0000F439A5B1E280F3FF79E3C45AF22B9FE85
:1052B0009A6D56731DB43B1005C67FBE5F023D203C
:1052C0003ABDDE5D0E21BF98320FCE3B0156AA6D6E
:1052D000B0101DA2B60D21E6700F435509E241073B
:1052E00041F77CE0FD72B9DFF7DE185AAD3E030FDF
:1052F000245A7C660B0C041F3801BFBA9201AB0222
:105300000E26F7FE070E21BFFE0E0D260E780F3F6C
:1053100037FEDA4A9EB986740D1DF0B10C042FD801
:105320004239DC2A0EC3DE329B0E15BF50160D1E0D
:105330003238053CE0040440DEFF17E0AEB19C1CAF
:105340000F141232F0A60C05309FEF55092E380CC1
:1053500005C439013FD7C00385E00D22E2105EBFCE
:10536000FE6E0E3D39FE290F3EBFFF42452D9A4E7F
:10537000BEDF989E8F1A746AAE0C0440560958A07E
:105380002E0E82C6ECBF0D483A7D0E203902246EE7
:10539000F7E2590F3E5801D097063F42E0EF43B184
:1053A00094200F4CFFCE82300F76B8639A8F0D1089
:1053B000A4670D407E4E0D219E937D74670E3F7055
:1053C00042150D3E7C163D400BFDF46E0F4C1FD771
:1053D00052BD2DDE460D7202C30C0449FBFE9E8CAD
:1053E000870F247019A6237EBED23D0E3F6F5269EF
:1053F0000D40F65725E00D10464E0D4EB42E0F729F
:1054000075111A970C0449D9FE9DD2660F266F19A3
:10541000F40C5EBFF0210E3FF7BA040D3E5E182D6E
:10542000905D0D1522C10F52F758E0480D6BC67103
:105430001E17466D0D4854516E38041E0D1FA82CC2
:105440006DD0230F3A9FC6F84D0E33BF44360D166C
:1054500060180D115A810D4D60430D6C68772D9CBD
:10546000AB0C043367CA5CB623ADB6A70D10102988
:105470000F269FE76E67ED28562F694A5CAF0C0632
:10548000218A52694A49DA750C0443DEFF5DA2772E
:105490000E17BE3C2E2FBFF7CAC00E475A0C470F3F
:1054A0006C3809A6730C043384B93CD65F0F1269BB
:1054B0004A40AD053EE04DFC9A0C0724863186310A
:1054C000C739DE59040540BEFF06AAE00E1A9E66E3
:1054D0006C0D4DC4030C05685909BFF7A2050405FE
:1054E0003222B9AEBBE04D303AEDAE4885E00D1E3C
:1054F000220D6DD232E5E0CD12810D229E862D7EE9
:10550000730F3C78FE66090F1BB9FE04250D4DE8AC
:105510004A6D7C2B0E61DEFA7C0C053821C168A235
:1055200068760D16B02E0D1ED20F1DB2345DDEB0A2
:10553000EFBFCEE69E6DAAAD2DBC6A0D244A454D47
:10554000BC2B0639B9E40F2E05C204250D3F74416A
:105550000E61F754A21DEC370C0637E0D067A2BFEE
:10556000F01FED10970526E07EBFC003A5E00D3EBD
:1055700062570F3BC9AA220D0E1CF770CC0F4CBC12
:1055800084B63D0D615EA83D5C1B0E3367C0030D04
:1055900014AE2A0F261FD792130D14A0058D66B1E5
:1055A0000E311CB4930538E00F2201C9C6600E4DC0
:1055B0007386410F5E5FE7D01D2D7E0A0D32A00578
:1055C0004DF02E0D1052968DC0030E1DBE46B50D2A
:1055D0001660096DF0AD076ABAD6E03D448E0D2223
:1055E000A6AF0E4CD75A520F5C164BD6D70C0738C5
:1055F000E691E0D0EEC3CC7FDFBEF754ADBD400BEB
:105600000E2FDE200D8D7C070D32587D053AE00D02
:1056100026B86A0F4D3853A6050E58AD3E453EBF1D
:1056200034730E2F3C12C06D98AB0D18C0030E27BB
:105630007FE010CDEA428D56360E311874190F39BD
:1056400075ED22650F2F9ABF3E6F0D48B8140D54AB
:10565000B4634D9A510E325CD8057D76740D14609A
:10566000090F1E9FE770306DA0140F12186C8E503A
:105670008D4CB10D2A9E790D3ACA210C042F01C917
:10568000BEA8220546E20C04537311BE5C186FFAE3
:10569000FE9A040D2E56410C06111CE779CEBE620F
:1056A000D40E2759A0146D2C1EBE6F64708D54A6A5
:1056B0000E314D72580D3CE8680D2B9E840F4BF750
:1056C00039A05F0E5337B8144D86980E319DC01225
:1056D000ADA40EAD8AC08D60180E25DE12580E11D5
:1056E00070F4BC4DD0A50D304E80063B9DE00D24DE
:1056F000680A4DFA7B0E15DE104B0D3A5C610D50B9
:105700007ED96D7C150D3080168D8AA0CD84936D69
:10571000B03D0D21AE650E14F7E01F2D2AB32DA468
:10572000A50E319E60090D3E6C180D2EAE220F5253
:105730005809D6120D469A140F2A1CFF1A0C0D1484
:105740001AB5ED207A0E2758DE2D0D14A0232DB8A2
:10575000090D20CAA30D198E5F0E3EC886160D2CAA
:10576000C0850E4B372EDF0D1E48450D2CBE554D06
:105770007C622DDC2D0D34145A2D185A2D78BAADBB
:105780005C840D2AA0230D1C60270D244E9C0D4C1B
:105790008C257F06B232DB0127020D4CB8140E496E
:1057A0005AC4034D04A00F32A591B6D98D8EC9CD30
:1057B000E8AA0D2660270D1A202B6D7C0D0D3252A4
:1057C000800F3C279A6836A005AB795901029239BF
:1057D0000A2D82E432580EB258080D4E8E5FC37403
:1057E0000902327302800474119302B0070993090D
:1057F00057435602839753023C08B74B9753F85BC5
:10580000235E090E333886944F3CE7E0BDDD208CE3
:105810000D2B202B0E1355AC072DE2904D7C1C0D4B
:10582000314E9B0F3DFF1B4C720F70E1C8B66A0DE5
:105830005450674FD1306A800E317D828F2D12CF48
:10584000FC059AD60842B05F0E2AF7DE360F1279B1
:1058500053F03F4D8E500D36C8AF0D40AC320D3277
:1058600088430192020F3826B13E0B1EAA68A40F8E
:10587000108E73D89B6DA0320F2A595360360F14C7
:10588000DA8C1CA00532E20D400C760D32AA4101E3
:1058900090025F37195A960E36D12A496F9AD696DA
:1058A000C19DFE0A5D60360F2A7FBE7661CD203A2B
:1058B0000C0538694AB294420B2DD01E0D3EC2032E
:1058C0006D245801BA020F10F0481A2A0D2C24BA80
:1058D000CC074D6B5DEF1CE770A34D36A50E275A24
:1058E00012380D14CE530D12DE860D2862090F3FBB
:1058F00026CA0E3C06BCC9DC1DF4156E113C570FC0
:1059000034E5C992902D94BA0D1090590D2A523455
:105910000E15BF5C547DE47F0C0432A545299C978D
:105920000E3FDA6E360405BCE0D0EF50E08F4E71CA
:105930009E7A0F3094FD5C184D32DAFEA64C650D50
:1059400034A0410F105A0112C84D309C0D30041E76
:105950000E35BFDE4CEDC85D0F13F61802521FD78F
:105960009FC877210441067C04382A9FD8778D1878
:10597000825FB4199E702D80D38C0421FFCEBA5261
:105980007C045FB69F7054529F026FBFEF1C471D8F
:10599000FAF382EF508D68885DA6365EB66E4B3D99
:1059A00024850E1B556A20DD4A9A0E28B1C0388D19
:1059B000801F6DBCD20D1EEC570D1A365A0D1420E7
:1059C0004965DE0D1C52BC0D163A560F4267B230C7
:1059D0002B0D1404692DA64EBEDEC8B07D6423AE27
:1059E000F7C49C5D0EF2EEF73E674D98888DC6E8D1
:1059F0004DDCC26D8A26BD2459BDD0631DF0707286
:105A0000EF325D3CEE0D181A0DFFCC60529A8EA15C
:105A1000C26E0D1D6E5D6EBDF0CAFEBA04420D2E43
:105A200020498DE04CCF3FD7E4906F92944890CDC1
:105A30009C670D20F4930F45E5B1BAA20D17C46C15
:105A40002D3A192D9C4D6D68EC2DE03BAD4EB82DD7
:105A5000826D5E93CA781E5654D4ADE8322D004D47
:105A60004C05BFC6560944732D0ACC2E7FC2E0AE4A
:105A7000C6B6E2FEBF9AD43DEC6311561C047FEF1C
:105A80005768EC2F57098E770617BFE00F14CF40E9
:105A90009A890E27BEA2644DFA2C2D6ACBCD1E9B8F
:105AA0000D30E04C6DF03FDE7D344A4C05452971E8
:105AB0008CECC14D36CD0D26BC030F4864B1B6A2A7
:105AC0000F1427A9AA75CF112ADC7A1E6F9E1FCC4E
:105AD00004B3425A58584C06F7B984741178C21D61
