:020000040800F2
:10000000B04F00205D020008112C000805210008F7
:10001000B52B00088D030008B13300080000000074
:100020000000000000000000000000009D0100082A
:10003000C505000800000000F9010008892C00082F
:1000400077020008770200087702000877020008AC
:10005000770200087702000877020008770200089C
:1000600077020008770200087702000845040008BC
:10007000510400085D0400086904000877020008C4
:10008000750400087702000877020008770200086C
:10009000770200087702000877020008770200085C
:1000A000770200087702000877020008770200084C
:1000B000652D0008712D00087D2D000877020008CD
:1000C000770200087702000877020008770200082C
:1000D00077020008813300088D3300089933000847
:1000E000770200087702000877020008770200080C
:1000F00077020008770200087702000877020008FC
:100100007702000877020008892D000877020008AE
:100110001530000821300008952D0008A12D000899
:1001200077020008B9040008C50400087702000837
:1001300077020008770200087702000877020008BB
:1001400077020008770200087702000877020008AB
:10015000770200080905000815050008A533000806
:10016000770200087702000877020008770200088B
:1001700077020008770200087702000800000000FC
:100180007702000877020008DFF80CD000F0ECF8E6
:100190000048004771360008B04F00202C4B19680A
:1001A0000868B0E8F04F80F30988BFF36F8F4FF015
:1001B000000080F3118870470000000008480068C4
:1001C000006880F308884FF0000080F3148862B65E
:1001D00061B6BFF34F8FBFF36F8F00DF00BF00BF6B
:1001E00008ED00E0DFF80C00016841F470010160E7
:1001F000704700BF88ED00E0EFF30980BFF36F8F19
:10020000134B1A681EF0100F08BF20ED108A20E96A
:10021000F04F106009B44FF0500080F31188BFF325
:100220004F8FBFF36F8F04F005FB4FF0000080F39A
:10023000118809BC19680868B0E8F04F1EF0100F6B
:1002400008BFB0EC108A80F30988BFF36F8F704746
:10025000C4000020EFF30580704700000648804787
:1002600006480047FEE7FEE7FEE7FEE7FEE7FEE79B
:10027000FEE7FEE7FEE7FEE7492D000889010008DA
:100280002DE9F05F0546002092469B4688460646CB
:10029000814640241BE0284641464746224600F05E
:1002A00053F853465A46C01A914110D31146184686
:1002B000224600F03AF82D1A67EB01084F46224615
:1002C0000120002100F031F817EB00094E41201EFB
:1002D000A4F10104DFDC484631462A464346BDE826
:1002E000F09F40EA01039B0703D009E008C9121FF1
:1002F00008C0042AFAD203E011F8013B00F8013BE0
:10030000521EF9D27047D2B201E000F8012B491E0B
:10031000FBD270470022F6E710B513460A460446A2
:100320001946FFF7F0FF204610BD202A04DB203AD3
:1003300000FA02F1002070479140C2F1200320FA38
:1003400003F3194390407047202A04DB203A21FA36
:1003500002F00021704721FA02F3D040C2F12002DE
:100360009140084319467047064C074D06E0E06887
:1003700040F0010394E8070098471034AC42F6D3EC
:10038000FFF706FFB8580008D8580008FEE700003D
:100390002DE9F04700270425DFF8A080DFF8A090C2
:1003A00050383E4601F1060A102845D2DFE800F039
:1003B0001108130C1517191B1D1F21444444442315
:1003C00034240325402702E03D2403252E2701265F
:1003D00013E0302411E037242BE03A2429E04124B3
:1003E0000BE0452409E0492407E04D2405E05124B1
:1003F00003E0552401E0D8F82440032A19D04DB178
:100400006A0009EB4400FFF76CFFD8F81420294676
:1004100020469047002E0FD0720009EB470051464E
:10042000FFF75FFF31463846D8F81420BDE8F047A3
:10043000104703250026E3E7BDE8F0870000002011
:100440005A020020014800F0D5B800007C0B0020C3
:10045000014800F0CFB80000FC0C0020014800F07B
:10046000C9B800001C0B0020014800F0C3B8000010
:100470005C0D002008B5002000900B48007870B19A
:100480000A486946006804F095FB009838B10849AD
:100490004FF080500860BFF34F8FBFF36F8F054858
:1004A00000F0A8F808BD00006000002064000020F3
:1004B00004ED00E09C0C0020014800F09BB8000017
:1004C000BC0D002008B5002000900B48007870B1EA
:1004D0000A486946006804F06DFB009838B1084985
:1004E0004FF080500860BFF34F8FBFF36F8F054808
:1004F00000F080F808BD00006000002068000020C7
:1005000004ED00E0DC0B0020014800F073B80000AF
:100510001C0E0020014800F06DB800003C0C0020CB
:1005200001681823CAB2103AB2FBF3F2054B6FF31D
:100530000901032A9B5CC36500D9091D8165084632
:1005400070470000F057000810B5014600208B6985
:100550008A6A4FF0C07453B1B3F5005F15D072B121
:10056000012A0CD0022A0AD0032A09D104E01AB1C8
:10057000012A06D0022A03D1C96AC90100D5012087
:1005800010BDC96AA142FAD010BD002AF7D0012AD5
:10059000F2D0022AF3D0032AF3D010BD30B504689C
:1005A000256825F480252560046863608368402BF6
:1005B000036803D099600068C26030BD9A6000682B
:1005C000C16030BD704702F0EFBF72B6FEE790F831
:1005D0003510022903D08021416501207047052193
:1005E00080F835100068016821F0010101600020E9
:1005F000704700002DE9F84304464FF00009CDF89C
:10060000009063484FF41651A56D0068B0FBF1F7F8
:100610002E6894F85C10082000FA01F131420FD0E6
:1006200021680A6852070BD50A6822F004020A60A2
:1006300094F85C108840A860606D40F0010060652F
:1006400094F85C104FF0010808FA01F0304208D02D
:1006500021684969090604D5A860606D40F0020070
:10066000606594F85C1004208840304208D021680E
:100670000968890704D5A860606D40F004006065D2
:1006800094F85C1010208840304218D02168096826
:10069000090714D5A86020680168490304D50068DB
:1006A000000308D5A16C07E00168C90503D40168FF
:1006B00021F008010160216C09B12046884794F8B7
:1006C0005C1020208840304231D021680968C9067A
:1006D0002DD5A86094F8350005282068016806D05B
:1006E000490347D5006800031DD4616C1CE021F06C
:1006F000160101602068416921F080014161206C90
:1007000008B9A06C20B12068016821F008010160DF
:1007100094F85C103F208840A86084F8349084F8F6
:100720003580216D1FE0E16B09B120468847606D7F
:1007300000282BD0606DC00714D0052084F8350048
:100740002068016821F0010101600098401C0090C0
:10075000B84203D820680068C007F6D184F8349006
:1007600084F83580E16C002910D001B02046BDE846
:10077000F04308470168C905D5D4016821F010018C
:10078000016084F8349084F83580CCE7BDE8F883C4
:10079000C00000202DE9F041044600F091F9064622
:1007A0005CB1002584F83450022084F835002068BC
:1007B000016821F0010101600DE00120BDE8F08138
:1007C00000F07EF9801B052805D9202060650320F4
:1007D00084F83500F2E720680068C007F0D122688D
:1007E000116820480140D4E901031843D4E90336D5
:1007F0003343184363691843A3691843E3691843F3
:10080000236A18430843616A042903D1D4E90B130E
:1008100019430843106020684069666A20F00701A8
:1008200030460E43012704280CD1A06A0643E06A33
:1008300040B12046FFF788FE20B14020606584F873
:100840003570BAE7206846612046FFF769FE94F8E4
:100850005C203F2191408160656584F835700020FF
:10086000ACE700003F8010F02DE9F0410446866DB2
:1008700090F83400002501280DD0012084F83400C0
:1008800094F835700020012F07D084F83400022539
:100890002846BDE8F0810220FBE7022784F8357086
:1008A00060652046FFF77AFE94F85C103F20884090
:1008B000B0602068016841F016010160206C20B131
:1008C0002068016841F0080101602068016841F07A
:1008D00001010160DCE7000070B5044600F0F0F8AB
:1008E0000546601C02D004480078044400F0E8F893
:1008F000401BA042FAD370BDB40000202DE9F84F90
:1009000000224FF0010803254FF00F0E0B6808FA84
:1009100002F42340A3426ED14E68012E05D0022E70
:1009200003D0112E01D0122E12D186684FEA420C4C
:1009300005FA0CF7BE43CF6807FA0CF73743876018
:100940004668A6430C79C4F30014944034434460D1
:10095000C668570005FA07FC8C6826EA0C06BC40FE
:100960003443C4604C68022C01D0122C13D1D4083B
:1009700000EB8404A346D4F8209054074FEAD46ACD
:100980000EFA0AF629EA06090E6906FA0AF646EA96
:100990000906CBF8206006680C7926EA0C0604F0FC
:1009A0000304BC40344304604C68E40065D5364C15
:1009B000266846F480462660246822F0030604F484
:1009C00080440094314C3444A446D4F80848960737
:1009D000370F0EFA07F6B4432D4EB04201D1002670
:1009E00024E02C4EB04201D101261FE02A4EB04235
:1009F00002D102261AE040E0284EB04201D103267F
:100A000014E0274EB04201D104260FE0254EB0423B
:100A100001D105260AE0244EB04201D1062605E0A8
:100A2000224EB04201D1072600E00826BE402643F0
:100A3000CCF808681E4E34684F689C43FF0300D50D
:100A40001C4334601A4C241D26684F689E43BF0324
:100A500000D51E432660164E083634684F689C4306
:100A6000FF0200D51C433460114E0C3634684F68C9
:100A70009C43BF0200D51C433460521C102AFFF473
:100A800045AFBDE8F88F0000443802400030014017
:100A9000000002400004024000080240000C024036
:100AA000001002400014024000180240001C0240E6
:100AB000003C01400AB1816170470904FBE7000076
:100AC0000148806870470000B40000200248816837
:100AD0000278114481607047B40000200B4810B5C3
:100AE000016841F400710160016841F480610160B6
:100AF000016841F480710160032000F08DF800204E
:100B000000F006F800F03EF8002010BD003C024066
:100B100010B5014688B00022372000F05DF837207C
:100B200000F04CF813480024016841F020010160F6
:100B3000006805A900F020000690684600F018F94A
:100B400000F036F90C494000B0FBF1F10C480B4ABB
:100B5000491E026040F2E732C0E90324C0E90114F3
:100B600000F098FB10B1012008B010BD044800F05F
:100B700001FCF9E74038024040420F0000140040F9
:100B80007C0E00200C4882B0016841F48041016075
:100B9000006800F4804000900748001F016841F0A1
:100BA000805101600068002200F0805000900F2109
:100BB000901E02B000F010B844380240002809DB53
:100BC00000F01F02012191404009800000F1E02067
:100BD000C0F8001170470000F0B40E4B1B680C46C3
:100BE000C3F30223C3F10705042D00D90425191D01
:100BF000072901D2002300E0DB1E012606FA05F1D9
:100C0000491E214099409E40761E16403143F0BC5B
:100C100002F09ABC0CED00E0064900F007020868FB
:100C20004FF6FF03184040EA0220034A10430860D1
:100C3000704700000CED00E00000FA052DE9F047D8
:100C40000E46050065D0DFF81481D8F80000F7B231
:100C500000F00F00B04207D288F80070D8F800000A
:100C600000F00F00B04254D128683D4C810712D5E6
:100C7000400703D5206840F4E05020602878000742
:100C800003D5206840F4604020602068A96820F007
:100C9000F000084320602878C0072DD030496868EC
:100CA0000839012812D0022813D0032811D009686E
:100CB000890700292DDA216821F003010143216011
:100CC000FFF7FEFE814641F2883A0EE0096889038B
:100CD000EFE709688901ECE7FFF7F2FEA0EB0901F5
:100CE000514502D90320BDE8F0872068696800F00B
:100CF0000C00B0EB810FEFD1D8F80010404601F0A6
:100D00000F01B14207D90770006800F00F00B04230
:100D100001D00120E7E72878400705D52068E96879
:100D200020F4E050084320602878000706D52068AA
:100D3000296920F4604040EAC100206000F058F8C2
:100D40002168084AC1F30311515CC8400649086094
:100D500006480068FFF7DCFE0020C4E7003C0240C4
:100D600008380240F8570008C0000020B8000020F2
:100D70000F2202600C4A136803F0030343601368F8
:100D800003F0F0038360136803F4E053C360126858
:100D90004FF4E05303EAD20202610448006800F015
:100DA0000F0008607047000008380240003C024015
:100DB0000448054900680968044AC1F38221515C6E
:100DC000C8407047C000002008380240085800089A
:100DD0000448054900680968044AC1F34231515C7E
:100DE000C8407047C000002008380240085800087A
:100DF000154810B5006810F00C02144813D04110CB
:100E0000042A0FD0082A0ED10F4C241F2268236811
:100E100002F03F025B0207D52068C0F38810A0FBF8
:100E2000010106E0084610BD2168C1F38811A1FB4D
:100E300000010023FFF724FA2168C1F30141491C96
:100E40004900B0FBF1F010BD083802400024F40066
:100E50002DE9F84F04006ED02078DFF83C93C007EE
:100E6000A9F104054AD009F104000168C1F3810128
:100E7000012908D00068C0F3810002280AD1D9F8FE
:100E80000000400206D52868800337D56068002836
:100E9000E1D033E06068B0F5803F10D0B0F5A02F0E
:100EA000286810D020F480302860286820F4802042
:100EB00028606068A8B1FFF703FE06460DE02868C9
:100EC00040F48030F4E740F480202860F7E700BF6A
:100ED000FFF7F6FD801B642873D828688003F7D5D8
:100EE0000CE0FFF7EDFD064605E000BFFFF7E8FD6B
:100EF000801B6428F0D828688003F7D42078DFF8B6
:100F00009C8280074FF0000A3ED5A348001D01686F
:100F100011F00C0F08D00068C0F3810002280BD13B
:100F2000D9F80000400207D42868800716D5E06889
:100F3000012800D112E02BE1E068B8B10120C8F827
:100F40000000FFF7BDFD064605E000BFFFF7B8FD56
:100F5000801B0228C0D828688007F7D52868216937
:100F600020F0F80040EAC10028600DE0C8F800A0B9
:100F7000FFF7A6FD064604E0FFF7A2FD801B02284E
:100F80001FD828688007F7D42078000722D5824E22
:100F900083486169703671B101210160FFF790FDEE
:100FA000074604E0FFF78CFDC01B022809D8306813
:100FB0008007F7D50EE0C0F800A0FFF781FD0746D7
:100FC00005E082E0FFF77CFDC01B02287DD8306879
:100FD0008007F7D42078400768D5DFF8BCB1002738
:100FE0000BF13C0BDBF80000C0000BD4DBF8001069
:100FF00041F08051CBF80010DBF80000012700F031
:1010000080500090674E3068C00510D4306840F4BE
:1010100080703060FFF754FD009005E0FFF750FD51
:101020000099401A022850D83068C005F6D55A4EAB
:10103000A0686C3601280FD00528306810D020F049
:1010400001003060306820F004003060A068B8B162
:10105000FFF736FD00900FE0306840F00100F4E744
:1010600040F004003060F7E7FFF72AFD0099411ACD
:1010700041F28830814266D830688007F4D50EE0AE
:10108000FFF71EFD009007E0FFF71AFD0099411AD7
:1010900041F28830814256D830688007F4D42FB1AD
:1010A000DBF8001021F08051CBF80010A069C8B324
:1010B0003949091D0968C1F3810102294AD0022872
:1010C000504607D0C8F8600000E03CE0FFF7F8FCAD
:1010D00004463BE04746C8F86000FFF7F1FC0646CF
:1010E00005E000BFFFF7ECFC801B02282BD8286826
:1010F0008001F7D4D4E907010843A16A2A4A4908C4
:1011000002EB0141626A41EA8211084394F82C1013
:1011100040EA0161C9F8001001203866FFF7D0FCF1
:10112000044606E036E000BFFFF7CAFC001B0228B9
:1011300009D828688001F7D52CE000BFFFF7C0FC74
:10114000001B022802D90320BDE8F88F286880011F
:10115000F4D41FE00128F7D0D9F80000E26900F4C8
:101160008001914214D1226A00F03F0191420FD1D7
:1011700047F6C071626A0140914209D1A26A00F447
:101180004031914204D1E16A00F07060884201D0A0
:101190000120D9E70020D7E7043802400000474289
:1011A000800E4742007000400000FFFF704770470C
:1011B00010B590F83C20012A22D0012280F83C2072
:1011C000CA688C6822F4407222434C6822F4806220
:1011D00022430C6822F4006222430C6922F48052FC
:1011E00022434C6922F400522243C969002322F4AD
:1011F00080420A4301684A6480F83C30002010BDF8
:10120000022010BD70B590F83C20012A32D0012494
:1012100080F83C40022280F83D2003685A689D68AF
:1012200022F070060A6832435A60134B02689A42F1
:1012300014D0B2F1804F11D0104B9A420ED0104B07
:101240009A420BD00F4B9A4208D00F4B9A4205D0CE
:101250000E4B9A4202D00E4B9A4204D1496825F0B7
:1012600080031943916080F83D40002180F83C10D4
:10127000084670BD022070BD00000140000400401F
:1012800000080040000C0040000401400040014004
:101290000018004010B5040003D094F83D0010B1D0
:1012A00007E0012010BD002084F83C00204600F03B
:1012B0000DF8022084F83D00211D206801F076FD24
:1012C000012084F83D00002010BD000008B523492E
:1012D000026823488A4211D1016841F0100101607F
:1012E0000068002200F01000009005213620FFF772
:1012F00073FCBDE808403620FFF760BC1849194B65
:10130000091D9A4207D1086840F400300860086857
:1013100000F4003009E0144B9A4208D1086840F408
:1013200080200860086800F48020009008BD0F4904
:101330008A4207D1016841F080010160006800F035
:101340008000F2E70A498A42F0D1016841F48071D5
:101350000160006800F48070E7E7000000100040C2
:10136000403802400044014000480140001C004059
:10137000002000400168CA6842F00102CA600068AB
:10138000816801F00701062903D0016841F00101DD
:101390000160002070472DE9F0410D46040003D0A4
:1013A00094F83D0018B108E00120BDE8F08100206C
:1013B00084F83C00204600F03BF8022084F83D0011
:1013C0002068816844F2070291438160211D2068F2
:1013D00001F0ECFC226890689169166A2B68AF698D
:1013E000034340F20330814341EA0721A868EF69D3
:1013F00008434FF6FC418843E96840EA072001436F
:1014000028692F6A000140EA0730084369686D695E
:1014100026F0AA0646EA05152943936022689061E2
:1014200020680162012084F83D000020BDE7000033
:10143000F0B587B0044614216846FEF76BFF5749A4
:1014400023680024554810390225554A554EB3F1FA
:10145000804F27D0544FBB4258D1026842F002025D
:101460000260006800F002000590086840F0020089
:1014700008600868694600F002000590302000907E
:10148000CDE901543046CDE90345FFF737FA002294
:1014900005211D20FFF7A0FB5FF01D00FFF78EFB6D
:1014A00007B0F0BD036843F001030360006800F07B
:1014B00001000590086840F001000860086800F02D
:1014C00001000590086840F00200086008680127E4
:1014D00000F00200059020200090CDE90154CDE9F4
:1014E000034769461046FFF709FA08200090CDE946
:1014F0000154CDE9034769463046FFF7FFF9002262
:1015000005211C20FFF768FB1C20C7E7274FBB42C3
:1015100020D1026842F004020260006800F004007A
:101520000590086840F0020008600868694600F00D
:1015300002000590C0200090CDE901543046CDE96D
:101540000345FFF7DBF9002205211E20FFF744FBCE
:101550001E20A3E7164EB342A2D1036843F008034E
:101560000360006800F008000590086840F0010082
:1015700008600868694600F00100059003200090AB
:10158000CDE901541046CDE90345FFF7B7F9002234
:1015900005213220FFF720FB32207FE74038024050
:1015A0000000024000040240000400400008004027
:1015B000000C004010B50446006891B1042904D025
:1015C0000122002101F056FC206801225FF0040195
:1015D00001F050FC2068016841F001010160002029
:1015E00010BD01220021F3E7704770B50446006882
:1015F00001694FF00005C943890715D4C168C94383
:10160000890711D4E91E01610120207720688069D3
:101610008007204602D0FFF7E7FF04E000F02CF936
:10162000204600F0DDF9257720680169C9434907A4
:1016300017D4C168C943490713D46FF0040101618D
:10164000022020772068806910F4407F204602D075
:10165000FFF7CAFF04E000F00FF9204600F0C0F9E0
:10166000257720680169C943090716D4C168C943B1
:10167000090712D46FF00801016104202077206867
:10168000C0698007204602D0FFF7AEFF04E000F0FB
:10169000F3F8204600F0A4F9257720680169C943D2
:1016A000C90617D4C168C943C90613D46FF0100125
:1016B0000161082020772068C06910F4407F20462F
:1016C00002D0FFF791FF04E000F0D6F8204600F0CA
:1016D00087F9257720680169C943C90708D1C1681E
:1016E000C943C90704D1891E0161204600F09CF955
:1016F00020680169C943090609D4C168C9430906BC
:1017000005D46FF0800101612046FFF74FFD20688E
:101710000169C943490609D4C168C943490605D4CA
:101720006FF040010161204600F088F920680169EE
:10173000C94389060BD4C168C943890607D46FF031
:10174000200101612046BDE87040FFF730BD70BD4B
:1017500070B586B0044614216846FEF7DBFD2468A8
:101760003A4D00223A4902233A48AC4211D10C6862
:1017700044F010040C60096801F0100105914FF469
:10178000D4410091CDE901320121CDE9032169461F
:101790000DE0314E0325B4420DD10C6844F0100425
:1017A0000C60096801F010010591602146E0FFF727
:1017B000A5F806B070BD294E2948B44209D10C687D
:1017C00044F002040C60096801F0020105918115E2
:1017D00034E0244EB44209D10C6844F002040C6099
:1017E000096801F002010591711527E01E4E0925D7
:1017F000B44209D10C6844F002040C60096801F09D
:1018000002010591F10019E0184E1948B44209D1BE
:101810000C6844F001040C60096801F001010591B5
:1018200040210BE0134EB442C3D10C6844F00104D4
:101830000C60096801F00101059180210091CDE95A
:101840000132CDE903256946B1E7000000000140FF
:101850003038024000100240004001400044014086
:10186000000402400048014000180040001C0040F5
:101870000000024000200040704770B5044690F818
:101880003C000D4601280DD0012684F83C60022062
:1018900084F83D0042B1042A18D0082A2AD00C2A24
:1018A0004DD139E0022070BD206801F0F1FA2068C6
:1018B000816941F0080181612068816921F004019A
:1018C0008161206881692A69114311E0206801F073
:1018D0000FFB2068816941F40061816120688169A2
:1018E00021F480618161206881692A6941EA0221CD
:1018F000816124E0206801F031FB2068C16941F07A
:101900000801C1612068C16921F00401C16120683A
:10191000C1692A69114311E0206801F053FB206876
:10192000C16941F40061C1612068C16921F480612D
:10193000C1612068C1692A6941EA0221C16184F854
:101940003D60002084F83C0070BD10B5040003D059
:1019500094F83D0010B107E0012010BD002084F88C
:101960003C00204600F00CF8022084F83D00211DC8
:10197000206801F01BFA012084F83D00002010BD12
:1019800008B5134A01681348914207D1016841F034
:1019900001010160006800F0010009E00E4A914277
:1019A00008D1016841F480310160006800F48030A2
:1019B000009008BD09488142FBD10648001F01681C
:1019C00041F040010160006800F04000F0E70000D5
:1019D000000001404438024000400140001800402F
:1019E0007047000010B504460068012201F042FA79
:1019F0000B492068884202D00A49884203D1416CD1
:101A000041F4004141642068816801F00701062922
:101A100003D0016841F001010160002010BD000009
:101A2000000001400004014000680349884201D1E0
:101A3000FFF74CB870470000001400407047704733
:101A400070B5026804461068D168536910F00F0F32
:101A500052D003F0010501F490762E435FD0C20707
:101A600005D0CA0503D5E26B42F00102E2634207EA
:101A700005D5DA0703D0E26B42F00202E263820787
:101A800005D5DA0703D0E26B42F00402E2630207F5
:101A900007D501F020022A4303D0E26B42F008028E
:101AA000E263E26B002A33D0800604D5880602D5B3
:101AB000204601F022FB20684069E16BC0F38010F2
:101AC000090700D428B3204601F000FB20684169D3
:101AD00049061AD5416921F040014161606BA0B10E
:101AE0001B490165606BFEF772FD002810D0606B2A
:101AF000016DBDE870400847830610D58B060ED5F2
:101B00002046BDE8704001F0F8BA2046FFF797FF85
:101B100070BD2046FFF793FF0020E06370BD030611
:101B200006D50B0604D52046BDE8704001F0C4BBC5
:101B30004006F3D54806F1D5D168204621F0400192
:101B4000D160202184F8391000F0DBFA70BD00006C
:101B50002D30000870B5040004D094F83900002539
:101B600010B106E0012070BD84F83850204600F026
:101B700023F8242084F839002068C16821F400513A
:101B8000C160204601F004FB2068016921F4904106
:101B900001612068416921F02A0141612068C16822
:101BA00041F40051C160E563202084F8390084F8D5
:101BB0003A00002070BD00002DE9F04F87B00446C8
:101BC00014216846FEF7A6FBE948DFF8A083103829
:101BD000D4F800C0E64A022103270823DFF894E383
:101BE000002506154FF0010B4FF00069C44535D1B3
:101BF000D2F800C04CF4002CC2F800C0126802F405
:101C000000220592026842F004020260006800F0BF
:101C100004000590B8028DE80308CDE90373694616
:101C20007046FEF76BFED54FD3483860C7E9019583
:101C3000C7E903567D61BD61FD613D6238467D6245
:101C4000FEF7A8FD08B1FEF7C0FC6763002205217E
:101C50003420BC63FEF7C0FF342052E0DFF820835D
:101C6000C44553D1D2F800C04CF4801CC2F800C067
:101C7000126802F480120592026842F004020260C7
:101C8000026802F004020592026842F00802026053
:101C900000688A4600F0080005904FF48050D8464E
:101CA000CDE9000ACDE902879B4669460493704658
:101CB000FEF724FE0420CDE9000ACDE9028769463B
:101CC000CDF810B0AF48FEF719FEAC4FAA48603708
:101CD00030383860C7E90195C7E903567D61BD61B9
:101CE000FD613D6238467D62FEF754FD08B1FEF7A6
:101CF0006CFC6763002205213520BC63FEF76CFF96
:101D00003520FEF75BFF07B0BDE8F08FDFF8788283
:101D10004FF0070A4FF0400BC4454CD1944A121DB6
:101D2000136843F010031360126802F0100205926A
:101D3000026842F001020260006800F001000590B4
:101D40004FF4C0608DE8A30469469048FEF7D6FDC5
:101D50008A4F8F48C037B0463860C7E90195C7E958
:101D600003567D614FF48036BD61C7E9075638469A
:101D70007D62FEF70FFD08B1FEF727FC6763BC63C9
:101D8000844F8348C7E903587D61BD61C7E90756A1
:101D900078307D6287E8010A3846FEF7FBFC08B11F
:101DA000FEF713FC2763002205212520BC63FEF704
:101DB00013FF2520A5E7DFF8E081C44535D113687E
:101DC00043F400331360126802F400320592026893
:101DD00042F001020260006800F0010005900C2052
:101DE0008DE8A30469466948FEF788FD694F62489B
:101DF000603748303860C7E90195C7E903567D610F
:101E00004FF48030BD61C7E9075038467D62FEF768
:101E1000C1FC08B1FEF7D9FB67630022052126202B
:101E2000BC63FEF7D9FE26206BE7DFF87081C4455E
:101E300048D1136843F480231360126802F48022AF
:101E40000592026842F002020260006800F002009F
:101E500005904FF440608DE8A30469465048FEF7B2
:101E60004DFD4C4F4448C03718383860C7E90195DC
:101E7000C7E903567D61BD61FD613D6238467D6203
:101E8000FEF788FC08B1FEF7A0FB6763BC63454F13
:101E90003948C7E903567D61BD61FD613D62183077
:101EA0007D6287E8010A3846FEF774FC08B1FEF748
:101EB0008CFB2763002205212720BC63FEF78CFEE4
:101EC00027201EE7384A94457FF41DAF284A121D8B
:101ED000D2F800C04CF0200CC2F800C0126802F02A
:101EE00020020592026842F0040202600068049336
:101EF00000F004000590C0208DE8A30069467046FC
:101F0000FEF7FCFC274F22486037183838604FF046
:101F10002068C7E90185C7E903567D61BD61FD61A0
:101F20003D6238467D62FEF735FC08B1FEF74DFB99
:101F30006763BC631B4F1648C0376030C7E9035660
:101F40007D61BD61FD613D627D6287E801093846C2
:101F5000FEF720FC08B1FEF738FB276300220521BD
:101F60004720BC63FEF738FE4720CAE6004C00401D
:101F70004038024000080240406002401C0B002034
:101F800000500040000C02400010014000000240E0
:101F9000406402403C0C00200044004000480040E7
:101FA000000402405C0D002000140140F8B5044616
:101FB00090F83A0020283CD1C1B3BAB394F8380065
:101FC000012836D0012084F83800A162A2850025BE
:101FD000E563222084F83A00636B1748D863636B8B
:101FE00016481864636B1648D864606B1346056521
:101FF0000846666B216802463046091DFEF734FC30
:10200000206801684168009184F83850C16841F443
:102010008071C1602068416941F00101416120681F
:10202000416941F0400141610020F8BDFFE7012016
:10203000FBE70220F9E7000087300008C330000802
:102040003D300008704770472DE9F843044690F88A
:1020500039001F4616460D46202850D1B5B1AEB105
:1020600094F8380001284AD0012084F838004FF055
:102070000008C4F83C80212084F83900FEF720FDD8
:10208000A6848146E68484F8388026E00120BDE8F5
:10209000F883E08C401EE084A0684B46B0F5805F7A
:1020A0004FF000024FF080012046009703D001F06E
:1020B00034F9E8B90DE001F030F9C8B92888216891
:1020C000C0F308004860206908B16D1C05E0AD1C34
:1020D00003E0216815F8010B4860E08C0028D8D196
:1020E0004B46002240212046009701F016F908B126
:1020F0000320CCE7202084F839000020C7E7022025
:10210000C5E77047FEE700000EB5254D01205022BF
:10211000287024492448FFF749FF224E4FF0FF372B
:102120003946686802F0CAFE02F0AAF90024305D60
:1021300001F062F9641C502CF9DB1C480078D0B126
:102140001B4A9FED1C0ADFED1C0A0020694600BFF8
:1021500002EB4003B3F97A3001EE103A01EB800351
:10216000401CB8EEC11A032821EE001A21EE201AF5
:1021700083ED001AECDB50220A490B48FFF716FFEB
:1021800002F09EF900231A466946686902F062FC73
:1021900000231A466946E86902F05CFCC0E70000CB
:1021A00060000020BC0300205C0A00200100002029
:1021B0005A02002000000038000034432D4808B5C2
:1021C000016841F480010160016801F4800100911F
:1021D000016841F4001101600068002200F4001061
:1021E000009005210B20FEF7F7FC0B20FEF7E6FC24
:1021F000002205210C20FEF7EFFC0C20FEF7DEFC90
:10220000002205210D20FEF7E7FC0D20FEF7D6FC8D
:10221000002205210E20FEF7DFFC0E20FEF7CEFC8B
:10222000002205211020FEF7D7FC1020FEF7C6FC87
:10223000002205213920FEF7CFFC3920FEF7BEFC35
:10224000002205213A20FEF7C7FC3A20FEF7B6FC33
:10225000002205214520FEF7BFFC4520FEF7AEFC1D
:10226000002205214620FEF7B7FCBDE808404620C5
:10227000FEF7A4BC3038024010B5D4B003220021D0
:10228000012002F07FFB5A4C606010B159A001F0B0
:102290003DF903220021012002F074FBA06000221E
:1022A0001021012002F06EFBE060002210210220CC
:1022B00002F068FB206100220C21012002F062FB89
:1022C000606100221021012002F05CFBA06100226D
:1022D0000C21012002F056FBE061002210210120B8
:1022E00002F050FB20621C224D496846FDF7F9FFC1
:1022F0000021684601F09EFA494960621C221C31A7
:1023000007A8FDF7EEFF002107A801F093FA444962
:10231000A0621C2238310EA8FDF7E3FF00210EA8B1
:1023200001F088FA3E49E0621C22543115A8FDF7FD
:10233000D8FF002115A801F07DFA394920631C223D
:1023400070311CA8FDF7CDFF00211CA801F072FA26
:10235000334960631C228C3123A8FDF7C2FF0021A2
:1023600023A801F067FA2E49A0631C22A8312AA8ED
:10237000FDF7B7FF00212AA801F05CFA2849E063C5
:102380001C22C43131A8FDF7ACFF002131A801F0B7
:1023900051FA234920641C22E03138A8FDF7A1FF3F
:1023A000002138A801F046FA1D4960641C22FC3166
:1023B0003FA8FDF796FF00213FA801F03BFAA0647B
:1023C0001C22184946A8FDF78CFF002146A801F001
:1023D00031FA1449E0641C221C314DA8FDF781FF3D
:1023E00000214DA801F026FA206554B010BD000070
:1023F00060000020494D55646174655F52585F5319
:10240000656D5F48616E646C65B6FED6B5D0C5BAC1
:10241000C5C1BFB4B4BDA8B3C9B9A6210D0A000097
:10242000A0560008B85700082DE9F04786B01421DF
:102430006846FDF76FFF38480024016841F010013D
:102440000160016801F010010591016841F004018B
:102450000160016801F004010591016841F080010B
:102460000160016801F080010591016841F00101FE
:102470000160016801F001010591016841F002016C
:102480000160016801F002010591016841F0080155
:1024900001600068DFF8848000F008004FF4C04558
:1024A0000590002229464046FEF704FBDFF87090B5
:1024B0004FF48056002231464846FEF7FBFADFF81B
:1024C00064A04FF47F47002239465046FEF7F2FAE7
:1024D00000950125CDE90154694640460394FEF775
:1024E0000DFA0096CDE90154694648460394FEF77B
:1024F00005FA0097CDE90154694650460394FEF76A
:10250000FDF9E8038DE8310069460748FEF7F6F962
:1025100006B0BDE8F08700003038024000080240F5
:1025200000100240000C02400000024010B588B0CC
:102530001C216846FDF7EEFE154814490024016091
:10254000A721C0E9011444F61F61C0E903148461A6
:10255000FEF7A0FE08B1FEF738F80D48FFF7F5F9D1
:1025600008B1FEF732F86020CDE9000402940022A1
:10257000694607480494FFF780F908B1FEF725F88B
:102580000348FFF7E5F808B010BD00000044014023
:102590005C08002010B588B01C216846FDF7BAFE23
:1025A0001548144900240160A721C0E9011444F62C
:1025B0001F61C0E903148461FEF76CFE08B1FEF7E9
:1025C00004F80D48FFF7C1F908B1FDF7FEFF6020E0
:1025D000CDE9000402940022694607480494FFF7FD
:1025E0004CF908B1FDF7F1FF0348FFF7B1F808B067
:1025F00010BD0000004801409C08002010B588B0C4
:102600001C216846FDF786FE164815490024016026
:102610005321C0E9011444F61F61C0E90314846129
:10262000FFF793F908B1FDF7D0FF6020CDE9000472
:102630000294002269460B480494FFF71EF908B182
:10264000FDF7C3FF042269460648FFF716F908B1F3
:10265000FDF7BBFF0348FFF77BF808B010BD000093
:1026600000180040DC08002010B588B01C21684626
:10267000FDF750FE154814490024016040F28F61B7
:10268000C0E9011440F2E731C0E903148461FEF7A8
:1026900001FE08B1FDF799FF0C48FFF756F908B1A4
:1026A000FDF793FF6020CDE9000402940022694603
:1026B00006480494FFF7E1F808B1FDF786FF0348E8
:1026C000FFF746F808B010BD001C00401C090020B0
:1026D00010B588B01C216846FDF71CFE154814494A
:1026E0000024016040F28F61C0E9011440F2E7313B
:1026F000C0E903148461FEF7CDFD08B1FDF765FF65
:102700000C48FFF722F908B1FDF75FFF6020CDE923
:10271000000402940022694606480494FFF7ADF8CD
:1027200008B1FDF752FF0348FFF712F808B010BDDB
:10273000002000405C09002010B592B000240F94E6
:102740001C2168461094FDF7E5FD202107A8FDF740
:10275000E1FD2C482A4901601021C0E9011440F232
:10276000E731C0E9031444618461FFF7EEF808B172
:10277000FDF72BFF0F940FA922481094FEF742FD9E
:1027800008B1FDF722FF6020CDE900040294039414
:1027900004940594002269461A480694FFF76DF8E0
:1027A00008B1FDF712FF042269461648FFF765F8E5
:1027B00008B1FDF70AFF082269461248FFF75DF8E5
:1027C00008B1FDF702FF0C2269460E48FFF755F8E5
:1027D00008B1FDF7FAFE0794089409944FF40050ED
:1027E0000A94CDE90B4007A906480E94FEF7E0FCD9
:1027F00008B1FDF7EAFE0348FEF7AAFF12B010BDCC
:10280000000001409C06002010B58CB024216846D1
:10281000FDF780FD0024154809944FF080410A948B
:10282000C0E900144FF45251C0E9024104618461CF
:102830000320CDE900040120CDE902040494CDE990
:1028400005400794694609480894FEF7A4FD08B1BD
:10285000FDF7BBFE099409A904480A94FEF7D2FCCF
:10286000002801D0FDF7B1FE0CB010BDDC06002041
:1028700010B58CB024216846FDF74CFD00241648A5
:10288000099414490A94C0E900144FF45251C0E964
:102890000241046184610320CDE900040120CDE9F7
:1028A00002040494CDE90540079469460A48089457
:1028B000FEF771FD08B1FDF788FE099409A90648E5
:1028C0000A94FEF79FFC002801D0FDF77EFE0CB0B5
:1028D00010BD0000000400401C07002010B58CB0A3
:1028E00024216846FDF716FD002416480994144972
:1028F0000A94C0E900144FF45251C0E90241046146
:1029000084610320CDE900040120CDE90204049490
:10291000CDE90540079469460A480894FEF73BFD57
:1029200008B1FDF752FE099409A906480A94FEF77A
:1029300069FC002801D0FDF748FE0CB010BD000076
:10294000000800405C07002010B58CB024216846C8
:10295000FDF7E0FC00241648099414490A94C0E9E4
:1029600000144FF45251C0E9024104618461032014
:10297000CDE900040120CDE902040494CDE905402D
:10298000079469460A480894FEF705FD08B1FDF76B
:102990001CFE099409A906480A94FEF733FC002896
:1029A00001D0FDF712FE0CB010BD0000000C00407D
:1029B0009C0700201CB500240E4800940C4901948B
:1029C00001605321C0E9011442F20F718461C160BA
:1029D000FEF760FC08B1FDF7F8FD00946946054874
:1029E0000194FEF70FFC002801D0FDF7EEFD1CBDA1
:1029F00000100040DC07002010B588B01C2168469C
:102A0000FDF788FC1648154900240160A721C0E99C
:102A1000011444F61F61C0E903148461FEF795FFB9
:102A200008B1FDF7D2FD6020CDE900040294002238
:102A300069460B480494FEF720FF08B1FDF7C5FD79
:102A4000042269460648FEF718FF08B1FDF7BDFDF0
:102A50000348FEF77DFE08B010BD000000400140B5
:102A60001C0800200C4810B50A4901604FF4E13100
:102A70004160002181600C22C160C0E904128161C3
:102A8000C161FFF767F8002803D0BDE81040FDF7EB
:102A90009CBD10BD004C00409C0900200C4810B5A6
:102AA0000A4901604FF4E1314160002181600C224C
:102AB000C160C0E904128161C161FFF74BF80028D1
:102AC00003D0BDE81040FDF780BD10BD00500040B0
:102AD000DC0900200C4810B50A4901604FF4E131CF
:102AE0004160002181600C22C160C0E90412816153
:102AF000C161FFF72FF8002803D0BDE81040FDF7B3
:102B000064BD10BD001001401C0A00200C4810B527
:102B10000A4901604FF4E1314160002181600C22DB
:102B2000C160C0E904128161C161FFF713F8002898
:102B300003D0BDE81040FDF748BD10BD0044004083
:102B40005C0A00200C4810B50A4901604FF4E131DD
:102B50004160002181600C22C160C0E904128161E2
:102B6000C161FEF7F7FF002803D0BDE81040FDF774
:102B70002CBD10BD004800409C0A00200C4810B538
:102B80000A4901604FF4E1314160002181600C226B
:102B9000C160C0E904128161C161FEF7DBFF00285A
:102BA00003D0BDE81040FDF710BD10BD001401407A
:102BB000DC0A0020FEE70000144A08280ED00A288C
:102BC00014D00C281AD00E2807D1106820F44040E9
:102BD0001060106840EA813010607047106820F47F
:102BE00040701060106840EA0120F5E7106820F49A
:102BF00040601060106840EA8120EDE7106820F422
:102C000040501060106840EA0130E5E7140C0240C3
:102C1000FEE7000010B50023104A15E0362809D061
:102C200039280BD03C2812D054783F2813D044F0D8
:102C3000800406E0547844F0010402E0547844F043
:102C40000204401C54705B1C8B42E7D310BD5478C7
:102C500044F00804F5E744F00404F2E70000002023
:102C60008AB2014664230148FFF7EEB95C0A0020EE
:102C7000044C206880F400502060642000F0CEFDF9
:102C8000F7E700001408024010B5502080F31188C7
:102C9000BFF34F8FBFF36F8F02F06CFA18B1044986
:102CA0004FF080500860002080F3118810BD0000B4
:102CB00004ED00E030B593B030216846FDF72AFB03
:102CC00014210CA8FDF726FB1D480025016841F0E2
:102CD00080510160006800F080501190194801682F
:102CE00041F4804101600068022400F480401190AA
:102CF0000120039010200490009406940820CDE950
:102D00000750A820CDE9090404200B906846FEF77F
:102D10009FF808B172B6FEE70CA90F2081E83100D8
:102D20004FF4A0500F904FF48050109005210CA844
:102D3000FDF784FF002801D072B6FEE713B030BD66
:102D400040380240007000400548016841F47001BD
:102D5000016003494FF0006080390860704700004F
:102D600088ED00E00148FEF740BC0000DC060020D2
:102D70000148FEF73ABC00001C0700200148FEF79E
:102D800034BC00005C0700200148FEF72EBC0000A8
:102D90009C0700200148FEF728BC0000DC0700204B
:102DA0000148FEF722BC00007C0E0020F0B502684E
:102DB000254C264D264E274F274B4FF0804CA042E6
:102DC00009D0604507D0A84205D0B04203D0B84230
:102DD00001D0984204D122F0700E4A6842EA0E02F5
:102DE000A0421BD0604519D0A84217D0B04215D0E0
:102DF000B84213D0984211D0184DA8420ED0184DA9
:102E0000A8420BD0174DA84208D0174DA84205D0B4
:102E1000164DA84202D0164DA84203D122F44075A7
:102E2000CA682A434D6922F080022A4302608A68F8
:102E3000C2620A688262A04201D0984201D1096947
:102E4000016301214161F0BD000001400004004028
:102E500000080040000C0040000401400040014018
:102E6000004401400048014000180040001C0040A0
:102E70000020004010B501F01F030121046A9940B1
:102E80008C430462016A9A401143016210BD000044
:102E9000F0B5026A22F001020262036A42688469A4
:102EA000124E24F073050C682C4323F002058B6846
:102EB0002B430D4DA84201D0B04205D123F00807A5
:102EC000CB683B4323F00403A84201D0B04205D1B4
:102ED0004D6922F4407215438A692A434260846135
:102EE000496841630362F0BD0000014000040140F5
:102EF000F0B5026A22F010020262026A4368846935
:102F00000D6824F4E64444EA05248D6822F020028A
:102F100042EA05120F4D104EA84201D0B04206D130
:102F2000CF6822F0800242EA071222F04002A84253
:102F300001D0B04207D14D6923F4406343EA8503D1
:102F40008D6943EA85034360846149688163026255
:102F5000F0BD00000000014000040140F0B5026A2D
:102F600022F480720262026A4368C46922F4007229
:102F700024F073050C68124E2C438D6842EA05223A
:102F80000E4DA84201D0B04206D1CF6822F40062B3
:102F900042EA072222F48062A84201D0B04207D15F
:102FA0004D6923F4405343EA05138D6943EA051341
:102FB0004360C4614968C1630262F0BD0000014022
:102FC0000004014030B5026A22F480520262046AB1
:102FD0004268C3690D6823F4E64343EA05238D681C
:102FE00024F4005444EA0534084DA84202D0084DA8
:102FF000A84204D14D6922F4804242EA851242601F
:10300000C36149680164046230BD000000000140F2
:10301000000401400148FEF713BD00009C09002098
:103020000148FEF70DBD0000DC09002010B5806BE3
:103030000021C185C184FEF702FD10BD70B5846B0F
:103040002068406994F83910C0F3C0100025212988
:1030500004D118B1E584204600F046F820684069A4
:1030600094F83A10C0F38010222904D118B1E585F4
:10307000204600F02BF8E06B40F01000E0632046A3
:10308000FEF7DDFC70BD10B50146806B096809686C
:10309000C90513D40021C1850168CA6822F4807271
:1030A000CA6001684A6922F001024A6101684A69FE
:1030B00022F040024A61202180F83A10FEF7C2FF58
:1030C00010BD10B5806BFEF7BEFF10BD0168CA6869
:1030D00022F49072CA6001684A6922F001024A61D2
:1030E000202180F83A1070470168CA6822F0C002B7
:1030F000CA60202180F83910704710B590F83A1056
:10310000222901D0022010BD8168B1F5805F11D065
:103110000169002901681FD0496801F07F03816AB5
:103120004A1C82620B70C18D491E0904090CC185BD
:1031300018D02BE00269816A002A0268526805D023
:10314000D2B20A80816A491C8162ECE7C2F30802AC
:103150000A80816A891CF7E74A68816A4B1C83628E
:103160000A70E0E70168CA6822F02002CA600168BC
:10317000CA6822F48072CA6001684A6922F00102BA
:103180004A61202180F83A10FEF75CFF002010BD54
:103190002DE9F041044600680169E26821F44051DC
:1031A000114301612169A068E26908436169114323
:1031B00008432168CA6849F20C639A430243CA6013
:1031C00020684169A26921F4407111434161E069BD
:1031D000192764253226B0F5004F354A3549206855
:1031E0004FF0000806D0884201D0904236D1FDF75A
:1031F000EFFD35E0884201D0904202D1FDF7E8FDB5
:1032000001E0FDF7D5FD61684A18A0FB070148EB16
:103210000803FDF735F80146B0FBF5F00201B1FBFC
:10322000F5F06FF01803584301EB800006EBC00087
:10323000B0FBF5F000F0F80002EB4002B1FBF5F056
:10324000584301EB800006EBC000B0FBF5F000F046
:103250000700216810448860BDE8F081FDF7A8FDF3
:1032600061688B0F8A00A0FB0701FDF709F8014692
:10327000B0FBF5F06FF01802504301EB800006EB55
:103280000010B0FBF5F000F0F002B1FBF5F002EB3E
:103290000012B1FBF5F06FF01803584301EB80000A
:1032A00006EB0010B0FBF5F000F00F00D1E70000D6
:1032B000001401400010014090F83910212901D07C
:1032C000022070478168B1F5805F016A0BD04A1C0B
:1032D0000262026809785160C18C491E0904090C18
:1032E000C1840ED017E009880268C1F3080151605B
:1032F00001690029016A02D0491C0162ECE7891CBE
:10330000FBE70168CA6822F08002CA600068C168F1
:1033100041F04001C160002070472DE9F04198461E
:1033200017460E460446069D1DE0681C1BD02DB1B5
:10333000FDF7C6FBA0EB0800A84214D92068C168BD
:1033400021F4D071C1602068416921F0010141611F
:10335000202084F8390084F83A00002084F83800EE
:103360000320BDE8F0812068006836EA000004D040
:103370000020B842D9D00020F3E70120F9E700008F
:103380000148FEF75DBB00001C0A00200148FEF763
:1033900057BB00005C0A00200148FEF751BB00004B
:1033A0009C0A00200148FEF74BBB0000DC0A00200D
:1033B000FEE7000018B103498861002070476FF0F4
:1033C0000500704700000020032802D96FF00500B7
:1033D0007047034A106211700020D06170470000EE
:1033E0000000002018B103494861002070476FF0C9
:1033F00005007047000000202DE9FC413B4C61694D
:10340000002955D03A49E2698854521CE261206A89
:10341000002630B101282FD0022865D0032860D1C2
:1034200062E00878552804D0521E3148491CE261F8
:103430003CE00B2A55D30A252D4F00204FEA00030C
:1034400017F803C05B1C6044C0B2AB42F8D38B7A60
:103450008342E9D14888ADF800008888ADF80200C1
:10346000C888ADF804000889ADF806004878042241
:103470006946FCF78DFF37E0022A32D948780328E5
:10348000D2D18878401D904212D888180D4630F865
:10349000020C921E47BA91B2154800F03FF88742DD
:1034A00008D0E269691C521E1148E261FCF719FF5D
:1034B000BDE8FC81A8780F4B42080021606A0AE051
:1034C00005EB410701EB000CB7F80370491C7FBA0C
:1034D00023F81C7089B29142F2D311466269904779
:1034E00002E0B2F5807FE3D1E661E1E70000002071
:1034F0005A0100205A02002018B1034948600020F8
:1035000070476FF00500704700000020014A024933
:1035100000F039B81D36000824010020F0B5FF2363
:10352000084E1C46002206F5807705E0855C5D406C
:10353000735D63407C5D521C8A42F7DB44EA0320E2
:10354000F0BD0000A05400080907090E002804DBA4
:1035500000F1E02080F80014704700F00F0000F147
:10356000E02080F8141D704702E008C8121F08C14F
:10357000002AFAD170477047002001E001C1121FF4
:10358000002AFBD170472DE9F04116460F4604464C
:10359000002503E03946B047641C6D1C20780028E4
:1035A000F8D12846BDE8F08110B5002145F2082485
:1035B00005E0224602235B1C9342FCD3491C814256
:1035C000F7D310BD0C4C8CB00A2208A9606901F039
:1035D000D9FB0A2204A9A06901F0D4FB0A2269469A
:1035E000E06801F035FB00F04BFF00F069FF46207A
:1035F00000F014F9E8E70000600000200EB5064D69
:103600004FF0FF3422466946E86901F0BBFB0A200F
:1036100000F004F9F6E700006000002013B5642311
:10362000012269460248FEF70FFD00981CBD00000C
:103630001C0A00200A4C206900040CD40A2000F067
:10364000EDF82069000403D505E0012000F0E6F85C
:1036500020690004F9D5012000F0E0F8EBE7000054
:10366000000002404FF47A74204600F0D7F8FBE7E0
:10367000FDF734FAFFF71EFBFEF7D6FEFEF79EFDC0
:10368000FFF728FAFFF742FAFFF756F8FFF7BCF802
:10369000FFF7EEF8FFF722F9FFF756F9FFF78AF97F
:1036A000FFF7AAF9FEF742FFFEF774FFFEF7A6FF49
:1036B000FEF7DAFFFFF70CF8FFF7D4F9FFF7EEF9A2
:1036C000FFF740FAFFF75AFA00F050F800F036FD25
:1036D0000021082000F016FE00210A2000F012FE52
:1036E00000210C2000F00EFE00210E2000F00AFE4A
:1036F0000DA0FFF70BFF50210020FFF765FE0F48DC
:10370000FFF7FAFE0E48FFF76DFE0E48FFF752FE78
:103710006420FDF7E1F80C48FDF72CFEFEF7ACFD48
:1037200000F083F8FEE70000425350B3F5CABCBB7B
:10373000AFB3C9B9A6210A0A00000000612C000835
:10374000152C0008C7050008DC07002001460020F2
:10375000842900D0C81C704741F28834002001F051
:1037600003F8204600F05AF8F8E7000010B53C21B5
:103770002048FDF71FFF1F480068C16841F00101A4
:10378000C1603C211C48FDF715FF1B480068C1685B
:1037900041F00101C1603C211848FDF70BFF1748BB
:1037A0000068C16841F00101C1603C211448FDF787
:1037B00001FF13480068C16841F00101C1600021A8
:1037C0001048FEF70FF904210E48FEF70BF9082107
:1037D0000C48FEF707F90C210A48FEF703F94FF4ED
:1037E000D250010648620849086008490860084943
:1037F000086010BDDC0600201C0700205C070020CC
:103800009C0700209C06002024040040240800405F
:10381000240C0040012000F001F8FBE710B500B9CE
:10382000012000F0CBFE002010BD10B500F066FFB7
:10383000002010BD7FB50D4604464169B0F908006F
:1038400081B1A16971B1FFF781FFD4E905128DE85B
:103850000700D4E900102B46226901F052FC0390C6
:1038600004B070BDFFF772FF03A9CDE90001208A03
:103870002B4682B2D4E9001001F016FC012801D0D9
:103880000020EDE70398EBE70F4C8CB0052208A968
:10389000E06801F077FA052204A9206901F072FAC4
:1038A00000F0EEFD0DF1200C9CE80F008DE80F00FC
:1038B0000DF1100C9CE80F0000F008F800F000FE7D
:1038C0000A20FFF7ABFFE1E7600000202DE9FF478A
:1038D00082B000209FED4E0A4E49F6EE000A81ECC0
:1038E000020A81ED020A9FED4C0A81ED030ADFED29
:1038F0004B0AC1ED040AC1ED050A9FED490A81EDAD
:10390000060AC1ED070A9FED470A474A81ED080AFA
:1039100081ED090A81ED0A0A42F2107C81ED0B0A61
:103920000DF1080A0DF13809CCF100086B46A2F13F
:103930001006A2F1080500BF3AF8207039F82040BF
:103940003C1B24B223F8104032F8107027443FB2D9
:1039500022F81070674501DD674602E0474500DA4E
:10396000474622F8107036F8107025F8107026F8C7
:103970001040401CC0B20428DED32B4C0020083479
:1039800033F910C001EB800700EE10CAD7ED000A32
:1039900032F91080B8EEC00A97ED041A20EE800AC2
:1039A00000EE908A35F91080F8EEE00AC44436F94A
:1039B0001080C8F1000801EE200A0CEB480C00EE64
:1039C00090CA97ED081AF8EEE00A01EE200ABDEE63
:1039D000C00A10EE107A24F81070401CC0B20428FF
:1039E000CED3B4F90010082000F08CFCB4F902101A
:1039F0000A2000F087FCB4F904100C2000F082FCCF
:103A0000B4F906100E2000F07DFC06B0BDE8F0878A
:103A10009A99193F7C0300201F85EB3ECDCCCC3D0D
:103A20008FC2F53D00000000500000202DE9F0415C
:103A3000184C0F46054666692068001D00F0D0FC52
:103A400038B9206890F82C1001208840A169814382
:103A5000A161681C07D137B12168BDE8F0410E486B
:103A6000091D00F001BD20683544B542456021685C
:103A700005D2A068BDE8F041091D00F0DDBC60681A
:103A8000091D00F0D9FC206B854200D22563BDE8FA
:103A9000F0810000C4000020980F00202DE9F041C3
:103AA000054600F0EDFC2E4C2069401C206120688A
:103AB0002C4F10B1E06940B32DE02560206901284A
:103AC00029D1002606EB860007EB800000F0A6FC5B
:103AD000761C072EF6D323488C3000F09FFC21483B
:103AE000A03000F09BFC1F48B43000F097FC1D484C
:103AF000C83000F093FC1B48DC3000F08FFC194804
:103B00008C3060601430A06005E02068E96AC06A0B
:103B1000884200D82560E06A401CE062E96A012022
:103B2000A26988401043A06101EB810007EB80008F
:103B3000291D00F099FC00F0C3FCE06900280CD0BE
:103B40002068E96AC06A884207D207494FF080506E
:103B50000860BFF34F8FBFF36F8FBDE8F0810000A7
:103B6000C4000020BC0E002004ED00E030B4026C64
:103B70000B46002A0BD0C1681144C1608468A14281
:103B800001D30168C16030BC1846FCF7AABB30BC49
:103B900070472DE9F041856B174604460026026CFC
:103BA00082B1C7B1E068FCF79CFBE168206C091AA0
:103BB000E1602268914202D2A168081AE060022FF7
:103BC00016D017E02068A8B9A06801F037FB0646B8
:103BD0000020A0600EE06068FCF783FB216C606849
:103BE00008446060A168884204D32068606001E0F6
:103BF00005B16D1E6D1CA5633046BDE8F08110B5A2
:103C0000044690F8510058B101280CD002280FD07A
:103C1000502080F31188BFF34F8FBFF36F8FFEE703
:103C2000206B00F061FC2046BDE8104000F05CBC59
:103C300010BD000010484FF47051420706D0C01D5F
:103C40000D4920F00700411AC1F570510B4A0023BD
:103C50000144C2E900030839103A21F0070111605C
:103C60004B600B600B1AC0E9001393604FF00040EB
:103C70005360D06070470000AC0F0020100100209E
:103C8000144E154CA6F1C8074FF08058DFF84C9041
:103C900012E000BF00F0F4FBF068C568281D00F0DA
:103CA0009FFB2069401E2061E068401EE06000F03C
:103CB00007FC2846FFF7A3FFE0680028EAD1386830
:103CC0000128F9D9C9F80080BFF34F8FBFF36F8F78
:103CD000F2E70000840F0020C400002004ED00E0A3
:103CE0000346009829B10260C0E90F31012100F0BC
:103CF0006DBE0060F8E72DE9F0479A46DDE90984DA
:103D000081466FF00303206B03EB82021044089E90
:103D100020F00707780707D0502080F31188BFF301
:103D20004F8FBFF36F8FFEE7002561B1002023188E
:103D30000A5C83F834200A5C12B1401C1028F6D3C8
:103D400084F8435001E084F83450072E00D306264F
:103D5000E662C4E91165201D00F06BFB04F1180058
:103D600000F067FB2461C6F107006462A061E564AE
:103D700084F8505052464946384600F00FF920600A
:103D8000B8F1000F01D0C8F80040BDE8F08700008E
:103D900030B5114900E011460A688242FBD34B68F6
:103DA0005C18844203D14068184448600846436860
:103DB0001C18944209D1084C103C2468A24209D036
:103DC00052681A4442600A6812680260814200D058
:103DD000086030BD0460F9E71001002010B504460A
:103DE00000F04EFBA06B28B15FF0000400F068FB10
:103DF000204610BD0124F9E706484168096829B149
:103E00004168C968C9684968016370474FF0FF316C
:103E1000FAE70000C400002008484068401C4FF04A
:103E2000500080F3118804D0BFF34F8FBFF36F8F22
:103E3000FEE7BFF34F8FBFF36F8FFEE7180100203F
:103E40002DE9F041044600F01BFB94F9455004F1C4
:103E5000240609E0606A48B1304601F085FA08B1ED
:103E600000F0DAFB6D1E6DB2002DF3DC4FF0FF3673
:103E700084F8456000F024FB00F002FB94F9445004
:103E800004F1100709E0206948B1384601F06CFAE6
:103E900008B100F0C1FB6D1E6DB2002DF3DC84F89B
:103EA0004460BDE8F04100F00BBB00002DE9F0419B
:103EB0000546002700F0B6FC314E306808B9FFF720
:103EC000B9FEF06805424BD1C5B3083568070ED07E
:103ED00005F00700C0F108000544680707D050202E
:103EE00080F31188BFF34F8FBFF36F8FFEE72DB3C1
:103EF0007068854234D82248103001460C6801E0D1
:103F000020460C466168A94202D221680029F7D1F7
:103F100031688C4224D007682168016060680837E6
:103F2000411B10290FD96019420708D0502080F397
:103F30001188BFF34F8FBFF36F8FFEE710E0416032
:103F40006560FFF725FF61687068401A7060B268AD
:103F5000904200D2B060F06801430020C4E9000143
:103F600001F03CFA780707D0502080F31188BFF3A6
:103F70004F8FBFF36F8FFEE73846BDE8F08100003A
:103F8000000100200449086818B10868826C521CBE
:103F90008264086870470000C400002010B5031F49
:103FA0004FF080741C601B1F21F001011960191F64
:103FB000044B0B6014390A60091F6FF00202443889
:103FC0000A6010BD193E000808B5DFF85891DFF807
:103FD00058A1DFF858B100BF56484FF0FF3254499E
:103FE000006A00F0CFFE524FB88908B94FF47A70DA
:103FF0004FF06408B0FBF8F00090388800287DD0BE
:1040000000F010FC3988B1F5BE6F01D94FF4BE61E4
:1040100047480180D9F8002043888A1A414692FB1C
:10402000F1F262F30F04DAF800209A1A92FBF1F22F
:1040300062F31F448388DBF800209A1A92FBF1F2A6
:1040400062F30F05394AC388121D1268DFF8E88051
:104050009A1A92FBF1F20389D8F8387062F31F457F
:10406000DB1B93FBF1F34089D8F8342063F30F0690
:10407000801A90FBF1F060F31F4601F0AFF90027C2
:1040800000F0D0FBD9F8001022B21144C9F800109A
:10409000DAF8001001EB2441CAF80010DBF8001038
:1040A0002AB21144CBF800102048001D016801EB32
:1040B00025410160D8F8381032B21144C8F83810E0
:1040C000D8F8341001EB2641C8F8341001F086F915
:1040D0000098FFF7A3FB7F1CBFB2642FD0D300F082
:1040E000A1FB13484FF4BE620188914200D91146EA
:1040F000C9F800104288CAF8002000E00EE082886B
:10410000CBF800200949C288091D0A600289C8F855
:1041100038204089C8F8340001F060F90A20FFF720
:104120007DFB59E7344401403448014034180040D5
:1041300036040020600000200040014010B500213E
:104140001648FDF74FFC04211448FDF74BFC0021F5
:104150001348FDF747FC00211248FDF743FC0021FE
:104160001148FDF73FFC04210F48FDF73BFC0F49C8
:104170004FF4487008600E4940F2262008600D494F
:10418000800008600B4840F26C71001D01600A4815
:10419000816340F2DC51416310BD00001C08002027
:1041A0005C0800209C080020DC080020344401400A
:1041B00034480140341800400040014030B40C78CD
:1041C0000023324A552C02D14C78552C01D09373E0
:1041D00057E08C78082C05D0172CF8D1CB79012B1F
:1041E0001BD04CE00B7A4C7AC97903EB04239BB2C9
:1041F000072910D2DFE801F00F0406080A0C0E00B0
:10420000138008E0538006E0938004E0D38002E04E
:10421000138100E05381012132E08B7A022B2ED1F1
:104220004B7B032B2BD10B7C042B28D1CB7C052B78
:1042300025D18B7D062B22D14B798C7903EB04237E
:1042400093810B7A4C7A03EB04231380CB7A0C7B9B
:1042500003EB042353808B7BCC7B03EB0423938001
:104260004B7C8C7C03EB0423D3800B7D4C7D03EBD8
:1042700004231381CB7D097E03EB012151810221AF
:10428000917330BC10220149FCF72BB8AC0300201D
:104290001FB5184E184FDFF86480DFF864904FF0B8
:1042A00080454FF4D25400BF00F0BCFA686AC0F5F4
:1042B000D25000906C623068A0F5D250019034600A
:1042C0003868C0F5D25002903C60D8F80010A1F5D3
:1042D000D2510391C8F8004001F080F800231A463B
:1042E0006946D9F80C0000F0B5FB0A20FFF796FAF2
:1042F000DAE700002404004024080040240C0040B9
:104300006000002010B504464FF47A700B468142DD
:1043100001DD034606E01548834201DA034603E067
:10432000002B01DD022100E0D90F2046FEF744FCFE
:104330000F49082C0AD00A2C0DD00C2C10D00E2CB2
:1043400003D1002B00DA5B420B6410BD002B00DAB6
:104350005B424B6310BD002B00DA5B428B6310BDE8
:10436000002B00DA5B42CB6310BD000018FCFFFF9E
:10437000000001401FB5192216491748FDF716FE27
:10438000144D164C4FF0FF361A353146A06800F038
:1043900095FD00F047FA0F496846FFF70FFF0D48FB
:1043A000102269461A30FBF79CFF01F017F8A87B32
:1043B00030B1084900231A461A31206A00F04AFB3E
:1043C000192204490448FDF7F1FD0A20FFF726FAF7
:1043D000DBE700000C0400201C0A00206000002025
:1043E000D0E9013201699A60D0E901235A604A6834
:1043F000824201D182684A60002202610868401E40
:104400000860086870470000034B036003F1540024
:1044100008608020106070474804002000F1080107
:104420004FF0FF32C0E90112C1600161002101605B
:10443000704700210161704730B50B685A1C02D0EB
:1044400000F1080202E0026904E02246546825688F
:104450009D42FAD953684B6099608A605160086147
:104460000168491C016030BD42684A6093688B60F6
:1044700093685960916008610168491C0160704748
:10448000502080F31188BFF34F8FBFF36F8F0A491D
:104490004868401C486001280CD10848006810F0AA
:1044A000FF0F07D0502080F31188BFF34F8FBFF369
:1044B0006F8FFEE7704700001801002004ED00E058
:1044C0000849486828B1401E486001D180F311882E
:1044D0007047502080F31188BFF34F8FBFF36F8F69
:1044E000FEE700001801002070B5002827D0144D09
:1044F000A0F108046168E868014207D1502080F308
:104500001188BFF34F8FBFF36F8FFEE722683AB178
:10451000502080F31188BFF34F8FBFF36F8FFEE7FA
:104520008143616000F07EF96068696808446860F2
:104530002046FFF72DFCBDE8704000F04FBF70BD76
:10454000000100204FF0E020002101618161054958
:104550004FF47A720968B1FBF2F1491E41610721FB
:1045600001617047C000002010B5FBF773FE1149D0
:1045700010280ED300F1E02090F8F0030A78904262
:1045800007D2502080F31188BFF34F8FBFF36F8F96
:10459000FEE709480068896800F4E060884207D9AE
:1045A000502080F31188BFF34F8FBFF36F8FFEE76A
:1045B00010BD0000180100200CED00E010B5020055
:1045C00014D00F48806B38B1502080F31188BFF3AE
:1045D0004F8FBFF36F8FFEE700F024F900211046E4
:1045E000FFF724FA00F0FAFE002807D105494FF042
:1045F00080500860BFF34F8FBFF36F8F10BD000076
:10460000C400002004ED00E002498A6A02604969A2
:1046100041607047C4000020014901204862704792
:10462000C400002010B50C4650B109490968183182
:10463000FFF702FF2046BDE810400121FFF7F6B961
:10464000502080F31188BFF34F8FBFF36F8FFEE7C9
:10465000C400002070B504004BD0A26CA2B1606C05
:10466000884200D30146E06A884242D0012A40D104
:10467000204D2A6894420FD1502080F31188BFF357
:104680004F8FBFF36F8FFEE7502080F31188BFF389
:104690004F8FBFF36F8FFEE7E162A269002A02DB52
:1046A000C1F10701A161144E00EB8000616906EBC6
:1046B000800081421DD1201DFFF792FE012150B9DB
:1046C000E06A00EB800256F8222022B9AA6901FABA
:1046D00000F08243AA61E06AAA6981401143A9619E
:1046E00000EB800006EB8000211DBDE87040FFF765
:1046F000BBBE70BDC4000020BC0E002010B586B04B
:104700000024039405AA04A903A80494FFF77CFEDF
:10471000DDE903010094CDE9011000230EA110484A
:10472000059A00F0EEFC0F490028486311D0502094
:1047300080F31188BFF34F8FBFF36F8F4FF0FF30BF
:1047400008630120C8614C6106B0BDE8104000F06C
:104750009FB806B010BD000049444C450000000061
:10476000813C0008C400002070B50446FFF788FEB5
:10477000294D04B92C68201DFFF732FE58B9E06AB4
:10478000264A00EB800152F8211021B90121814015
:10479000A8698843A861A06A18B104F11800FFF75E
:1047A0001FFE1E48211DDC30FFF75EFE94F850000E
:1047B0000026012801D184F85060FFF781FEE869E6
:1047C00028B1FFF75DFEFFF717FBFFF779FE2868BA
:1047D000844213D1E86990B1A86B38B1502080F3BE
:1047E0001188BFF34F8FBFF36F8FFEE70C494FF077
:1047F00080500860BFF34F8FBFF36F8F70BD0748C5
:10480000DC3000682969884201D12E6070BDBDE8A6
:10481000704000F00FB80000C4000020BC0E002063
:1048200004ED00E00248816B491C81637047000081
:10483000C40000201448816B11B10121416270470E
:10484000002141628169B1FA81F1C1F11F0101EBDF
:1048500081020E4951F822306BB101EB820101F166
:1048600008034A6852684A609A4201D152684A6015
:10487000D16801607047502080F31188BFF34F8FDB
:10488000BFF36F8FFEE70000C4000020BC0E0020C5
:104890001CB537480168374A914207D1502080F350
:1048A0001188BFF34F8FBFF36F8FFEE70068314968
:1048B000491E884207D1502080F31188BFF34F8FE3
:1048C000BFF36F8FFEE72C4908780190FF20087036
:1048D00008788DF800009DF800009DF8002000F099
:1048E000F000904207D0502080F31188BFF34F8F23
:1048F000BFF36F8FFEE79DF80000204B00F05000E3
:1049000018700720986005E09DF8002052008DF88F
:104910000020401E9DF800201206F5D49860032860
:1049200007D0502080F31188BFF34F8FBFF36F8FF4
:10493000FEE74FF440709860019808700C482030F2
:10494000016841F470010160016841F0704101604B
:10495000FFF7F8FD00205860FBF744FC08480168A9
:1049600041F040410160FBF729FC00201CBD000024
:1049700000ED00E071C20F4100E400E018010020EA
:1049800034EF00E0F8B517460E46050014D0DEB14E
:1049900005FB06F04830FFF789FA04000AD0002032
:1049A00084F8460004F148023B463146284600940C
:1049B000FFF796F92046F8BD502080F31188BFF329
:1049C0004F8FBFF36F8FFEE70020E3E770B50D4612
:1049D000040025D0FFF754FDD4E90F20216802FB25
:1049E0000011A1600021A163216861600A46D4E939
:1049F0000F01401E00FB0121E16021464FF0FF3016
:104A000001F8440F487004F110008DB1FFF706FD66
:104A100004F12400FFF702FDFFF752FD012070BDF5
:104A2000502080F31188BFF34F8FBFF36F8FFEE7E5
:104A300021690029F0D000F097FC0028ECD004494F
:104A40004FF080500860BFF34F8FBFF36F8FE3E7E5
:104A500004ED00E02DE9FF4782B01D468A464FF085
:104A60000008040003D0BAF1000F08D011E0502074
:104A700080F31188BFF34F8FBFF36F8FFEE7206C79
:104A800038B1502080F31188BFF34F8FBFF36F8F81
:104A9000FEE7022D0AD1E06B012807D0502080F3F9
:104AA0001188BFF34F8FBFF36F8FFEE700F054FB09
:104AB0003F4F4FF000094FF0805648B9049838B185
:104AC000502080F31188BFF34F8FBFF36F8FFEE745
:104AD000FFF7D6FCA06BE16B884207D3022D05D00F
:104AE0000498D0B1B8F1000F1AD01EE02A46514602
:104AF0002046FFF74EF8616A19B104F1240000F076
:104B000033FC20B13E60BFF34F8FBFF36F8FFFF7D1
:104B1000D7FC012006B0BDE8F087FFF7D1FC22E00A
:104B20006846FFF771FD4FF00108FFF7C9FCFFF77A
:104B300079FEFFF7A5FC94F94400401C01D184F8EC
:104B4000449094F94500401C01D184F84590FFF74A
:104B5000B7FC04A9684600F06DFA30B12046FFF7B3
:104B60006FF900F03BFC0020D4E7FFF789FCA06B55
:104B7000E16B884213D1FFF7A3FC04F11000049904
:104B8000FFF750FD2046FFF75BF900F027FC0028F7
:104B90009ED13E60BFF34F8FBFF36F8F98E7FFF753
:104BA0008FFC2046FFF74CF900F018FC90E700005E
:104BB00004ED00E070B50E46040009D0206C78B119
:104BC000502080F31188BFF34F8FBFF36F8FFEE744
:104BD000502080F31188BFF34F8FBFF36F8FFEE734
:104BE000206848B9A06838B1502080F31188BFF31D
:104BF0004F8FBFF36F8FFEE7FFF7B6FC5020EFF348
:104C0000118580F31188BFF34F8FBFF36F8FA16BB6
:104C1000E06B884218D994F94500491CA163411CF6
:104C200004D0401C84F8450001200EE0606A002892
:104C3000FAD004F1240000F097FB0028F4D0002EF5
:104C4000F2D001203060EFE7002085F3118870BDBD
:104C50002DE9F743002582B08946040003D0B9F15D
:104C6000000F08D011E0502080F31188BFF34F8F60
:104C7000BFF36F8FFEE7206C38B1502080F31188AE
:104C8000BFF34F8FBFF36F8FFEE700F065FA3C4F25
:104C90004FF000084FF0805648B9049838B15020C2
:104CA00080F31188BFF34F8FBFF36F8FFEE7FFF7DD
:104CB000E7FBA06BB8B149462046E568FEF756FF12
:104CC000E560606A48B104F1240000F04DFB20B1BA
:104CD0003E60BFF34F8FBFF36F8FFFF7F1FB0120F3
:104CE00005B0BDE8F083049808B11DB106E0FFF7F8
:104CF000E7FB27E06846FFF787FC0125FFF7E0FBAD
:104D0000FFF790FDFFF7BCFB94F94400401C01D174
:104D100084F8448094F94500401C01D184F8458012
:104D2000FFF7CEFB04A9684600F084F9002820466E
:104D30000AD0FFF785F800F051FB2046FFF74EF848
:104D40000028B4D00020CBE7FFF748F888B104F181
:104D500024000499FFF766FC2046FFF771F800F085
:104D60003DFB0028A3D13E60BFF34F8FBFF36F8F91
:104D70009DE72046FFF764F800F030FB97E700005E
:104D800004ED00E02DE9F747002683B08A460400D1
:104D900003D0BAF1000F08D011E0502080F3118841
:104DA000BFF34F8FBFF36F8FFEE7206C38B15020F9
:104DB00080F31188BFF34F8FBFF36F8FFEE700F0D2
:104DC000CBF9DFF8F4804FF000094FF0805748B975
:104DD000059838B1502080F31188BFF34F8FBFF38F
:104DE0006F8FFEE7FFF74CFBA56BC5B15146204620
:104DF000FEF7BCFE6D1EA563206950B104F11000E2
:104E000000F0B2FA28B1C8F80070BFF34F8FBFF3BB
:104E10006F8FFFF755FB012006B0BDE8F0870598BE
:104E200008B11EB106E0FFF74BFB27E06846FFF72D
:104E3000EBFB0126FFF744FBFFF7F4FCFFF720FB39
:104E400094F94400401C01D184F8449094F9450041
:104E5000401C01D184F84590FFF732FB05A9684654
:104E600000F0E8F8002820460AD0FEF7E9FF00F03D
:104E7000B5FA2046FEF7B2FF0028B3D00020CBE7FA
:104E8000FEF7ACFF90B104F124000599FFF7CAFBCF
:104E90002046FEF7D5FF00F0A1FA0028A2D1C8F8FD
:104EA0000070BFF34F8FBFF36F8F9BE72046FEF775
:104EB000C7FF00F093FA95E704ED00E02DE9F34316
:104EC000002683B00400354609D0206C78B150200C
:104ED00080F31188BFF34F8FBFF36F8FFEE7502031
:104EE00080F31188BFF34F8FBFF36F8FFEE700F0A1
:104EF00033F9DFF83C814FF000094FF0805748B993
:104F0000049838B1502080F31188BFF34F8FBFF35E
:104F10006F8FFEE7FFF7B4FAA06BC8B1401EA06325
:104F2000206810B9FFF72EF8A060206950B104F195
:104F3000100000F019FA28B1C8F80070BFF34F8FC5
:104F4000BFF36F8FFFF7BCFA012005B0BDE8F08317
:104F5000049808B166B10FE03DB1502080F311888C
:104F6000BFF34F8FBFF36F8FFEE7FFF7A9FA5DE046
:104F70006846FFF749FB0126FFF7A2FAFFF752FC4C
:104F8000FFF77EFA94F94400401C01D184F8449064
:104F900094F94500401C01D184F84590FFF790FA40
:104FA00004A9684600F046F80028204612D0FEF713
:104FB00047FF00F013FA2046FEF710FF0028A9D0A3
:104FC0009DB3FFF75DFA606A50B3206B0068C0F1D3
:104FD000070126E0FEF702FFE0B1206838B9FFF7CD
:104FE0004FFAA06800F076F90546FFF769FA04F178
:104FF00024000499FFF716FB2046FEF721FF00F07E
:10500000EDF9002886D1C8F80070BFF34F8FBFF3C9
:105010006F8F7FE72046FEF713FF00F0DFF979E797
:105020000021A068FFF716FB9FE7FFE700208CE751
:1050300004ED00E02DE9F0410C46050011D0C4B1AB
:10504000FFF71EFA174B5A696E682068911B471CC0
:1050500017D02F689B6A9F4219D0964217D8012417
:1050600010E0502080F31188BFF34F8FBFF36F8F94
:10507000FEE7502080F31188BFF34F8FBFF36F8F8F
:10508000FEE70024FFF71CFA2046BDE8F0818842C5
:1050900005D9401A20602846FFF7B6FAF1E700204C
:1050A0002060DCE7C40000202DE9FF5F8346DDE9D6
:1050B0000E87994616468A469000FEF7F7FE0500D1
:1050C0001CD05420FEF7F2FE040014D0002025630B
:1050D00084F85100CDE90240CDE900874B463246C5
:1050E00051465846FEF707FE2046FEF7D7FC012042
:1050F00004B0BDE8F09F2846FFF7F6F94FF0FF3007
:10510000F6E7F0B585B0DDE90B640A9DA6B1DCB128
:10511000542700972663022684F85160002604AFC6
:10512000CDE90246CDE90057FEF7E5FD2046FEF742
:10513000B5FC049805B0F0BD502080F31188BFF392
:105140004F8FBFF36F8FFEE7502080F31188BFF3BE
:105150004F8FBFF36F8FFEE70548C16919B1806BB0
:1051600018B10020704701207047022070470000EE
:10517000C40000202DE9F0412E4C0027A06B40B167
:10518000206A401C2062606A00B101273846BDE8F1
:10519000F0816669761C666113D16068006838B179
:1051A000502080F31188BFF34F8FBFF36F8FFEE75E
:1051B0006068A1686160A060A06A401CA062FEF700
:1051C0001BFE206BDFF87080864209D360680068A0
:1051D00080B16068C068C568686886420DD2206387
:1051E0002068C06A00EB800158F821000128CAD964
:1051F0000127C8E74FF0FF30F1E7281DFFF7F0F86F
:10520000A86A18B105F11800FFF7EAF8E86A012169
:10521000A26981401143A16100EB800108EB81008C
:10522000291DFFF721F9E86A2168C96A8842CDD3B0
:105230000127CBE7C4000020BC0E002070B504009D
:105240004FF0000140D0214D2868844207D0502003
:1052500080F31188BFF34F8FBFF36F8FFEE7A06C11
:1052600038B1401EA064636CE26A9A422CD040B10F
:105270002AE0502080F31188BFF34F8FBFF36F8F68
:10528000FEE7201DFFF7ACF8114A012150B9E06A92
:1052900000EB800352F8233023B9AB6901FA00F028
:1052A0008343AB61606CE062C0F10700A061E06A1B
:1052B000AB6981401943A96100EB800002EB8000DB
:1052C000211DFFF7D1F80121084670BDC400002060
:1052D000BC0E002070B504004FF0000038D0204D07
:1052E000E16A2A68D26A914233D2A069002804DBBD
:1052F0002868C06AC0F10700A0611A4E01EB810165
:10530000606906EB810188421ED1201DFFF768F815
:10531000012150B9E06A00EB800256F8222022B940
:10532000AA6901FA00F08243AA612868C06AE062B3
:10533000AA6981401143A96100EB800006EB80005F
:10534000211DFFF791F802E02868C06AE0620120A1
:1053500070BD616C2A68D26A9142F8D370BD0000BA
:10536000C4000020BC0E00202DE9F041C068C468D4
:10537000ACB104F118000746FFF732F8154DA86BE1
:105380000126A0B139461448FFF76EF8E06A296893
:10539000C96A88421CD901206E62BDE8F0815020A4
:1053A00080F31188BFF34F8FBFF36F8FFEE7201D8F
:1053B000FFF716F8E16AAA6906FA01F01043A8613E
:1053C00001EB81000449B43901EB8000211DDBE7CA
:1053D0000020E2E7C4000020700F00202DE9F04714
:1053E0002C4D00242746A86B38B1FFF749F8A86B6D
:1053F000401EA863A86B40B146E0502080F311889E
:10540000BFF34F8FBFF36F8FFEE72969224E012054
:10541000D1B3A6F1B40980463068E8B1F068C46839
:1054200004F11800FEF7DCFF201DFEF7D9FFE06A4B
:10543000AA6908FA00F11143A96100EB800109EBA8
:105440008100211DFFF710F8E06A2968C96A8842C7
:10545000E2D3C5F82480DFE70CB1FEF7CDFC2C6A5F
:1054600044B14646FFF786FE00B16E62641EF9D174
:1054700000202862686A38B10849012738070860A7
:10548000BFF34F8FBFF36F8FFFF71AF83846BDE8B1
:10549000F0870000C4000020700F002004ED00E041
:1054A00000C1814001C0804101C0804100C18140F4
:1054B00001C0804100C1814000C1814001C08041E4
:1054C00001C0804100C1814000C1814001C08041D4
:1054D00000C1814001C0804101C0804100C18140C4
:1054E00001C0804100C1814000C1814001C08041B4
:1054F00000C1814001C0804101C0804100C18140A4
:1055000000C1814001C0804101C0804100C1814093
:1055100001C0804100C1814000C1814001C0804183
:1055200001C0804100C1814000C1814001C0804173
:1055300000C1814001C0804101C0804100C1814063
:1055400000C1814001C0804101C0804100C1814053
:1055500001C0804100C1814000C1814001C0804143
:1055600000C1814001C0804101C0804100C1814033
:1055700001C0804100C1814000C1814001C0804123
:1055800001C0804100C1814000C1814001C0804113
:1055900000C1814001C0804101C0804100C1814003
:1055A00000C0C101C30302C2C60607C705C5C404C3
:1055B000CC0C0DCD0FCFCE0E0ACACB0BC90908C833
:1055C000D81819D91BDBDA1A1EDEDF1FDD1D1CDC23
:1055D00014D4D515D71716D6D21213D311D1D01093
:1055E000F03031F133F3F23236F6F737F53534F483
:1055F0003CFCFD3DFF3F3EFEFA3A3BFB39F9F838F3
:1056000028E8E929EB2B2AEAEE2E2FEF2DEDEC2CE2
:10561000E42425E527E7E62622E2E323E12120E052
:10562000A06061A163A3A26266A6A767A56564A442
:105630006CACAD6DAF6F6EAEAA6A6BAB69A9A868B2
:1056400078B8B979BB7B7ABABE7E7FBF7DBDBC7CA2
:10565000B47475B577B7B67672B2B373B17170B012
:105660005090915193535292965657975595945402
:105670009C5C5D9D5F9F9E5E5A9A9B5B9959589872
:10568000884849894B8B8A4A4E8E8F4F8D4D4C8C62
:1056900044848545874746868242438341818040D2
:1056A00070580008712C0008FDFF00000000000089
:1056B000800000000000000000000000AC5800085E
:1056C00035360008010000000000000080000000E6
:1056D00000000000000000002C580008653600089B
:1056E000FDFF00000000000080000000000000003E
:1056F0000000000010580008092100080000000008
:105700000000000000010000000000000000000098
:1057100060580008C5350008FEFF000000000000CA
:105720000002000000000000000000008C5800088B
:1057300059370008010000000000000000010000CF
:1057400000000000000000009C580008754300089D
:105750000000000000000000000200000000000047
:10576000000000003858000815380008FEFF00004F
:1057700000000000800000000000000000000000A9
:105780007C580008C93F000801000000000000002C
:105790000001000000000000000000001C5800088C
:1057A000914200080200000000000000800000009C
:1057B000000000000000000044580008893800087C
:1057C00002000000000000000001000000000000D6
:1057D0000000000050580008FD35000802000000DD
:1057E00000000000000200000000000000000000B7
:1057F0000006101600061016000000000000000051
:105800000102030406070809000000000102030466
:105810006D795461736B5F494D5500006D7954612A
:10582000736B5F7370656564000000006D7954618F
:10583000736B5F6C656400006D795461736B5F6FAF
:105840006C6564006D795461736B5F70696400000E
:105850006D795461736B5F646F696E67000000005F
:105860006D795461736B5F64656275670000000059
:1058700064656661756C745461736B006D79546115
:10588000736B5F736572766F000000006D79546111
:10589000736B5F6D6F746F72000000006D795461FF
:1058A000736B5F7573617274000000006D795461F1
:1058B000736B5F6B65790000D8580008000000200A
:1058C0002801000068350008005A0008280100205F
:1058D000884E000078350008FF00FF00000000003F
:1058E00000000000000000000000000000000000B8
:1058F00000000000000000000000000000000000A8
:105900000000000000000000000000000000000097
:105910000000000000000000000000000000000087
:105920000000000000000000000000000000000077
:105930000000000000000000000000000000000067
:105940000000000000000000000000000000000057
:105950000000000000000000000000000000000047
:105960000000000000000000000000000000000037
:105970000000000000000000000000000000000027
:105980000000000000000000000000000100000016
:1059900010000000000000000024F40000000000DF
:1059A00000000000000000000000000000000000F7
:1059B00000000000000000000000000000000000E7
:1059C00000000000000000000000000000000000D7
:1059D00000000000000000000000000000000000C7
:1059E00000000000000000000000000000000000B7
:1059F00000000000AAAAAAAA0000000000000000FF
:040000050800018965
:00000001FF
