:020000040800F2
:10000000404A00205D0200081B1F0008751C000804
:10001000191F00084F080008E52400080000000030
:100020000000000000000000000000009D0100082A
:10003000050A000800000000F9010008911F0008EF
:1000400077020008770200087702000877020008AC
:10005000770200087702000877020008770200089C
:10006000770200087702000877020008770200088C
:10007000770200087702000877020008770200087C
:1000800005090008770200087702000877020008D7
:10009000770200087702000877020008770200085C
:1000A000770200087702000877020008770200084C
:1000B000770200087702000877020008770200083C
:1000C000770200087702000877020008770200082C
:1000D00077020008CD240008D92400087702000820
:1000E000770200087702000877020008770200080C
:1000F00077020008770200087702000877020008FC
:1001000077020008770200087702000877020008EB
:100110007702000877020008770200086D200008C7
:1001200077020008770200084909000877020008F2
:1001300077020008770200087702000877020008BB
:1001400077020008770200087702000877020008AB
:1001500077020008770200085509000877020008B6
:10016000770200087702000877020008770200088B
:1001700077020008770200087702000800000000FC
:100180007702000877020008DFF80CD000F0DEFAF2
:1001900000480047C1300008404A00202C4B196835
:1001A0000868B0E8F04F80F30988BFF36F8F4FF015
:1001B000000080F3118870470000000008480068C4
:1001C000006880F308884FF0000080F3148862B65E
:1001D00061B6BFF34F8FBFF36F8F00DF00BF00BF6B
:1001E00008ED00E0DFF80C00016841F470010160E7
:1001F000704700BF88ED00E0EFF30980BFF36F8F19
:10020000134B1A681EF0100F08BF20ED108A20E96A
:10021000F04F106009B44FF0500080F31188BFF325
:100220004F8FBFF36F8F03F011FC4FF0000080F38E
:10023000118809BC19680868B0E8F04F1EF0100F6B
:1002400008BFB0EC108A80F30988BFF36F8F704746
:1002500064000020EFF305807047000006488047E7
:1002600006480047FEE7FEE7FEE7FEE7FEE7FEE79B
:10027000FEE7FEE7FEE7FEE75120000889010008DF
:100280002DE9F05F0546002092469B4688460646CB
:10029000814640241BE0284641464746224600F05E
:1002A0008CF853465A46C01A914110D3114618464D
:1002B000224600F073F82D1A67EB01084F462246DC
:1002C0000120002100F06AF817EB00094E41201EC2
:1002D000A4F10104DFDC484631462A464346BDE826
:1002E000F09F40EA01039B0703D009E008C9121FF1
:1002F00008C0042AFAD203E011F8013B00F8013BE0
:10030000521EF9D27047D2B201E000F8012B491E0B
:10031000FBD270470022F6E710B513460A460446A2
:100320001946FFF7F0FF204610BD421C10F8011BD4
:100330000029FBD1801A7047034611F8012B00F801
:10034000012B002AF9D11846704700F0004230F026
:1003500000400AD0C10D01F56071C0F3160042EAF9
:100360000151C20840071143704700200146704701
:1003700030B50B46014600202022012409E021FA75
:1003800002F59D4205D303FA02F5491B04FA02F572
:100390002844151EA2F10102F1DC30BD202A04DB45
:1003A000203A00FA02F1002070479140C2F1200388
:1003B00020FA03F3194390407047202A04DB203AC7
:1003C00021FA02F00021704721FA02F3D040C2F175
:1003D000200291400843194670472DE9FE4F8046A0
:1003E00081EA0300C00F0C46009021F0004123F089
:1003F0000045B8EB0200A94105D24046214690468F
:100400001C460B46024623F00040104347D0270D00
:10041000C7F30A00C3F30A510290401A0190402822
:100420006BDAC3F3130040F4801B0098924620B1AE
:100430000023D2EB030A63EB0B0B01985946C0F182
:1004400040025046FFF7AAFF06460D465046594661
:10045000019A00F08DF910EB08006141002487EA51
:10046000115284EAE7731A4340D0009A62B3019AAA
:10047000012A4FEA075215DC001B61EB02014FF025
:10048000004202EA0752CDE90042001C41F580110A
:1004900032462B4600F08DF903B0BDE8F08F4046A0
:1004A0002146F9E7001B61EB0201001C41F58013B6
:1004B00000185B412018A2F5001747EB030140EA42
:1004C000D570B6196D4111E06D084FEA360645EA60
:1004D000C0754FEA0752001B61EB0201001C41F599
:1004E000801149084FEA30000019514132462B462D
:1004F00003B0BDE8F04F00F04DB900980122400074
:100500000023D0EB020263EBE073009821464FEA30
:10051000E074B8EB000061EB0401E9E783F000430D
:100520005BE781F0004158E72DE9FE4F81EA0304C3
:1005300004F0004421F0004100944FF0000B23F040
:10054000004350EA01045ED052EA03045BD0C3F3D7
:100550000A54C1F30A552C44A4F2F3340194A0FBCD
:100560000254C1F3130141F48011C3F3130343F4A4
:10057000801301FB024400FB034E840A970A44EAFD
:10058000815447EA8357A4FB076802958D0A05FB4F
:1005900007854FEA932C04FB0C542705029D4FEA74
:1005A000065847EA1637B5EB08056EEB070C870EC1
:1005B000920E47EA811742EA8312A7FB0201B6EBCB
:1005C0000B0164EB00042B0D43EA0C335E1844EB83
:1005D0001C50DA465146E7FB0201C5F313044FEA0B
:1005E0000B3343EA14534FEA0432019C43EA0603F7
:1005F000A4F10C040294009CCDE900B400F0D9F8F9
:1006000003B0BDE8F08F00200146F9E72DE9F04D79
:1006100081EA030404F0004B21F0004514464FF03A
:10062000000A23F0004150EA050220D054EA0102FA
:100630001DD0C5F30A570246C5F31303C1F31300D7
:10064000C1F30A5640F4801543F48013A7EB060863
:10065000101BD64608F2FD3873EB050002D308F1F3
:10066000010801E092185B41B8F1000F03DA0020A5
:100670000146BDE8F08D00204FF480110646844607
:100680000EE0171B73EB050705D3121B63EB050385
:1006900006434CEA010C49084FEA300092185B41CE
:1006A00050EA0107EDD152EA030012D082EA0400B9
:1006B00083EA0501084305D0101BAB4106D2012295
:1006C000002306E000224FF0004302E06FF0010239
:1006D00053101AEB06004CEB085110EB0A0041EBEB
:1006E0000B01BDE8F04D00F055B8C1F30A52C1F35B
:1006F000130140F2FF3341F480119A4202DA0020E4
:100700000146704740F233439A42A2F2334202DC80
:100710005242FFF752BEFFF741BE000030B5041E43
:1007200071F1000404DB4FF00044404264EB01012E
:10073000141E73F1000405DB1C464FF000435242C7
:1007400063EB0403994208BF904230BD064C074D4D
:1007500006E0E06840F0010394E807009847103491
:10076000AC42F6D3FFF714FD744600089446000827
:10077000202A06DBCB17203A41FA02F043EAE07365
:1007800006E041FA02F3D040C2F120029140084352
:100790001946704710B5141E73F1000408DA401CA6
:1007A00041F1000192185B411A4301D120F0010090
:1007B00010BD2DE9F04D92469B4611B1B1FA81F280
:1007C00002E0B0FA80F220329046FFF7E7FD0446DF
:1007D0000F4640EA0A0041EA0B0153465A460843D5
:1007E00013D0114653EA010019D0C8F14002504617
:1007F000FFF7E3FD05460E46504659464246FFF7D1
:10080000CDFD084305D0012004E020463946BDE86F
:10081000F08D0020054346EAE0762C4337430A98E2
:100820006305E40AA0EB08000022FD0A44EA4754ED
:100830000A3002D500200146E9E701051019694197
:10084000DDE9084500196941BDE8F04DA2E7FEE782
:100850002DE9F04700270425DFF8A080DFF8A090FD
:1008600050383E4601F1060A102845D2DFE800F074
:100870001108130C1517191B1D1F21444444442350
:1008800034240325402702E03D2403252E2701269A
:1008900013E0302411E037242BE03A2429E04124EE
:1008A0000BE0452409E0492407E04D2405E05124EC
:1008B00003E0552401E0D8F82440032A19D04DB1B3
:1008C0006A0009EB4400FFF70CFDD8F81420294614
:1008D00020469047002E0FD0720009EB470051468A
:1008E000FFF7FFFC31463846D8F81420BDE8F04742
:1008F000104703250026E3E7BDE8F087000000204D
:10090000FA01002008B5002000900B48007870B173
:100910000A486946006803F0A9F9009838B1084907
:100920004FF080500860BFF34F8FBFF36F8F0548C3
:1009300000F080F808BD0000280000202C000020F6
:1009400004ED00E0AC080020014800F073B800009E
:10095000EC070020014800F06DB800004C080020B2
:1009600001681823CAB2103AB2FBF3F2054B6FF3D9
:100970000901032A9B5CC36500D9091D81650846EE
:1009800070470000E044000810B5014600208B6964
:100990008A6A4FF0C07453B1B3F5005F15D072B1DD
:1009A000012A0CD0022A0AD0032A09D104E01AB184
:1009B000012A06D0022A03D1C96AC90100D5012043
:1009C00010BDC96AA142FAD010BD002AF7D0012A91
:1009D000F2D0022AF3D0032AF3D010BD30B5046858
:1009E000256825F480252560046863608368402BB2
:1009F000036803D099600068C26030BD9A600068E7
:100A0000C16030BD704702F0D3BA72B6FEE790F80D
:100A10003510022903D0802141650120704705214E
:100A200080F835100068016821F0010101600020A4
:100A3000704700002DE9F84304464FF00009CDF857
:100A4000009063484FF41651A56D0068B0FBF1F7B4
:100A50002E6894F85C10082000FA01F131420FD0A2
:100A600021680A6852070BD50A6822F004020A605E
:100A700094F85C108840A860606D40F001006065EB
:100A800094F85C104FF0010808FA01F0304208D0E9
:100A900021684969090604D5A860606D40F002002C
:100AA000606594F85C1004208840304208D02168CA
:100AB0000968890704D5A860606D40F0040060658E
:100AC00094F85C1010208840304218D021680968E2
:100AD000090714D5A86020680168490304D5006897
:100AE000000308D5A16C07E00168C90503D40168BB
:100AF00021F008010160216C09B12046884794F873
:100B00005C1020208840304231D021680968C90635
:100B10002DD5A86094F8350005282068016806D016
:100B2000490347D5006800031DD4616C1CE021F027
:100B3000160101602068416921F080014161206C4B
:100B400008B9A06C20B12068016821F0080101609B
:100B500094F85C103F208840A86084F8349084F8B2
:100B60003580216D1FE0E16B09B120468847606D3B
:100B700000282BD0606DC00714D0052084F8350004
:100B80002068016821F0010101600098401C00907C
:100B9000B84203D820680068C007F6D184F83490C2
:100BA00084F83580E16C002910D001B02046BDE802
:100BB000F04308470168C905D5D4016821F0100148
:100BC000016084F8349084F83580CCE7BDE8F88380
:100BD000600000202DE9F041044600F07FF9064650
:100BE0005CB1002584F83450022084F83500206878
:100BF000016821F0010101600DE00120BDE8F081F4
:100C000000F06CF9801B052805D9202060650320C1
:100C100084F83500F2E720680068C007F0D1226848
:100C2000116820480140D4E901031843D4E9033690
:100C30003343184363691843A3691843E3691843AE
:100C4000236A18430843616A042903D1D4E90B13CA
:100C500019430843106020684069666A20F0070164
:100C600030460E43012704280CD1A06A0643E06AEF
:100C700040B12046FFF788FE20B14020606584F82F
:100C80003570BAE7206846612046FFF769FE94F8A0
:100C90005C203F2191408160656584F835700020BB
:100CA000ACE700003F8010F02DE9F0410446866D6E
:100CB00090F83400002501280DD0012084F834007C
:100CC00094F835700020012F07D084F834000225F5
:100CD0002846BDE8F0810220FBE7022784F8357042
:100CE00060652046FFF77AFE94F85C103F2088404C
:100CF000B0602068016841F016010160206C20B1ED
:100D00002068016841F0080101602068016841F035
:100D100001010160DCE700002DE9F84F00224FF0EF
:100D2000010803254FF00F0E0B6808FA02F4234068
:100D3000A3426ED14E68012E05D0022E03D0112E93
:100D400001D0122E12D186684FEA420C05FA0CF738
:100D5000BE43CF6807FA0CF7374387604668A6435F
:100D60000C79C4F30014944034434460C6685700BF
:100D700005FA07FC8C6826EA0C06BC403443C460C4
:100D80004C68022C01D0122C13D1D40800EB84043F
:100D9000A346D4F8209054074FEAD46A0EFA0AF614
:100DA00029EA06090E6906FA0AF646EA0906CBF8A8
:100DB000206006680C7926EA0C0604F00304BC40A7
:100DC000344304604C68E40065D5364C266846F42C
:100DD00080462660246822F0030604F480440094D0
:100DE000314C3444A446D4F808489607370F0EFA1D
:100DF00007F6B4432D4EB04201D1002624E02C4E1C
:100E0000B04201D101261FE02A4EB04202D1022693
:100E10001AE040E0284EB04201D1032614E0274EEC
:100E2000B04201D104260FE0254EB04201D1052683
:100E30000AE0244EB04201D1062605E0224EB0421F
:100E400001D1072600E00826BE402643CCF80868FA
:100E50001E4E34684F689C43FF0300D51C4334602A
:100E60001A4C241D26684F689E43BF0300D51E43BD
:100E70002660164E083634684F689C43FF0200D542
:100E80001C433460114E0C3634684F689C43BF02DB
:100E900000D51C433460521C102AFFF445AFBDE856
:100EA000F88F00004438024000300140000002404A
:100EB0000004024000080240000C02400010024002
:100EC0000014024000180240001C0240003C014097
:100ED0000AB1816170470904FBE70000014880689E
:100EE00070470000540000200248816802781144D5
:100EF00081607047540000200B4810B5016841F430
:100F000000710160016841F480610160016841F491
:100F100080710160032000F08DF8002000F006F8D9
:100F200000F03EF8002010BD003C024010B5014624
:100F300088B00022372000F05DF8372000F04CF830
:100F400013480024016841F020010160006805A9F0
:100F500000F020000690684600F018F900F036F91D
:100F60000C494000B0FBF1F10C480B4A491E0260ED
:100F700040F2E732C0E90324C0E9011400F026FB87
:100F800010B1012008B010BD044800F03BFBF9E7A8
:100F90004038024040420F00001400400C0900207D
:100FA0000C4882B0016841F480410160006800F49F
:100FB000804000900748001F016841F080510160A7
:100FC0000068002200F0805000900F21901E02B0B7
:100FD00000F010B844380240002809DB00F01F027E
:100FE000012191404009800000F1E020C0F800118B
:100FF00070470000F0B40E4B1B680C46C3F302238D
:10100000C3F10705042D00D90425191D072901D2B4
:10101000002300E0DB1E012606FA05F1491E2140EF
:1010200099409E40761E16403143F0BC01F042BB11
:101030000CED00E0064900F0070208684FF6FF03D8
:10104000184040EA0220034A10430860704700003D
:101050000CED00E00000FA052DE9F0470E46050012
:1010600065D0DFF81481D8F80000F7B200F00F0067
:10107000B04207D288F80070D8F8000000F00F00E6
:10108000B04254D128683D4C810712D5400703D5A2
:10109000206840F4E05020602878000703D52068DD
:1010A00040F4604020602068A96820F0F000084308
:1010B00020602878C0072DD0304968680839012899
:1010C00012D0022813D0032811D0096889070029FB
:1010D0002DDA216821F0030101432160FFF7FEFEB4
:1010E000814641F2883A0EE009688903EFE7096812
:1010F0008901ECE7FFF7F2FEA0EB0901514502D9A7
:101100000320BDE8F0872068696800F00C00B0EBB0
:10111000810FEFD1D8F80010404601F00F01B14225
:1011200007D90770006800F00F00B04201D001201D
:10113000E7E72878400705D52068E96820F4E05003
:10114000084320602878000706D52068296920F424
:10115000604040EAC100206000F058F82168084A69
:10116000C1F30311515CC840064908600648006895
:10117000FFF7DCFE0020C4E7003C024008380240D4
:10118000E844000860000020580000200F220260A0
:101190000C4A136803F003034360136803F0F00381
:1011A0008360136803F4E053C36012684FF4E053A4
:1011B00003EAD20202610448006800F00F000860F0
:1011C0007047000008380240003C024004480549CE
:1011D00000680968044AC1F38221515CC840704725
:1011E0006000002008380240F8440008044805491F
:1011F00000680968044AC1F34231515CC840704735
:101200006000002008380240F8440008154810B576
:10121000006810F00C02144813D04110042A0FD0BB
:10122000082A0ED10F4C241F2268236802F03F02C7
:101230005B0207D52068C0F38810A0FB010106E01F
:10124000084610BD2168C1F38811A1FB00010023ED
:10125000FFF716F82168C1F30141491C4900B0FBB2
:10126000F1F010BD083802400024F4002DE9F84FD9
:1012700004006ED02078DFF83C93C007A9F1040584
:101280004AD009F104000168C1F38101012908D0A5
:101290000068C0F3810002280AD1D9F8000040029A
:1012A00006D52868800337D560680028E1D033E090
:1012B0006068B0F5803F10D0B0F5A02F286810D03E
:1012C00020F480302860286820F48020286060683E
:1012D000A8B1FFF703FE06460DE0286840F4803011
:1012E000F4E740F480202860F7E700BFFFF7F6FD41
:1012F000801B642873D828688003F7D50CE0FFF7BB
:10130000EDFD064605E000BFFFF7E8FD801B642801
:10131000F0D828688003F7D42078DFF89C82800713
:101320004FF0000A3ED5A348001D016811F00C0FD4
:1013300008D00068C0F3810002280BD1D9F8000062
:10134000400207D42868800716D5E068012800D13C
:1013500012E02BE1E068B8B10120C8F80000FFF707
:10136000BDFD064605E000BFFFF7B8FD801B022863
:10137000C0D828688007F7D52868216920F0F800D0
:1013800040EAC10028600DE0C8F800A0FFF7A6FD04
:10139000064604E0FFF7A2FD801B02281FD828683C
:1013A0008007F7D42078000722D5824E83486169F0
:1013B000703671B101210160FFF790FD074604E02E
:1013C000FFF78CFDC01B022809D830688007F7D5CD
:1013D0000EE0C0F800A0FFF781FD074605E082E0BF
:1013E000FFF77CFDC01B02287DD830688007F7D44A
:1013F0002078400768D5DFF8BCB100270BF13C0B23
:10140000DBF80000C0000BD4DBF8001041F0805185
:10141000CBF80010DBF80000012700F080500090AE
:10142000674E3068C00510D4306840F4807030607A
:10143000FFF754FD009005E0FFF750FD0099401ABA
:10144000022850D83068C005F6D55A4EA0686C36D0
:1014500001280FD00528306810D020F0010030603E
:10146000306820F004003060A068B8B1FFF736FDA6
:1014700000900FE0306840F00100F4E740F0040015
:101480003060F7E7FFF72AFD0099411A41F28830F2
:10149000814266D830688007F4D50EE0FFF71EFD64
:1014A000009007E0FFF71AFD0099411A41F28830D9
:1014B000814256D830688007F4D42FB1DBF8001091
:1014C00021F08051CBF80010A069C8B33949091D3B
:1014D0000968C1F3810102294AD00228504607D089
:1014E000C8F8600000E03CE0FFF7F8FC04463BE091
:1014F0004746C8F86000FFF7F1FC064605E000BF6C
:10150000FFF7ECFC801B02282BD828688001F7D459
:10151000D4E907010843A16A2A4A490802EB0141BC
:10152000626A41EA8211084394F82C1040EA016192
:10153000C9F8001001203866FFF7D0FC044606E029
:1015400036E000BFFFF7CAFC001B022809D8286854
:101550008001F7D52CE000BFFFF7C0FC001B02287C
:1015600002D90320BDE8F88F28688001F4D41FE079
:101570000128F7D0D9F80000E26900F48001914217
:1015800014D1226A00F03F0191420FD147F6C07199
:10159000626A0140914209D1A26A00F4403191424D
:1015A00004D1E16A00F07060884201D00120D9E7DF
:1015B0000020D7E70438024000004742800E47422F
:1015C000007000400000FFFF7047704710B5040036
:1015D00003D094F83D0010B107E0012010BD0020B9
:1015E00084F83C00204600F00CF8022084F83D000E
:1015F000211D206800F040FD012084F83D000020FE
:1016000010BD70470168CA6842F00102CA600068F4
:10161000816801F00701062903D0016841F001014A
:10162000016000207047704770B50446006801698A
:101630004FF00005C943890715D4C168C94389071C
:1016400011D4E91E0161012020772068806980079C
:10165000204602D0FFF7E7FF04E000F098F82046AC
:1016600000F096F8257720680169C943490717D427
:10167000C168C943490713D46FF004010161022016
:1016800020772068806910F4407F204602D0FFF761
:10169000CAFF04E000F07BF8204600F079F82577D7
:1016A00020680169C943090716D4C168C9430907FD
:1016B00012D46FF008010161042020772068C0690E
:1016C0008007204602D0FFF7AEFF04E000F05FF88D
:1016D000204600F05DF8257720680169C943C906F6
:1016E00017D4C168C943C90613D46FF01001016152
:1016F000082020772068C06910F4407F204602D07F
:10170000FFF791FF04E000F042F8204600F040F8B7
:10171000257720680169C943C90708D1C168C94351
:10172000C90704D1891E0161204600F033F8206802
:101730000169C943090609D4C168C943090605D42A
:101740006FF0800101612046FFF73EFF20680169CC
:10175000C943490609D4C168C943490605D46FF095
:1017600040010161204600F01FF820680169C9436B
:1017700089060BD4C168C943890607D46FF02001DC
:1017800001612046BDE87040FFF71FBF70BD704784
:101790007047000000680349884201D1FFF7A4BBED
:1017A00070470000001400407047704770B5026831
:1017B00004461068D168536910F00F0F52D003F03F
:1017C000010501F490762E435FD0C20705D0CA050B
:1017D00003D5E26B42F00102E263420705D5DA0766
:1017E00003D0E26B42F00202E263820705D5DA071A
:1017F00003D0E26B42F00402E263020707D501F076
:1018000020022A4303D0E26B42F00802E263E26B5B
:10181000002A33D0800604D5880602D5204600F081
:1018200012FD20684069E16BC0F38010090700D405
:1018300028B3204600F0F0FC2068416949061AD51B
:10184000416921F040014161606BA0B11B49016514
:10185000606BFFF7DCF8002810D0606B016DBDE80D
:1018600070400847830610D58B060ED52046BDE88C
:10187000704000F0E8BC2046FFF797FF70BD20469F
:10188000FFF793FF0020E06370BD030606D50B064B
:1018900004D52046BDE8704000F0B4BD4006F3D545
:1018A0004806F1D5D168204621F04001D1602021C1
:1018B00084F8391000F0DCF970BD00004121000807
:1018C00070B5040004D094F83900002510B106E08A
:1018D000012070BD84F83850204600F023F8242001
:1018E00084F839002068C16821F40051C1602046A5
:1018F00000F0F4FC2068016921F490410161206846
:10190000416921F02A0141612068C16841F4005118
:10191000C160E563202084F8390084F83A00002093
:1019200070BD00002DE9F04F87B0064614216846CF
:10193000FEF7F0FCDFF844C102223168504803236F
:101940000725DFF84081002497064FF4806A4FF4A2
:10195000803B614551D14A491431D1F800C04CF067
:10196000100CC1F800C0096801F010010591016870
:1019700041F0010101600068694600F00100059036
:1019800058028DE81500CDE903354046FFF7C4F94C
:101990003E4D3D48B9462860C5E90174C5E9034A92
:1019A0006C61AC61C5E9074B5746D84628466C6266
:1019B000FFF710F908B1FFF728F87563AE63334DF0
:1019C000314860357830E5E80209402091C52F485C
:1019D00045F814496030AC61C5E907486C62FFF70F
:1019E000F9F808B1FFF711F8356300220521252029
:1019F000AE63FFF7FFFA25203BE0DFF894C06145B6
:101A000039D11F491031D1F800C04CF4003CC1F865
:101A100000C0096801F400310591016841F001013D
:101A200001600068694600F0010005900C208DE817
:101A30001500CDE903354046FFF76EF9134D154803
:101A4000C0352860C5E90174C5E9034A6C61AC6121
:101A5000C5E9074B28466C62FFF7BCF808B1FEF7F2
:101A6000D4FF7563002205212620AE63FFF7C2FA7A
:101A70002620FFF7B1FA07B0BDE8F08F0010014053
:101A8000303802400000024040640240EC07002071
:101A90000044004088600240F8B5044690F83A00DF
:101AA00020283CD1C1B3BAB394F83800012836D00D
:101AB000012084F83800A162A2850025E563222078
:101AC00084F83A00636B1748D863636B1648186450
:101AD000636B1648D864606B134605650846666BF1
:101AE000216802463046091DFFF7DEF820680168CC
:101AF0004168009184F83850C16841F48071C16038
:101B00002068416941F0010141612068416941F06B
:101B1000400141610020F8BDFFE70120FBE7022002
:101B2000F9E700009B210008D72100085121000897
:101B3000704770472DE9F843044690F839001F4676
:101B400016460D46202850D1B5B1AEB194F83800F4
:101B500001284AD0012084F838004FF00008C4F86A
:101B60003C80212084F83900FFF7B8F9A68481462B
:101B7000E68484F8388026E00120BDE8F883E08C14
:101B8000401EE084A0684B46B0F5805F4FF0000235
:101B90004FF080012046009703D000F064FCE8B9C4
:101BA0000DE000F060FCC8B928882168C0F3080087
:101BB0004860206908B16D1C05E0AD1C03E0216898
:101BC00015F8010B4860E08C0028D8D14B46002264
:101BD00040212046009700F046FC08B10320CCE7E6
:101BE000202084F839000020C7E70220C5E7000064
:101BF00070B5044690F83900202830D169B362B33B
:101C000094F8380001282AD0012084F83800216295
:101C1000A284E2840025E563212084F83900236B47
:101C20001048D863236B10481864236B0F48D8649E
:101C3000206B134605652668206B321DFFF734F8CC
:101C400021686FF04000086084F8385020684169CE
:101C500041F080014161002070BD012070BD022073
:101C600070BD0000E12100080F220008512100088A
:101C700070477047FEE700002DED028B4FF0FF3AF2
:101C80001B4C1A4D1B4EDFF870809FED1C8ADFED58
:101C90001C8A04F150095146686802F035F80027A3
:101CA000E05D00F043FC7F1C502FF9DB3078B0B1D1
:101CB000002041464FEA090201EB4003B3F97A30B4
:101CC00000EE103A02EB8003401CB8EEC00A032875
:101CD00020EE080A20EE280A83ED020AECDB5022EF
:101CE00003490848FFF7D8FED5E700002800002088
:101CF000AC04002001000020FA01002000000038A0
:101D000000003443AC070020154808B5016841F4D1
:101D100080010160016801F480010091016841F4D3
:101D2000001101600068002200F4001000900521FD
:101D30001020FFF75FF91020FFF74EF90022052170
:101D40003A20FFF757F93A20FFF746F9002205211C
:101D50004620FFF74FF9BDE808404620FFF73CB9A1
:101D60003038024010B5A4B003220021012001F058
:101D700015FF204C606010B11FA000F061FC1C2218
:101D800028496846FEF7ADFA0021684601F0E4F9FB
:101D90002449A0601C221C3107A8FEF7A2FA0021EA
:101DA00007A801F0D9F91F49E0601C2238310EA8BC
:101DB000FEF797FA00210EA801F0CEF9194920612B
:101DC0001C22543115A8FEF78CFA002115A801F049
:101DD000C3F9144960611C2270311CA8FEF781FA16
:101DE00000211CA801F0B8F9A0610120207024B0E6
:101DF00010BD000028000020494D55646174655FE6
:101E000052585F53656D5F48616E646C65B6FED66F
:101E1000B5D0C5BAC5C1BFB4B4BDA8B3C9B9A621B0
:101E20000D0A00005444000870B586B014216846BD
:101E3000FEF770FA19480024016841F004010160BE
:101E4000016801F004010591016841F08001016021
:101E5000016801F080010591016841F00101016014
:101E600000680F4E00F001004FF44055059000222D
:101E700029463046FFF72CF800950125CDE901549D
:101E8000694630460394FEF747FFE8038DE83100CA
:101E900069460448FEF740FF06B070BD3038024086
:101EA00000080240000002400C4810B50A490160D9
:101EB0004FF4E1314160002181600C22C160C0E932
:101EC00004128161C161FFF7FBFC002803D0BDE86B
:101ED0001040FEF79ABD10BD001001406C070020B5
:101EE0000C4810B50A4901604FF4E131416000210E
:101EF00081600C22C160C0E904128161C161FFF7F9
:101F0000DFFC002803D0BDE81040FEF77EBD10BD09
:101F100000440040AC070020FEE7FEE710B50023B8
:101F2000104A15E0362809D039280BD03C2812D0A9
:101F300054783F2813D044F0800406E0547844F0ED
:101F4000010402E0547844F00204401C54705B1C0D
:101F50008B42E7D310BD547844F00804F5E744F011
:101F60000404F2E7000000208AB20146642301481D
:101F7000FFF7E0BDAC070020044C206880F400505F
:101F80002060642001F0DCF8F7E70000140802404C
:101F900010B5502080F31188BFF34F8FBFF36F8FC0
:101FA00002F00EF818B104494FF08050086000208C
:101FB00080F3118810BD000004ED00E030B593B04F
:101FC00030216846FEF7A6F914210CA8FEF7A2F905
:101FD0001D480025016841F080510160006800F053
:101FE000805011901948016841F4804101600068F7
:101FF000022400F4804011900120039010200490EE
:10200000009406940820CDE90750A820CDE90904E2
:1020100004200B906846FFF729F908B172B6FEE775
:102020000CA90F2081E831004FF4A0500F904FF41D
:102030008050109005210CA8FFF70EF8002801D061
:1020400072B6FEE713B030BD403802400070004069
:102050000548016841F47001016003494FF00060D8
:10206000803908607047000088ED00E00148FFF704
:10207000DBBA00000C090020F0B50268254C264DA3
:10208000264E274F274B4FF0804CA04209D0604589
:1020900007D0A84205D0B04203D0B84201D0984240
:1020A00004D122F0700E4A6842EA0E02A0421BD010
:1020B000604519D0A84217D0B04215D0B84213D00D
:1020C000984211D0184DA8420ED0184DA8420BD0FE
:1020D000174DA84208D0174DA84205D0164DA8426A
:1020E00002D0164DA84203D122F44075CA682A4393
:1020F0004D6922F080022A4302608A68C2620A683F
:102100008262A04201D0984201D109690163012194
:102110004161F0BD000001400004004000080040A3
:10212000000C004000040140004001400044014018
:102130000048014000180040001C00400020004002
:1021400010B5806B0021C185C184FFF72EFB10BD47
:1021500070B5846B2068406994F83910C0F3C010E2
:102160000025212904D118B1E584204600F062F849
:102170002068406994F83A10C0F38010222904D1F5
:1021800018B1E585204600F047F8E06B40F01000FC
:10219000E0632046FFF709FB70BD10B50146806B78
:1021A00009680968C90513D40021C1850168CA6896
:1021B00022F48072CA6001684A6922F001024A6111
:1021C00001684A6922F040024A61202180F83A10F1
:1021D000FFF7AEFC10BD10B5806BFFF7AAFC10BD79
:1021E00010B50146806B09680968C9050CD4002147
:1021F000C18401684A6922F080024A610068C168AE
:1022000041F04001C16010BDFFF732FD10BD10B5B7
:10221000806BFFF72EFD10BD0168CA6822F4907232
:10222000CA6001684A6922F001024A61202180F8EF
:102230003A1070470168CA6822F0C002CA602021C3
:1022400080F83910704710B590F83A10222901D063
:10225000022010BD8168B1F5805F11D001690029AD
:1022600001681FD0496801F07F03816A4A1C8262BD
:102270000B70C18D491E0904090CC18518D02BE0D3
:102280000269816A002A0268526805D0D2B20A80C7
:10229000816A491C8162ECE7C2F308020A80816A04
:1022A000891CF7E74A68816A4B1C83620A70E0E781
:1022B0000168CA6822F02002CA600168CA6822F474
:1022C0008072CA6001684A6922F001024A612021D5
:1022D00080F83A10FFF72CFC002010BD2DE9F041EA
:1022E000044600680169E26821F44051114301612C
:1022F0002169A068E26908436169114308432168C4
:10230000CA6849F20C639A430243CA602068416973
:10231000A26921F4407111434161E06919276425E4
:102320003226B0F5004F354A354920684FF0000895
:1023300006D0884201D0904236D1FEF757FF35E0F3
:10234000884201D0904202D1FEF750FF01E0FEF733
:102350003DFF61684A18A0FB070148EB0803FDF741
:102360008FFF0146B0FBF5F00201B1FBF5F06FF015
:102370001803584301EB800006EBC000B0FBF5F0FA
:1023800000F0F80002EB4002B1FBF5F0584301EB1E
:10239000800006EBC000B0FBF5F000F007002168FC
:1023A00010448860BDE8F081FEF710FF61688B0F74
:1023B0008A00A0FB0701FDF763FF0146B0FBF5F0C3
:1023C0006FF01802504301EB800006EB0010B0FBE9
:1023D000F5F000F0F002B1FBF5F002EB0012B1FBFA
:1023E000F5F06FF01803584301EB800006EB001086
:1023F000B0FBF5F000F00F00D1E700000014014041
:102400000010014090F83910212901D002207047B6
:102410008168B1F5805F016A0BD04A1C02620268D4
:1024200009785160C18C491E0904090CC1840ED081
:1024300017E009880268C1F30801516001690029A9
:10244000016A02D0491C0162ECE7891CFBE70168C4
:10245000CA6822F08002CA600068C16841F0400189
:10246000C160002070472DE9F041984617460E469E
:102470000446069D1DE0681C1BD02DB1FEF72EFD05
:10248000A0EB0800A84214D92068C16821F4D071DB
:10249000C1602068416921F001014161202084F878
:1024A000390084F83A00002084F838000320BDE8A1
:1024B000F0812068006836EA000004D00020B842AD
:1024C000D9D00020F3E70120F9E700000148FFF729
:1024D0006DB900006C0700200148FFF767B90000E4
:1024E000AC070020FEE7000018B103498861002016
:1024F00070476FF00500704700000020032802D9E4
:102500006FF005007047034A106211700020D0611F
:10251000704700000000002018B103494861002006
:1025200070476FF005007047000000202DE9FC4166
:102530003B4C6169002955D03A49E2698854521CE4
:10254000E261206A002630B101282FD0022865D030
:10255000032860D162E00878552804D0521E314823
:10256000491CE2613CE00B2A55D30A252D4F00207F
:102570004FEA000317F803C05B1C6044C0B2AB42D3
:10258000F8D38B7A8342E9D14888ADF80000888877
:10259000ADF80200C888ADF804000889ADF806005F
:1025A000487804226946FEF753F937E0022A32D907
:1025B00048780328D2D18878401D904212D88818D4
:1025C0000D4630F8020C921E47BA91B2154800F041
:1025D0005BF8874208D0E269691C521E1148E2612B
:1025E000FDF77FFEBDE8FC81A8780F4B4208002173
:1025F000606A0AE005EB410701EB000CB7F80370D5
:10260000491C7FBA23F81C7089B29142F2D311465B
:102610006269904702E0B2F5807FE3D1E661E1E7CD
:1026200000000020FA000020FA01002018B1034940
:102630004860002070476FF00500704700000020E0
:102640000FB4054B10B503A9044A029800F014F921
:1026500010BC5DF814FB000059300008C4000020D5
:102660000FB4084B10B504A902AA039800F004F9AE
:10267000044602A9002000F096FC204610BC5DF83C
:1026800014FB0000A72F0008F0B5FF23084E1C46DE
:10269000002206F5807705E0855C5D40735D634050
:1026A0007C5D521C8A42F7DB44EA0320F0BD000047
:1026B000544200080907090E002804DB00F1E0205D
:1026C00080F80014704700F00F0000F1E02080F85F
:1026D000141D704702E008C8121F08C1002AFAD171
:1026E00070477047002001E001C1121F002AFBD192
:1026F000704700002DE9FF5F82B00021DDE9043062
:10270000020DDDF840B0034318D044F61050A2F299
:10271000FF3242431514119801281FD0A5EB0B007E
:10272000401C5FEA000A4FF000064E4FDFF8389178
:10273000B046504615D5CAF1000413E011980124A3
:102740004AA3012801D16FEA0B010298119AC0E94E
:102750000031C0E9024206B0BDE8F09FCBF10000B5
:10276000DFE704460021404A491842EB0450CDE916
:10277000001012E0E00707D032463B46404649468B
:10278000FDF7D2FE8046894632463B461046194642
:10279000FDF7CAFE06460F466410002CEAD1DDE9BB
:1027A0000401DDE90023BAF1000F06DAFDF7BCFEF3
:1027B00042464B46FDF7B8FE05E0FDF727FF4246CF
:1027C0004B46FDF723FF04460E460022284BFDF73B
:1027D000A5FF03D84FF0FF30014607E00022254B4C
:1027E00020463146FDF7F9FDFDF77FFF102409E093
:1027F000002C0ADB0A220023FDF742FD039B303246
:102800001A55641E50EA0102F2D1641C039AC4F105
:1028100011031444119A012A03D0012208430DD157
:102820000AE0084304D000204FF0110B119072E72A
:10283000A3EB0B056D1E0DE05B4504DD4FF00002C0
:1028400005F1010504E003DA4FF00002A5F10105EE
:10285000002AECD002981199C0E90231C0E9004584
:1028600079E70000000014400000F03F3000000055
:102870000000F0430000E03F2DE9FF4F95B09B467C
:102880008946064600250FE2252877D100242746F1
:10289000F84A0121059400E0044316F8013F203B6B
:1028A00001FA03F01042F7D130782A2811D06FF0E6
:1028B0002F033078A0F13002092A16D8059A44F087
:1028C000020402EB820203EB42021044761C0590E4
:1028D000EFE759F8042B0592002A03DA504244F43A
:1028E0000054059044F00204761C30782E2816D14E
:1028F00016F8010F44F004042A280DD06FF02F02BF
:102900003078A0F13003092B09D807EB870302EBDD
:102910004303C718761CF3E759F8047B761C30781C
:102920006C280FD006DC4C2817D068280DD06A28F8
:1029300014D104E0742810D07A280FD10DE044F4AB
:1029400000140AE044F4801401E044F44014727866
:10295000824202D104F58014761C761C30786628F9
:102960000BD013DC582877D009DC002875D0452817
:10297000F6D04628F4D047281AD19DE118E0632804
:1029800035D0642879D0652812D195E1702873D0AC
:1029900008DC6728F1D069286FD06E280DD06F2829
:1029A00006D1B5E073282CD0752875D0782874D05E
:1029B0005A46179990476D1C75E1C4F302500228DE
:1029C00009D003280DD0D9F8001004280DD00D60CF
:1029D00009F1040967E1D9F80010EA17C1E90052CA
:1029E000F6E7D9F800100D80F2E70D70F0E719F85E
:1029F000041B8DF8001000208DF80100EA4601202C
:102A000003E059F804AB4FF0FF3061074FF00001CD
:102A100002D40DE008F101018846B9420FDA804581
:102A2000F8DB1AF808100029F4D108E008F10101D8
:102A300088468142FADB1AF808100029F6D1059879
:102A40005B46A0EB080721463846179A00F094FA37
:102A5000284400EB080507E04DE029E10DE01AF8F5
:102A6000010B5A4617999047B8F10108F7D25B4617
:102A700021463846179A13E142E00A220092C4F335
:102A800002524FF0000A022A08D059F804CB032A58
:102A90004FEAEC710AD00DE029E02AE009F10701C4
:102AA00021F00702F2E802C1914609E00FFA8CFC1E
:102AB0004FEAEC71042A03D14FFA8CFC4FEAEC7117
:102AC000002907DA0A460021DCF1000C61EB020163
:102AD0002D2202E0220504D52B228DF804200122AC
:102AE00003E0E20701D02022F7E7904659E00A21EF
:102AF00002E010220DE010214FF0000A00910BE0DF
:102B000010224FF0000A44F004040827009203E06A
:102B100008224FF0000A0092C4F30252022A05D0A4
:102B200059F804CB0021032A08D009E009F1070174
:102B300021F00702F2E802C1914605E01FFA8CFC81
:102B4000042A01D10CF0FF0C4FF00008220728D511
:102B5000702806D0009B83F0100353EA0A0305D0C7
:102B60000EE040228DF80420012208E05CEA010218
:102B700006D030228DF804208DF805000222904600
:102B8000009B83F0080353EA0A030AD15CEA0102BE
:102B900001D1620705D530228DF804204FF00108DD
:102BA0007F1E582804D034A003900EA802900DE098
:102BB00036A0F9E753466046009AFDF761FB84466C
:102BC0000398825C0298401E029002705CEA010049
:102BD000F0D1029806A9081A00F1200A600702D570
:102BE00024F4803400E00127574502DDA7EB0A00FA
:102BF00000E0002000EB0A01009005984144401AD3
:102C00000590E00306D45B462146179A059800F02C
:102C1000B3F90544002706E001A85A46C05D17999C
:102C200090476D1C7F1C4745F6DBE0030CD55B46E7
:102C30002146179A059800F09FF9054404E03020DA
:102C40005A46179990476D1C0099481E009000291C
:102C5000F5DC08E0029802995A460078491C029176
:102C6000179990476D1CBAF10001AAF1010AF1DC35
:102C700065E1000009280100303132333435363740
:102C800038396162636465660000000030313233B8
:102C90003435363738394142434445460000000058
:102CA00000F058F90544761C307800287FF4ECAD2C
:102CB00019B02846BDE8F08F620700D4062709F155
:102CC000070222F0070CFCE80223E14603F000486B
:102CD0005FEA080C02D00FF2702C0DE05FEA045C92
:102CE00002D50FF2682C07E05FEAC47C02D00FF235
:102CF000602C01E0AFF2700C4FF0FF3823F000437E
:102D0000CDF850C065280CD006DC452809D04628EF
:102D10001DD047283DD13DE0662818D067287ED1D8
:102D200038E00021112F01DB112000E0781CCDE9F3
:102D3000000106A90EA8FFF7DDFCDDE90F010E9AE0
:102D400003910021009207F1010A04914DE04FF038
:102D500000400097CDE9011006A90EA8FFF7CAFCB4
:102D6000DDE90F0203920E9B11990022DDF80CA001
:102D70000093049211B9791C00EB010AB7EB0A0029
:102D800004D4C0F1FF3007F1010A0490AAEB070058
:102D9000019044E0012F00DA01270021112F01DD0D
:102DA000112000E03846CDE9000106A90EA8FFF782
:102DB000A1FCDDE90F010E9A03910021049100921C
:102DC000BA4621070CD40399514500DA8A46BAF174
:102DD000010F05DD009AAAF10101515C302908D0EC
:102DE000B84202DA10F1040F06DA0121CDE9011030
:102DF00015E0AAF10101E9E7002805DC0499014486
:102E00000491AAEB000102E0411C514500DD8A4615
:102E10000499401A401C01904FF000400290200796
:102E200004D40198504501DBCDF8048000208DF8D2
:102E30004F0002980DF14F07B0F1004F25D02B2025
:102E40000E9002984FF0020800280CDA40420290DF
:102E50002D200E9007E00A210298FDF789FA303103
:102E6000029007F8011DB8F10001A8F10108F2DC99
:102E700002980028EFD1791E0E980870307800F083
:102E8000200040F0450007F8020D12A8C01B00F119
:102E900007081498007800B1012000EB0A0101989E
:102EA00001EBE07105984144401A401E0590E00393
:102EB00006D45B462146179A059800F05DF8054454
:102EC0001498007818B15A46179990476D1CE00382
:102ED00024D55B462146179A059800F04DF8054425
:102EE0001CE00498002807DBDDE90301884203DDCC
:102EF0000098405C179901E0179930205A46904796
:102F0000049805F10105401C04900198401E0190B1
:102F100004D12E205A46179990476D1CBAF1000132
:102F2000AAF1010ADDDC05E017F8010B5A461799F2
:102F300090476D1CB8F10001A8F10108F4DC5B4674
:102F40002146179A0598ABE62D0000002B000000E3
:102F5000200000002DE9F041044600251E461746DA
:102F6000880404D405E039462020B0476D1C641E57
:102F7000F9D52846BDE8F0812DE9F0410446002549
:102F80001E469046C80301D5302700E0202788045C
:102F900004D505E041463846B0476D1C641EF9D59E
:102FA0002846BDE8F0810A68531C0B60107070471A
:102FB00010B5002145F2082405E0224602235B1CDF
:102FC0009342FCD3491C8142F7D310BD90B01D4CF5
:102FD0000BAF4FF47A7A207E18B91B490BA8FDF786
:102FE000ABF92069FDF7B1F905460E46E068FDF73B
:102FF000ACF980468946A068FDF7A7F90A46014664
:10300000E088A388B4F802C0CDE90830CDF81CC030
:103010000A9720880495CDE905608DE80603E38AC8
:10302000A28A0A490A48FFF71BFB0948FDF77DF908
:1030300082B207490748FEF7DBFD504600F080F8F2
:10304000C9E70000FC0400204400002000450008FF
:103050001C0300206C07002013B56423012269467D
:103060000248FEF767FD00981CBD00006C070020B9
:10307000094C206900040BD40A2000F061F8206993
:10308000000405D420690004FCD504A0FFF7D8FA99
:10309000012000F055F8ECE700000240B0B4BCFCA1
:1030A000B4A5B7A20A000000044C206880F4805048
:1030B0002060642000F044F8F7E7000014080240A4
:1030C000FDF71AFFFEF77AFFFEF7AEFEFEF71CFED5
:1030D000FEF7EAFEFEF704FF0CA0FFF7B1FA50215D
:1030E0000020FFF70BFA0E48FFF7A0FA0D48FFF794
:1030F00013FA0D48FFF7F8F964220C490C48FEF763
:10310000CBFCFEF72FFE00F022F8FEE7425350B34F
:10311000F5CABCBBAFB3C9B9A6210A0A00000000BA
:10312000691F00081D1F0008070A0008AC040020E2
:10313000AC07002001460020842900D0C81C70473D
:1031400010B500B9012000F0A3FB002010BD10B5A0
:1031500000F03EFC002010BD7FB50D4604464169DD
:10316000B0F9080081B1A16971B1FFF7E3FFD4E9BB
:1031700005128DE80700D4E900102B46226900F003
:10318000E6FE039004B070BDFFF7D4FF03A9CDE9BC
:103190000001208A2B4682B2D4E9001000F0AAFE7A
:1031A000012801D00020EDE70398EBE72DE9F0417D
:1031B000184C0F46054666692068001D00F07AFA33
:1031C00038B9206890F82C1001208840A16981430B
:1031D000A161681C07D137B12168BDE8F0410E48F4
:1031E000091D00F0ABBA20683544B542456021683E
:1031F00005D2A068BDE8F041091D00F087BA6068FB
:10320000091D00F083FA206B854200D22563BDE8DA
:10321000F081000064000020280A00202DE9F04120
:10322000054600F097FA2E4C2069401C206120686A
:103230002C4F10B1E06940B32DE0256020690128D2
:1032400029D1002606EB860007EB800000F050FA3B
:10325000761C072EF6D323488C3000F049FA21481B
:10326000A03000F045FA1F48B43000F041FA1D4884
:10327000C83000F03DFA1B48DC3000F039FA19483C
:103280008C3060601430A06005E02068E96AC06A94
:10329000884200D82560E06A401CE062E96A0120AB
:1032A000A26988401043A06101EB810007EB800018
:1032B000291D00F043FA00F06DFAE06900280CD0F7
:1032C0002068E96AC06A884207D207494FF08050F7
:1032D0000860BFF34F8FBFF36F8FBDE8F081000030
:1032E000640000204C09002004ED00E010B5044605
:1032F00090F8510058B101280CD002280FD050206E
:1033000080F31188BFF34F8FBFF36F8FFEE7206B01
:1033100000F054FA2046BDE8104000F04FBA10BD4E
:1033200010484FF47051420706D0C01D0D4920F0DF
:103330000700411AC1F570510B4A00230144C2E94C
:1033400000030839103A21F0070111604B600B604F
:103350000B1AC0E9001393604FF000405360D06037
:10336000704700003C0A0020B0000020144E154CAD
:10337000A6F1C8074FF08058DFF84C9012E000BF6C
:1033800000F0E8F9F068C568281D00F093F920699D
:10339000401E2061E068401EE06000F0FBF9284616
:1033A000FFF7A4FFE0680028EAD138680128F9D9BE
:1033B000C9F80080BFF34F8FBFF36F8FF2E70000B3
:1033C000140A00206400002004ED00E00346009889
:1033D00029B10260C0E90F31012100F003BC006097
:1033E000F8E72DE9F0479A46DDE9098481466FF058
:1033F0000303206B03EB82021044089E20F00707B2
:10340000780707D0502080F31188BFF34F8FBFF3A8
:103410006F8FFEE7002561B1002023180A5C83F856
:1034200034200A5C12B1401C1028F6D384F84350B3
:1034300001E084F83450072E00D30626E662C4E982
:103440001165201D00F05FF904F1180000F05BF930
:103450002461C6F107006462A061E56484F85050FD
:1034600052464946384600F00FF92060B8F1000F87
:1034700001D0C8F80040BDE8F087000030B5114920
:1034800000E011460A688242FBD34B685C18844214
:1034900003D1406818444860084643681C189442A9
:1034A00009D1084C103C2468A24209D052681A4441
:1034B00042600A6812680260814200D0086030BD34
:1034C0000460F9E7B000002010B5044600F042F9AE
:1034D000A06B28B15FF0000400F05CF9204610BD3D
:1034E0000124F9E706484168096829B14168C968BB
:1034F000C9684968016370474FF0FF31FAE700007F
:103500006400002008484068401C4FF0500080F3E1
:10351000118804D0BFF34F8FBFF36F8FFEE7BFF367
:103520004F8FBFF36F8FFEE7B80000202DE9F04109
:10353000044600F00FF994F9455004F1240609E01F
:10354000606A48B1304600F0E9FD08B100F0CEF9FC
:103550006D1E6DB2002DF3DC4FF0FF3684F8456030
:1035600000F018F900F0F6F894F9445004F110074F
:1035700009E0206948B1384600F0D0FD08B100F0FC
:10358000B5F96D1E6DB2002DF3DC84F84460BDE822
:10359000F04100F0FFB800002DE9F041054600279A
:1035A00000F04CFA314E306808B9FFF7B9FEF06808
:1035B00005424BD1C5B3083568070ED005F00700AA
:1035C000C0F108000544680707D0502080F3118837
:1035D000BFF34F8FBFF36F8FFEE72DB37068854247
:1035E00034D82248103001460C6801E020460C46D1
:1035F0006168A94202D221680029F7D131688C4262
:1036000024D007682168016060680837411B1029D1
:103610000FD96019420708D0502080F31188BFF3FA
:103620004F8FBFF36F8FFEE710E041606560FFF7DB
:1036300025FF61687068401A7060B268904200D2DD
:10364000B060F06801430020C4E9000100F0A0FD73
:10365000780707D0502080F31188BFF34F8FBFF356
:103660006F8FFEE73846BDE8F0810000A000002023
:103670000449086818B10868826C521C82640868A2
:10368000704700006400002010B5031F4FF08074E5
:103690001C601B1F21F001011960191F044B0B60F6
:1036A00014390A60091F6FF0020244380A6010BD25
:1036B00005350008D0E9013201699A60D0E901239B
:1036C0005A604A68824201D182684A6000220261DF
:1036D0000868401E0860086870470000034B0360DC
:1036E00003F1540008608020106070471805002026
:1036F00000F108014FF0FF32C0E90112C160016121
:1037000000210160704700210161704730B50B68EE
:103710005A1C02D000F1080202E0026904E02246CD
:10372000546825689D42FAD953684B6099608A6055
:10373000516008610168491C016030BD42684A60FF
:1037400093688B6093685960916008610168491CB7
:1037500001607047502080F31188BFF34F8FBFF393
:103760006F8F0A494868401C486001280CD10848FE
:10377000006810F0FF0F07D0502080F31188BFF3CE
:103780004F8FBFF36F8FFEE770470000B800002037
:1037900004ED00E00849486828B1401E486001D1A6
:1037A00080F311887047502080F31188BFF34F8F4A
:1037B000BFF36F8FFEE70000B800002070B500284F
:1037C00027D0144DA0F108046168E868014207D1D0
:1037D000502080F31188BFF34F8FBFF36F8FFEE748
:1037E00022683AB1502080F31188BFF34F8FBFF3A6
:1037F0006F8FFEE78143616000F020F960686968BF
:10380000084468602046FFF739FEBDE8704000F0CC
:10381000BFBC70BDA00000204FF0E020002101617E
:10382000816105494FF47A720968B1FBF2F1491ED2
:1038300041610721016170476000002010B5FCF76D
:1038400009FD114910280ED300F1E02090F8F00393
:103850000A78904207D2502080F31188BFF34F8F2F
:10386000BFF36F8FFEE709480068896800F4E060E5
:10387000884207D9502080F31188BFF34F8FBFF3E0
:103880006F8FFEE710BD0000B80000200CED00E0D7
:1038900010B5020014D00F48806B38B1502080F36F
:1038A0001188BFF34F8FBFF36F8FFEE700F0C6F8AC
:1038B00000211046FFF77AFC00F06AFC002807D1CF
:1038C00005494FF080500860BFF34F8FBFF36F8FF3
:1038D00010BD00006400002004ED00E002498A6A87
:1038E000026049694160704764000020014901207D
:1038F000486270476400002010B50C4650B1094979
:1039000009681831FFF702FF2046BDE81040012189
:10391000FFF74CBC502080F31188BFF34F8FBFF3EB
:103920006F8FFEE76400002070B504004BD0A26CDE
:10393000A2B1606C884200D30146E06A884242D05E
:10394000012A40D1204D2A6894420FD1502080F3A3
:103950001188BFF34F8FBFF36F8FFEE7502080F3C6
:103960001188BFF34F8FBFF36F8FFEE7E162A2694B
:10397000002A02DBC1F10701A161144E00EB8000B7
:10398000616906EB800081421DD1201DFFF792FE88
:10399000012150B9E06A00EB800256F8222022B9DA
:1039A000AA6901FA00F08243AA61E06AAA6981402B
:1039B0001143A96100EB800006EB8000211DBDE8EA
:1039C0007040FFF7BBBE70BD640000204C090020B2
:1039D00010B586B00024039405AA04A903A8049492
:1039E000FFF77CFEDDE903010094CDE9011000231F
:1039F0000EA11048059A00F0AAFA0F490028486362
:103A000011D0502080F31188BFF34F8FBFF36F8F19
:103A10004FF0FF3008630120C8614C6106B0BDE87B
:103A2000104000F041B806B010BD000049444C45BC
:103A3000000000006D330008640000200248816B24
:103A4000491C816370470000640000201448816BAA
:103A500011B1012141627047002141628169B1FACF
:103A600081F1C1F11F0101EB81020E4951F82230B1
:103A70006BB101EB820101F108034A6852684A60A8
:103A80009A4201D152684A60D16801607047502063
:103A900080F31188BFF34F8FBFF36F8FFEE70000F5
:103AA000640000204C0900201CB537480168374AE3
:103AB000914207D1502080F31188BFF34F8FBFF39D
:103AC0006F8FFEE700683149491E884207D15020B8
:103AD00080F31188BFF34F8FBFF36F8FFEE72C4940
:103AE00008780190FF20087008788DF800009DF894
:103AF00000009DF8002000F0F000904207D0502018
:103B000080F31188BFF34F8FBFF36F8FFEE79DF8EF
:103B10000000204B00F0500018700720986005E06E
:103B20009DF8002052008DF80020401E9DF80020D6
:103B30001206F5D49860032807D0502080F311882E
:103B4000BFF34F8FBFF36F8FFEE74FF44070986065
:103B5000019808700C482030016841F47001016040
:103B6000016841F070410160FFF756FE0020586087
:103B7000FCF738FB0848016841F040410160FCF760
:103B80001DFB00201CBD000000ED00E071C20F41D4
:103B900000E400E0B800002034EF00E0F8B517467C
:103BA0000E46050014D0DEB105FB06F04830FFF7E5
:103BB000F3FC04000AD0002084F8460004F1480217
:103BC0003B46314628460094FFF700FC2046F8BDEE
:103BD000502080F31188BFF34F8FBFF36F8FFEE744
:103BE0000020E3E770B50D46040025D0FFF7B2FDD5
:103BF000D4E90F20216802FB0011A1600021A1631C
:103C0000216861600A46D4E90F01401E00FB0121D2
:103C1000E16021464FF0FF3001F8440F487004F195
:103C200010008DB1FFF764FD04F12400FFF760FD83
:103C3000FFF7B0FD012070BD502080F31188BFF365
:103C40004F8FBFF36F8FFEE721690029F0D000F09E
:103C500065FA0028ECD004494FF080500860BFF3AB
:103C60004F8FBFF36F8FE3E704ED00E070B50E46B2
:103C7000040009D0206C78B1502080F31188BFF384
:103C80004F8FBFF36F8FFEE7502080F31188BFF393
:103C90004F8FBFF36F8FFEE7206848B9A06838B137
:103CA000502080F31188BFF34F8FBFF36F8FFEE773
:103CB000FFF7C4FD5020EFF3118580F31188BFF3A7
:103CC0004F8FBFF36F8FA16BE06B884218D994F9C7
:103CD0004500491CA163411C04D0401C84F84500E8
:103CE00001200EE0606A0028FAD004F1240000F000
:103CF00015FA0028F4D0002EF2D001203060EFE752
:103D0000002085F3118870BD2DE9F343002683B0B0
:103D10000400354609D0206C78B1502080F311881A
:103D2000BFF34F8FBFF36F8FFEE7502080F31188F2
:103D3000BFF34F8FBFF36F8FFEE700F033F9DFF86B
:103D40003C814FF000094FF0805748B9049838B1D2
:103D5000502080F31188BFF34F8FBFF36F8FFEE7C2
:103D6000FFF7F8FCA06BC8B1401EA063206810B933
:103D7000FFF77EFCA060206950B104F1100000F054
:103D8000CDF928B1C8F80070BFF34F8FBFF36F8F24
:103D9000FFF700FD012005B0BDE8F083049808B1ED
:103DA00066B10FE03DB1502080F31188BFF34F8F13
:103DB000BFF36F8FFEE7FFF7EDFC5DE06846FFF7AE
:103DC0008DFD0126FFF7E6FCFFF738FEFFF7C2FC8A
:103DD00094F94400401C01D184F8449094F94500C2
:103DE000401C01D184F84590FFF7D4FC04A9684633
:103DF00000F046F80028204612D0FFF797FB00F0AD
:103E0000C7F92046FFF760FB0028A9D09DB3FFF754
:103E1000A1FC606A50B3206B0068C0F1070126E086
:103E2000FFF752FBE0B1206838B9FFF793FCA068B8
:103E300000F02AF90546FFF7ADFC04F124000499CF
:103E4000FFF75AFD2046FFF771FB00F0A1F90028AB
:103E500086D1C8F80070BFF34F8FBFF36F8F7FE735
:103E60002046FFF763FB00F093F979E70021A06893
:103E7000FFF75AFD9FE7FFE700208CE704ED00E025
:103E80002DE9F0410C46050011D0C4B1FFF762FCEA
:103E9000174B5A696E682068911B471C17D02F6812
:103EA0009B6A9F4219D0964217D8012410E05020F7
:103EB00080F31188BFF34F8FBFF36F8FFEE7502061
:103EC00080F31188BFF34F8FBFF36F8FFEE700249D
:103ED000FFF760FC2046BDE8F081884205D9401A12
:103EE00020602846FFF7FAFCF1E700202060DCE7BD
:103EF000640000202DE9FF5F8346DDE90E879946C7
:103F000016468A469000FFF747FB05001CD0542058
:103F1000FFF742FB040014D00020256384F8510011
:103F2000CDE90240CDE900874B463246514658461E
:103F3000FFF757FA2046FFF771F9012004B0BDE8FA
:103F4000F09F2846FFF73AFC4FF0FF30F6E7F0B558
:103F500085B0DDE90B640A9DA6B1DCB1542700975A
:103F60002663022684F85160002604AFCDE902469C
:103F7000CDE90057FFF735FA2046FFF74FF90498CF
:103F800005B0F0BD502080F31188BFF34F8FBFF311
:103F90006F8FFEE7502080F31188BFF34F8FBFF380
:103FA0006F8FFEE70548C16919B1806B18B1002019
:103FB0007047012070470220704700006400002015
:103FC0002DE9F0412E4C0027A06B40B1206A401C27
:103FD0002062606A00B101273846BDE8F081666959
:103FE000761C666113D16068006838B1502080F398
:103FF0001188BFF34F8FBFF36F8FFEE76068A16832
:104000006160A060A06A401CA062FFF76BFA206BA1
:10401000DFF87080864209D36068006880B160680C
:10402000C068C568686886420DD220632068C06A8F
:1040300000EB800158F821000128CAD90127C8E700
:104040004FF0FF30F1E7281DFFF734FBA86A18B1E5
:1040500005F11800FFF72EFBE86A0121A2698140F3
:104060001143A16100EB800108EB8100291DFFF7DE
:1040700065FBE86A2168C96A8842CDD30127CBE78E
:10408000640000204C09002070B504004FF00000CF
:1040900038D0204DE16A2A68D26A914233D2A069B1
:1040A000002804DB2868C06AC0F10700A0611A4E2E
:1040B00001EB8101606906EB810188421ED1201D60
:1040C000FFF7F8FA012150B9E06A00EB800256F8D8
:1040D000222022B9AA6901FA00F08243AA61286865
:1040E000C06AE062AA6981401143A96100EB8000C7
:1040F00006EB8000211DFFF721FB02E02868C06A63
:10410000E062012070BD616C2A68D26A9142F8D3E6
:1041100070BD0000640000204C0900202DE9F04132
:10412000C068C468ACB104F118000746FFF7C2FAD2
:10413000154DA86B0126A0B139461448FFF7FEFAC9
:10414000E06A2968C96A88421CD901206E62BDE80C
:10415000F081502080F31188BFF34F8FBFF36F8F32
:10416000FEE7201DFFF7A6FAE16AAA6906FA01F048
:104170001043A86101EB81000449B43901EB8000D0
:10418000211DDBE70020E2E764000020000A002098
:104190002DE9F0472C4D00242746A86B38B1FFF7D6
:1041A000D9FAA86B401EA863A86B40B146E0502026
:1041B00080F31188BFF34F8FBFF36F8FFEE729693C
:1041C000224E0120D1B3A6F1B40980463068E8B18F
:1041D000F068C46804F11800FFF76CFA201DFFF7BF
:1041E00069FAE06AAA6908FA00F11143A96100EBD3
:1041F000800109EB8100211DFFF7A0FAE06A296820
:10420000C96A8842E2D3C5F82480DFE70CB1FFF722
:1042100069F92C6A44B14646FFF7D2FE00B16E62DE
:10422000641EF9D100202862686A38B10849012764
:1042300038070860BFF34F8FBFF36F8FFFF7AAFAFD
:104240003846BDE8F087000064000020000A002026
:1042500004ED00E000C1814001C0804101C0804107
:1042600000C1814001C0804100C1814000C1814046
:1042700001C0804101C0804100C1814000C1814036
:1042800001C0804100C1814001C0804101C0804126
:1042900000C1814001C0804100C1814000C1814016
:1042A00001C0804100C1814001C0804101C0804106
:1042B00000C1814000C1814001C0804101C08041F6
:1042C00000C1814001C0804100C1814000C18140E6
:1042D00001C0804101C0804100C1814000C18140D6
:1042E00001C0804100C1814001C0804101C08041C6
:1042F00000C1814000C1814001C0804101C08041B6
:1043000000C1814001C0804100C1814000C18140A5
:1043100001C0804100C1814001C0804101C0804195
:1043200000C1814001C0804100C1814000C1814085
:1043300001C0804101C0804100C1814000C1814075
:1043400001C0804100C1814001C0804101C0804165
:1043500000C1814000C0C101C30302C2C60607C735
:1043600005C5C404CC0C0DCD0FCFCE0E0ACACB0BA5
:10437000C90908C8D81819D91BDBDA1A1EDEDF1FD5
:10438000DD1D1CDC14D4D515D71716D6D21213D3C5
:1043900011D1D010F03031F133F3F23236F6F73775
:1043A000F53534F43CFCFD3DFF3F3EFEFA3A3BFB65
:1043B00039F9F83828E8E929EB2B2AEAEE2E2FEF15
:1043C0002DEDEC2CE42425E527E7E62622E2E32385
:1043D000E12120E0A06061A163A3A26266A6A767B5
:1043E000A56564A46CACAD6DAF6F6EAEAA6A6BAB25
:1043F00069A9A86878B8B979BB7B7ABABE7E7FBF55
:104400007DBDBC7CB47475B577B7B67672B2B37344
:10441000B17170B0509091519353529296565797F4
:10442000559594549C5C5D9D5F9F9E5E5A9A9B5BE4
:1044300099595898884849894B8B8A4A4E8E8F4F94
:104440008D4D4C8C44848545874746868242438304
:10445000418180405C460008791F0008FDFF000094
:1044600000000000800000000000000000000000CC
:1044700068460008713000080100000000000000DC
:10448000800000000000000000000000404600081E
:10449000A9300008FDFF00000000000080000000BF
:1044A000000000000000000034460008791C0008ED
:1044B000010000000000000080000000000000007B
:1044C000000000004C460008CD2F0008FEFF000051
:1044D000000000008000000000000000000000005C
:1044E0000006101600061016000000000000000074
:1044F000010203040607080900000000010203048A
:10450000B3B5C9EDCEBBD6C3A3BA58A3BA2564636D
:104510006D2020593A2564636D0A20202020202038
:10452000202020202020202020202020202020208B
:104530002020202020202020200AB3B5C9EDD7B4A8
:10454000CCACA3BA2050697463683A252E33662038
:104550002020526F6C6C3A252E3366202020205983
:1045600061773A252E33660A202020202020202043
:10457000202020202020202020202020202020203B
:10458000202020202020200ACBC4C2D6D7AACBD9F5
:10459000A3BA2020202020202020202020202020FE
:1045A000202020202020202020202020202020200B
:1045B000200A4D6F746F72313A256420202020202C
:1045C0004D6F746F72313A25642020202020202006
:1045D00020202020202020202020202020202020DB
:1045E0002020202020202020200A4D6F746F72335D
:1045F0003A256420202020204D6F746F72343A25B4
:10460000640A20202020202020202020202020207C
:10461000202020202020202020202020202020209A
:10462000200AB5B1C7B0C8CECEF13A2025730A0A28
:104630000A0000006D795461736B5F494D550000AD
:104640006D795461736B5F6C656400006D795461C2
:10465000736B5F6465627567000000006465666186
:10466000756C745461736B006D795461736B5F6B1F
:10467000657900009446000800000020C800000092
:10468000D42600085C470008C800002078490000D4
:10469000E4260008FF00FF0000000000000000000A
:1046A000000000000000000000000000000000000A
:1046B00000000000000000000000000000000000FA
:1046C00000000000000000000000000000000000EA
:1046D0000000000000000000BCF2B5A5B5C4B2E2C5
:1046E000CAD4C8CECEF100000100000010000000C6
:1046F000000000000024F4000000000000000000A2
:1047000000000000000000000000000000000000A9
:104710000000000000000000000000000000000099
:104720000000000000000000000000000000000089
:104730000000000000000000000000000000000079
:104740000000000000000000000000000000000069
:0C475000AAAAAAAA0000000000000000B5
:040000050800018965
:00000001FF
