:020000040800F2
:10000000E0040020010100089D120008A10C000876
:1000100099120008F30A0008DB170008000000002E
:100020000000000000000000000000004114000873
:10003000F70A0008000000004913000855150008E1
:100040001B0100081B0100081B0100081B01000820
:100050001B0100081B0100081B0100081B01000810
:100060001B0100081B0100081B0100081B01000800
:100070001B0100081B0100081B0100081B010008F0
:100080001B0100081B0100081B0100081B010008E0
:100090001B0100081B0100081B0100081B010008D0
:1000A0001B0100081B0100081B0100081B010008C0
:1000B0001B0100081B0100081B0100081B010008B0
:1000C0001B0100081B0100081B0100081B010008A0
:1000D0001B010008B91500081B0100081B010008DE
:1000E0001B0100081B0100081B010008DFF80CD0F1
:1000F00000F08CFC00480047593C0008E004002058
:100100000648804706480047FEE7FEE7FEE7FEE7B1
:10011000FEE7FEE7FEE7FEE7FEE7FEE7591500080B
:10012000ED0000082DE9F0410024061B254671F181
:10013000000605DA01240027D0EB070067EB010178
:10014000161E73F1000605DA0027D2EB070201251F
:1001500067EB030300F02CFB86460E4617469C46D1
:10016000AC4204D00025D0EB050E65EB010624B1AE
:100170000020D2EB000760EB030C704631463A4694
:100180006346BDE8F081D2B201E000F8012B491EC0
:10019000FBD270470022F6E710B513460A46044624
:1001A0001946FFF7F0FF204610BD30B50446002089
:1001B000034600E05B1C934203D2E05CCD5C401B35
:1001C000F8D030BDF0B480EA0102D40F4200B2EBA7
:1001D000410F02D20246084611464A0042D0C30DE2
:1001E000DDB2C1F3C752AD1A202D35DAC1F31601C5
:1001F00041F4000204B15242C5F1200602FA06F1B0
:100200002A411044B3EBD05F23D0C4B1012DA0EB41
:10021000C35009DCF0BC4FF0004202EAC352DBB22B
:1002200000F5000000F01FBB400000F1807000EB03
:10023000C350A0F1807040EAD170490009E049083C
:1002400041EAC071A0EBC35000F50000400800EB8C
:10025000C350F0BC00F0FEBA6142012202EB410142
:10026000001BF6E7F0BC704781F00041AAE780F080
:100270000040A7E780EA010210B502F00043400009
:1002800022D04A001FD0010E01EB1261C0F35600CC
:10029000C2F3560240F4000042F40002A0FB022028
:1002A00000047F39140400D0401C50EA124001D4ED
:1002B0004000491EC2B20C0604EBD010401C40089E
:1002C000802A02D003E0002010BD20F001000029A8
:1002D00000DA0020184310BD30B480EA010202F0B9
:1002E000004530F0004221F0004013D090B1C30D22
:1002F000D40DC2F31601C0F31600E41A41F4000154
:1003000040F400027D34914201D3641C00E04900B6
:10031000002C02DA30BC002070474FF400000023AC
:10032000914201D3891A034340084FEA4101F7D1B2
:1003300051B1914202D14FF0004105E002D24FF09D
:10034000010101E06FF0010103EBC450284430BC0F
:1003500000F080BA2DE9FE4F804681EA0300C00F0D
:100360000C46009021F0004123F00045B8EB02005C
:10037000A94105D24046214690461C460B460246FE
:1003800023F00040104347D0270DC7F30A00C3F302
:100390000A510290401A019040286BDAC3F313000F
:1003A00040F4801B0098924620B10023D2EB030A50
:1003B00063EB0B0B01985946C0F14002504600F028
:1003C00028FA06460D4650465946019A00F030FA82
:1003D00010EB08006141002487EA115284EAE773B8
:1003E0001A4340D0009A62B3019A012A4FEA075299
:1003F00015DC001B61EB02014FF0004202EA0752DC
:10040000CDE90042001C41F5801132462B4600F038
:1004100067FA03B0BDE8F08F40462146F9E7001BBC
:1004200061EB0201001C41F5801300185B412018AC
:10043000A2F5001747EB030140EAD570B6196D41EC
:1004400011E06D084FEA360645EAC0754FEA0752DB
:10045000001B61EB0201001C41F5801149084FEAC5
:1004600030000019514132462B4603B0BDE8F04F31
:1004700000F027BA0098012240000023D0EB0202CE
:1004800063EBE073009821464FEAE074B8EB00009C
:1004900061EB0401E9E783F000435BE781F0004191
:1004A00058E72DE9FE4F81EA030404F0004421F0EF
:1004B000004100944FF0000B23F0004350EA010488
:1004C0005ED052EA03045BD0C3F30A54C1F30A5569
:1004D0002C44A4F2F3340194A0FB0254C1F31301A1
:1004E00041F48011C3F3130343F4801301FB02446E
:1004F00000FB034E840A970A44EA815447EA835773
:10050000A4FB076802958D0A05FB07854FEA932C2B
:1005100004FB0C542705029D4FEA065847EA16379C
:10052000B5EB08056EEB070C870E920E47EA8117B4
:1005300042EA8312A7FB0201B6EB0B0164EB000455
:100540002B0D43EA0C335E1844EB1C50DA4651463F
:10055000E7FB0201C5F313044FEA0B3343EA1453DC
:100560004FEA0432019C43EA0603A4F10C0402940E
:10057000009CCDE900B400F0B3F903B0BDE8F08F02
:1005800000200146F9E72DE9F04D81EA030404F06B
:10059000004B21F0004514464FF0000A23F00041C3
:1005A00050EA050220D054EA01021DD0C5F30A57D3
:1005B0000246C5F31303C1F31300C1F30A5640F416
:1005C000801543F48013A7EB0608101BD64608F2EB
:1005D000FD3873EB050002D308F1010801E0921821
:1005E0005B41B8F1000F03DA00200146BDE8F08D51
:1005F00000204FF48011064684460EE0171B73EB73
:10060000050705D3121B63EB050306434CEA010CF7
:1006100049084FEA300092185B4150EA0107EDD1DA
:1006200052EA030012D082EA040083EA050108437B
:1006300005D0101BAB4106D20122002306E00022A8
:100640004FF0004302E06FF0010253101AEB060076
:100650004CEB085110EB0A0041EB0B01BDE8F04DEB
:1006600000F02FB9C10F80EAE0700844CA07962352
:10067000002100F0F8B896230022114600F0F3B8EC
:100680000EB5C10F80EAE0700844CA07002140F2AD
:1006900033438DE80E000A460B4600F021F903B003
:1006A00000BD00F0004220F00040C10DC0F3160074
:1006B00040F400007F2901DA00207047962903DC0E
:1006C000C1F19601C84001E096398840002AF4D073
:1006D0004042704720F00040C10DC0F3160040F4C6
:1006E00000007F2901DA00207047962903DCC1F160
:1006F0009601C840704796398840704700F0004224
:1007000030F000400AD0C10D01F56071C0F3160051
:1007100042EA0151C20840071143704700200146D8
:10072000704701F0004330B421F0004150EA01026B
:1007300006D00A0DA2F56072C1F31301002A02DC93
:1007400030BC00207047440F44EAC104C100E018E7
:1007500030BC00EBC25000F07DB80000002801DB87
:10076000C0F10040002901DBC1F100418142704726
:10077000002801DBC0F10040002901DBC1F100418C
:100780008842704730B50B460146002020220124E4
:1007900009E021FA02F59D4205D303FA02F5491B4F
:1007A00004FA02F52844151EA2F10102F1DC30BD65
:1007B0002DE9F05F0546002092469B468846064696
:1007C000814640241BE0284641464746224600F029
:1007D0002FF953465A46C01A914110D31146184674
:1007E000224600F016F82D1A67EB01084F46224604
:1007F0000120002100F00DF817EB00094E41201EEA
:10080000A4F10104DFDC484631462A464346BDE8F0
:10081000F09F202A04DB203A00FA02F10020704702
:100820009140C2F1200320FA03F31943904070472E
:10083000202A06DBCB17203A41FA02F043EAE073A4
:1008400006E041FA02F3D040C2F120029140084391
:10085000194670470029A8BF7047401C490008BFCF
:1008600020F00100704710B4B0FA80FC00FA0CF0E0
:1008700050EA010404BF10BC704749B1CCF1200418
:1008800021FA04F411FA0CF118BF012121430843A5
:10089000A3EB0C01CB1D4FEA00614FEA102042BFD1
:1008A000002010BC704700EBC35010440029A4BFC7
:1008B00010BC7047401C490008BF20F0010010BC6C
:1008C000704710B5141E73F1000408DA401C41F1A2
:1008D000000192185B411A4301D120F0010010BDC4
:1008E0002DE9F04D92469B4611B1B1FA81F202E03A
:1008F000B0FA80F220329046FFF78BFF04460F4695
:1009000040EA0A0041EA0B0153465A46084313D015
:10091000114653EA010019D0C8F14002504600F0D8
:1009200087F805460E46504659464246FFF771FF86
:10093000084305D0012004E020463946BDE8F08D8B
:100940000020054346EAE0762C4337430A986305C6
:10095000E40AA0EB08000022FD0A44EA47540A30EA
:1009600002D500200146E9E7010510196941DDE9DA
:10097000084500196941BDE8F04DA2E770B521F0C6
:10098000004303430CD0C1F30A550024D5EB040502
:1009900064EB0403D617AD1AB34102DB0020014615
:1009A00070BD201841EB025170BDC1F30A52C1F372
:1009B000130140F2FF3341F480119A4202DA002021
:1009C0000146704740F233439A42A2F2334202DCBE
:1009D000524200F02DB8FFF71CBF000030B5041ED6
:1009E00071F1000404DB4FF00044404264EB01016C
:1009F000141E73F1000405DB1C464FF00043524205
:100A000063EB0403994208BF904230BD064C074D8A
:100A100006E0E06840F0010394E8070098471034CE
:100A2000AC42F6D3FFF766FB285F0008485F00087A
:100A3000202A04DB203A21FA02F00021704721FA33
:100A400002F3D040C2F1200291400843194670479A
:100A50002DE9F04D00231A461B1A8A4103DB0020C2
:100A60000146BDE8F08DC1F30A52C1F3130141F410
:100A700080154FF0000BD10702D100186D41521EB6
:100A80000027044640F2FF11384601EB620A3E4659
:100A90008046024600204FF48011FFF7C9FFC219BB
:100AA0007141BB1846EB0100B4EB030C75EB000C75
:100AB00004D3E41A65EB000517460E46241908F125
:100AC00001006D4180463428E3DDF91946EB06004C
:100AD000091BA84103D24FF0FF32134601E0002268
:100AE00013461BEB070046EB0A51BDE8F04DFFF73C
:100AF000E8BE00BFFEE770472DE9F0410246002541
:100B00000026002000230024002791F803C00CF0E9
:100B10000F0591F803C00CF0100CBCF1000F03D0CE
:100B200091F802C04CEA050591F800C0BCF1000F35
:100B300031D0146800202BE04FF0010C0CFA00F3C8
:100B4000B1F800C00CEA03069E4220D183004FF0AA
:100B50000F0C0CFA03F7BC4305FA03FC4CEA04043F
:100B600091F803C0BCF1280F06D14FF0010C0CFA2C
:100B700000FCC2F814C00AE091F803C0BCF1480FB1
:100B800005D14FF0010C0CFA00FCC2F810C0401C5B
:100B90000828D1D31460B1F800C0BCF1FF0F34DDD8
:100BA000546800202EE000F1080C4FF0010808FA0C
:100BB0000CF3B1F800C00CEA03069E4221D1830079
:100BC0004FF00F0C0CFA03F7BC4305FA03FC4CEA98
:100BD000040491F803C0BCF1280F05D100F1080C02
:100BE00008FA0CF8C2F8148091F803C0BCF1480F61
:100BF00007D100F1080C4FF0010808FA0CF8C2F810
:100C00001080401C0828CED35460BDE8F08100005D
:100C1000F0B50A46002300240021002500F000461C
:100C2000B6F1004F02D11D4EF16901E01B4E716813
:100C3000C0F3034583B200F44016B6F5401F08D157
:100C400021F07061154E766826F07066134F7E6055
:100C500012E000F48016B6F5801F06D1032606FACE
:100C600005F4A14341F0706106E0460D360103FA38
:100C700006F6B14341F0706122B1460D360103FA28
:100C800006F6314300F00046B6F1004F02D1034EA4
:100C9000F16101E0014E7160F0BD00000000014013
:100CA00000BFFEE72DE9FC4104460D4616466B46A3
:100CB00006223B21682000F019FA0746BFB99DF8CB
:100CC00001009DF8001040EA012000B220809DF84C
:100CD00003009DF8021040EA012000B228809DF830
:100CE00005009DF8041040EA012000B2308038462B
:100CF000BDE8FC812DE9FC4104460D4616466B46D5
:100D000006224321682000F0F1F90746BFB99DF89B
:100D100001009DF8001040EA012000B220809DF8FB
:100D200003009DF8021040EA012000B228809DF8DF
:100D300005009DF8041040EA012000B230803846DA
:100D4000BDE8FC812DE9F84F6B4602224121682065
:100D500000F0CCF99DF801009DF8001040EA012058
:100D60000FFA80FA5046FFF78BFC804600220B4BAF
:100D7000FFF709FC06460A4A0A4BFFF7EBFA04465E
:100D8000FFF7CFFC834608495846FFF773FA04463D
:100D9000FFF787FC00B2BDE8F88F00000040754007
:100DA000A4703D0AD74342400000C84210B500205D
:100DB0000E4908600E48006820F470400C49086035
:100DC0000846006840F44050086000200949C1F816
:100DD0008C0100F011F801200449086000F00CF8C3
:100DE00000200449C1F8900110BD0000908121420B
:100DF000000C01400080214210B5022001F0C4FD2A
:100E000010BD000008B50121082000F09FFA18204D
:100E1000ADF8000010208DF8030003208DF80200CB
:100E200069460248FFF768FE08BD0000000C01405B
:100E300010B500200E4908600E48006820F470408C
:100E40000C4908600846006840F4405008600120E2
:100E50000949C1F88C01FFF7CFFF01200449086060
:100E6000FFF7CAFF00200449C1F8900110BD00003F
:100E700090812142000C01400080214270B505465E
:100E800000241648006820F47040144908600846A1
:100E9000006840F400400860002614E0002010497B
:100EA0000860FFF7A9FF01200E49C1F89001600614
:100EB000040E0B488438006808B1601CC4B2FFF708
:100EC0009BFF701CC6B2082EE8DB15B9FFF7B0FF18
:100ED00001E0FFF76BFF204670BD0000000C0140F1
:100EE000908121420080214270B50446124800687A
:100EF00020F47040104908600846006840F44050F3
:100F0000086000200D490860002512E0E0090B4947
:100F1000091F08606006040E01200949C1F890010C
:100F2000FFF76AFF002005490860FFF765FF681CAE
:100F3000C5B2082DEADB70BD000C01409081214252
:100F40000080214210B50E48006820F470400C4922
:100F500008600846006840F44050086001200949D4
:100F600008600949C1F89001FFF746FF00200549D4
:100F70000860FFF741FF00200349C1F8900110BD50
:100F8000000C01408C8121420080214210B50E48A6
:100F9000006820F470400C4908600846006840F47E
:100FA000405008600020094908600949C1F88C01D7
:100FB000FFF722FF0120054908600549C1F88C01AF
:100FC000FFF71AFF10BD0000000C01409081214284
:100FD0000080214210B500241448006820F47040BD
:100FE000124908600846006840F40040086001208B
:100FF0000F490860FFF700FF01200E49C1F890017A
:10100000FFF7FAFE07E0601CC4B2FA2C03DDFFF71D
:10101000BDFF012010BD0648803800680028F2D1CD
:101020000349091D086000BFF4E70000000C0140FF
:101030008C8121420080214210B5FFF7E3FE802120
:101040006B2000F0D7F8642001F078FC00216B20C1
:1010500000F0D0F8032000F08BF8002000F080F8BA
:10106000C82000F0AAF80021382000F0C3F80021C1
:101070006A2000F0BFF80021232000F0BBF8802197
:10108000372000F0B7F8752000F013F80446682CFC
:101090000BD101216B2000F0ADF800216C2000F095
:1010A000A9F8C82000F089F801E0012010BD002057
:1010B000FCE770B50446FFF745FFD020FFF714FFAB
:1010C000FFF788FF2046FFF70FFFFFF783FFFFF7CB
:1010D00039FFD120FFF708FFFFF77CFF0020FFF763
:1010E000CDFE0546FFF752FF284670BD2DE9F041C1
:1010F00006460F4614461D46FFF724FF002141EA2D
:101100004601C8B2FFF7F0FEFFF764FF20B1FFF71A
:101110003DFF0120BDE8F0813846FFF7E5FEFFF70F
:1011200059FFFFF70FFF012101EB4601C8B2FFF79E
:10113000DBFEFFF74FFF0DE0012C04D10020FFF78D
:101140009DFE287003E00120FFF798FE2870601EC6
:10115000C4B26D1C002CEFD1FFF718FF0020D9E7B7
:1011600010B50446E006010E1C2000F043F810BD47
:1011700010B50446E006010E1B2000F03BF810BD40
:1011800070B504460025BC2C01DB012510E0622C63
:1011900001DB02250CE02A2C01DB032508E0142CDE
:1011A00001DB042504E00A2C01DB052500E006250F
:1011B00029461A2000F01EF870BD70B50446B4F53B
:1011C0007A7F01DD4FF47A74042C00DA04244FF4A2
:1011D0007A7090FBF4F0401EC5B22946192000F049
:1011E00009F80546264604EBD671C1F34F00FFF718
:1011F000C7FF70BD70B505460C46FFF7A3FED020B3
:10120000FFF772FEFFF7E6FE18B1FFF7BFFE012001
:1012100070BD2846FFF768FEFFF7DCFE2046FFF7AB
:1012200063FEFFF7D7FE18B1FFF7B0FE0120EFE72E
:10123000FFF7ACFE0020EBE72DE9F04105460E4636
:1012400017469846FFF77EFE002141EA4501C8B2E5
:10125000FFF74AFEFFF7BEFE20B1FFF797FE012021
:10126000BDE8F0813046FFF73FFEFFF7B3FE0024F4
:101270000CE018F80400FFF737FEFFF7ABFE18B1DB
:10128000FFF784FE0120EBE7601CC4B2BC42F0DB38
:10129000FFF77CFE0020E3E700BFFEE7704708B5DC
:1012A0004FF4A06000F046F81D208DF800000120EA
:1012B0008DF801008DF802008DF80300684600F0FB
:1012C00001F808BD70B5002100230F22C47804B3D3
:1012D000154C246804F4E064C4F5E064210AC1F10B
:1012E0000403CA40447804FA03F18478144021438B
:1012F00009010E4C0678A155047804F01F0501245D
:10130000AC4005786D11AD0005F1E025C5F8004150
:1013100009E0047804F01F050124AC40044D067870
:10132000761145F8264070BD0CED00E000E400E0C9
:1013300080E100E002490143024A11607047000069
:101340000000FA050CED00E07047000029B1064AE4
:1013500092690243044B9A6104E0034A9269824312
:10136000014B9A61704700000010024030B5002127
:101370000022002400232D4D6D6805F00C0121B1E1
:10138000042905D0082923D105E0294D056022E074
:10139000274D05601FE0254D6D6805F47012234D43
:1013A0006D6805F48034022505EB92421CB9214D8D
:1013B000554305600BE01D4D6D6805F400351DB10A
:1013C0001C4D5543056002E0194D5543056002E090
:1013D000174D056000BF00BF144D6D6805F0F001AA
:1013E0000909154D6B5C0568DD4045600F4D6D6862
:1013F00005F4E061090A104D6B5C4568DD408560CD
:101400000A4D6D6805F46051C90A0B4D6B5C456867
:10141000DD40C560054D6D6805F44041890B074D01
:101420006B5CC568B5FBF3F5056130BD001002408B
:1014300000127A0000093D007400002084000020A2
:10144000704710B500F002F810BD00000CB5002088
:10145000019000903348006840F4803031490860C2
:1014600000BF3048006800F4003000900198401C34
:101470000190009818B90198B0F5A06FF1D12948F2
:10148000006800F4003010B10120009001E000205D
:1014900000900098012843D12348006840F01000D4
:1014A000214908600846006820F0030008600846EB
:1014B000006840F0020008601A4840681949486016
:1014C0000846406848600846406840F480604860CC
:1014D0000846406820F47C1048600846406840F4A4
:1014E000E81048600846006840F08070086000BF5F
:1014F0000C48006800F000700028F9D009484068E6
:1015000020F00300074948600846406840F00200A8
:10151000486000BF0348406800F00C000828F9D17B
:101520000CBD00000010024000200240042808D139
:101530004FF0E021096941F004014FF0E022116110
:1015400007E04FF0E021096921F004014FF0E022AB
:10155000116170477047000010B51348006840F0F3
:1015600001001149086008464068104908400E49CA
:101570004860084600680E4908400B490860084664
:10158000006820F4802008600846406820F4FE00CF
:1015900048604FF41F008860FFF753FF4FF0006072
:1015A0000449086010BD0000001002400000FFF870
:1015B000FFFFF6FE08ED00E010B540F225511D4892
:1015C00000F04AF810B31B4800F002F9C4B21A4800
:1015D000007800F08000C8B91748007800F040009B
:1015E00060B10A2C03D000201349087020E0124893
:1015F000007840F080001049087019E00D2C06D1E9
:101600000D48007840F040000B49087010E00A488F
:10161000007800F03F0009490C5407480078401C4E
:1016200005490870084600783F2801DD0020087051
:1016300010BD000000380140200000208C00002078
:1016400021B1828942F40052828104E082894DF600
:10165000FF731A408281704770B502460024002350
:101660000025002040F66A16B14200D100BFC1F348
:10167000421501F01F03012606FA03F3012D02D1E2
:101680009689334006E0022D02D1168A334001E0EC
:10169000968A33400C12012606FA04F41688344068
:1016A00013B10CB1012000E0002070BDF0B503467D
:1016B000002400260025002040F66A17B94200D118
:1016C00000BF1846C1F3421401F01F06012707FAB4
:1016D00006F5012C01D10C3004E0022C01D11030B0
:1016E00000E014301AB107682F43076002E0076872
:1016F000AF430760F0BD00002DE9F04786B0054616
:101700000E460024A24600BFA1460027B08900B1C2
:1017100000BF2F462C8A4CF6FF700440F08804432B
:101720002C82AC894EF6F3100440B088318908430E
:10173000718908430443AC81AC8A4FF6FF400440F2
:10174000B0890443AC8201A8FFF710FE1F4887420E
:1017500002D1DDF810A001E0DDF80CA0A88900F4AA
:10176000004040B10AEBCA0000EB0A1031684900A2
:10177000B0FBF1F807E00AEBCA0000EB0A10316891
:101780008900B0FBF1F86420B8FBF0F004012009F7
:10179000642101FB1089A88900F4004040B1322087
:1017A00000EBC900B0FBF1F000F00700044308E0D3
:1017B000322000EB09106421B0FBF1F000F00F00C3
:1017C00004432C8106B0BDE8F087000000380140DA
:1017D00001468888C0F30800704700BFFEE700009C
:1017E0000FB4054B10B503A9044A029800F05CF948
:1017F00010BC5DF814FB0000893500081C000020B7
:10180000490050EAC12018BF04204A0D18BF40F01B
:10181000010040F2FF72B2EB515F08BF40F00200DE
:10182000012808BF052070472DE9F0414F1E00EB4D
:10183000C7010446D1E9000115461E4637F00602ED
:101840000DD02A463346FEF72CFE7F1E04EBC7035D
:10185000D3E90023FEF77EFD37F00602F1D1022F17
:1018600025D0042F13D0062F18BFBDE8F0812A46DB
:101870003346FEF716FED4E90A23FEF76BFD2A462F
:101880003346FEF70EFED4E90823FEF763FD2A4631
:101890003346FEF706FED4E90623FEF75BFD2A4633
:1018A0003346FEF7FEFDD4E90423FEF753FD2A4636
:1018B0003346FEF7F6FDD4E90223FEF74BFD2A4638
:1018C0003346FEF7EEFDD4E90023BDE8F041FEF714
:1018D00041BD0122FFF752B8FEF73CBD002213467E
:1018E00010461146FEF74FBE024A00201107FFF7CF
:1018F00045B8000001FDFFFF02E008C8121F08C143
:10190000002AFAD170477047002001E001C1121F80
:10191000002AFBD1704700000149086070470000B1
:10192000880000202DE9FF5F82B00021DDE904304E
:10193000020DDDF840B0034318D044F61050A2F277
:10194000FF3242431514119801281FD0A5EB0B005C
:10195000401C5FEA000A4FF000064E4FDFF8389156
:10196000B046504615D5CAF1000413E01198012481
:101970004AA3012801D16FEA0B010298119AC0E92C
:101980000031C0E9024206B0BDE8F09FCBF1000093
:10199000DFE704460021404A491842EB0450CDE9F4
:1019A000001012E0E00707D032463B464046494669
:1019B000FEF777FD8046894632463B46104619467B
:1019C000FEF76FFD06460F466410002CEAD1DDE9F4
:1019D0000401DDE90023BAF1000F06DAFEF761FD2C
:1019E00042464B46FEF75DFD05E0FEF7CCFD424664
:1019F0004B46FEF7C8FD04460E460022284BFEF774
:101A0000EDFF03D84FF0FF30014607E00022254BE1
:101A100020463146FEF79EFCFEF7C7FF102409E082
:101A2000002C0ADB0A220023FEF7C2FE039B3032A1
:101A30001A55641E50EA0102F2D1641C039AC4F1E3
:101A400011031444119A012A03D0012208430DD135
:101A50000AE0084304D000204FF0110B119072E708
:101A6000A3EB0B056D1E0DE05B4504DD4FF000029E
:101A700005F1010504E003DA4FF00002A5F10105CC
:101A8000002AECD002981199C0E90231C0E9004562
:101A900079E70000000014400000F03F3000000033
:101AA0000000F0430000E03F2DE9FF4F95B09B465A
:101AB0008946064600250FE2252877D100242746CF
:101AC000F84A0121059400E0044316F8013F203B49
:101AD00001FA03F01042F7D130782A2811D06FF0C4
:101AE0002F033078A0F13002092A16D8059A44F065
:101AF000020402EB820203EB42021044761C0590C2
:101B0000EFE759F8042B0592002A03DA504244F417
:101B10000054059044F00204761C30782E2816D12B
:101B200016F8010F44F004042A280DD06FF02F029C
:101B30003078A0F13003092B09D807EB870302EBBB
:101B40004303C718761CF3E759F8047B761C3078FA
:101B50006C280FD006DC4C2817D068280DD06A28D6
:101B600014D104E0742810D07A280FD10DE044F489
:101B700000140AE044F4801401E044F44014727844
:101B8000824202D104F58014761C761C30786628D7
:101B90000BD013DC582877D009DC002875D04528F5
:101BA000F6D04628F4D047281AD19DE118E06328E2
:101BB00035D0642879D0652812D195E1702873D08A
:101BC00008DC6728F1D069286FD06E280DD06F2807
:101BD00006D1B5E073282CD0752875D0782874D03C
:101BE0005A46179990476D1C75E1C4F302500228BC
:101BF00009D003280DD0D9F8001004280DD00D60AD
:101C000009F1040967E1D9F80010EA17C1E90052A7
:101C1000F6E7D9F800100D80F2E70D70F0E719F83B
:101C2000041B8DF8001000208DF80100EA46012009
:101C300003E059F804AB4FF0FF3061074FF00001AB
:101C400002D40DE008F101018846B9420FDA80455F
:101C5000F8DB1AF808100029F4D108E008F10101B6
:101C600088468142FADB1AF808100029F6D1059857
:101C70005B46A0EB080721463846179A00F094FA15
:101C8000284400EB080507E04DE029E10DE01AF8D3
:101C9000010B5A4617999047B8F10108F7D25B46F5
:101CA00021463846179A13E142E00A220092C4F313
:101CB00002524FF0000A022A08D059F804CB032A36
:101CC0004FEAEC710AD00DE029E02AE009F10701A2
:101CD00021F00702F2E802C1914609E00FFA8CFCFC
:101CE0004FEAEC71042A03D14FFA8CFC4FEAEC71F5
:101CF000002907DA0A460021DCF1000C61EB020141
:101D00002D2202E0220504D52B228DF80420012289
:101D100003E0E20701D02022F7E7904659E00A21CC
:101D200002E010220DE010214FF0000A00910BE0BC
:101D300010224FF0000A44F004040827009203E048
:101D400008224FF0000A0092C4F30252022A05D082
:101D500059F804CB0021032A08D009E009F1070152
:101D600021F00702F2E802C1914605E01FFA8CFC5F
:101D7000042A01D10CF0FF0C4FF00008220728D5EF
:101D8000702806D0009B83F0100353EA0A0305D0A5
:101D90000EE040228DF80420012208E05CEA0102F6
:101DA00006D030228DF804208DF8050002229046DE
:101DB000009B83F0080353EA0A030AD15CEA01029C
:101DC00001D1620705D530228DF804204FF00108BB
:101DD0007F1E582804D034A003900EA802900DE076
:101DE00036A0F9E753466046009AFEF7E1FC8446C8
:101DF0000398825C0298401E029002705CEA010027
:101E0000F0D1029806A9081A00F1200A600702D54D
:101E100024F4803400E00127574502DDA7EB0A00D7
:101E200000E0002000EB0A01009005984144401AB0
:101E30000590E00306D45B462146179A059800F00A
:101E4000B3F90544002706E001A85A46C05D17997A
:101E500090476D1C7F1C4745F6DBE0030CD55B46C5
:101E60002146179A059800F09FF9054404E03020B8
:101E70005A46179990476D1C0099481E00900029FA
:101E8000F5DC08E0029802995A460078491C029154
:101E9000179990476D1CBAF10001AAF1010AF1DC13
:101EA00065E100000928010030313233343536371E
:101EB0003839616263646566000000003031323396
:101EC0003435363738394142434445460000000036
:101ED00000F058F90544761C307800287FF4ECAD0A
:101EE00019B02846BDE8F08F620700D4062709F133
:101EF000070222F0070CFCE80223E14603F0004849
:101F00005FEA080C02D00FF2702C0DE05FEA045C6F
:101F100002D50FF2682C07E05FEAC47C02D00FF212
:101F2000602C01E0AFF2700C4FF0FF3823F000435B
:101F3000CDF850C065280CD006DC452809D04628CD
:101F40001DD047283DD13DE0662818D067287ED1B6
:101F500038E00021112F01DB112000E0781CCDE9D1
:101F6000000106A90EA8FFF7DDFCDDE90F010E9ABE
:101F700003910021009207F1010A04914DE04FF016
:101F800000400097CDE9011006A90EA8FFF7CAFC92
:101F9000DDE90F0203920E9B11990022DDF80CA0DF
:101FA0000093049211B9791C00EB010AB7EB0A0007
:101FB00004D4C0F1FF3007F1010A0490AAEB070036
:101FC000019044E0012F00DA01270021112F01DDEB
:101FD000112000E03846CDE9000106A90EA8FFF760
:101FE000A1FCDDE90F010E9A0391002104910092FA
:101FF000BA4621070CD40399514500DA8A46BAF152
:10200000010F05DD009AAAF10101515C302908D0C9
:10201000B84202DA10F1040F06DA0121CDE901100D
:1020200015E0AAF10101E9E7002805DC0499014463
:102030000491AAEB000102E0411C514500DD8A46F3
:102040000499401A401C01904FF000400290200774
:1020500004D40198504501DBCDF8048000208DF8B0
:102060004F0002980DF14F07B0F1004F25D02B2003
:102070000E9002984FF0020800280CDA40420290BD
:102080002D200E9007E00A210298FEF77BFB3031ED
:10209000029007F8011DB8F10001A8F10108F2DC77
:1020A00002980028EFD1791E0E980870307800F061
:1020B000200040F0450007F8020D12A8C01B00F1F7
:1020C00007081498007800B1012000EB0A0101987C
:1020D00001EBE07105984144401A401E0590E00371
:1020E00006D45B462146179A059800F05DF8054432
:1020F0001498007818B15A46179990476D1CE00360
:1021000024D55B462146179A059800F04DF8054402
:102110001CE00498002807DBDDE90301884203DDA9
:102120000098405C179901E0179930205A46904773
:10213000049805F10105401C04900198401E01908F
:1021400004D12E205A46179990476D1CBAF1000110
:10215000AAF1010ADDDC05E017F8010B5A461799D0
:1021600090476D1CB8F10001A8F10108F4DC5B4652
:102170002146179A0598ABE62D0000002B000000C1
:10218000200000002DE9F041044600251E461746B8
:10219000880404D405E039462020B0476D1C641E35
:1021A000F9D52846BDE8F0812DE9F0410446002527
:1021B0001E469046C80301D5302700E0202788043A
:1021C00004D505E041463846B0476D1C641EF9D57C
:1021D0002846BDE8F08100002DE9FE4F07468846FD
:1021E0000026684601F0DEF9002444E057F8240098
:1021F00058F82410A0EB010ABAF1000F01DB514698
:1022000001E0CAF100010846FEF72CFA83464FF0C0
:102210008F41FEF761F881465DF824000021FEF74A
:102220009DFA18D05DF824104846FEF755F882460E
:102230004FF07E51FEF718F8054600BF25F000402C
:1022400082460F48416A5046FEF792FA12D20120A8
:10225000A04006430EE00A48C1694846FEF77EFAF0
:1022600005D30748016A4846FEF782FA02D20120E8
:10227000A0400643641C032CB8DB3046BDE8FE8F4B
:10228000C45100082DE9F04D8D4F21F0004A86B071
:1022900005460C46BA452ADBAAEB070028430AD0BC
:1022A0008848824501DC1AD1CDB106B02846BDE888
:1022B000F04DFFF70EBB844A844B2846FEF7F1F839
:1022C00007460E46824A834B28462146FEF7E9F828
:1022D00006B03A463346BDE8F04DFEF73BB8012064
:1022E000FFF71AFB06B0BDE8F04DFFF7F7BA7A48E2
:1022F000824542DABAF1795F0BDA2846FFF780FAB5
:10230000042808BFFFF7F0FA284606B02146BDE8CA
:10231000F08D2A460B461046FEF7C3F88346024668
:102320006E480E460B4606217844FFF77DFA5A4662
:102330003346FEF7B6F8804669488A465A46334621
:1023400004217844FFF770FA5A463346FEF7A9F89D
:1023500000223B46FDF7FEFF02460B464046514633
:10236000FEF711F92A462346FEF79BF806B02A46E7
:102370002346BDE8F04DFDF7EDBF284624F00041AF
:1023800000223D463B46FEF789F84FF0FF32FEF74C
:10239000F5FA0646024653480F460B460621784496
:1023A000FFF742FA32463B46FEF77BF8CDE90001E3
:1023B0004D4832463B4604217844FFF735FA324611
:1023C0003B46FEF76EF800222B46FDF7C3FF83461F
:1023D00002913046394602F079FE804643480D4668
:1023E000504517DCDDE900015A46029BFEF7CBF8A9
:1023F00042462B46FEF755F842462B46FDF7AAFF0C
:102400000122FEF7BBFA304A304BFEF744F8304A5F
:10241000304B4CE04FF0000A52460B464046FDF769
:1024200099FFCDE9031052462B4610461946FEF798
:1024300038F832463B46FEF731F8DDE90332FEF765
:10244000A2F806460F46DDE900015A46029BFEF758
:102450009AF883460091012230463946FEF78EFAFB
:10246000194A1A4BFEF71AF806460F460122404653
:102470002946FEF783FA5A46009BFEF712F83246C9
:102480003B46FEF708F806460F460122504629460D
:10249000FEF774FA0E4DDFF858802A464346FDF7E2
:1024A000FDFF32463B46FDF7F9FF2A464346FDF75E
:1024B000F5FF002CD8BF81F0004106B0BDE8F08DDB
:1024C0000000F03F0000F07F075C143326A6913C2B
:1024D000182D4454FB21F93F0000E03FBC3A0000B6
:1024E000D23A0000463A00005C3A00003333EF3F36
:1024F000FB21E93F2DE9F84F04460D4621F000404D
:1025000000917349814211DC7249884201DC06D195
:102510002CB120462946BDE8F84FFFF7DAB96E48DE
:10252000002DCCBF6D496E49BDE8F88F6D498142E1
:1025300011DD6D498142D8BF4FF0FF366DDD204679
:102540002946FFF75DF9042808BFFFF7CDF92046BB
:102550002946BDE8F88F6549654F25F00045814261
:1025600033DD6449814219DD002632464FF0804355
:1025700020462946FDF7EEFE80468A460122204687
:102580002946FEF7FBF900223B46FDF784FF424651
:102590005346FDF7F8FF04460D463EE001260022B3
:1025A000BA463B4620462946FDF7D4FE80460F46F4
:1025B0000022534620462946FDF76DFF42463B4622
:1025C000FDF7E1FF04460D4627E04B4981421BDD44
:1025D000DFF828A102260022534620462946FDF7AF
:1025E00060FF00223B46FDF7B5FE80460F46002205
:1025F000534620462946FDF74EFF42463B46FDF72F
:10260000C2FF04460D4608E0032622462B46002062
:102610003B49FDF7B8FF04460D4622462B461046BF
:102620001946FDF73EFF8B46824602460B46FDF7F4
:1026300038FF07460246334888460B460621784451
:10264000FFF7F2F852465B46FDF72BFF82462E4815
:102650008B463A46434605217844FFF7E5F83A466B
:102660004346FDF71EFF02460B46002E50465946D4
:102670000CDAFDF76FFE22462B46FDF712FF01B084
:1026800022462B46BDE8F04FFDF708BFFDF762FE7E
:1026900022462B46FDF705FF1C4A7A4402EBC6038F
:1026A000D3E90023FDF7F7FE22462B46FDF7F3FEA4
:1026B000174A7A4402EBC603D3E90023FDF7EEFE86
:1026C000009A002AB8BF81F00041BDE8F88F0000F1
:1026D000000010440000F07F182D4454FB21F93F06
:1026E000FB21F9BF0000DC3F0000203E0000F33F6B
:1026F0000000F03F0000E63F008003400000F83F8C
:102700000000F0BF5E3800001C380000BA3700003F
:10271000823700002DE9F04D9446CCF1000423F0FF
:1027200000464CEA0404524F46EAD4749A4688465E
:1027300021F00042BC4206D8454240EA050442EA84
:10274000D474BC4204D9BDE8F04D6246FFF7C4B86A
:10275000AAF14055A5F17F6555EA0C040BD002247F
:1027600004EAAA74434DDFF810E144EAD87452EA4F
:10277000000B04D00CE0BDE8F04DFFF7BBBE002C11
:1027800014BF012CBDE8F08D022C30D0032C32D0C8
:1027900056EA0C0B0AD0BE4220D1BA4209D126F02B
:1027A000804622F080423346114617E000291ADBAA
:1027B00025E0DFF8C8B0FB44002C04BFDBE90001D2
:1027C000BDE8F08D012C02BFDBE9000181F0004182
:1027D000BDE8F08D022C0AD0032C0CD0BA4212D1E5
:1027E000B8F1000F0BDA23482549BDE8F08D2846E3
:1027F0002449BDE8F08D28467146BDE8F08D1D489E
:102800002149BDE8F08D921B12153C2AC4BF19481E
:102810001D490EDCBAF1000FBEBF12F13C0F0020C3
:10282000014606DB6246FDF7AEFE21F00041FFF7F0
:1028300061FE002C08BFBDE8F08D012C04BF81F0C3
:102840000041BDE8F08D114A114B022C07D0FDF775
:1028500022FE2A46BDE8F04D0A4BFDF71CBEFDF7EF
:102860001AFE2A46BDE8F04D064BFDF717BE0000E4
:102870000000F07F182D4454FB2109C016370000DA
:10288000FB21F9BFFB210940FB21F93F075C143311
:1028900026A6A13C2DE9F0410446E07800F0C006F0
:1028A000E07800F03F05607800F0010098B1EF108B
:1028B0002846E91705EB5171C910A5EBC101491C68
:1028C00001F0FF080B48006820B10A484146026841
:1028D0003846904700BF607800F0080030B10548E6
:1028E000406818B1B011034A516888470020BDE81C
:1028F000F0810000CC00002010B56FF00400FEF75E
:1029000015FE0A4800680A49B0FBF1F00949087051
:102910000846007800EB4001C1EBC0104FF6FF7194
:1029200001EAC0000449088010BD000060000020DA
:1029300000127A005A0000205C0000200146114A73
:1029400012884A434FF0E0235A6100229A611A46E6
:10295000126942F001021A6100BF4FF0E0221069D3
:1029600000F001021AB100F48032002AF5D04FF0D5
:10297000E022126922F001024FF0E0231A610022E6
:102980009A6170475C0000200146114A12784A4360
:102990004FF0E0235A6100229A611A46126942F010
:1029A00001021A6100BF4FF0E022106900F001023D
:1029B0001AB100F48032002AF5D04FF0E0221269FB
:1029C00022F001024FF0E0231A6100229A61704761
:1029D0005A00002038B5044664B120208DF800006C
:1029E00028208DF8010030208DF8020038208DF865
:1029F000030004E0A32204216846FDF7C4FB6A46F5
:102A0000042140F69E2002F08FFA01F079FE38BDD5
:102A10003EB5044602208DF80000CA208DF8010062
:102A2000E3208DF8020009208DF803006A46042196
:102A3000682002F079FAA3208DF8000004F040002D
:102A400048B1C0208DF80100C8208DF80200C220D6
:102A50008DF8030006E0A3208DF801008DF8020038
:102A60008DF8030004F4C07048B1C4208DF8040050
:102A7000CC208DF80500C6208DF8060006E0A320C6
:102A80008DF804008DF805008DF80600A3208DF860
:102A900007008DF808008DF809006A460A2140F603
:102AA000A72002F041FA04F0030018B120208DF8AD
:102AB000000002E0D8208DF800006A46012140F6AF
:102AC000B62002F031FA04F0200018B1012000F025
:102AD000ADF802E0002000F0A9F804F4C07008B3DB
:102AE00004F4807060B1B2208DF800008B208DF866
:102AF0000100B6208DF802009B208DF803000BE04A
:102B0000B0208DF8000080208DF80100B4208DF8F1
:102B1000020090208DF803006A46042140F6A220AE
:102B200002F002FA04F0010020B3F8208DF8000052
:102B30006A4601214FF40B6002F0F6F9FA210720F2
:102B400000F02CFC072000F0F3FB012000F013FC48
:102B5000642000F0F3FC4FF4FA7000F002FDC8218D
:102B6000304800F0A3FB282000F0BCFB0A2000F056
:102B7000CCFB08E0D8208DF800006A4601214FF414
:102B80000B6002F0D1F904F0020018B1D9208DF8E1
:102B9000000002E0D8208DF800006A46012140F2D2
:102BA0003D7002F0C1F904F0040018B1012000F0FA
:102BB00069F802E0002000F065F804F0100018B198
:102BC0000120FFF707FF02E00020FFF703FF44F0BA
:102BD00008001549488101F093FD002012498873CF
:102BE00004F0400018B10846807B801D887304F40F
:102BF000C07020B10C48807B801D0B49887304F0A5
:102C0000140020B10848807B10300749887304F015
:102C1000030020B10448807B001D03498873002015
:102C20003EBD000009E3CA02CC0000203EB50446C8
:102C30006CB10EA1D1E900208968CDE90020029194
:102C40006A4609214FF4976002F06EF93EBD0AA270
:102C5000D2E900109268CDE9010200916A4609218B
:102C60004FF4976002F060F9F0E70000B8AAB38D66
:102C7000B4980D355D000000B8AAAAAAB088C3C5F3
:102C8000C700000038B5044664B1C0208DF80000CC
:102C9000C2208DF80100C4208DF80200C6208DF8F6
:102CA000030004E08B2204216846FDF76CFA6A46B3
:102CB000042140F6982002F037F901F021FD38BDDB
:102CC00010B5C8234FF48062024940F6F63001F097
:102CD000ABFB10BDEC5100082DE9F04F8DB007465D
:102CE000884615469946DDE9166B002400203080A1
:102CF0006B49887B5A4605A901F062FC18B1601E39
:102D00000DB0BDE8F08F6648807A00F0140000280E
:102D100067D09DF8140000069DF8151040EA0140A8
:102D20009DF8161040EA01209DF81710084328600E
:102D30009DF8180000069DF8191040EA01409DF822
:102D40001A1040EA01209DF81B10084368609DF8A6
:102D50001C0000069DF81D1040EA01409DF81E1061
:102D600040EA01209DF81F100843A8609DF820004C
:102D700000069DF8211040EA01409DF8221040EA2B
:102D800001209DF823100843E86004F11000C4B24C
:102D9000286800140190686800140290A868001464
:102DA0000390E8680014049001984043029901FBE5
:102DB0000100039901FB0100049901FB010ABAF12A
:102DC000706F02DBBAF1885F05DD01F099FC00202D
:102DD0003080401E94E7B6F9000040F480703080E7
:102DE00000BF2F48807A00F0400020B305A9601C86
:102DF000085C095D40EA012000B2A8F8000005A9BE
:102E0000E01C095C05AAA01C105C41EA002000B28D
:102E1000A8F8020005A9601D095C201D105C41EAAC
:102E2000002000B2A8F80400A01DC4B2B6F900004A
:102E300040F0080030801A48408900F4C07008B3A0
:102E400005A9601C085C095D40EA012000B23880D9
:102E500005A9E01C095C05AAA01C105C41EA002041
:102E600000B2788005A9601D095C201D105C41EA54
:102E7000002000B2B880A01DC4B2B6F9000040F036
:102E8000700030800648807A00F0030018B105A970
:102E90000819FFF7FFFC484600F05CFF00202FE711
:102EA000CC00002070B588B0064601A801F010F9EA
:102EB000BDF804000021C90341EA5045C403444859
:102EC000007A00F0030056F8200005904048007A90
:102ED00000F0040010B10598404205903C48007A8B
:102EE000C0F3C10056F8200006903948007A00F07F
:102EF000200010B10698404206903548007AC0F391
:102F0000811056F8200007903148008900F4807045
:102F100010B10798404207900598C117A0FB042301
:102F200001FB043100FB0510810041EA927005901D
:102F30000698C117A0FB042301FB043100FB051018
:102F4000810041EA927006900798C117A0FB042304
:102F500001FB043100FB0510810041EA92700790EB
:102F60000598000E8DF808000598000C8DF80900F2
:102F70000598000A8DF80A000598C0B28DF80B007C
:102F80000698000E8DF80C000698000C8DF80D00C8
:102F90000698000A8DF80E000698C0B28DF80F0052
:102FA0000798000E8DF810000798000C8DF811009E
:102FB0000798000A8DF812000798C0B28DF8130028
:102FC00002AA0C214FF4257001F0AEFF08B070BDCD
:102FD000CC00002030B585B0044616A207CA02AB6B
:102FE00007C3C82C03DD4FF0FF3005B030BDC8204B
:102FF00090FBF4F0401E85B2280A8DF80000E8B27C
:103000008DF801006A46022140F2162001F08CFF83
:1030100010B14FF0FF30E8E702AA0C2140F6C120C2
:1030200001F082FF10B14FF0FF30DEE704488481E9
:103030000020DAE7FEF2ABC4AAF1DFDFBBAFDFDFCF
:10304000CC0000201FB504464848007A00F0030079
:1030500054F8200001904548007A00F0040010B1B7
:103060000198404201904148007AC0F3C10054F8F1
:10307000200002903D48007A00F0200010B1029834
:10308000404202903948007AC0F3811054F8200081
:1030900003903648008900F4807010B103984042D4
:1030A00003903349019880FB0101800F40EA8100C1
:1030B00001902F49029880FB0110820042EA917032
:1030C00002902B49039880FB0110820042EA917024
:1030D00003900198000E8DF800000198000C8DF807
:1030E00001000198000A8DF802000198C0B28DF825
:1030F00003006A4604214FF4747001F015FF18B103
:103100004FF0FF3004B010BD0298000E8DF80000A3
:103110000298000C8DF801000298000A8DF8020058
:103120000298C0B28DF803006A4604214FF475700E
:1031300001F0FAFE10B14FF0FF30E3E70398000E04
:103140008DF800000398000C8DF801000398000A28
:103150008DF802000398C0B28DF803006A4604217E
:103160004FF4767001F0E0FECCE70000CC000020C8
:1031700009E3CA0210B586B0044647A00068039070
:1031800046A00068029046A00068019045A0006833
:10319000009004F0030003A9085C8DF8140003A854
:1031A000C4F3C101405C8DF8150003A8C4F381117C
:1031B000405C8DF8160004F0030002A9085C8DF84D
:1031C000100002A8C4F3C101405C8DF8110002A8F0
:1031D000C4F38111405C8DF8120005AA032140F26E
:1031E000264001F0A1FE18B14FF0FF3006B010BD2F
:1031F00004AA032140F22A4001F096FE10B14FF0DC
:10320000FF30F3E7019805900098049004F0040063
:1032100058B19DF8140040F001008DF814009DF89D
:10322000100040F001008DF8100004F0200058B1AB
:103230009DF8150040F001008DF815009DF8110073
:1032400040F001008DF8110004F4807058B19DF831
:10325000160040F001008DF816009DF8120040F0B5
:1032600001008DF8120005AA03214FF4886001F0D7
:103270005BFE10B14FF0FF30B8E704AA032140F223
:10328000314001F051FE10B14FF0FF30AEE706487B
:1032900004810020AAE700004CCD6C000CC92C0072
:1032A0003656760026466600CC000020F8B5054666
:1032B0000E464FF47A7095FBF0F000FB06F4200EFA
:1032C0008DF80000200C8DF80100200A8DF8020016
:1032D000E0B28DF803006A4604214FF4AE7001F0AD
:1032E00023FEF8BD38B50446052094FBF0F084B207
:1032F00020128DF80000E0B28DF801006A4602212C
:103300004FF4AD7001F010FE38BD38B5044605200D
:1033100094FBF0F084B220128DF80000E0B28DF83A
:1033200001006A4602214FF4AC7001F0FDFD38BD8A
:1033300038B504460020009004F0010020B19DF84B
:10334000000040F03000009004F0020020B19DF831
:10335000000040F00C00009004F0040020B19DF843
:10336000000040F0030000906A4601214FF4A47071
:1033700001F0DAFD38BD38B50446012C01DA01242C
:1033800002E0042C00DD0424601EC0B200906A46F6
:10339000012140F24F1001F0C7FD38BD2DE9FC4777
:1033A00006460F4606F0070010B1B7F5C86F03DDFB
:1033B0004FF0FF30BDE8FC873846FDF75CF98146E9
:1033C0005949FCF789FF8046684600F05BFE9DF88E
:1033D0000000022806D0042816D0082826D010287D
:1033E00048D135E04FF08D414046FCF743FF814620
:1033F000FDF770F984B24D494046FCF73BFF81462A
:10340000FDF768F985B238E04FF08C414046FCF793
:1034100031FF8146FDF75EF984B245494046FCF72D
:1034200029FF8146FDF756F985B226E04FF08B4122
:103430004046FCF71FFF8146FDF74CF984B23D4939
:103440004046FCF717FF8146FDF744F985B214E0CA
:103450004FF08A414046FCF70DFF8146FDF73AF9EF
:1034600084B235494046FCF705FF8146FDF732F945
:1034700085B202E04FF0FF309CE700BF20128DF8CC
:103480000400E0B28DF8050028128DF80600E8B2BD
:103490008DF8070006F00100A0B101AA02214FF447
:1034A000EA7001F041FD10B14FF0FF3082E70DF1FD
:1034B000060202214FF4927001F036FD10B14FF078
:1034C000FF3077E706F00200A0B101AA02214FF415
:1034D000EC7001F029FD10B14FF0FF306AE70DF1FB
:1034E000060202214FF4947001F01EFD10B14FF05E
:1034F000FF305FE706F00400A0B101AA02214FF4FB
:10350000EE7001F011FD10B14FF0FF3052E70DF1F8
:10351000060202214FF4967001F006FD10B14FF043
:10352000FF3047E7002045E70000484300004046E1
:103530000000C045000040450000C04438B50446C6
:10354000052094FBF0F085B228128DF80000E8B257
:103550008DF801006A4602214FF4EF7001F0E4FC9F
:1035600038BD38B50446052094FBF0F085B228122A
:103570008DF80000E8B28DF801006A4602214FF490
:10358000ED7001F0D1FC38BD00BF054A128802F091
:103590004002002AF9D0C2B2014B1B1D1A807047AD
:1035A000003801407CB5054628494968087801ABD8
:1035B00004220D21FDF79AFD08B107207CBD9DF87E
:1035C0000700C0F301109DF8041001F0E00140EA8B
:1035D000E1008DF800009DF80700C0F381009DF820
:1035E000051001F0E00140EAE1008DF801009DF8CE
:1035F000070000F003009DF8061001F0E00140EA2A
:10360000E1008DF8020000241CE01DF8040018B948
:10361000002045F8240013E00D4845F8240006E09A
:1036200055F824000B49FCF725FE45F824001DF849
:103630000400401EC0B20DF804000028F0D100BF05
:10364000601CC4B2032CE0DB0020B7E7240000209C
:103650007B14AE3E1D5A843F2DE9F04F87B00546DE
:103660000C46914601208DF8100000208DF81100C5
:10367000FE4A1268917CFD4A5268107804AB02221F
:10368000FDF7DAFD20B14FF0FF3007B0BDE8F08F55
:10369000C820FFF753F900208DF81000F34A126894
:1036A000D17BF24A5268107804AB0122FDF7C4FDC9
:1036B00010B14FF0FF30E8E7EC4A12685179EB4A5D
:1036C0005268107804AB0122FDF7B6FD10B14FF03F
:1036D000FF30DAE7E54A1268917CE44A52681078D4
:1036E00004AB0122FDF7A8FD10B14FF0FF30CCE78D
:1036F000DE4A1268D17DDD4A5268107804AB01229F
:10370000FDF79AFD10B14FF0FF30BEE7D74A1268BF
:103710001179D64A5268107804AB0122FDF78CFD6E
:1037200010B14FF0FF30B0E70C208DF81000CF4AF9
:1037300012681179CD4A5268107804AB0122FDF766
:103740007BFD10B14FF0FF309FE70F20FFF7F6F839
:10375000C648806A407A8DF81000C44A1268917891
:10376000C24A5268107804AB0122FDF765FD10B122
:103770004FF0FF3089E7BD48806A007A8DF810006D
:10378000BA4A12685178B94A5268107804AB0122DB
:10379000FDF752FD10B14FF0FF3076E7B9F1000FA1
:1037A00007D0B248806A807A40F0E0008DF81000BF
:1037B00004E0AE48806A807A8DF81000AB4A126847
:1037C0009179AA4A5268107804AB0122FDF734FDC2
:1037D00010B14FF0FF3058E7B9F1000F07D0A34800
:1037E000806AC07A40F0E0008DF8100003E0A04845
:1037F000C07A8DF810009D4A1268D1799B4A5268B0
:10380000107804AB0122FDF717FD10B14FF0FF3027
:103810003BE7B9F1000F02D0C820FFF78FF8402036
:103820008DF81000914A12681179904A5268107808
:1038300004AB0122FDF700FD10B14FF0FF3024E78B
:1038400078208DF81000894A12685179874A5268A9
:10385000107804AB0122FDF7EFFC10B14FF0FF3000
:1038600013E783498889FFF769F800208DF8100075
:103870007E4A126851797D4A5268107804AB012261
:10388000FDF7DAFC10B14FF0FF30FEE6774A126820
:10389000917A764A5268107804AB0222FDF726FC32
:1038A00010B14FF0FF30F0E69DF811009DF81010B8
:1038B00040EA012B0C209BFBF0F0C6B20020A86070
:1038C00068602860A06060602060824665E0674AAA
:1038D0001268D17A654A5268107804AB0C22FDF761
:1038E00005FC10B14FF0FF30CFE69DF811009DF8B8
:1038F000101040EA012000B2ADF808009DF8130056
:103900009DF8121040EA012000B2ADF80A009DF8BF
:1039100015009DF8141040EA012000B2ADF80C002B
:10392000BDF90810206808442060BDF90A106068DD
:1039300008446060BDF90C10A0680844A0609DF8C0
:1039400017009DF8161040EA012000B2ADF8000003
:103950009DF819009DF8181040EA012000B2ADF85A
:1039600002009DF81B009DF81A1040EA012000B2E9
:10397000ADF80400BDF90010286808442860BDF9BE
:103980000210686808446860BDF90410A86808441B
:10399000A8600AF1010000F0FF0AB24597DB344845
:1039A000D0F800C02868C117090441EA1041070493
:1039B000624600233846FCF7B5FB32460023CDE9CA
:1039C0000201FCF7AFFB28602948D0F800C0686806
:1039D000C117090441EA1041070462460023384632
:1039E000FCF7A0FB32460023CDE90201FCF79AFB6D
:1039F00068601F48D0F800C0A868C117090441EAF0
:103A000010410704624600233846FCF78BFB324620
:103A10000023CDE90201FCF785FBA8601448D0F82B
:103A200004C02168C817000440EA11480F04624628
:103A3000002338464146FCF775FB32460023CDE9AA
:103A40000201FCF76FFB20600948D0F804C06068F1
:103A5000C117090441EA10410704624600233846B1
:103A6000FCF760FB3246002304E000002400002045
:103A7000C4510008CDE90201FCF754FB6060114815
:103A8000D0F804C0A068C117090441EA1041070436
:103A9000624600233846FCF745FB32460023CDE959
:103AA0000201FCF73FFBA060A068002804DDA068CD
:103AB000A0F58030A06003E0A06800F58030A06031
:103AC0000020E2E5C45100082DE9FC5F0746884666
:103AD00000263F494968087801AB03220D21FDF714
:103AE00005FB10B10720BDE8FC9F9DF8040000F025
:103AF0001F008DF804009DF8050000F01F008DF8F0
:103B000005009DF8060000F01F008DF80600002457
:103B100059E057F8240058F82410A0EB010BBBF132
:103B2000000F01DB594601E0CBF100010846FCF72C
:103B300099FD4FF08F410090FCF7CEFB824601A823
:103B4000005D78B323490868FCF795FD8346594624
:103B50002148FCF7C1FB814604E020494846FCF7B8
:103B600089FB814601A8005D401EC0B201A908552D
:103B70000028F2D149465046FCF7AEFB83464FF091
:103B80007E51FCF771FB054600BF25F000408346DF
:103B9000104881695846FCF7EBFD13D20120A04084
:103BA00006430FE0FFE70B4801695046FCF7D6FDDE
:103BB00005D3084841695046FCF7DAFD02D20120DE
:103BC000A0400643641C032CA3DB30468BE70000B7
:103BD00024000020C451000800B04C4554E3853F48
:103BE00010B50446204600F00FF80346E01C00F034
:103BF0000BF843EAC00083B2A01D00F005F843EAC9
:103C0000801083B2184610BD014691F90020002AA9
:103C100001DD00201EE091F90020002A01DA0420D5
:103C200018E091F90120002A01DD012012E091F94C
:103C30000120002A01DA05200CE091F90220002A77
:103C400001DD022006E091F90220002A01DA0620B7
:103C500000E007207047000086B0FEF74DFEFDF73C
:103C60001EFB4FF4E13001F057FA01212248FCF726
:103C7000CFFFFDF7E1F900F0B9F93BE01F4A204919
:103C8000204800F0A1F8FDF75DF80446FCF7EAFCD7
:103C90001D4908601D4A1E491E48FDF703F81E4ACB
:103CA0001E491F48FDF726F81E4917480068FCF713
:103CB00013FB0590FCF722FD04460D460F480068F3
:103CC000FCF71CFD06460F460D480068FCF716FD84
:103CD000804689460B480068FCF710FD8246524634
:103CE0000B4611A0CDE90089CDE90267CDE9044575
:103CF000FDF776FDC2E7000000023000080000205A
:103D00000400002000000020180000201000002007
:103D10000E0000200C0000201600002014000020DF
:103D2000120000200000C84270697463683D252EAF
:103D300032662C726F6C6C3D252E32662C79617761
:103D40003D252E32662C74656D703D252E32660A37
:103D5000000000007047000070B50446002624F003
:103D60000104184890F8240008B1002070BD1548DF
:103D7000807A10B94FF0FF30F8E71248057C807A5E
:103D80002040104908740846007CA04202D04FF041
:103D9000FF3600E0002614B90A48007D18B1012062
:103DA00001F04CF902E0002001F048F93CB100F0CC
:103DB000A7FC20B1034805744FF0FF30D6E730462A
:103DC000D4E70000240000202DE9F04F99B004460C
:103DD0000D4616464FF07E574FF000084FF0000991
:103DE0004FF0000A12A813A918AB0EAACDE90010D3
:103DF00014A916A8FEF770FF18B1012019B0BDE88C
:103E0000F08FBDF84C0000F4807000287ED00E9832
:103E1000FCF728FC83464FF09D41FCF75DFA07460E
:103E20000F98FCF71FFC83464FF09D41FCF754FAB6
:103E300080461098FCF716FC83464FF09D41FCF736
:103E40004BFA81461198FCF70DFC83464FF09D41DB
:103E5000FCF742FA824639464FF08040FCF70AFAF6
:103E600049460590FCF706FA414607904FF040405E
:103E7000FCF700FA51460590FCF7FCF9069007990B
:103E8000FCF7A0F98346FCF739FCCDE90801FEF701
:103E9000F9F94FF06632544BCDE90A01FCF701FB0A
:103EA000CDE90C01FCF73DFC206049464FF0804015
:103EB000FCF7E0F949460290FCF7DCF94146049032
:103EC0004FF04040FCF7D6F941460290FCF7D2F99A
:103ED00003900499FCF7C8F983464FF07E51FCF734
:103EE00071F90590FCF70AFCCDE9080139464FF05D
:103EF0008040FCF7BFF941460390FCF7BBF9494607
:103F000004904FF08040FCF7B5F900E068E05146BE
:103F10000390FCF7AFF983460499FCF753F9059039
:103F2000FCF7ECFBCDE90601DDE90823FEF7F2FB27
:103F30004FF066322C4BCDE90A01FCF7B2FACDE91D
:103F40000C01FCF7EEFB286051465046FCF792F955
:103F5000494604904846FCF78DF941460390404697
:103F6000FCF788F9394601903846FCF783F9009050
:103F70000199FCF727F902900399FCF775F983463C
:103F80000499FCF771F90590FCF7B8FBCDE908013D
:103F900051463846FCF76EF9494604904046FCF716
:103FA00069F903900499FCF70DF94FF080410590F1
:103FB000FCF760F98346FCF7A1FBCDE90601DDE9DA
:103FC0000823FEF7A7FB4FF06632074BCDE90A0145
:103FD000FCF767FACDE90C01FCF7A3FB306001E0C8
:103FE00002200BE7002009E766A64C4070B50024CC
:103FF000FCF708FF00F020F900283DD1782000F000
:104000002BFFC4B20CB1012070BD7820FFF7A4FED5
:10401000C4B20CB10220F7E7C82000F0CFFEC4B252
:104020000CB10320F0E7FEF74BFEC4B20CB1042044
:10403000EAE71348FFF7D4FD0546FFF79BF8C4B243
:104040000CB10520E0E740F27310FEF7E1FCC4B2CA
:104050000CB10620D8E7C820FEF7BCFFC4B20CB1F3
:104060000720D1E700F0A0FF0446012000F0A2FDE8
:10407000C4B21CB10920C7E70A20C5E70020C3E786
:104080005000002001461148407A30B1012807D085
:10409000022808D003280CD108E0022008700BE0A9
:1040A0000420087008E00820087005E0102008705F
:1040B00002E04FF0FF30704700BF0448C07C18B1E9
:1040C00008784006000E08700020F4E72400002065
:1040D00001461348407A30B1012808D002280AD09E
:1040E000032810D10BE04FF4804008800EE041F629
:1040F0009C7008800AE04FF48050088006E04FF47E
:104100000060088002E04FF0FF30704700BF0448B5
:10411000C07C10B10888401008800020F5E700003E
:104120002400002001460248007C087000207047EF
:104130002400002001460F48007A30B1012807D042
:10414000022809D003280FD10AE0FA2008800EE0E7
:104150004FF4FA7008800AE04FF47A70088006E0A5
:104160004FF4FA60088002E00020088000BF00BF22
:10417000002070472400002001460E48007A30B12C
:10418000012807D0022808D003280CD108E00A48EB
:1041900008600BE00948086008E00948086005E08D
:1041A0000848086002E04FF0FF30704700BF002071
:1041B000FBE70000240000200000034300008342CE
:1041C000333303423333834101461248C07A08280F
:1041D00017D2DFE800F01704070A0D101318BC20EF
:1041E000088013E06220088010E02A2008800DE09B
:1041F000142008800AE00A20088007E005200880D3
:1042000004E000BF00BF0020088000BF00BF002006
:1042100070470000240000200146064890F8240062
:1042200010B14FF0FF3070470248C089088000206D
:10423000F9E70000240000201CB580208DF8000064
:10424000654A1268917C644A526810786B46012274
:10425000FCF7F2FF10B14FF0FF301CBD6420FEF7F9
:104260006DFB00208DF800005B4A1268917C5A4A71
:10427000526810786B460122FCF7DEFF10B14FF058
:10428000FF30EAE7544A1268917D534A5268107829
:104290006B460622FCF72AFF10B14FF0FF30DCE737
:1042A0009DF80500C007400F9DF8031001F00101C3
:1042B00040EA41009DF8011001F0010140EA0104CB
:1042C00094B1012C03D101214348C17431E0022C87
:1042D00003D100214048C1742BE021463FA0FDF7E7
:1042E0007FFA4FF0FF30B8E73B4A1268D1783A4A7C
:1042F000526810786B460122FCF7F8FE10B14FF0BF
:10430000FF30AAE79DF8000000F00F042CB93D48EB
:10431000FDF766FA4FF0FF309FE7042C06D13AA074
:10432000FDF75EFA01212C48C17402E000212A4801
:10433000C174FF2128488172FF2027490872FF219C
:1043400025484172C1724FF6FF71C181FF2101748E
:1043500081740121017380F82210002180F823105C
:10436000417501751630016041608160163880F832
:10437000241080F82510C1844FF4FA6000F062FC2C
:1043800010B14FF0FF3068E7022000F02BFB10B1B6
:104390004FF0FF3061E72A2000F0CEFC10B14FF063
:1043A000FF305AE7322000F009FD10B14FF0FF3026
:1043B00053E70020FFF7D0FC10B14FF0FF304CE77F
:1043C000002000F051FB10B14FF0FF3045E7002016
:1043D00000F042FD002040E724000020556E737578
:1043E00070706F7274656420736F66747761726544
:1043F0002070726F64756374207265762025642E58
:104400000A000000D85E000848616C662073656E83
:104410007369746976697479207061727420666F4B
:10442000756E642E0A0000002DE9F04385B0054644
:104430000E4690469946294890F8250020B14FF045
:10444000FF3005B0BDE8F08316B94FF0FF30F8E754
:10445000002423E0281B102801DD102000E0281B89
:1044600087B232193946204600F05EFD10B14FF098
:10447000FF30E6E701AA3946204600F001F910B105
:104480004FF0FF30DDE730193A4601A9FBF78DFE0A
:1044900010B16FF00100D4E7E01984B2AC42D9DB6F
:1044A0004FEA28208DF8000008F0FF008DF8010089
:1044B0000A4A1268917E094A526810786B460222B5
:1044C000FCF7BAFE10B14FF0FF30BAE70121034804
:1044D00080F82510A0F826900020B2E724000020E4
:1044E00038B50446282C02DD4FF0FF3038BDDCB96A
:1044F000002000F0EBFB00208DF8000007208DF875
:1045000001002E4A1268917C2C4A526810786B4642
:104510000222FCF791FE10B14FF0FF30E6E70021D8
:10452000264801750020E1E7012000F0CFFB2020A4
:104530008DF80000012C06D100208DF80100052027
:1045400000F0FAFB17E0052C06DC01208DF80100D5
:10455000052000F0F1FB0EE0142C06DC02208DF8A3
:1045600001000A2000F0E8FB05E003208DF80100BF
:10457000142000F0E1FB9DF80100072101EB801001
:10458000C0B28DF801000D4A1268917C0B4A526846
:1045900010786B460222FCF74FFE10B14FF0FF304F
:1045A000A4E70821054881720021017301210175EA
:1045B0000020FFF7D1FB002098E700002400002036
:1045C000F8B504460F4616462C4890F8240010B95A
:1045D0004FF0FF30F8BD2948807A10B94FF0FF3016
:1045E000F8E7264A1268917A244A526810786B4696
:1045F0000222FCF77BFD10B14FF0FF30EAE79DF897
:1046000001009DF8001040EA0125A54203DA0020D0
:104610003070401EDEE7194840684088B5EB600FF7
:1046200017DD164A1268517C144A526810786B469E
:104630000122FCF75BFD10B14FF0FF30CAE79DF897
:10464000000000F0100020B100F05AF86FF00100F7
:10465000C0E7E2B2094B1B68D97A084B5B6818784F
:104660003B46FCF743FD10B14FF0FF30B2E795FB3E
:10467000F4F0401E30700020ACE700002400002061
:10468000F8B504460D46164616B94FF0FF30F8BD92
:104690001A48807A10B94FF0FF30F8E720128DF8F1
:1046A0000000E0B28DF801009DF801002844134994
:1046B00049684989884202DD4FF0FF30E7E70F4A39
:1046C0001268117E0D4A526810786B460222FCF780
:1046D000B3FD10B14FF0FF30D9E7EAB2074B1B68CA
:1046E000597D064B5B6818783346FCF7FFFC10B128
:1046F0004FF0FF30CBE70020C9E700002400002086
:1047000008B57048807A10B94FF0FF3008BD00201E
:1047100000906C4A1268D17B6A4A526810786B46E6
:104720000122FCF789FD10B14FF0FF30EEE7654A3A
:1047300012685179634A526810786B460122FCF77F
:104740007BFD10B14FF0FF30E0E75E4A126811794F
:104750005C4A526810786B460122FCF76DFD10B17F
:104760004FF0FF30D2E7574890F82400002853D08C
:104770000C200090534A12681179524A52681078FE
:104780006B460122FCF758FD10B14FF0FF30BDE73A
:104790003220FEF7D3F8C02000904A48807A00F01B
:1047A000010020B19DF8000040F020000090454A33
:1047B00012681179434A526810786B460122FCF75F
:1047C0003BFD10B14FF0FF30A0E73E48407C10B1F8
:1047D0000220009001E0002000903A4A1268D17B4C
:1047E000384A526810786B460122FCF725FD10B15B
:1047F0004FF0FF308AE700200090324A126851796A
:10480000304A526810786B460122FCF715FD0028EB
:1048100055D04FF0FF3079E704200090294A126804
:104820001179284A526810786B460122FCF704FD82
:1048300010B14FF0FF3069E72248807C20B9214851
:10484000807A00F0010010B94020009001E0602063
:1048500000901C4A126811791A4A526810786B4607
:104860000122FCF7E9FC10B14FF0FF304EE7322097
:10487000FEF764F81348407C10B10120009001E07D
:10488000002000900F4A1268D17B0E4A52681078BF
:104890006B460122FCF7D0FC10B14FF0FF3035E73A
:1048A000084A12685179074A52681078054B10334C
:1048B0000122FCF7C1FC10B14FF0FF3026E70020C9
:1048C00024E70000240000202DE9F04F8DB083463E
:1048D0000F4602200C90424890F8240020B100209E
:1048E00000F068F9012600E0002603A8FFF722FC8B
:1048F00005A8FFF7C7FB01A8FFF766FC02A8FFF7B2
:104900008BFC374890F80AA004A8FFF70BFC0024A2
:1049100007E0002239465846FEF79EFE00B902E045
:10492000641C022CF5DB00BF022C01D1002528E01D
:10493000002407E0012206A909A8FEF78DFE00B9B0
:1049400002E0641C022CF5DB00BF022C01D1002523
:1049500017E006A93846FDF73FFC00F0FF0809A95B
:104960005846FFF7B1F800F0FF090025B9F1000F34
:1049700001D145F00105B8F1000F01D145F0020564
:1049800000BFFF2016490872FF2115484172C1720D
:104990004FF6FF71C181FF21817201740121017302
:1049A000BDF80C0000F04EF99DF8140000F01AF864
:1049B000BDF8040000F0C0F9BDF8080000F0FEF9F1
:1049C000504600F049FA9DF81000FFF7C5F916B1FE
:1049D000012000F0EFF828460DB0BDE8F08F000090
:1049E0002400002038B504461E48807A10B94FF0E4
:1049F000FF3038BD022C06D0042C07D0082C08D07C
:104A0000102C0CD108E0002000900BE00820009052
:104A100008E01020009005E01820009002E04FF020
:104A2000FF30E6E700BF0F48407A9DF80010B0EB7A
:104A3000E10F01D10020DCE70A4A1268D179094A66
:104A4000526810786B460122FCF7F6FB10B14FF06C
:104A5000FF30CEE79DF80000C110024841720020EF
:104A6000C7E700002400002038B504465048807C89
:104A7000A04201D1002038BD002C46D04C4A12681B
:104A800011794B4A526810786B460122FCF72EFBD5
:104A900010B14FF0FF30EEE79DF8000020F020004D
:104AA0000090434A12681179414A526810786B4667
:104AB0000122FCF7C1FB10B14FF0FF30DBE7032010
:104AC000FDF73CFF02200090394890F8220020B109
:104AD0009DF8000040F080000090354890F82300D9
:104AE00020B19DF8000040F030000090304A12687C
:104AF000117D2F4A526810786B460122FCF79CFB0F
:104B0000002851D04FF0FF30B5E7294A12681179DB
:104B1000274A526810786B460122FCF7E7FA10B179
:104B20004FF0FF30A7E72248807A00F0010028B15B
:104B30009DF8000040F02000009004E09DF8000087
:104B400020F0200000901A4A12681179184A526821
:104B500010786B460122FCF76FFB10B14FF0FF306D
:104B600089E70320FDF7EAFE114890F8220010B112
:104B70008020009001E0002000900D4890F8230074
:104B800020B19DF8000040F030000090084A126803
:104B9000117D074A526810786B460122FCF74CFBE6
:104BA00010B14FF0FF3066E701488474002062E7DF
:104BB0002400002038B50446214890F82400A04283
:104BC00001D1002038BD24B31D4890F8250010B94C
:104BD0004FF0FF30F6E7002000F030FA0020FFF73A
:104BE00043FF1749C88C00F0E9F8002000901449F1
:104BF000496808786B4601222321FCF71DFB01213F
:104C00000F4880F82410012000F018FAFFF778FD13
:104C100013E0002000F012FA0948007C00900849D7
:104C2000496808786B4601222321FCF705FB002127
:104C3000034880F82410FFF763FD0020C2E700005E
:104C40002400002038B504461F48807A10B94FF080
:104C5000FF3038BDFA2C09D0B4F5FA7F09D0B4F58D
:104C60007A7F09D0B4F5FA6F0CD108E000200090EB
:104C70000BE00820009008E01020009005E01820CC
:104C8000009002E04FF0FF30E3E700BF0E48007AEB
:104C90009DF80010B0EBE10F01D10020D9E70A4ADE
:104CA00012689179084A526810786B460122FCF725
:104CB000C3FA10B14FF0FF30CBE79DF80000C010F1
:104CC000014908720020C4E72400002038B50446DA
:104CD000184890F82300A04201D1002038BD14B13B
:104CE0003020009001E0002000901248807C20B12C
:104CF0009DF8000040F0020000900E4890F822005D
:104D000020B19DF8000040F080000090094A126830
:104D1000117D084A526810786B460122FCF78CFA24
:104D200010B14FF0FF30D9E7024880F8234000204F
:104D3000D4E700002400002038B504461E48807ADD
:104D400010B94FF0FF3038BDBC2C02DB01200090C1
:104D500015E0622C02DB0220009010E02A2C02DB1E
:104D6000032000900BE0142C02DB0420009006E0EE
:104D70000A2C02DB0520009001E0062000900E487E
:104D8000C07A9DF80010884201D10020DBE70A4A72
:104D900012689178084A526810786B460122FCF735
:104DA0004BFA10B14FF0FF30CDE79DF800100248EC
:104DB000C1720020C7E700002400002038B5044677
:104DC0002448807A10B94FF0FF3038BD214890F860
:104DD000240010B14FF0FF30F7E71E48007D50B1BE
:104DE00034B1282C04DCE0B2FFF77AFB0020ECE7BA
:104DF0000020FFF775FB042C01DA042404E0B4F56D
:104E00007A7F01DD4FF47A744FF47A7090FBF4F0FE
:104E1000401EC0B200900F4A126851780D4A526885
:104E200010786B460122FCF707FA10B14FF0FF3003
:104E3000CBE79DF80000401C4FF47A7191FBF0F035
:104E400081B20448C1810146C9894810FFF774FF47
:104E50000020BAE72400002038B5044604F07000B2
:104E600010B10120009005E014B10020009001E095
:104E7000402000902B4A1268917C2A4A5268107890
:104E80006B460122FCF7D8F920B100212548817238
:104E9000481E38BD9DF8000020F0400121480173F4
:104EA0000020009004F0400020B99DF8000040F080
:104EB0000400009004F0200020B99DF8000040F0AC
:104EC0000200009004F0100020B99DF8000040F0AE
:104ED0000100009004F0080020B99DF8000040F0A7
:104EE000380000900F4A1268D17C0E4A5268107840
:104EF0006B460122FCF7A0F920B10021094881721C
:104F0000481EC6E724B1082C02D00020FFF7DEFEC1
:104F100004488472002101753220FDF70FFD002046
:104F2000B7E7000024000020F8B504460D461646F9
:104F300016B94FF0FF30F8BD1A48807A10B94FF01B
:104F4000FF30F8E720128DF80000E0B28DF8010084
:104F50009DF801002844134949684989884202DDC7
:104F60004FF0FF30E7E70F4A1268117E0D4A526892
:104F700010786B460222FCF75FF910B14FF0FF305A
:104F8000D9E7EAB2074B1B68597D064B5B68187876
:104F90003346FCF751F910B14FF0FF30CBE700205A
:104FA000C9E700002400002070B588B002A905A858
:104FB000FFF78AFC0446072C3ED101A8FFF7DCF876
:104FC0000598FBF74FFB06460199FBF753F9054699
:104FD000FBF767FB05900698FBF744FB0646019933
:104FE000FBF748F90546FBF75CFB06900798FBF7D3
:104FF00039FB06460199FBF73DF90546FBF751FBE6
:10500000079005A8FEF71EF86846FFF761F8BDF89F
:105010000010029848430290BDF8001003984843DE
:105020000390BDF8001004984843049002A8FDF7CF
:1050300039FF002008B070BD0120FBE738B50446F9
:10504000214890F82400C0B114B10220009001E082
:10505000002000901C4A1268D17B1B4A52681078CD
:105060006B460122FCF7E8F810B14FF0FF3038BD75
:105070009DF800101448417423E01348807A10B959
:105080004FF0FF30F3E724B10F48407C08B1002017
:10509000EDE714B10120009001E0002000900A4AE1
:1050A0001268D17B084A526810786B460122FCF7DF
:1050B000C3F810B14FF0FF30D9E79DF80010024857
:1050C00041740020D3E70000240000202DE9F041C6
:1050D00006460F46FBF7BCFC041E0D4618BF012018
:1050E000284320F00040C0F17F6000F1E040C00F95
:1050F0000ED0301C18BF0120384320F00040C0F112
:105100007F6000F1E040C00F04BF0120FCF704FC09
:1051100020462946BDE8F08110B586B0044601213D
:1051200044F20500FCF712F94FF40070ADF81400DA
:1051300003208DF8160018208DF8170005A91548D2
:10514000FBF7DAFC4FF48060ADF8140004208DF812
:10515000170005A90F48FBF7CFFC01940020ADF81C
:105160000800ADF80A00ADF80C00ADF810000C20F6
:10517000ADF80E0001A90848FCF7BEFA012240F282
:1051800025510548FCF792FA01210348FCF758FA2B
:1051900006B010BD000801400038014075191A0C16
:1051A0006A231B1C1F207274433B4138393A6B6CD5
:1051B000376F06246D6E700068000004760054019D
:1051C000F7FD000183000000000800000001001846
:1051D00032000500000020410000D242295C0F3E51
:1051E0009A99993E3333733F295C0F3E000070005B
:1051F00000000024000000020003000000650054CD
:10520000FFEF0000FA80000B12820001030C30C394
:105210000E8C8CE914D5400213710F8E3883F883FD
:105220003000F883258EF8833000F883FFFFFFFFFE
:105230000FFEA9D6240004001A8279A10000003CC8
:10524000FFFF00000010000038836FA2003E033013
:105250004000000002CAE3093E8000002000000078
:10526000000000004000000060000000000C000092
:10527000000C186E000006920A16C0DFFFFF0256EF
:10528000FD8CD377FFE1C496E0C5BEAA0000000004
:10529000FFFF0B2B000016570000035940000000D1
:1052A00000001DFA00026C1D000000003FFFDFEB54
:1052B000003EB3B6000D227800002F3C0000000035
:1052C000001942B5000039A20000B365D90E9FC98C
:1052D0001DCF4C3430000000500000003BB67AE88F
:1052E0000064000000C80000000000001000000082
:1052F0001000FA921000225E000D229F00010000B3
:1053000000320000FF46000063D4000010000000DF
:1053100004D6000004CC000004CC00000000107291
:105320000000004000000000000000000006000235
:1053300000050007000000000064000000000000FD
:1053400000000005000500640020000000000000CF
:1053500000000000000040000000030000000032D8
:10536000F8980000FF650000830F0000FF9BFC0021
:10537000000000000000000000000000000000002D
:10538000000000000000000000000000000000001D
:1053900000000000000000000000100040000000BD
:1053A000000000060000B26A000200000001FB835A
:1053B0000068000000D9FC007CF1FF8300000000C1
:1053C00000650000006403E8006400280000002578
:1053D0000000000016A000000000100000001000F7
:1053E000002F0000000001F4000010000028000061
:1053F000FFFF4581FFFFFA7200000000000000007F
:10540000004400050005BAC6004778A2000000016C
:105410000000000000000600000000140000254D00
:10542000002F706D000005AE000C02D000000000DF
:10543000000000000000000000000000001B000051
:1054400000000000000000000000000000640000F8
:105450000008000000000000000000000000000044
:10546000000000000000000000000000000000003C
:10547000000000000000000000000000000000002C
:10548000000000000000000000000000000000001C
:10549000000000000000000000000000000000000C
:1054A000000000000000000000000000001B0000E1
:1054B0000000000000000000000E000E00000AC7FF
:1054C0000004000000000032FFFFFF9C00000B2BD7
:1054D000000000020000000100000064FFE5000081
:1054E00000000000000000000000000000000001BB
:1054F000000000000001000000000000000180002A
:105500000001800000018000002426D3000000007C
:1055100000000000000600100096003C00000000A3
:105520000000000000000000000000000C0A4E68AF
:10553000CDCF770950166759C619CE8200000000FA
:10554000000000000000000000000000000000005B
:105550000000000017D784000300000000000000D6
:1055600000000000C7938F9D1E1B1C190000000047
:10557000000000000000000000000000000000002B
:105580000000000002031885000040000000000336
:1055900000000003000000000000000040000000C8
:1055A00000000000000000000000000000000000FB
:1055B00000000000000000000000000000000000EB
:1055C00000000000000000000000000000000000DB
:1055D000677DDF7E72902E554CF6E6880000000055
:1055E000000000000000000000000000D8DCB4B89B
:1055F000B0D8B9ABF3F8FAB3B7BB8E9EAEF132F5C3
:105600001BF1B4B8B08097F1A9DFDFDFAADFDFDFDD
:10561000F2AAC5CDC7A90CC92C97F1A9892646665F
:10562000B28999A92D557DB0B08AA896365676F1E3
:10563000BAA3B4B280C0B8A89711B28398BAA3F045
:10564000240844106418B2B9B49883F1A329557D95
:10565000BAB5B1A38393F0002850F5B2B6AA8393EC
:1056600028547CF1B9A3829361BAA2DADEDFDB8130
:105670009AB9AEF5606870F1DABAA2DFD9BAA2FAC7
:10568000B9A38292DB31BAA2D9BAA2F8DF85A4D03D
:10569000C1BBAD83C2C5C7B8A2DFDFDFBAA0DFDF01
:1056A000DFD8D8F1B8AAB38DB4980D355DB2B6BACB
:1056B000AF8C96198F9FA70E161EB49AB8AA872C86
:1056C000547CBAA4B08AB691325676B28494A4C8F7
:1056D00008CDD8B8B4B0F19982A82D557D98A80E00
:1056E000161EA22C547C92A4F02C5078F184A89819
:1056F000C4CDFCD80DDBA8FC2DF3D9BAA6F8DABAD4
:10570000A6DED8BAB2B68696A6D0F3C841DAA6C845
:10571000F8D8B0B4B882A892F52C548898F135D94D
:10572000F418D8F1A2D0F8F9A884D9C7DFF8F88323
:10573000C5DADF69DF83C1D8F40114F1A8824EA86D
:1057400084F311D182F5D992289788F109F41C1CB1
:10575000D884A8F3C0F9D1D99782F129F40DD8F3F0
:10576000F9F9D1D982F4C203D8DEDF1AD8F1A2FA4E
:10577000F9A88498D9C7DFF8F8F883C7DADF69DFBA
:10578000F883C3D8F40114F198A8822EA884F311E9
:10579000D182F5D992509788F109F41CD884A8F3E6
:1057A000C0F8F9D1D99782F149F40DD8F3F9F9D1BC
:1057B000D982F4C403D8DEDFD8F1AD8898CCA8092B
:1057C000F9D98292A8F57CF1883ACF944A6E98DB99
:1057D0006931DAADF2DEF9D88795A8F221D1DAA5E0
:1057E000F9F417D9F1AE8ED0C0C3AE82C684C3A877
:1057F0008595C8A588F2C0F1F4010EF18E9EA8C669
:105800003E56F554F18872F40115F19845856EF510
:105810008E9E0488F142985A8E9E068869F4011C77
:10582000F1981E1108D0F504F11E97020298362552
:10583000DBF9D985A5F3C1DA85A5F3DFD88595A86D
:10584000F309DAA5FAD88292A8F578F1881A849F2C
:1058500026889821DAF41DF3D8879F39D1AFD9DF94
:10586000DFFBF9F40CF3D8FAD0F8DAF9F9D0DFD984
:10587000F9D8F40BD8F3879F39D1AFD9DFDFF41D06
:10588000F3D8FAFCA869F9F9AFD0DADEFAD9F88FC3
:105890009FA8F1CCF398DB45D9AFDFD0F8D8F18FD2
:1058A0009FA8CAF38809DAAF8FCBF8D8F2AD978DED
:1058B0000CD9A5DFF9BAA6F3FAF412F2D8950DD1F6
:1058C000D9BAA6F3FADAA5F2C1BAA6F3DFD8F1BACB
:1058D000B2B68696A6D0CAF349DAA6CBF8D8B0B449
:1058E000B8D8AD84F2C0DFF18FCBC3A8B2B686962C
:1058F000C8C1CBC3F3B0B48898A821DB718D9D716A
:10590000859521D9ADF2FAD88597A828D9F408D879
:10591000F28D29DAF405D9F285A4C2F2D8A88D94C3
:1059200001D1D9F411F2D88721D8F40AD8F2849899
:10593000A8C801D1D9F411D8F3A4C8BBAFD0F2DE06
:10594000F8F8F8F8F8F8F8F8D8F1B8F6B5B9B08A78
:1059500095A3DE3CA3D9F8D85CA3D9F8D87CA3D909
:10596000F8D8F8F9D1A5D9DFDAFAD8B18530F7D966
:10597000DED8F830ADDADED8F2B48C99A32D557D9F
:10598000A083DFDFDFB591A0F629D9FBD8A0FC29E1
:10599000D9FAD8A0D051D9F8D8FC51D9F9D879D9A9
:1059A000FBD8A0D0FC79D9FAD8A1F9F9F9F9F9A076
:1059B000DADFDFDFD8A1F8F8F8F8F8ACDEF8ADDE12
:1059C0008393AC2C547CF1A8DFDFDFF69D2CDAA0AA
:1059D000DFD9FADB2DF8D8A850DAA0D0DED9D0F87C
:1059E000F8F8DB55F8D8A878DAA0D0DFD9D0FAF8E3
:1059F000F8F8F8DB7DF8D89CA88CF530DB38D9D0E6
:105A0000DEDFA0D0DEDFD8A848DB58D9DFD0DEA0AB
:105A1000DFD0DED8A868DB70D9DFDFA0DFDFD8F108
:105A2000A888902C547C98A8D05C38D1DAF2AE8C3F
:105A3000DFF9D8B087A8C1C1B188A8C6F9F9DA36AC
:105A4000D8A8F9DA36D8A8F9DA36D8A8F9DA36D8E3
:105A5000A8F9DA36D8F78D9DADF818DAF2AEDFD8AE
:105A6000F7ADFA30D9A4DEF9D8F2AEDEFAF983A7A1
:105A7000D9C3C5C7F1889BA77AADF7DEDFA4F88448
:105A80009408A797F300AEF29819A488C6A3948847
:105A9000F632DFF28393DB09D9F2AADFD8D8AEF869
:105AA000F9D1DAF3A4DEA7F1889B7AD8F38494AE17
:105AB00019F9DAAAF1DFD8A881C0C3C5C7A39283B8
:105AC000F628ADDED9F8D8A350ADD9F8D8A378AD73
:105AD000D9F8D8F8F9D1A1DADEC3C5C7D8A1819425
