:020000040800F2
:10000000E8B100205D020008015C0008C94D00084D
:100010006D5B0008E50B0008159800080000000063
:100020000000000000000000000000009D0100082A
:10003000570F000800000000F90100085D6100088A
:1000400077020008770200087702000877020008AC
:10005000770200087702000877020008770200089C
:10006000770200087702000877020008210D0008D7
:10007000310D0008750D0008850D00087702000895
:10008000950D000877020008770200087702000843
:10009000770200087702000877020008770200085C
:1000A000770200087702000877020008770200084C
:1000B0008D6200089D620008AD62000877020008AA
:1000C000770200087702000877020008770200082C
:1000D00077020008756C0008856C0008956C0008B4
:1000E000770200087702000877020008770200080C
:1000F00077020008770200087702000877020008FC
:100100007702000877020008BD6200087702000845
:10011000A1650008B1650008CD620008DD62000835
:1001200077020008D90D00081D0E000877020008AC
:1001300077020008770200087702000877020008BB
:10014000770200087702000877020008055C0008C3
:10015000770200082D0E00083D0E0008A56C00086F
:10016000770200087702000877020008770200088B
:1001700077020008770200087702000800000000FC
:100180007702000877020008DFF80CD000F0CAFB05
:10019000004800470DEE0008E8B100202C4B19681C
:1001A0000868B0E8F04F80F30988BFF36F8F4FF015
:1001B000000080F3118870470000000008480068C4
:1001C000006880F308884FF0000080F3148862B65E
:1001D00061B6BFF34F8FBFF36F8F00DF00BF00BF6B
:1001E00008ED00E0DFF80C00016841F470010160E7
:1001F000704700BF88ED00E0EFF30980BFF36F8F19
:10020000134B1A681EF0100F08BF20ED108A20E96A
:10021000F04F106009B44FF0500080F31188BFF325
:100220004F8FBFF36F8F10F05DFD4FF0000080F334
:10023000118809BC19680868B0E8F04F1EF0100F6B
:1002400008BFB0EC108A80F30988BFF36F8F704746
:100250005C070020EFF305807047000006488047E8
:1002600006480047FEE7FEE7FEE7FEE7FEE7FEE79B
:10027000FEE7FEE7FEE7FEE771620008890100087D
:100280002DE9F05F0546002092469B4688460646CB
:10029000814640241BE0284641464746224600F05E
:1002A000C5F953465A46C01A914110D31146184613
:1002B000224600F0ACF92D1A67EB01084F462246A2
:1002C0000120002100F0A3F917EB00094E41201E88
:1002D000A4F10104DFDC484631462A464346BDE826
:1002E000F09F40EA01039B0703D009E008C9121FF1
:1002F00008C0042AFAD203E011F8013B00F8013BE0
:10030000521EF9D27047D2B201E000F8012B491E0B
:10031000FBD270470022F6E710B513460A460446A2
:100320001946FFF7F0FF204610BD421E12F8013FAC
:10033000002BFBD111F8013B02F8013B002BF9D156
:100340007047421C10F8011B0029FBD1801A70472E
:10035000034611F8012B00F8012B002AF9D11846A9
:1003600070472DE9FE4F81EA030404F0004421F0B8
:10037000004100944FF0000B23F0004350EA0104C9
:100380005ED052EA03045BD0C3F30A54C1F30A55AA
:100390002C44A4F2F3340194A0FB0254C1F31301E2
:1003A00041F48011C3F3130343F4801301FB0244AF
:1003B00000FB034E840A970A44EA815447EA8357B4
:1003C000A4FB076802958D0A05FB07854FEA932C6D
:1003D00004FB0C542705029D4FEA065847EA1637DE
:1003E000B5EB08056EEB070C870E920E47EA8117F6
:1003F00042EA8312A7FB0201B6EB0B0164EB000497
:100400002B0D43EA0C335E1844EB1C50DA46514680
:10041000E7FB0201C5F313044FEA0B3343EA14531D
:100420004FEA0432019C43EA0603A4F10C0402944F
:10043000009CCDE900B400F04FF903B0BDE8F08FA7
:1004400000200146F9E72DE9F04D81EA030404F0AC
:10045000004B21F0004514464FF0000A23F0004104
:1004600050EA050220D054EA01021DD0C5F30A5714
:100470000246C5F31303C1F31300C1F30A5640F457
:10048000801543F48013A7EB0608101BD64608F22C
:10049000FD3873EB050002D308F1010801E0921862
:1004A0005B41B8F1000F03DA00200146BDE8F08D92
:1004B00000204FF48011064684460EE0171B73EBB4
:1004C000050705D3121B63EB050306434CEA010C39
:1004D00049084FEA300092185B4150EA0107EDD11C
:1004E00052EA030012D082EA040083EA05010843BD
:1004F00005D0101BAB4106D20122002306E00022EA
:100500004FF0004302E06FF0010253101AEB0600B7
:100510004CEB085110EB0A0041EB0B01BDE8F04D2C
:1005200000F0CBB80EB5C10F80EAE0700844CA07EE
:10053000002140F233438DE80E000A460B4600F0DE
:10054000CBF803B000BD70B5C1F30A5201F000450D
:100550000024C1F3130140F2FF3341F480119A42A9
:1005600001DA002070BD40F233439A42A2F23342D6
:1005700003DC524200F05AF800E090402C43F1D0E6
:10058000404270BD00F0004230F000400AD0C10D82
:1005900001F56071C0F3160042EA0151C20840073C
:1005A0001143704700200146704701F0004330B40A
:1005B00021F0004150EA010206D00A0DA2F5607256
:1005C000C1F31301002A02DC30BC00207047440F45
:1005D00044EAC104C100E01830BC00EBC25000F096
:1005E00035B830B50B46014600202022012409E031
:1005F00021FA02F59D4205D303FA02F5491B04FADC
:1006000002F52844151EA2F10102F1DC30BD202ABA
:1006100004DB203A00FA02F1002070479140C2F159
:10062000200320FA03F3194390407047202A04DB8B
:10063000203A21FA02F00021704721FA02F3D0405B
:10064000C2F1200291400843194670470029A8BF13
:100650007047401C490008BF20F00100704710B4EB
:10066000B0FA80FC00FA0CF050EA010404BF10BCA0
:10067000704749B1CCF1200421FA04F411FA0CF1CD
:1006800018BF012121430843A3EB0C01CB1D4FEA06
:1006900000614FEA102042BF002010BC704700EB01
:1006A000C35010440029A4BF10BC7047401C49002F
:1006B00008BF20F0010010BC704710B5141E73F184
:1006C000000408DA401C41F1000192185B411A4312
:1006D00001D120F0010010BD2DE9F04D92469B465E
:1006E00011B1B1FA81F202E0B0FA80F22032904604
:1006F000FFF78DFF04460F4640EA0A0041EA0B016E
:1007000053465A46084313D0114653EA010019D004
:10071000C8F140025046FFF789FF05460E46504695
:1007200059464246FFF773FF084305D0012004E015
:1007300020463946BDE8F08D0020054346EAE076C4
:100740002C4337430A986305E40AA0EB0800002213
:10075000FD0A44EA47540A3002D500200146E9E781
:10076000010510196941DDE9084500196941BDE835
:10077000F04DA2E72DE9FE4F804681EA0300C00F4D
:100780000C46009021F0004123F00045B8EB020038
:10079000A94105D24046214690461C460B460246DA
:1007A00023F00040104347D0270DC7F30A00C3F3DE
:1007B0000A510290401A019040286BDAC3F31300EB
:1007C00040F4801B0098924620B10023D2EB030A2C
:1007D00063EB0B0B01985946C0F140025046FFF7FE
:1007E00016FF06460D4650465946019A00F0ACF8F1
:1007F00010EB08006141002487EA115284EAE77394
:100800001A4340D0009A62B3019A012A4FEA075274
:1008100015DC001B61EB02014FF0004202EA0752B7
:10082000CDE90042001C41F5801132462B46FFF70E
:1008300053FF03B0BDE8F08F40462146F9E7001BA7
:1008400061EB0201001C41F5801300185B41201888
:10085000A2F5001747EB030140EAD570B6196D41C8
:1008600011E06D084FEA360645EAC0754FEA0752B7
:10087000001B61EB0201001C41F5801149084FEAA1
:1008800030000019514132462B4603B0BDE8F04F0D
:10089000FFF713BF0098012240000023D0EB0202B3
:1008A00063EBE073009821464FEAE074B8EB000078
:1008B00061EB0401E9E783F000435BE781F000416D
:1008C00058E7C1F30A52C1F3130140F2FF3341F478
:1008D00080119A4202DA00200146704740F2334309
:1008E0009A42A2F2334202DC5242FFF79FBEFFF768
:1008F0008EBE000030B5041E71F1000404DB4FF021
:100900000044404264EB0101141E73F1000405DB56
:100910001C464FF00043524263EB0403994208BF68
:10092000904230BD064C074D06E0E06840F0010300
:1009300094E8070098471034AC42F6D3FFF728FC40
:10094000EC1E01080C1F0108202A06DBCB17203AF9
:1009500041FA02F043EAE07306E041FA02F3D040C4
:10096000C2F1200291400843194670470EB540F28B
:10097000334102910021CDE900110A460B46FFF7F1
:10098000ABFE03B000BD70B58C1810F8015B15F01C
:10099000070301D110F8013B2A1106D110F8012BF1
:1009A00003E010F8016B01F8016B5B1EF9D12B0716
:1009B00005D40023521E0DD401F8013BFAE710F8CC
:1009C000013BCB1A921C03E013F8015B01F8015BB9
:1009D000521EF9D5A142D8D3002070BD70B505468E
:1009E000AC6B206C00F0500050BB206C40F40070E9
:1009F00020642068806800F04050E8B9207ED8B9B3
:100A00002068C06A00F4700020B12068806800F49B
:100A1000806088B92068406820F020002168486024
:100A2000206C20F480702064206C00F4805018B991
:100A3000206C40F001002064204600F06BFF0BE0CA
:100A4000206C00F0100018B1204600F065FF03E0B4
:100A5000A06BC16C2846884770BD70B50546AC6B6D
:100A600040202064606C40F004006064204600F088
:100A700053FF70BD70B50446A56B284600F04BFFD0
:100A800070BD000055494A6822F440324A604A6805
:100A900043681A434A600268526822F4807203680D
:100AA0005A6002685368026943EA022203685A6086
:100AB0000268526822F0407203685A600268526805
:100AC00083681A4303685A600268926822F40062DD
:100AD00003689A6002689268C3681A4303689A6060
:100AE0003F4B826A9A4218D00268926822F0706284
:100AF00003689A6002689268836A1A4303689A607E
:100B00000268926822F0405203689A600268926814
:100B1000C36A1A4303689A600BE00268926822F085
:100B2000706203689A600268926822F0405203681B
:100B30009A600268926822F0020203689A60026872
:100B40009368027E43EA420203689A602022125CA4
:100B5000A2B10268526842F4006203685A600268F7
:100B6000526822F4604203685A6002685368426A1D
:100B7000521E43EA423203685A6005E00268526836
:100B800022F4006203685A600268D26A22F470029A
:100B90000368DA620268D36A828B521E43EA025209
:100BA0000368DA620268926822F4007203689A604D
:100BB0000268936890F8302043EA422203689A6002
:100BC0000268926822F4806203689A6002689368FF
:100BD000426943EA822203689A6070470023014019
:100BE0000100000F00BFFEE70346042B15D007DC11
:100BF0007BB1012B0ED0022B0DD0032B12D10BE0B9
:100C0000202B0BD0212B0AD0222B09D0232B09D14A
:100C100007E008E007E006E005E004E003E002E0AA
:100C200001E000E000BF00BF0020704700207047D7
:100C300010B500220449054806F0D7FA04490348D4
:100C400006F0C4FA002010BDCC400020F035002092
:100C5000CC38002070B505460C46208882B21B496E
:100C6000284605F017FA1A480088B0F5006F06DC30
:100C700020881749098808441549088003E04FF483
:100C800000601349088013480078B0B91048008804
:100C900011490988884210DB0F4802880B490F4828
:100CA000006805F0DDF90A4800880B490988401AF8
:100CB000074908800120074908702946084806F0BE
:100CC00085FA074806F04EFA002070BDF02D00208E
:100CD000DC060020E0060020DE060020E4060020FE
:100CE000F035002010B503460C460021084610BD23
:100CF00010B502A008F0AAFD10BD000042000000DF
:100D000010B502A008F0A2FD10BD000043000000D5
:100D100010B502A008F09AFD10BD000044000000CC
:100D200010B5024800F06EFF10BD0000B02A002090
:100D300008B5002000900B48007870B169460A4859
:100D4000006810F019FA009838B14FF08050074948
:100D50000860BFF34F8FBFF36F8F054800F052FF5D
:100D600008BD0000300600204806002004ED00E029
:100D7000302C002010B5024800F044FF10BD0000E8
:100D8000502A002010B5024800F03CFF10BD0000C2
:100D9000902C002008B5002000900B48007870B11E
:100DA00069460A48006810F0E7F9009838B14FF03A
:100DB000805007490860BFF34F8FBFF36F8F05481E
:100DC00000F020FF08BD000030060020440600208F
:100DD00004ED00E0D02B002008B5002000900B4867
:100DE000007870B169460A48006810F0C5F90098AB
:100DF00038B14FF0805007490860BFF34F8FBFF301
:100E00006F8F054800F0FEFE08BD00003006002090
:100E10004C06002004ED00E0F02C002010B5024844
:100E200000F0F0FE10BD0000102B002010B50248AD
:100E300000F0E8FE10BD0000502D002010B5024863
:100E400000F0E0FE10BD0000702B00200146087885
:100E500010381823B0FBF3F20848805CC865032AF9
:100E600005D908686FF30900001D886503E008686C
:100E70006FF309008865886D70470000081D010840
:100E8000014600208A6A8B69CBB932B1012A0DD0A4
:100E9000022A03D0032A10D10EE000BFCB6A03F070
:100EA0008073B3F1807F00D1012007E0CB6AB3F1FA
:100EB000C07F00D1012001E000E000BF34E08B6979
:100EC000B3F5005F1AD132B1012A07D0022A03D04C
:100ED000032A11D10AE000BF01200EE0CB6A03F023
:100EE0008073B3F1807F00D1012006E0CB6AB3F1BB
:100EF000C07F00D1012000E000BF15E032B1012A1F
:100F000005D0022A04D0032A0CD103E000BF00BFA1
:100F1000012008E0CB6A03F08073B3F1807F00D139
:100F2000012000E000BF00BF704730B504682468AE
:100F300024F4802405682C60046863608468402C75
:100F400004D10468A2600468E16003E00468A16061
:100F50000468E26030BD70472DE9FF4F2DED060BB0
:100F60002DED108B87B0F0EE40FAF0EE428A2A9E0B
:100F70000FF0B0FE4FF4B970069000200590DDE947
:100F8000050106FB01060027B846B946BA46BB462E
:100F900040F628240025002004909FEDCC0AB0EEF6
:100FA000409A9FEDCA0AF0EE409A9FEDC80A8DED77
:100FB000030A9FEDC70A8DED020A9FEDC60A8DED6B
:100FC000010A9FEDC20AB0EE40FAC3480068B04281
:100FD0001BD0C14806609FEDBD0AC04880ED000AE5
:100FE000BDEEC00ABE4880ED000A9FEDB80ABB48BE
:100FF00080ED000ABB4880ED000A00231A4619461E
:10100000B94800680FF0E4FF12E01D9A002A01DBE6
:10101000134600E053421E98002801DB844601E09D
:10102000C0F1000C03EB0C0101EBD1735B100493D6
:101030000498351AAA4800682844A9490860084657
:10104000006841F27071884201DD084608E0A4485A
:101050000068A649884202DDA148006800E0A34874
:101060009F490860DDED020A00EE105AB8EEC00A92
:1010700020EE800A9E480068281A00EE900AF8EEDA
:10108000E00A0FEE200ADDED010A084690ED001A95
:10109000B8EEC11A00EE810ABDEEC00A10EE109A39
:1010A000A14501DD204605E06042814501DD48465D
:1010B00000E0604281468E48056010F0FBFCB5F50B
:1010C000FA7F1EDA15F5FA7F1BDD00231A46194652
:1010D00018460EF00BFE9FED7D0A824880ED000A57
:1010E00000207F49086000231A4619467E480068A0
:1010F0000FF06EFF012007B0BDEC108B0AB0BDE809
:10110000F08F9DED1A0AF0EE400AB0EE6F0A0AF079
:101110004FF9F3EE0E0AB4EEE00AF1EE10FA0ADD32
:10112000DDED1A1A9DED191ADDED180AB0EE6F0A01
:101130000AF0FCF9C7E09DED1A0AF0EE400AB0EEA5
:101140006F0A0AF035F9B0EE408A6648D0ED000A21
:10115000B0EE480A30EE800A80ED000A90ED000AF9
:10116000DFED640AB4EEE00AF1EE10FA02DD9FED65
:10117000610A0EE05B4890ED000ADFED5F0AB4EE15
:10118000E00AF1EE10FA02DD90ED000A01E09FEDB9
:101190005A0A544880ED000A504880ED008A28EE33
:1011A000090A5048D0ED000A00EEA90A4B48D0EDDC
:1011B000000A38EE601ADDED030A01EE200ABDEEEA
:1011C000C00A10EE108A234604EBD37C4FEA6C0C65
:1011D000C44505DA224602EBD27C4FEA6C0C0DE0E6
:1011E000614201EBD17C4FEA6C0CC44501DAC44684
:1011F00004E0604200EBD07C4FEA6C0CE046C8F1A2
:1012000000079FED3E0A38EE800A10EE101A0846DD
:10121000FFF7B8F941EC1E0B9FED390B53EC102B87
:10122000FFF79FF841EC1D0BB0EE4D0AF0EE6D0A92
:1012300008F0DEFBB0EE40BAF0EE60BA4846FFF7C9
:1012400071F941EC1C0B53EC1B2BFFF78AF841ECB6
:101250001A0BFFF778F982469FED280A38EEC00A8C
:1012600010EE101A0846FFF78DF941EC1E0B9FEDAA
:10127000240B53EC102BFFF774F841EC1D0BB0EE70
:101280004D0AF0EE6D0A08F0B3FBB0EE40BAF0EE96
:1012900060BA4846FFF746F941EC1C0B53EC1B2B98
:1012A000FFF75FF841EC1A0BFFF74DF98346AAEB05
:1012B0000703ABEB07020BEB07010AEB07000EF08D
:1012C00015FD002017E7002015E7000000000000D2
:1012D0008FC2F53C6F12033BB0000020A800002035
:1012E000B4000020A40000205406002090E8FFFF76
:1012F000AC00002000007A4500007AC500003442AE
:10130000449D52A246DF913F72B600BFFEE770B522
:1013100090B004466A4632210DA804F016FE0DA9CD
:10132000204600F00DF80DA804F0CBFD401E86B25B
:1013300031460DA804F0F3FD0546284610B070BDF7
:1013400070B504460D462188284604F07FFEA1783A
:10135000284604F05BFEE178284604F057FEE27868
:10136000211D284604F05AFE284604F0C4FD064616
:101370003146284604F04AFE70BD00002DE9F743CF
:101380002DED048B8EB0804614464FF0010913AB4F
:1013900001220A21404600F011F96946404600F05A
:1013A00071F8074617BB9DF804509DF84C00854224
:1013B00005D007200EB0BDEC048BBDE8FE839DF880
:1013C00005109DF8060041EA002006B23046FFF7FE
:1013D000A9F841EC190B9FED060B53EC102BFFF70E
:1013E00032F841EC180BFFF7E0F820603846E1E7EF
:1013F00000000000000024402DE9F7432DED048B90
:101400008EB0804614464FF0010913AB0122102123
:10141000404600F0D3F86946404600F033F80746EE
:101420004FBB9DF804509DF84C00854205D0072025
:101430000EB0BDEC048BBDE8FE839DF805109DF851
:10144000060041EA00219DF8070041EA00419DF8AD
:10145000080041EA00663046FFF764F841EC190BDA
:101460009FED060B53EC102BFEF7EDFF41EC180B34
:10147000FFF79BF820603846DAE700000000000024
:10148000000024402DE9F04105460C46002084F878
:10149000370000270026642004F02CFE87E0A868AF
:1014A00004F00FFD00B982E094F8370000F0080066
:1014B000C8B1A86804F0A4FD04F8360F607840F0C5
:1014C00010006070363C2046FFF721FF94F836107C
:1014D000884204D004F01EFE0620BDE8F08104F02E
:1014E00019FE0020F9E794F8370000F0040080B1FD
:1014F000A86804F085FD211DC855781CC7B2E078A6
:10150000B84253D194F8370040F0080084F837000F
:101510004CE094F8370000F0020088B1A86804F0AD
:101520006FFDE070E0782D2803DD04F0F3FD052069
:10153000D3E794F8370040F0040084F8370035E032
:1015400094F8370000F0010088B1A86804F058FD55
:10155000A070A078112803DD04F0DCFD0420BCE7B6
:1015600094F8370040F0020084F837001EE03EB9DE
:10157000A86804F045FD0646052E17D0002615E0A4
:10158000052E12D1A86804F03BFD46EA002641F67C
:101590000540864201D0002608E0268094F83700F6
:1015A00040F0010084F8370000E0002600BF04F09E
:1015B000C1FD00283FF473AF02208EE7F0B58FB075
:1015C00005460E4614461F4644F61240ADF8040088
:1015D0008DF806608DF80740002003E03A5C02A910
:1015E0000A54401CA042F9DB01A86968FFF7A8FE75
:1015F000284608F011F90FB0F0BD00002DE9F043C6
:101600002DED028B85B006460F46B0EE408A14469B
:101610001D46DDF838804FF0070903AA0721684608
:1016200004F093FC9FED230AB4EEC08AF1EE10FAA9
:1016300004DD9FED200AB0EE408A0AE09FED1E0A0D
:10164000B4EEC08AF1EE10FA03D29FED1B0AB0EEA1
:10165000408A3946684604F0D9FCB2EE040A28EE06
:10166000000ABDEEC00A10EE100A01B2684604F08E
:10167000E4FC2146684604F0E9FC2946684604F08B
:10168000E5FC0DF10D03072208213046FFF796FF18
:10169000B8F1000F0BD00022B0EE480A39463046B0
:1016A00000F00CF805B0BDEC028BBDE8F083002023
:1016B000F8E7000000003443000034C3F0B52DED1E
:1016C000028B81B006460F46B0EE408A14460025D4
:1016D00028E02CB16A4639463046FFF78DFE04E01B
:1016E0006A4639463046FFF749FE9DED000A38EE5E
:1016F000400AF0EEC08A9FED0C0AF4EEC08AF1EECB
:1017000010FA04D8002001B0BDEC028BF0BD681CBB
:1017100085B242F21070854201DB0120F3E76420BC
:1017200004F012FDD5E70000CDCC4C3F0EB505A26C
:1017300007CA8DE80700642309226946044803F0BC
:1017400086FA0EBD7E000801000201ABCD0000004C
:10175000102A002070B50A480468001D0568001DA5
:101760000668344454B108220649204603F08AFB37
:10177000042204491031284603F084FB70BD0000A8
:10178000107AFF1F3207002038B502460020009073
:1017900000BF92F83C00012801D1022038BD012091
:1017A00082F83C0000BF0868092816D91068C06894
:1017B0000C780A3C04EB44050724AC40A0431468B1
:1017C000E0600C780A3C04EB44048868A04014688C
:1017D000E46820431468E06013E0106800690C7846
:1017E00004EB44050724AC40A043146820610C7846
:1017F00004EB44048868A0401468246920431468FA
:1018000020614868072817D21068406B0C79641E65
:1018100004EB84051F24AC40A0431468606308886F
:1018200080B20C79641E04EB8404A0401468646BDD
:1018300020431468606331E048680D2817D21068AF
:10184000006B0C79E41F04EB84051F24AC40A0431B
:1018500014682063088880B20C79E41F04EB8404C8
:10186000A0401468246B20431468206316E01068BD
:10187000C06A0C790D3C04EB84051F24AC40A043E6
:101880001468E062088880B20C790D3C04EB840493
:10189000A0401468E46A20431468E062194B1A4CB3
:1018A0001068A04206D10868122803D1586840F495
:1018B00080005860144C1068A0421CD108681028A1
:1018C00002D00868112816D1586840F4000058600A
:1018D000086810280FD10D4800680D4CB0FBF4F0DB
:1018E00000EB80004000009002E00098401E009055
:1018F00000980028F9D100BF002082F83C0000BF0A
:1019000000BF4BE7002301400020014058070020A2
:1019100040420F00704770477047000070B50446A2
:1019200000250CB9012070BD1549A06A884200D07D
:1019300000BF206C30B9204600F024F8002060641D
:1019400084F83C00206C00F0100088B9206C20F472
:10195000885040F0020020642046FFF793F80020F2
:101960006064206C20F0020040F00100206400E080
:10197000012500BF002084F83C0000BF2846D2E7C4
:101980000100000F10B586B00446142101A8FEF72F
:10199000C1FC2C492068884251D100BF0020009032
:1019A0002948006840F480702749086008460068AC
:1019B00000F48070009000BF00BF00BF00200090C6
:1019C00021481438006840F002001F4914390860AB
:1019D0000846006800F00200009000BF00BF02202F
:1019E0000190032002900020039001A9174800F005
:1019F000FDFA174817490860002048600021154883
:101A00008160C16001614FF40061416189008161C1
:101A10004911C16100210162416200F013FA08B16D
:101A2000FFF772FC00BF0B48A063846300BF002275
:101A30001146122000F090FC122000F07DFC06B050
:101A400010BD000000200140443802400004024064
:101A5000106402409C080020F8B504460D46164666
:101A60000020009000BF94F83C00012801D1022022
:101A7000F8BD012084F83C0000BF2068806800F0B9
:101A80000100A0B92068806840F0010021688860EA
:101A9000494800684949B0FBF1F000EB4000009074
:101AA00002E00098401E009000980028F9D12068BC
:101AB000806800F0010000287CD0206C40F20161B9
:101AC000884340F4807020642068406800F480609F
:101AD00028B1206C20F4005040F480502064206C29
:101AE00000F48050B0F5805F04D1606C20F00600F7
:101AF000606401E00020606400BF002084F83C00C6
:101B000000BF2F4F2F48A16BC8632F48A16B0864FB
:101B10002E48A16BC8646FF022002168086020681D
:101B2000406840F08060216848602068806840F428
:101B3000807021688860226802F14C0133462A4691
:101B4000A06B00F0F5F9786800F01F0018BB204981
:101B50002068884213D01F492068884204D1381D6C
:101B6000006800F01F0050B11B492068884221D155
:101B70001348001D006800F01F0010281AD22068CA
:101B8000806800F0405028B92068806840F08040AC
:101B9000216888600EE00E49206888420AD12068DA
:101BA000806800F0405028B92068806840F080408C
:101BB0002168886000205BE75807002040420F0042
:101BC00000230140DD090008750A00085B0A0008CF
:101BD000002001400021014000220140014691F80F
:101BE0003500022803D08020486501207047052079
:101BF00081F835000868006820F001000A6810606C
:101C00000020F3E7F8B50446002000908C480068F7
:101C10004FF41651B0FBF1F7A56D2E6894F85C10E7
:101C200008208840304098B12068006800F0040027
:101C300070B12068006820F004002168086094F802
:101C40005C1008208840A860606D40F0010060656D
:101C500094F85C1001208840304068B120684069E9
:101C600000F0800040B194F85C1001208840A8602A
:101C7000606D40F00200606594F85C1004208840BC
:101C8000304068B12068006800F0020040B194F86C
:101C90005C1004208840A860606D40F0040060651E
:101CA00094F85C1010208840304078B320680068B9
:101CB00000F0080050B394F85C1010208840A86031
:101CC0002068006800F4802080B12068006800F47B
:101CD000002028B9206CC8B12046216C884715E047
:101CE000A06C98B12046A16C88470FE0206800687E
:101CF00000F4807028B92068006820F0080021688E
:101D00000860206C10B12046216C884794F85C1064
:101D1000202088403040002865D02068006800F00E
:101D2000100000285FD094F85C1020208840A86044
:101D300094F83500052828D12068006820F01600A6
:101D4000216808602068406920F0800021684861AF
:101D5000206C08B9A06C28B12068006820F0080049
:101D60002168086094F85C103F208840A86000BF9C
:101D7000002084F8340000BF012084F83500206D75
:101D800010B12046216D8847F8BD2068006800F436
:101D9000802080B12068006800F4002028B9606CC1
:101DA00010B12046616C88471DE0E06BD8B1204639
:101DB000E16B884717E02068006800F4807068B91C
:101DC0002068006820F010002168086000BF002033
:101DD00084F8340000BF012084F83500E06B10B1B6
:101DE0002046E16B8847606D38B3606D00F00100FC
:101DF000F0B1052084F835002068006820F001006B
:101E00002168086000BF0098401C0090B84200D9CB
:101E100005E02068006800F001000028F3D100BF51
:101E200000BF002084F8340000BF012084F8350092
:101E3000E06C10B12046E16C884700BFA4E70000C9
:101E4000580700202DE9F0410446002500F0D4F9A0
:101E5000074614B90120BDE8F081606A00B100BFF7
:101E600000BF002084F8340000BF022084F8350051
:101E70002068006820F00100216808600AE000F096
:101E8000BBF9C01B052805D920206065032084F814
:101E90003500E0E72068006800F001000028EED17E
:101EA0002068056821480540D4E901010843E1683C
:101EB00008432169084361690843A1690843E1694E
:101EC0000843216A08430543606A042803D1D4E922
:101ED0000B0108430543206805602068456925F02B
:101EE0000705606A0543606A04280DD1A06A0543AE
:101EF000E06A48B12046FEF7C3FF28B14020606584
:101F0000012084F83500A6E7206845612046FEF7E9
:101F10009DFF064694F85C103F208840B06000208A
:101F20006065012084F83500002094E73F8010F0C0
:101F30002DE9F04704460D4616461F464FF00008AF
:101F4000D4F8589000BF94F83400012802D1022040
:101F5000BDE8F087012084F8340000BF94F8350014
:101F6000012825D1022084F83500002060653B4619
:101F7000324629462046FEF7D8FF94F85C103F20F1
:101F80008840C9F808002068006840F01600216801
:101F90000860206C28B12068006840F008002168C3
:101FA00008602068006840F001002168086006E0D1
:101FB00000BF002084F8340000BF4FF00208404604
:101FC000C6E7000070B5044600F016F9064625463F
:101FD000681C10B104480078054400BF00F00CF9FB
:101FE000801BA842FAD370BD54070020F8B5024602
:101FF0000B460025002400200021DCE0012606FA23
:1020000001F51E6806EA0504AC4273D15E68012E34
:1020100008D05E68022E05D05E68112E02D05E6880
:10202000122E13D190684F000326BE40B0434F00DC
:10203000DE68BE4030439060506801268E40B04359
:102040001E79C6F300168E4030435060D0684F00B2
:102050000326BE40B0434F009E68BE403043D06070
:102060005E68022E02D05E68122E13D1CF0802F1F4
:10207000200656F827004E07F70E0F26BE40B04345
:102080004F07FF0E1E69BE403043CF0802F1200605
:1020900046F8270010684F000326BE40B0431E7963
:1020A00006F003064F00BE40304310605E6806F045
:1020B0008056B6F1805F7DD100BF00260096404E6D
:1020C000366846F480463E4F3E603E46366806F42B
:1020D0008046009600BF00BF3A4E8F0856F8270092
:1020E0008E07370F0F26BE40B043374EB24202D1A3
:1020F000002624E05EE0354EB24201D101261EE00A
:10210000334EB24201D1022619E0324EB24201D121
:10211000032614E0304EB24201D104260FE02F4EC8
:10212000B24201D105260AE02D4EB24201D1062667
:1021300005E02C4EB24201D1072600E008268F07A9
:102140003F0FBE4030431F4E8F0846F82700264EF3
:102150003068A0435E6806F48036B6F5803F00D153
:102160002043214E3060361D3068A0435E6806F47F
:102170000036B6F5003F00D120431B4E361D3060BF
:10218000361D3068A0435E6806F48016B6F5801FE1
:1021900000D12043144E08363060361D3068A0430D
:1021A0005E6806F40016B6F5001F00D120430E4EFF
:1021B0000C363060491C1029FFF420AFF8BD000038
:1021C0004438024008380140000002400004024048
:1021D00000080240000C02400010024000140240BF
:1021E00000180240001C0240003C01400AB181611D
:1021F00001E00B04836170470148006870470000EC
:102200004C07002003480068034909780844014945
:10221000086070474C0700205407002010B50D4897
:10222000006840F400700B4908600846006840F4FC
:10223000806008600846006840F4807008600320F1
:1022400000F0C8F8002000F007F800F04BF800207C
:1022500010BD0000003C024070B588B00446002567
:10226000002600222146372000F076F8372000F0C3
:1022700063F800BF002001901648006840F020007D
:10228000144908600846006800F02000019000BF73
:1022900000BF02A903A800F081FF00F0A7FF4500DE
:1022A0000D48B5FBF0F0461E0C480D49086040F2A1
:1022B000E7310B48C160466000210161816001F097
:1022C000E7FA20B9064801F07DFB08B070BD012097
:1022D000FBE700004038024040420F00001400407D
:1022E000B02D002008B500BF002000901148006804
:1022F00040F480400F4908600846006800F48040C0
:10230000009000BF00BF00BF00200090081F0068C1
:1023100040F08050091F08600846006800F08050B7
:10232000009000BF00BF00220F21901E00F014F8A3
:1023300008BD00004438024001460846002809DB79
:1023400000F01F0301229A4043099B0003F1E023A0
:10235000C3F8002100BF70472DE9F05F80460D46AD
:102360001646002707F028FB074639462A4633461B
:1023700001F00700C0F1070ABAF1040F02D94FF0CB
:10238000040A01E0C0F1070AD14600F1040ABAF1DB
:10239000070F02D24FF0000A01E0A0F1030AD44671
:1023A0004FF0010A0AFA09FAAAF1010A0AEA020A36
:1023B0000AFA0CFA4FF0010B0BFA0CFBABF1010B14
:1023C0000BEA030B4AEA0B042146404607F0FCFAED
:1023D000BDE8F09F00BF00F00702064B19684FF6FA
:1023E000FF031940044B0B4343EA0221014B1960E0
:1023F00000BF70470CED00E00000FA057047024690
:102400001068416200207047F0B503461546186811
:10241000446A21B944EA05401E68B06219E01868B0
:10242000806A04EB1044002208E0186800F582700E
:1024300050F8220004EB1044501CC2B2481E9042D7
:10244000F3D844EA0547186800F582704E1E40F83C
:1024500026700020F0BD10B50446D4F8040405F041
:10246000B0FB10BD70B504460D46C5EBC50304F1C5
:102470003C0101EB8301CA682946D4F8040405F045
:102480009BFA70BD70B504460D46C5EBC50304F557
:10249000FE7101EB8301CA682946D4F8040405F0F3
:1024A0000FFB70BD10B50446D4F8040405F08CFB96
:1024B00010BD70B504460E4606F0800080280AD193
:1024C00006F00F00C0EBC00104F13C0000EB8105F9
:1024D0000120687009E006F00F00C0EBC00104F5B0
:1024E000FE7000EB81050020687006F00F00287078
:1024F00000BF94F8BC03012801D1022070BD012067
:1025000084F8BC0300BF2946206806F029F900BF03
:10251000002084F8BC0300BF00BFEFE770B504469D
:102520000E4606F00F006168884201D9012070BD97
:1025300006F0800080280AD106F00F00C0EBC00131
:1025400004F13C0000EB81050120687009E006F011
:102550000F00C0EBC00104F5FE7000EB8105002008
:1025600068700020A87006F00F00287000BF94F873
:10257000BC03012801D10220D9E7012084F8BC0363
:1025800000BF2946206806F0D1FB00BF002084F878
:10259000BC0300BF00BFCAE7024601F00F00C0EB5A
:1025A000C00302F5FE7000EB8300806970472DE9DF
:1025B000F04705460E4690461F464FF0000906F0CC
:1025C000800080280AD106F00F00C0EBC00105F1A1
:1025D0003C0000EB81040120607009E006F00F0070
:1025E000C0EBC00105F5FE7000EB810400206070B7
:1025F00006F00F002070C4F80880E770607808B11A
:102600002078E080022F01D10020207100BF95F8D2
:10261000BC03012802D10220BDE8F087012085F823
:10262000BC0300BF2146286805F0B6FF00BF0020AC
:1026300085F8BC0300BF4846EEE72DE9F0410446AB
:102640000E461746984606F00F00C0EBC00104F591
:10265000FE7000EB8105EF60C5F814800020A861D2
:10266000687006F00F0028702069012800D12F61E2
:1026700006F00F0028B9227C2946206806F032FABD
:1026800004E0227C2946206806F0E4FB0020BDE837
:10269000F08170B504460D4605F00F006168884270
:1026A00001D9012070BD05F0800080280AD105F015
:1026B0000F00C0EBC00104F13C0000EB81060120DB
:1026C000707007E0C5EBC50104F5FE7000EB8106F4
:1026D000002070700120B07005F00F00307000BF56
:1026E00094F8BC03012801D10220DBE7012084F823
:1026F000BC0300BF3146206806F05FFB05F00F0009
:1027000028B9217C04F57172206806F0D7FA00BF61
:10271000002084F8BC0300BF00BFC3E72DE9F041EF
:1027200004460E461746984606F00F00C0EBC0015F
:1027300004F13C0000EB8105EF60C5F81480002037
:10274000A8610120687006F00F0028702069012838
:1027500000D12F6106F00F0028B9227C294620689D
:1027600006F0C0F904E0227C2946206806F072FBDE
:102770000020BDE8F0812DE9FE4F0446206802905C
:10278000029D206806F051FD00287DD1206806F0EA
:102790008BFD08B9BDE8FE8F206806F085FD00F0CE
:1027A0000200022805D12068406900F0020021687B
:1027B0004861206806F078FD00F01000102846D12E
:1027C0002068806920F01000216888610298D0F8A4
:1027D000209009F00F00C0EBC00104F5FE7000EB83
:1027E000810BC9F3434002281AD147F6F07009EA79
:1027F000000030B3C9F30A12DBF80C10029806F09F
:1028000058FDC9F30A11DBF80C000844CBF80C00A2
:10281000C9F30A11DBF818000844CBF8180010E0DF
:10282000C9F3434006280CD1082204F571710298BF
:1028300006F03FFDC9F30A11DBF818000844CBF895
:1028400018002068806940F01000216888612068C5
:1028500006F02AFD00F40020B0F5002F52D100262A
:10286000206806F0F1FC824649E00AF00100E8B376
:10287000F1B2206806F00BFD804608F0010058B167
:10288000012105F5306000E021E200EB4610816097
:102890003146204603F0F0F908F00800082809D175
:1028A000082105F5306000EB461081603146204676
:1028B00003F0B0F908F01000102805D1102105F53B
:1028C000306000EB4610816008F02000202805D120
:1028D000202105F5306000EB4610816008F40050BF
:1028E000B0F5005F08D14FF4005100E004E005F5B9
:1028F000306000EB46108160761C4FEA5A0ABAF14C
:10290000000FB2D1206806F0CFFC00F48020B0F5B3
:10291000802F7ED1206806F08DFC8246002683E061
:102920000AF0010000287CD0F1B2206806F096FC85
:10293000804608F00100F0B306F00F010120884046
:10294000019040F634004159019821EA000040F618
:1029500034014851012105F5106000EB46108160FB
:102960002069012824D1C6EBC60104F13C0000EB2C
:102970008100C6EBC602C16804F13C0000EB820096
:1029800080680144C6EBC60204F13C0000EB820003
:10299000C1606EB9C6EBC60104F13C0000EB8100DA
:1029A000406928B904F571720121206806F086F9A2
:1029B000F1B2204600E001E0FFF754FD08F0080006
:1029C000082805D1082105F5106000EB461081604C
:1029D00008F01000102805D1102105F5106000EB5B
:1029E0004610816008F04000402805D1402105F5DF
:1029F000106000EB4610816008F00200022805D14B
:102A0000022105F5106000EB4610816008F080009F
:102A100001E00DE005E0802803D13146204603F0B7
:102A2000E9F9761C4FEA5A0ABAF1000F7FF478AF41
:102A3000206806F039FC00F00040B0F1004F1CD1D6
:102A400040F60400405920F0010140F604004151D5
:102A500094F8F403012807D1002084F8F40300213E
:102A60002046FFF7CBFC02E0204600F063FA206826
:102A7000406900F0004021684861206806F014FCBD
:102A800000F40060B0F5006F0ED140F60800405928
:102A900000F0010010B1204600F0A4FA206840695F
:102AA00000F4006021684861206806F0FDFB00F436
:102AB0008050B0F5805F7DD140F60400405920F091
:102AC000010140F6040041511021206806F082FB0C
:102AD00000273EE04FF67F3105F5106000EB471010
:102AE000816005F5106000EB4710006820F40011CC
:102AF00005F5106000EB4710016005F5106000EB74
:102B00004710006840F0006105F5106000EB4710C9
:102B100001604FF67F3105F5306000EB47108160B2
:102B200005F5306000EB4710006820F4001105F552
:102B3000306000EB4710016005F5306000EB471096
:102B4000006840F0006105F5306000EB471001605F
:102B50007F1C6068B842BDD840F61C00405940F068
:102B6000011140F61C004151206B70B1D5F884086A
:102B700040F00B01C5F8841840F64400405940F07D
:102B80000B0140F6440041510FE040F6140040595B
:102B900042F22B01084340F614014851081F4059E6
:102BA00040F00B014FF401604151D5F8000820F4CA
:102BB000FE6000E00DE0C5F80008217C04F57172AC
:102BC000206806F07BF82068406900F48050216896
:102BD0004861206806F068FB00F40050B0F5005F23
:102BE00017D1206805F040FD206806F00BFBE0607F
:102BF00000F0F6FA0090227B2068009906F0A4FB12
:102C0000204600F07FF92068406900F400502168F8
:102C10004861206806F048FB00F00800082808D149
:102C2000204600F08EF92068406900F00800216815
:102C30004861206806F038FB00F48010B0F5801F72
:102C40000AD100263146204600F043F8206840694A
:102C500000F4801021684861206806F025FB00F42C
:102C60000010B0F5001F0AD100263146204600F0C2
:102C700039F82068406900F4001021684861206834
:102C800006F012FB00F08040B0F1804F08D12046E2
:102C9000FFF7E1FB2068406900F08040216848614F
:102CA000206806F001FB00F0040004280FD1206822
:102CB000D0F8049009F00400042802D12046FFF760
:102CC000F1FB2068406840EA09002168486000BFC5
:102CD00060E570B504460D462946D4F8040404F0B6
:102CE000DFFF70BD70B504460D462946D4F80404D4
:102CF00004F0FAFF70BD70B58AB0044614B9012023
:102D00000AB070BD266894F8BD0328B9002084F885
:102D1000BC03204600F0A2F8032084F8BD03F06B4A
:102D200000F4807008B900212161206805F0D2FE0E
:102D3000282204F110016846FDF7D3FA94E80F0049
:102D400005F0A6FC20B1022084F8BD030120D7E7DE
:102D50000021206806F0BEFA002531E00121C5EB14
:102D6000C50204F13C0000EB82004170C5EBC501D7
:102D700004F13C0000F82150C5EBC50100EB8100D7
:102D8000C5800021C5EBC50204F13C0000EB8200C8
:102D9000C170C5EBC50204F13C0000EB820081600C
:102DA000C5EBC50204F13C0000EB8200C160C5EB3D
:102DB000C50204F13C0000EB82004161681CC5B211
:102DC0006068A842CAD800252AE00021C5EBC502E8
:102DD00004F5FE7000EB82004170C5EBC50104F5FF
:102DE000FE7000F821500021C5EBC50200EB820007
:102DF000C170C5EBC50204F5FE7000EB8200816076
:102E0000C5EBC50204F5FE7000EB8200C160C5EBA6
:102E1000C50204F5FE7000EB82004161681CC5B27A
:102E20006068A842D1D8282204F110016846FDF755
:102E300058FA94E80F0005F05DFD20B1022084F8F7
:102E4000BD0301205CE7002084F83800012084F8ED
:102E5000BD03206805F03CFD002051E710B586B0A9
:102E60000446142101A8FDF755FA2068B0F1A04FDF
:102E700042D100BF002000902048006840F00100CF
:102E80001E4908600846006800F00100009000BF7D
:102E900000BF4FF4C0500190022002900020039028
:102EA000032004900A20059001A91548FFF79EF819
:102EB00000BF1248001D006840F080000F49091D46
:102EC000086000BF002000900C481430006840F4F7
:102ED00080400A49143108600846006800F48040C8
:102EE000009000BF00BF00BF002204214320FFF775
:102EF00033FA4320FFF720FA06B010BD3038024005
:102F00000000024070B504460125E06808B90025BC
:102F100006E0E068022801D1012501E0FEF7F4F99E
:102F20002946D4F8040404F088FFD4F8040404F01B
:102F30002FFF70BD10B50446D4F8040404F05EFF02
:102F400010BD10B50446D4F8040404F062FF10BDAF
:102F500070B504460D4600BF94F8BC03012801D1AA
:102F6000022070BD012084F8BC0300BF84F83850F3
:102F70002946206806F0C9F900BF002084F8BC0388
:102F800000BF00BFEDE710B5044604F57171D4F839
:102F9000040404F069FF10BD70B50446256800BF45
:102FA00094F8BC03012801D1022070BD012084F8EF
:102FB000BC0300BFA06A012806D1A069012803D084
:102FC000A86B40F48030A863206806F0E5F820681C
:102FD00005F06CFC00BF002084F8BC0300BF00BFFC
:102FE000E3E7000010B50446D4F8040404F099FFA8
:102FF0002068D0F8000E40F001002168C1F8000EF2
:10300000206A28B10348006840F0060001490860C2
:1030100010BD000010ED00E070B504460D460CB97F
:10302000012070BD5848006800F00F00A84209D286
:1030300055490D700846006800F00F00A84201D005
:103040000120EEE7207800F0020002281DD1207850
:1030500000F00400042805D14C48006840F4E0501A
:103060004A490860207800F00800082805D1474840
:10307000006840F46040454908604448006820F01A
:10308000F000A168084341490860207800F0010081
:10309000A8B36068012807D13C4808380068C0F32D
:1030A0004040B8B90120BCE76068022802D06068DF
:1030B000032807D1354808380068C0F3406048B994
:1030C0000120AEE7314808380068C0F3400008B975
:1030D0000120A6E72D48006820F00300616808433E
:1030E0002A490860FFF788F8064609E0FFF784F8E8
:1030F000801B41F28831884202D9032091E707E022
:103100002248006800F00C006168B0EB810FEDD13F
:103110001D48006800F00F00A84209D91A490D7037
:103120000846006800F00F00A84201D0012078E7AF
:10313000207800F00400042807D11448006820F427
:10314000E050E168084311490860207800F0080069
:10315000082808D10D48006820F46040216940EA41
:10316000C1000A49086000F061F808490968C1F324
:103170000311074A515CC8400649086006480068C8
:10318000FFF76AF800204CE7003C02400838024094
:10319000101D010858070020500700200F22026070
:1031A0000D4A126802F0030242600B4A126802F0F4
:1031B000F0028260084A126802F4E052C260064AD5
:1031C000126802F46042D2080261044A126802F0F6
:1031D0000F020A607047000008380240003C0240BD
:1031E00001480068704700005807002000B5FFF74D
:1031F000F7FF04490968C1F38221034A515CC840C2
:1032000000BD000008380240201D010800B5FFF78E
:10321000E7FF04490968C1F34231034A515CC840E1
:1032200000BD000008380240201D01082DE9F047CC
:10323000002400250026A1462548006800F00C0067
:1032400020B1042805D008283AD105E0DFF88490A1
:1032500039E0DFF8849036E01D48001F006800F078
:103260003F041B48001F006800F4800078B11A4832
:103270001749091F0968C1F38811A0FB01700146B5
:10328000224600233846FCF7FBFF05460EE01148B6
:103290000F49091F0968C1F38811A0FB017001469D
:1032A000224600233846FCF7EBFF05460848001F7E
:1032B0000068C0F30140401C4600B5FBF6F902E08F
:1032C000DFF8109000BF00BF4846BDE8F08700005F
:1032D000083802400024F40000127A00F8B50446D1
:1032E0000CB90120F8BD207800F00100002874D04E
:1032F000F948006800F00C0004280DD0F64800687A
:1033000000F00C00082813D1F348001F006800F4F7
:103310008000B0F5800F0BD1EF4808380068C0F38B
:103320004040002859D06068002856D10120D9E7D4
:1033300000BF6068B0F5803F08D1E74808380068F2
:1033400040F48030E449083908601EE06068B0F558
:10335000A02F0DD1E0480838006840F48020DE49F5
:10336000083908600846006840F4803008600CE0C6
:10337000D9480838006820F48030D74908390860F7
:103380000846006820F48020086000BF606890B1A3
:10339000FEF732FF054606E0FEF72EFF401B6428CD
:1033A00001D903209EE7CC4808380068C0F34040AC
:1033B0000028F1D011E0FEF71FFF054606E0FEF7FA
:1033C0001BFF401B642801D903208BE7C248083843
:1033D0000068C0F340400028F1D1207800F00200DE
:1033E00002285FD1BC48006800F00C0058B1BA4810
:1033F000006800F00C0008281CD1B748001F0068C6
:1034000000F48000B0B9B44808380068C0F3400048
:1034100020B1E068012801D0012063E7AE480838F8
:10342000006820F0F800216940EAC100AA49083983
:10343000086037E0E06800B30120A8490860FEF7A3
:10344000DBFE054606E0FEF7D7FE401B022801D949
:10345000032047E7A04808380068C0F34000002870
:10346000F1D09D480838006820F0F800216940EA52
:10347000C10099490839086014E0002097490860A4
:10348000FEF7BAFE054606E0FEF7B6FE401B022830
:1034900001D9032026E7904808380068C0F34000AF
:1034A0000028F1D1207800F0080008282CD16069AC
:1034B000A8B101208A490860FEF79EFE054606E095
:1034C000FEF79AFE401B022801D903200AE7824832
:1034D0006C300068C0F340000028F1D014E00020F8
:1034E0007F490860FEF788FE054606E0FEF784FE89
:1034F000401B022801D90320F4E677486C300068AD
:10350000C0F340000028F1D1207800F00400042826
:1035100070D1002770483830006800F0805090B9B2
:1035200000BF002000906C483830006840F08050A8
:103530006949383108600846006800F08050009002
:1035400000BF00BF01276748006800F48070B0B971
:103550006448006840F4807062490860FEF74CFEE1
:10356000054606E0FEF748FE401B022801D903206D
:10357000B8E65C48006800F480700028F2D000BF14
:10358000A068012808D154486830006840F0010064
:103590005149683108601DE0A06805280DD14E48EA
:1035A0006830006840F004004B4968310860084604
:1035B000006840F0010008600CE04748683000688F
:1035C00020F001004449683108600846006820F096
:1035D0000400086000BFA068A8B1FEF70DFE054614
:1035E00009E0FEF709FE401B41F28831884202D90A
:1035F000032077E626E0384868300068C0F34000D2
:103600000028EED013E0FEF7F7FD054608E0FEF7D0
:10361000F3FD401B41F28831884201D9032061E665
:103620002D4868300068C0F340000028EFD1012F1A
:1036300007D129483830006820F0805026493831B9
:10364000086000BFA069002845D02348006800F04A
:103650000C0008285DD0A069022845D100201F4930
:103660000866FEF7C9FD054606E0FEF7C5FD401BEE
:10367000022801D9032035E6174808380068C0F34E
:1036800040600028F1D1D4E907010843616A40EAAB
:1036900081110122A06AC2EB500041EA00412C20B6
:1036A000005D41EA00600C49091F086001200B49D8
:1036B0000866FEF7A1FD054606E0FEF79DFD401BEE
:1036C000022801D903200DE6034808380068C0F33A
:1036D00040600028F1D03FE0083802400000474237
:1036E000800E47420070004000201C490866FEF72B
:1036F00083FD054606E0FEF77FFD401B022801D949
:103700000320EFE516480068C0F340600028F2D1BE
:1037100022E0A069012800D1E4E51148001D0668F7
:1037200006F48001E069814214D106F03F01206A6D
:1037300081420FD147F6C0703040616A884209D19A
:1037400006F44031A06A814204D106F07061E06A5B
:10375000814201D00120C5E50020C3E500004742B9
:10376000003802407047704710B50346002200BF82
:1037700093F83C00012801D1022010BD012083F8FC
:103780003C0000BF22F0FF00CC6840EA040222F4B3
:1037900040708C6840EA040222F480604C6840EA81
:1037A000040222F400600C6840EA040222F4805013
:1037B0000C6940EA040222F400504C6940EA040219
:1037C00022F48040CC6940EA04021868426400BFD9
:1037D000002083F83C0000BF00BFCEE730B50246B2
:1037E0000B4600BF92F83C00012801D1022030BDF9
:1037F000012082F83C0000BF022082F83D001068E2
:1038000044681068816824F07004186804431068E4
:103810004460184D1068A8421BD01068B0F1804F6A
:1038200017D0154D1068A84213D0144D1068A84247
:103830000FD0134D1068A8420BD0124D1068A8424B
:1038400007D0114D1068A84203D0104D1068A8424F
:1038500005D121F080015868014310688160012082
:1038600082F83D0000BF002082F83C0000BF00BF8E
:10387000BDE70000000001400004004000080040D7
:10388000000C0040000401400040014000180040CE
:1038900010B504460CB9012010BD94F83D0028B9BC
:1038A000002084F83C00204600F00CF8022084F848
:1038B0003D00211D206802F019FD012084F83D0023
:1038C0000020E9E738B5044638492068884218D115
:1038D00000BF002000903648006840F010003449D6
:1038E00008600846006800F01000009000BF00BFAC
:1038F000002205213620FEF72FFD3620FEF71CFDA5
:1039000053E02C492068884211D100BF002000906C
:103910002748001D006840F400302549091D086053
:103920000846006800F40030009000BF3DE02249E6
:103930002068884211D100BF002000901C48001D63
:10394000006840F480201A49091D08600846006894
:1039500000F48020009000BF27E0184920688842CA
:103960000FD100BF002000901148006840F0800097
:103970000F4908600846006800F08000009000BF12
:1039800013E00F49206888420FD100BF002000904B
:103990000748006840F480700549086008460068E0
:1039A00000F48070009000BF00BF38BD00100040E0
:1039B000403802400044014000480140001C0040E3
:1039C0000020004001460868C06840F001000B6814
:1039D000D8600868806800F00702062A05D00868E9
:1039E000006840F001000B681860002070472DE966
:1039F000F04104460D4614B90120BDE8F08194F869
:103A00003D0028B9002084F83C00204600F046F82C
:103A1000022084F83D002068806844F20701884352
:103A200021688860211D206802F060FC2068D0F8C1
:103A30000880206886692068076A286840EA0808C4
:103A400040F203308643A969A86840EA0120064392
:103A500040F60C4086434FF2F0008643E969E8687F
:103A600040EA0120064328690001296A40EA013042
:103A7000064327F0220727F088076969686840EA4B
:103A8000011007432068C0F808802068866120681C
:103A90000762012084F83D000020AEE710B586B033
:103AA0000446142101A8FCF735FC2068B0F1804FD2
:103AB00053D100BF002000908248006840F0010010
:103AC000804908600846006800F00100009000BFCF
:103AD00000BF00BF002000907A481038006840F016
:103AE00001007849103908600846006800F00100BC
:103AF000009000BF00BF00BF002000900846006893
:103B000040F0020008600846006800F002000090E3
:103B100000BF00BF202001900220029000200390EF
:103B200004900120059001A96748FEF75FFA08207C
:103B30000190022002900020039004900120059043
:103B400001A96248FEF752FA002205211C20FEF767
:103B500003FC1C20FEF7F0FBB2E05D4920688842C0
:103B600037D100BF002000905648006840F00200A6
:103B7000544908600846006800F00200009000BF49
:103B800000BF00BF002000904E481038006840F091
:103B900002004C49103908600846006800F0020035
:103BA000009000BF00BF3020019002200290002052
:103BB000039004900220059001A94448FEF716FAEC
:103BC000002205211D20FEF7C7FB1D20FEF7B4FBD8
:103BD00076E040492068884237D100BF002000903D
:103BE0003848006840F0040036490860084600681C
:103BF00000F00400009000BF00BF00BF0020009054
:103C000030481038006840F002002E491039086032
:103C10000846006800F00200009000BF00BFC0200E
:103C20000190022002900020039004900220059051
:103C300001A92648FEF7DAF9002205211E20FEF729
:103C40008BFB1E20FEF778FB3AE023492068884270
:103C500036D100BF002000901A48006840F00800EC
:103C6000184908600846006800F00800009000BF8E
:103C700000BF00BF0020009012481038006840F0DC
:103C800001001049103908600846006800F0010082
:103C9000009000BF00BF032001900220029000208E
:103CA000039004900220059001A90748FEF79EF9B1
:103CB000002205213220FEF74FFB3220FEF73CFBAD
:103CC00006B010BD4038024000000240000402402F
:103CD0000004004000080040000C004030B50446DD
:103CE0000D4615B1042D0CD105E0012200212068FC
:103CF00002F068FB10E001220421206802F062FB60
:103D00000AE001220021206802F05CFB012204216C
:103D1000206802F057FB00BF00BF2068006840F039
:103D2000010021680860002030BD704710B50446CE
:103D300020680069C0F34000D8B12068C068C0F3B3
:103D40004000B0B16FF002002168086101202077C7
:103D50002068806900F0030018B12046FFF7E5FFF6
:103D600005E0204600F0BCF9204600F0A1FA002052
:103D7000207720680069C0F38000D8B12068C0684F
:103D8000C0F38000B0B16FF0040021680861022028
:103D900020772068806900F4407018B12046FFF752
:103DA000C4FF05E0204600F09BF9204600F080FAB1
:103DB0000020207720680069C0F3C000D8B12068D7
:103DC000C068C0F3C000B0B16FF00800216808619E
:103DD000042020772068C06900F0030018B1204655
:103DE000FFF7A3FF05E0204600F07AF9204600F037
:103DF0005FFA0020207720680069C0F30010D8B176
:103E00002068C068C0F30010B0B16FF010002168E6
:103E10000861082020772068C06900F4407018B15C
:103E20002046FFF782FF05E0204600F059F92046C2
:103E300000F03EFA002020772068006900F00100C1
:103E400058B12068C06800F0010030B16FF0010087
:103E500021680861204600F059FA20680069C0F323
:103E6000C01058B12068C068C0F3C01030B16FF006
:103E70008000216808612046FFF774FC2068006913
:103E8000C0F3801058B12068C068C0F3801030B112
:103E90006FF0400021680861204600F057FA206862
:103EA0000069C0F3401058B12068C068C0F34010EA
:103EB00030B16FF02000216808612046FFF753FC05
:103EC00010BD000010B586B00446142101A8FCF70F
:103ED00021FA7849206888421ED100BF0020009056
:103EE0007548006840F01000734908600846006893
:103EF00000F01000009000BF00BF4FF4D4400190CC
:103F0000022002900020039004900120059001A956
:103F10006A48FEF76BF8CBE06949206888421DD1FA
:103F200000BF002000906448006840F01000624923
:103F300008600846006800F01000009000BF00BF55
:103F40006020019002200290002003900490032042
:103F5000059001A95948FEF749F8A9E05949206898
:103F600088421DD100BF002000905348006840F0F7
:103F70000200514908600846006800F00200009005
:103F800000BF00BF8815019002200290002003901E
:103F900004900320059001A94B48FEF727F887E01D
:103FA0004A49206888421DD100BF00200090424845
:103FB000006840F00200404908600846006800F0D0
:103FC0000200009000BF00BF48150190022002903F
:103FD0000020039004900320059001A93A48FEF7C1
:103FE00005F865E03A49206888421ED100BF0020EC
:103FF00000903148006840F002002F4908600846F0
:10400000006800F00200009000BF00BF4FF4404085
:104010000190022002900020039004900920059056
:1040200001A92948FDF7E2FF42E02A4920688842B9
:104030001DD100BF002000901F48006840F0010023
:104040001D4908600846006800F00100009000BFAC
:1040500000BF4020019002200290002003900490B5
:104060000920059001A91C48FDF7C0FF20E01B496D
:10407000206888421CD100BF002000900E480068D4
:1040800040F001000C4908600846006800F001009B
:10409000009000BF00BF802001900220029000200D
:1040A000039004900920059001A90B48FDF79EFF9D
:1040B00006B010BD00000140303802400010024040
:1040C000004001400044014000040240004801401B
:1040D00000180040001C004000000240002000408A
:1040E000704770B504460D46164600BF94F83C0074
:1040F000012801D1022070BD012084F83C0000BFDE
:10410000022084F83D0036B1042E1BD0082E31D099
:104110000C2E5ED145E02946206802F065F9206842
:10412000806940F00800216888612068806920F07B
:104130000400216888612068806929690843216832
:10414000886147E02946206802F086F92068806986
:1041500040F40060216888612068806920F48060F4
:104160002168886120688069296940EA0120216806
:1041700088612FE02946206802F0ACF92068C06908
:1041800040F008002168C8612068C06920F0040080
:104190002168C8612068C069296908432168C8612D
:1041A00018E02946206802F0D1F92068C06940F47F
:1041B00000602168C8612068C06920F480602168BF
:1041C000C8612068C069296940EA01202168C86186
:1041D00000E000BF00BF012084F83D0000BF0020C8
:1041E00084F83C0000BF00BF85E710B504460CB959
:1041F000012010BD94F83D0028B9002084F83C004F
:10420000204600F00DF8022084F83D00211D2068B2
:1042100002F06CF8012084F83D000020E9E700007E
:1042200008B51F4A016891420FD100BF00210091DB
:104230001C49096841F001011A4A116011460968D8
:1042400001F00101009100BF29E0174A0168914285
:104250000FD100BF002100911249096841F480315B
:10426000104A11601146096801F48031009100BFC5
:1042700015E00E4A0168914211D100BF0021009162
:104280000849091F096841F04001064A121F1160E0
:104290001146096801F04001009100BF00BF08BD50
:1042A0000000014044380240004001400018004036
:1042B0007047000070B504460E4601223146206862
:1042C00002F080F80F492068884203D00E49206828
:1042D000884201D1012000E0002028B12068406C14
:1042E00040F40040216848642068806800F00705B9
:1042F000062D05D02068006840F0010021680860A4
:10430000002070BD000001400004014010B50446CB
:104310000B492068884201D1FDF774FF09492068E4
:1043200088420BD10848006828B107480068401E41
:104330000549086002E000200349086010BD000044
:10434000001400400010004000000020704770473B
:104350002DE9F0470446206805682068C668206893
:1043600047694FF00008C14605F00F08B8F1000F8B
:104370000AD105F0200038B106F0200020B1204617
:1043800002F0C6F9BDE8F087B8F1000F72D007F06F
:10439000010018B906F4907000286BD005F00100F8
:1043A00030B106F4807018B1E06B40F00100E063BA
:1043B00005F0040030B107F0010018B1E06B40F0E7
:1043C0000200E06305F0020030B107F0010018B10F
:1043D000E06B40F00400E06305F0080048B106F02F
:1043E000200010B907F0010018B1E06B40F00800A0
:1043F000E063E06B70B305F0200028B106F0200008
:1044000010B1204602F084F920684069C0F3801999
:10441000E06B00F0080010B9B9F1000F23D020467E
:1044200002F04CF92068406900F04000402816D1A5
:104430002068406920F0400021684861606B50B1FD
:104440001748616B0865606BFDF7C8FB10B1606BC6
:10445000016D88470CE02046FFF779FF08E0204611
:10446000FFF775FF04E02046FFF771FF0020E063CF
:1044700088E7FFE705F0800030B106F0800018B152
:10448000204602F08DFB7DE705F0400030B106F0DC
:10449000400018B1204602F021F973E700BF71E730
:1044A000C165000810B504460CB9012010BDA06913
:1044B00000B100E000BF94F8390028B9002084F86A
:1044C0003800204600F028F8242084F839002068BD
:1044D000C06820F400502168C860204602F06CF9E2
:1044E0002068006920F490402168086120684069D4
:1044F00020F02A00216848612068C06840F400501C
:104500002168C8600020E063202084F8390084F826
:104510003A000020CAE7000010B586B00446142116
:1045200001A8FBF7F7FEFE492068884255D100BF7D
:1045300000200090FB48006840F40020F949086022
:104540000846006800F40020009000BF00BF00BFD4
:1045500000200090F3481038006840F00400F14952
:10456000103908600846006800F00400009000BFA1
:1045700000BF4FF4406001900220029001200390A0
:10458000032004900820059001A9E748FDF72EFDBF
:10459000E648E7490860400548600021E44881603A
:1045A000C1604FF480610161002141618161C1619D
:1045B00001624162FDF746FC08B1FCF7A5FE00BFB1
:1045C000DB486063846300BF002205213420FDF7CF
:1045D000C3FE3420FDF7B0FE6FE2D6492068884262
:1045E00073D100BF00200090CE48006840F48010D6
:1045F000CC4908600846006800F48010009000BFB5
:1046000000BF00BF00200090C6481038006840F08E
:104610000400C449103908600846006800F004002E
:10462000009000BF00BF00BF002000900846006857
:1046300040F0080008600846006800F0080000909C
:1046400000BF00BF88140190022002900120039057
:10465000032004900820059001A9B348FDF7C6FC8B
:104660000420019002200290012003900320049076
:104670000820059001A9B048FDF7B8FCAB483038D8
:10468000AE490860C00548600021AC488160C16047
:104690004FF480610161002141618161C16101626A
:1046A0004162FDF7CFFB08B1FCF72EFE00BFA34827
:1046B0006063846300BF002205213520FDF74CFEB6
:1046C0003520FDF739FEF8E1FFE79D492068884273
:1046D0007ED100BF002000909248001D006840F08D
:1046E00010009049091D08600846006800F010009D
:1046F000009000BF00BF00BF002000908948103824
:10470000006840F0010087491039086008460068D9
:1047100000F00100009000BF00BF4FF4C0600190A6
:1047200002200290002003900320049007200590AF
:1047300001A98448FDF75AFC8348844908604FF07A
:1047400000604860002181488160C1604FF4806151
:104750000161002141618161C1614FF480310162D9
:1047600000214162FDF76EFB08B1FCF7CDFD00BFF3
:1047700076486063846300BF73487830744908608A
:104780004FF0006048604021714881600021C160A5
:104790004FF480610161002141618161C1614FF489
:1047A0008031016200214162FDF74CFB08B1FCF74A
:1047B000ABFD00BF66482063846300BF0022052173
:1047C0002520FDF7C9FD2520FDF7B6FD75E1FFE7C2
:1047D00060492068884259D100BF002000905148AC
:1047E000006840F400304F4908600846006800F453
:1047F0000030009000BF00BF00BF0020009049487B
:104800001038006840F00100464910390860084639
:10481000006800F00100009000BF00BF0C20019074
:1048200002200290002003900320049007200590AE
:1048300001A94448FDF7DAFB3C4848304649086086
:104840004FF000604860002143488160C1604FF430
:1048500080610161002141618161C1614FF480315A
:10486000016200214162FDF7EDFA08B1FCF74CFD51
:1048700000BF39486063846300BF00220521262001
:10488000FDF76AFD2620FDF757FD16E13349206844
:10489000884269D100BF002000902248006840F49F
:1048A0008020204908600846006800F480200090BD
:1048B00000BF00BF00BF002000901A4810380068F9
:1048C00040F002001749103908600846006800F0FF
:1048D0000200009000BF00BF4FF440600190022032
:1048E000029000200390032004900720059001A966
:1048F0001B48FDF77BFB0D4818381A4908604FF03C
:1049000000604860002117488160C1604FF48061F9
:104910000161002141618161C1610162416224E064
:10492000004C004040380240000802404060024015
:10493000502A002000500040000C0240B02A002005
:10494000001001400000024040640240102B002093
:10495000702B002000440040D02B00200048004075
:1049600000040240302C002030E0FDF76BFA08B163
:10497000FCF7CAFC00BF52486063846300BF514823
:10498000514908604FF00060486040214E48816006
:104990000021C1604FF480610161002141618161AA
:1049A000C16101624162FDF74DFA08B1FCF7ACFC50
:1049B00000BF45482063846300BF002205212720F3
:1049C000FDF7CAFC2720FDF7B7FC76E03F492068D9
:1049D000884272D100BF002000903D48006840F03E
:1049E00020003B4908600846006800F02000009065
:1049F00000BF00BF00BF0020009035481438006899
:104A000040F004003249143908600846006800F09C
:104A10000400009000BF00BFC0200190022002905F
:104A200000200390032004900820059001A9294844
:104A3000FDF7DCFA28482949086080054860002114
:104A400026488160C1604FF48061016100214161AD
:104A50008161C16101624162FDF7F4F908B1FCF7BF
:104A600053FC00BF1D486063846300BF1A48783060
:104A70001B4908604FF02060486040211848816061
:104A80000021C1604FF480610161002141618161B9
:104A9000C16101624162FDF7D5F908B1FCF734FC50
:104AA00000BF0F482063846300BF00220521472018
:104AB000FDF752FC4720FDF73FFC06B010BD00009B
:104AC000302C002058600240902C0020001401403F
:104AD000443802400008024028640240F02C0020C4
:104AE000502D002077B581B00446154694F83A0061
:104AF000202850D1029800B115B9012004B070BD32
:104B000000BF94F83800012801D10220F6E7012007
:104B100084F8380000BF0298A062A5850020E063F9
:104B2000222084F83A001D48616BC8631C48616B01
:104B300008641C48616BC8640020616B086502AEA4
:104B400032682368191D2B46606BFDF7F1F900BF31
:104B50000020009020680068009020684068009065
:104B600000BF00BF00BF002084F8380000BF2068ED
:104B7000C06840F480702168C8602068406940F0D7
:104B80000100216848612068406940F040002168C8
:104B900048610020B2E70220B0E700002566000867
:104BA0006B660008D565000810B5034693F83A0017
:104BB00020282FD101B10AB9012010BD00BF93F800
:104BC0003800012801D10220F7E7012083F83800DE
:104BD00000BF99629A85DA850020D863222083F885
:104BE0003A0000BF002083F8380000BF1868C06892
:104BF00040F480701C68E0601868406940F0010073
:104C00001C6860611868C06840F020001C68E060A3
:104C10000020D2E70220D0E710B5044607492068FB
:104C200088420AD1064988680649097801F0D2F914
:104C3000012204490448FFF7B7FF10BD004C0040B3
:104C400068190020D9060020D028002070472DE9DF
:104C5000F84304460D4616461F464FF0000994F8E7
:104C6000390020285DD105B116B90120BDE8F883CF
:104C700000BF94F83800012801D10220F6E7012096
:104C800084F8380000BF0020E063212084F8390058
:104C9000FDF7B2FA8146A684E68400BF002084F8BE
:104CA000380000BF2BE0E08C401EE084A068B0F527
:104CB000805F16D14B46002280212046009701F0EC
:104CC000A3FF08B10320D1E7A846B8F80000C0F35D
:104CD000080021684860206908B9AD1C0FE06D1C10
:104CE0000DE04B46002280212046009701F08CFF0A
:104CF00008B10320BAE715F8010B21684860E08C81
:104D00000028D0D14B46002240212046009701F0D8
:104D10007BFF08B10320A9E7202084F83900002098
:104D2000A4E70220A2E70000F7B50446154694F870
:104D3000390020283DD1019800B10DB90120FEBDF8
:104D400000BF94F83800012801D10220F7E70120C4
:104D500084F8380000BF01982062A584E584002013
:104D6000E063212084F839001348216BC86313489D
:104D7000216B08641248216BC8640020216B086510
:104D800001AE23681A1D31682B46206BFDF7D0F861
:104D90006FF040002168086000BF002084F83800F0
:104DA00000BF2068406940F0800021684861002011
:104DB000C5E70220C3E7000079660008AF66000877
:104DC000D56500087047704700BFFEE786B023A195
:104DD00003C9CDE904016423052204A92148FFF792
:104DE00036FF0120204908702D2220491D48FFF779
:104DF00079FE00BF4FF0FF311D4800680CF0E0FA6B
:104E00000BF096FC194804F033FD8DED030A9DED7F
:104E1000030ADFED180AB4EE600AF1EE10FA15D0BD
:104E20009DED030ADFED140A30EE200A8DED030A32
:104E300000231A4601A9114800680CF0C9F80023A4
:104E40001A4601A90E4800680CF0C2F82D22074945
:104E50000448FFF747FE0BF095FCCBE7FFAA76006E
:104E6000000000009029002030060020CC1B00200C
:104E7000440600200000C843000000006C0600202B
:104E80007406002030B50B46002100BF16E00A244E
:104E9000B4EB107F05D9302404EB107403F81140F3
:104EA00005E0412404EB10740A3C03F811400001B2
:104EB00000254C00641C1D554C1CE1B29142E6DB00
:104EC00030BD00001FB500200090019002900390BB
:104ED0001548164908604FF4803048600021134897
:104EE0008160012101610176002180F82010C162FA
:104EF0000F4981620021C1600121C16180F8301039
:104F00004161FCF70BFD08B1FCF7FEF909200090A8
:104F1000012001900020029069460448FCF734FC0F
:104F200008B1FCF7F1F91FBD002001405408002032
:104F30000100000F08B500BF002000903248006853
:104F400040F48000304908600846006800F48000A2
:104F5000009000BF00BF00BF00200090084600681E
:104F600040F4001008600846006800F4001000904B
:104F700000BF00BF002205210B20FDF7EDF90B203B
:104F8000FDF7DAF9002205210C20FDF7E5F90C20E8
:104F9000FDF7D2F9002205210D20FDF7DDF90D20E6
:104FA000FDF7CAF9002205210E20FDF7D5F90E20E4
:104FB000FDF7C2F9002205211020FDF7CDF91020E0
:104FC000FDF7BAF9002205213920FDF7C5F939208E
:104FD000FDF7B2F9002205213A20FDF7BDF93A208C
:104FE000FDF7AAF9002205214520FDF7B5F9452076
:104FF000FDF7A2F9002205214620FDF7ADF9462074
:10500000FDF79AF908BD00003038024000B5D5B070
:105010000322002101200BF05FFF81490860032279
:10502000002101200BF058FF7E4908600322002177
:1050300001200BF051FF7C49086003220021012070
:105040000BF04AFF794908600322002101200BF090
:1050500043FF774908600322002101200BF03CFF49
:10506000744908600322002101200BF035FF7249CA
:1050700008600322002101200BF02EFF6F49086019
:105080000022102101200BF027FF6D49086000224B
:10509000102102200BF020FF6A49086000220C2139
:1050A00001200BF019FF684908600022102101203F
:1050B0000BF012FF6549086000220C2101200BF063
:1050C0000BFF6349086000221C2101200BF004FF44
:1050D000604908600022102101200BF0FDFE5E49AE
:1050E00008600022082101200BF0F6FE5B490860F1
:1050F0000022042101200BF0EFFE594908601C2218
:1051000058494EA8FBF7EDF800214EA80AF025F803
:10511000554908601C2253491C3147A8FBF7E1F8A8
:10512000002147A80AF019F8504908601C224D498F
:10513000383140A8FBF7D5F8002140A80AF00DF857
:105140004B4908601C224749543139A8FBF7C9F87C
:10515000002139A80AF001F8464908601C2241499B
:10516000703132A8FBF7BDF8002132A809F0F5FF35
:10517000414908601C223B498C312BA8FBF7B1F850
:1051800000212BA809F0E9FF3C4908601C223549A1
:10519000A83124A8FBF7A5F8002124A809F0DDFF19
:1051A000374908601C222F49C4311DA8FBF799F824
:1051B00000211DA809F0D1FF324908601C222949AD
:1051C000E03116A8FBF78DF8002116A809F0C5FFFD
:1051D0002D4908601C222349FC310FA8FBF781F8F8
:1051E00000210FA809F0B9FF284908601C222849AE
:1051F00008A8FBF776F8002108A809F0AEFF2549BA
:1052000008601C2222491C3101A8FBF76AF8002122
:1052100001A809F0A2FF2049086055B000BD0000B8
:1052200044060020480600204C06002050060020BE
:1052300054060020580600205C060020600600206E
:1052400064060020680600206C060020700600201E
:1052500074060020780600207C06002080060020CE
:1052600084060020B81B0108880600208C06002058
:105270009006002094060020980600209C0600203E
:10528000A0060020A4060020A8060020AC060020EE
:10529000D01C0108B0060020B406002000B587B07D
:1052A000142102A8FBF736F800BF002001905748F0
:1052B000006840F01000554908600846006800F09A
:1052C0001000019000BF00BF00BF00200190084601
:1052D000006840F0040008600846006800F0040020
:1052E000019000BF00BF00BF002001900846006889
:1052F00040F0800008600846006800F080000190DF
:1053000000BF00BF00BF002001900846006840F0C9
:10531000010008600846006800F00100019000BF2D
:1053200000BF00BF002001900846006840F0020066
:1053300008600846006800F00200019000BF00BF4E
:1053400000BF002001900846006840F00800086097
:105350000846006800F00800019000BF00BF00226E
:1053600046F207212A48FCF741FF002241F20201E0
:105370002848FCF73BFF00224FF47F412648FCF70A
:1053800035FF46F210200290012003900020049087
:10539000059002A91E48FCF729FE4FF480500290A8
:1053A0000120039000200490059002A91948FCF701
:1053B0001DFE4FF6807002900120039000200490A3
:1053C000059002A91448FCF711FE4FF4004002902A
:1053D000002003900120049002A91048FCF706FE6B
:1053E0000F200290002003900120049002A9084899
:1053F000FCF7FCFD022002900020039001200490A5
:1054000002A90448FCF7F2FD07B000BD30380240A5
:105410000008024000100240000C02400000024060
:1054200000B587B01C216846FAF774FF1548164985
:105430000860A720486000211348816044F61F617E
:10544000C160002101618161FEF722FA08B1FBF71A
:105450005BFF0D48FEF7C9FE08B1FBF755FF602062
:1054600000900020019002900490002269460648B6
:10547000FEF737FE08B1FBF747FF0348FEF722FDB2
:1054800007B000BD004401409027002000B587B060
:105490001C216846FAF73EFF154816490860A72008
:1054A000486000211348816044F61F61C1600021FB
:1054B00001618161FEF7ECF908B1FBF725FF0D48AA
:1054C000FEF793FE08B1FBF71FFF6020009000205D
:1054D000019002900490002269460648FEF701FE02
:1054E00008B1FBF711FF0348FEF7ECFC07B000BD65
:1054F00000480140D027002000B587B01C21684635
:10550000FAF708FF16481749086053204860002141
:105510001448816044F61F61C1600021016181610E
:10552000FEF763FE08B1FBF7EFFE6020009000205D
:10553000019002900490002269460A48FEF7D1FDCE
:1055400008B1FBF7E1FE042269460648FEF7C9FDF3
:1055500008B1FBF7D9FE0348FEF7B4FC07B000BD65
:10556000001800401028002000B587B01C216846B4
:10557000FAF7D0FE16481749086040F28F6048607D
:1055800000211448816040F2E731C16000210161CF
:105590008161FEF77DF908B1FBF7B6FE0D48FEF715
:1055A00024FE08B1FBF7B0FE6020009000200190BF
:1055B00002900490002269460648FEF792FD08B169
:1055C000FBF7A2FE0348FEF77DFC07B000BD00001C
:1055D000001C00405028002000B587B01C21684600
:1055E000FAF798FE16481749086040F28F60486045
:1055F00000211448816040F2E731C160002101615F
:105600008161FEF745F908B1FBF77EFE0D48FEF714
:10561000ECFD08B1FBF778FE6020009000200190BF
:1056200002900490002269460648FEF75AFD08B130
:10563000FBF76AFE0348FEF745FC07B000BD00001B
:10564000002000409028002000B591B000200F906D
:1056500010901C2108A8FAF75DFE20216846FAF791
:1056600059FE2F482F4908600120486000212D482D
:10567000816040F6B831C160002101614161816102
:10568000FEF7B3FD08B1FBF73FFE00200F9010902E
:105690000FA92448FEF7A2F808B1FBF735FE6020F9
:1056A0000890002009900A900B900C900D900E909D
:1056B000002208A91B48FEF714FD08B1FBF724FEE1
:1056C000042208A91748FEF70CFD08B1FBF71CFEE1
:1056D000082208A91348FEF704FD08B1FBF714FEE1
:1056E0000C2208A90F48FEF7FCFC08B1FBF70CFEE2
:1056F0000020009001900290039004904FF400501D
:1057000005900020079069460648FEF72DF808B17D
:10571000FBF7FAFD0348FEF7D5FB11B000BD000012
:1057200000000140D025002000B58BB0242102A844
:10573000FAF7F0FD0020009001904FF080401749EB
:105740000860002048600021144881604FF45251E5
:10575000C16000210161816103200290002003905B
:1057600001200490002005900690079001200890E9
:10577000002009900A9002A90848FEF738F908B1FC
:10578000FBF7C2FD00200090019069460348FEF738
:1057900025F808B1FBF7B8FD0BB000BD10260020BE
:1057A00000B58BB0242102A8FAF7B4FD00200090C8
:1057B00001901848184908600020486000211648E8
:1057C00081604FF45251C160002101618161032069
:1057D0000290002003900120049000200590069084
:1057E000079001200890002009900A9002A90A4819
:1057F000FEF7FDF808B1FBF787FD0020009001904F
:1058000069460548FDF7EAFF08B1FBF77DFD0BB0DF
:1058100000BD0000000400405026002000B58BB001
:10582000242102A8FAF776FD002000900190184884
:1058300018490860002048600021164881604FF434
:105840005251C1600021016181610320029000205A
:1058500003900120049000200590069007900120FD
:105860000890002009900A9002A90A48FEF7BFF8A4
:1058700008B1FBF749FD00200090019069460548FA
:10588000FDF7ACFF08B1FBF73FFD0BB000BD00001A
:10589000000800409026002000B58BB0242102A80B
:1058A000FAF738FD00200090019018481849086068
:1058B000002048600021164881604FF45251C160B9
:1058C00000210161816103200290002003900120EA
:1058D0000490002005900690079001200890002079
:1058E00009900A9002A90A48FEF781F808B1FBF76F
:1058F0000BFD00200090019069460548FDF76EFF02
:1059000008B1FBF701FD0BB000BD0000000C00402A
:10591000D02600201CB50020009001900E480F49B1
:1059200008605320486000210C48816042F20F71EA
:10593000C16000218161FDF7ABFF08B1FBF7E4FC1A
:1059400000200090019069460448FDF747FF08B128
:10595000FBF7DAFC1CBD00000010004010270020FF
:1059600000B587B01C216846FAF7D4FC16481749E1
:105970000860A720486000211448816044F61F6138
:10598000C160002101618161FEF72FFC08B1FBF7C6
:10599000BBFC602000900020019002900490002247
:1059A00069460A48FEF79DFB08B1FBF7ADFC0422EF
:1059B00069460648FEF795FB08B1FBF7A5FC0348CE
:1059C000FEF780FA07B000BD0040014050270020DC
:1059D00010B50B480B4908604FF4E13048600021D6
:1059E00008488160C16001610C2141610021816131
:1059F000C161FEF757FD08B1FBF786FC10BD000042
:105A0000004C0040D028002010B50B480B4908601E
:105A10004FF416504860002108488160C160016160
:105A20000C21416100218161C161FEF73BFD08B19C
:105A3000FBF76AFC10BD0000005000401029002058
:105A400010B50B480B4908604FF4E1304860002165
:105A500008488160C16001610C21416100218161C0
:105A6000C161FEF71FFD08B1FBF74EFC10BD000041
:105A7000001001405029002010B50B480B49086068
:105A80004FF4E1304860002108488160C160016145
:105A90000C21416100218161C161FEF703FD08B164
:105AA000FBF732FC10BD00000044004090290020AC
:105AB00010B50B480B4908604FF4E13048600021F5
:105AC00008488160C16001610C2141610021816150
:105AD000C161FEF7E7FC08B1FBF716FC10BD000042
