:020000040800F2
:10000000586600205D02000801370008E12B000857
:10001000A53600085B090008B54000080000000094
:100020000000000000000000000000009D0100082A
:10003000C90B000800000000F90100082D39000874
:1000400077020008770200087702000877020008AC
:10005000770200087702000877020008770200089C
:10006000770200087702000877020008110A0008EA
:100070001D0A0008610A00086D0A000877020008DE
:10008000790A000877020008770200087702000862
:10009000770200087702000877020008770200085C
:1000A000770200087702000877020008770200084C
:1000B000313A00083D3A0008493A00087702000842
:1000C000770200087702000877020008770200082C
:1000D0007702000885400008914000089D40000814
:1000E000770200087702000877020008770200080C
:1000F00077020008770200087702000877020008FC
:100100007702000877020008553A000877020008D5
:10011000E13C0008ED3C0008613A00086D3A000837
:1001200077020008BD0A0008010B000877020008EA
:1001300077020008770200087702000877020008BB
:1001400077020008770200087702000877020008AB
:10015000770200080D0B0008190B0008A9400008E1
:10016000770200087702000877020008770200088B
:1001700077020008770200087702000800000000FC
:100180007702000877020008DFF80CD000F096FB39
:1001900000480047295D0008586600202C4B19686C
:1001A0000868B0E8F04F80F30988BFF36F8F4FF015
:1001B000000080F3118870470000000008480068C4
:1001C000006880F308884FF0000080F3148862B65E
:1001D00061B6BFF34F8FBFF36F8F00DF00BF00BF6B
:1001E00008ED00E0DFF80C00016841F470010160E7
:1001F000704700BF88ED00E0EFF30980BFF36F8F19
:10020000134B1A681EF0100F08BF20ED108A20E96A
:10021000F04F106009B44FF0500080F31188BFF325
:100220004F8FBFF36F8F06F033FF4FF0000080F366
:10023000118809BC19680868B0E8F04F1EF0100F6B
:1002400008BFB0EC108A80F30988BFF36F8F704746
:10025000A8040020EFF3058070470000064880479F
:1002600006480047FEE7FEE7FEE7FEE7FEE7FEE79B
:10027000FEE7FEE7FEE7FEE7153A00088901000801
:100280002DE9F05F0546002092469B4688460646CB
:10029000814640241BE0284641464746224600F05E
:1002A0001FF953465A46C01A914110D311461846B9
:1002B000224600F006F92D1A67EB01084F46224648
:1002C0000120002100F0FDF817EB00094E41201E2F
:1002D000A4F10104DFDC484631462A464346BDE826
:1002E000F09F40EA01039B0703D009E008C9121FF1
:1002F00008C0042AFAD203E011F8013B00F8013BE0
:10030000521EF9D27047D2B201E000F8012B491E0B
:10031000FBD270470022F6E710B513460A460446A2
:100320001946FFF7F0FF204610BD421C10F8011BD4
:100330000029FBD1801A70472DE9F04D81EA0304B2
:1003400004F0004B21F0004514464FF0000A23F062
:10035000004150EA050220D054EA01021DD0C5F345
:100360000A570246C5F31303C1F31300C1F30A563B
:1003700040F4801543F48013A7EB0608101BD64603
:1003800008F2FD3873EB050002D308F1010801E023
:1003900092185B41B8F1000F03DA00200146BDE876
:1003A000F08D00204FF48011064684460EE0171BA6
:1003B00073EB050705D3121B63EB050306434CEAF9
:1003C000010C49084FEA300092185B4150EA0107DE
:1003D000EDD152EA030012D082EA040083EA05015B
:1003E000084305D0101BAB4106D20122002306E0D2
:1003F00000224FF0004302E06FF0010253101AEBAD
:1004000006004CEB085110EB0A0041EB0B01BDE874
:10041000F04D00F0ACB80EB5C10F80EAE0700844B2
:10042000CA07002140F233438DE80E000A460B460E
:1004300000F0ACF803B000BD00F0004230F0004026
:100440000AD0C10D01F56071C0F3160042EA0151F6
:10045000C20840071143704700200146704701F071
:10046000004330B421F0004150EA010206D00A0DE9
:10047000A2F56072C1F31301002A02DC30BC002037
:100480007047440F44EAC104C100E01830BC00EBDF
:10049000C25000F035B830B50B460146002020228E
:1004A000012409E021FA02F59D4205D303FA02F581
:1004B000491B04FA02F52844151EA2F10102F1DCE1
:1004C00030BD202A04DB203A00FA02F100207047F8
:1004D0009140C2F1200320FA03F319439040704782
:1004E000202A04DB203A21FA02F00021704721FA89
:1004F00002F3D040C2F120029140084319467047F0
:100500000029A8BF7047401C490008BF20F0010027
:10051000704710B4B0FA80FC00FA0CF050EA010405
:1005200004BF10BC704749B1CCF1200421FA04F497
:1005300011FA0CF118BF012121430843A3EB0C0170
:10054000CB1D4FEA00614FEA102042BF002010BCD3
:10055000704700EBC35010440029A4BF10BC704783
:10056000401C490008BF20F0010010BC704710B5C6
:10057000141E73F1000408DA401C41F100019218C6
:100580005B411A4301D120F0010010BD2DE9F04D6F
:1005900092469B4611B1B1FA81F202E0B0FA80F2C4
:1005A00020329046FFF78DFF04460F4640EA0A00CE
:1005B00041EA0B0153465A46084313D0114653EA09
:1005C000010019D0C8F140025046FFF789FF0546E7
:1005D0000E46504659464246FFF773FF084305D082
:1005E000012004E020463946BDE8F08D0020054397
:1005F00046EAE0762C4337430A986305E40AA0EB09
:1006000008000022FD0A44EA47540A3002D50020BF
:100610000146E9E7010510196941DDE908450019BE
:100620006941BDE8F04DA2E72DE9FE4F804681EA21
:100630000300C00F0C46009021F0004123F000455C
:10064000B8EB0200A94105D24046214690461C461F
:100650000B46024623F00040104347D0270DC7F356
:100660000A00C3F30A510290401A019040286BDA45
:10067000C3F3130040F4801B0098924620B100237E
:10068000D2EB030A63EB0B0B01985946C0F1400211
:100690005046FFF716FF06460D4650465946019A4A
:1006A00000F01EF910EB08006141002487EA1152A6
:1006B00084EAE7731A4340D0009A62B3019A012A90
:1006C0004FEA075215DC001B61EB02014FF00042BC
:1006D00002EA0752CDE90042001C41F58011324682
:1006E0002B46FFF753FF03B0BDE8F08F404621468D
:1006F000F9E7001B61EB0201001C41F580130018B3
:100700005B412018A2F5001747EB030140EAD570C2
:10071000B6196D4111E06D084FEA360645EAC0751D
:100720004FEA0752001B61EB0201001C41F58011EA
:1007300049084FEA30000019514132462B4603B0B8
:10074000BDE8F04FFFF713BF0098012240000023DF
:10075000D0EB020263EBE073009821464FEAE074AD
:10076000B8EB000061EB0401E9E783F000435BE7CD
:1007700081F0004158E72DE9FE4F81EA030404F0BF
:10078000004421F0004100944FF0000B23F000439F
:1007900050EA01045ED052EA03045BD0C3F30A546A
:1007A000C1F30A552C44A4F2F3340194A0FB025483
:1007B000C1F3130141F48011C3F3130343F4801315
:1007C00001FB024400FB034E840A970A44EA815469
:1007D00047EA8357A4FB076802958D0A05FB078546
:1007E0004FEA932C04FB0C542705029D4FEA065850
:1007F00047EA1637B5EB08056EEB070C870E920E2D
:1008000047EA811742EA8312A7FB0201B6EB0B010C
:1008100064EB00042B0D43EA0C335E1844EB1C50D0
:10082000DA465146E7FB0201C5F313044FEA0B33E6
:1008300043EA14534FEA0432019C43EA0603A4F14D
:100840000C040294009CCDE900B4FFF79FFE03B0B6
:10085000BDE8F08F00200146F9E7C1F30A52C1F369
:10086000130140F2FF3341F480119A4202DA002072
:100870000146704740F233439A42A2F2334202DC0F
:100880005242FFF72DBEFFF71CBE000030B5041E1C
:1008900071F1000404DB4FF00044404264EB0101BD
:1008A000141E73F1000405DB1C464FF00043524256
:1008B00063EB0403994208BF904230BD064C074DDC
:1008C00006E0E06840F0010394E807009847103420
:1008D000AC42F6D3FFF75CFC1081000830810008C1
:1008E000202A06DBCB17203A41FA02F043EAE073F4
:1008F00006E041FA02F3D040C2F1200291400843E1
:100900001946704770B58C1810F8015B15F0070395
:1009100001D110F8013B2A1106D110F8012B03E098
:1009200010F8016B01F8016B5B1EF9D12B0705D4A0
:100930000023521E0DD401F8013BFAE710F8013BE9
:10094000CB1A921C03E013F8015B01F8015B521E05
:10095000F9D5A142D8D3002070BDFEE72DE9F047BC
:1009600000270425DFF8A080DFF8A09050383E462D
:1009700001F1060A102845D2DFE800F01108130C37
:100980001517191B1D1F21444444442334240325F7
:10099000402702E03D2403252E27012613E03024C2
:1009A00011E037242BE03A2429E041240BE04524D0
:1009B00009E0492407E04D2405E0512403E05524D3
:1009C00001E0D8F82440032A19D04DB16A0009EBA0
:1009D0004400FFF786FCD8F81420294620469047AB
:1009E000002E0FD0720009EB47005146FFF779FC4B
:1009F00031463846D8F81420BDE8F04710470325A3
:100A00000026E3E7BDE8F087040000203E06002052
:100A1000014800F0C7BA00002422002008B50020D9
:100A200000900B48007870B10A486946006806F0EB
:100A3000EFFC009838B108494FF080500860BFF3D0
:100A40004F8FBFF36F8F054800F0ACFA08BD000070
:100A5000200400203004002004ED00E0A423002046
:100A6000014800F09FBA0000C4210020014800F0B6
:100A700099BA00000424002008B5002000900B481B
:100A8000007870B10A486946006806F0C1FC009819
:100A900038B108494FF080500860BFF34F8FBFF363
:100AA0006F8F054800F07EFA08BD0000200400208A
:100AB0002C04002004ED00E04423002008B50020B1
:100AC00000900B48007870B10A486946006806F04B
:100AD0009FFC009838B108494FF080500860BFF380
:100AE0004F8FBFF36F8F054800F05CFA08BD000020
:100AF000200400203404002004ED00E064240020E1
:100B0000014800F04FBA000084220020014800F0A4
:100B100049BA0000C4240020014800F043BA000094
:100B2000E422002001681823CAB2103AB2FBF3F2A3
:100B3000054B6FF30901032A9B5CC36500D9091DAE
:100B400081650846704700004C80000810B50146DA
:100B500000208B698A6A4FF0C07453B1B3F5005F0F
:100B600015D072B1012A0CD0022A0AD0032A09D169
:100B700004E01AB1012A06D0022A03D1C96AC901C8
:100B800000D5012010BDC96AA142FAD010BD002ACB
:100B9000F7D0012AF2D0022AF3D0032AF3D010BDF5
:100BA00030B50468256825F48025256004686360F5
:100BB0008368402B036803D099600068C26030BD31
:100BC0009A600068C16030BD704704F0CBBA72B65D
:100BD000FEE710B590B0044603AA3221684602F041
:100BE000CBFD6946204600F025F8684602F091FDED
:100BF000401E81B2684602F0AAFD10B010BD7FB55C
:100C000016460D46044603AA0321684602F0B4FDC9
:100C10002946684602F001FE3146684602F014FE9D
:100C20000DF10D0303220921204600F003F904B061
:100C3000002070BD70B50D4604460188284602F0BC
:100C400003FEA178284602F0E8FDE178284602F08C
:100C5000E4FDE278211D284602F0E1FD284602F07D
:100C600063FD01462846BDE8704002F0D6BD000095
:100C700037B58EB0154604460FAB01220A2100F0AD
:100C8000D9F86946204600F04FF8040015D19DF8C8
:100C900004009DF83C10884202D0072011B030BDFE
:100CA000BDF90500FFF7B7FB9FED051B53EC112BBA
:100CB000FFF742FBFFF7D3FB28602046EEE700007A
:100CC000000000000000244037B58EB015460446F1
:100CD0000FAB0122102100F0ADF86946204600F06C
:100CE00023F8040019D19DF804009DF83C108842B7
:100CF00002D0072011B030BD9DF80810DDF80500C6
:100D000061F31F60FFF787FB9FED051B53EC112B71
:100D1000FFF712FBFFF7A3FB28602046EAE700007D
:100D200000000000000024402DE9F04106460020AC
:100D300081F83700074605460C46642002F0C6FDE0
:100D400063E0B06802F0E5FC78B394F8370001077F
:100D50001AD5B06802F05FFD84F8360094F83700C9
:100D600040F0100084F837002046FFF732FF94F877
:100D70003610884204D002F0B7FD0620BDE8F081AD
:100D800002F0B2FD0020F9E741070FD5B06802F08C
:100D900042FDE1197F1C0871E078FFB2B84234D1FE
:100DA00094F8370040F0080010E02EE0810710D5DD
:100DB000B06802F030FDE0702D2803D902F094FDF8
:100DC0000520DBE794F8370040F0040084F8370092
:100DD0001BE0C0070ED0B06802F01DFDA070112806
:100DE00003D902F081FD0420C8E794F8370040F0F1
:100DF0000200EBE715B1052D0DD005E0B06802F05B
:100E00000AFD0546052800D0002502F07BFD0028DC
:100E100097D00220B2E7B06802F0FDFC45EA002559
:100E2000A5F5E0500538EFD1258094F8370040F063
:100E30000100CBE770B58EB0044644F61240ADF821
:100E400000008DF802108DF803200021684603E0B1
:100E50005D5C4618491C35719142F9DB6168FFF70A
:100E6000E9FE204603F038F90EB070BD2DE9F041DF
:100E700016462DED028B86B00F4680461D46B0EE1D
:100E8000408A03AA072168460E9C02F075FC18EE02
:100E9000100A1D49884202DD9FED1C8A06E018EE0B
:100EA000100A1B49884201D99FED1A8A39466846C3
:100EB00002F0B3FCB2EE040A28EE000ABDEEC00A4E
:100EC00010EE100A01B2684602F0B8FC31466846DE
:100ED00002F0BAFC2946684602F0B6FC0DF10D039B
:100EE000072208214046FFF7A5FF5CB10022B0EEC3
:100EF000480A3946404600F00FF806B0BDEC028BB8
:100F0000BDE8F0810020F8E70000344300003443DE
:100F1000000034C3000034C32DE9F043174E1546DA
:100F20002DED028B81B0B0EE408A884681460024C8
:100F300042F210776A464146484615B1FFF7C4FEB3
:100F400001E0FFF795FE9DED000A38EE400AF0EE55
:100F5000C00A10EE900AB04205DC002001B0BDECE2
:100F6000028BBDE8F083641CA4B2BC4201D3012013
:100F7000F4E7642002F0D0FCDCE70000CDCC4C3F6D
:100F800090F83510022903D0802141650120704777
:100F9000052180F835100068016821F00101016029
:100FA000002070472DE9F84304464FF00009CDF8C2
:100FB000009063484FF41651A56D0068B0FBF1F73F
:100FC0002E6894F85C10082000FA01F131420FD02D
:100FD00021680A6852070BD50A6822F004020A60E9
:100FE00094F85C108840A860606D40F00100606576
:100FF00094F85C104FF0010808FA01F0304208D074
:1010000021684969090604D5A860606D40F00200B6
:10101000606594F85C1004208840304208D0216854
:101020000968890704D5A860606D40F00400606518
:1010300094F85C1010208840304218D0216809686C
:10104000090714D5A86020680168490304D5006821
:10105000000308D5A16C07E00168C90503D4016845
:1010600021F008010160216C09B12046884794F8FD
:101070005C1020208840304231D021680968C906C0
:101080002DD5A86094F8350005282068016806D0A1
:10109000490347D5006800031DD4616C1CE021F0B2
:1010A000160101602068416921F080014161206CD6
:1010B00008B9A06C20B12068016821F00801016026
:1010C00094F85C103F208840A86084F8349084F83D
:1010D0003580216D1FE0E16B09B120468847606DC6
:1010E00000282BD0606DC00714D0052084F835008F
:1010F0002068016821F0010101600098401C009007
:10110000B84203D820680068C007F6D184F834904C
:1011100084F83580E16C002910D001B02046BDE88C
:10112000F04308470168C905D5D4016821F01001D2
:10113000016084F8349084F83580CCE7BDE8F8830A
:10114000A40400202DE9F041044600F091F9064680
:101150005CB1002584F83450022084F83500206802
:10116000016821F0010101600DE00120BDE8F0817E
:1011700000F07EF9801B052805D92020606503203A
:1011800084F83500F2E720680068C007F0D12268D3
:10119000116820480140D4E901031843D4E903361B
:1011A0003343184363691843A3691843E369184339
:1011B000236A18430843616A042903D1D4E90B1355
:1011C00019430843106020684069666A20F00701EF
:1011D00030460E43012704280CD1A06A0643E06A7A
:1011E00040B12046FFF7B2FC20B14020606584F892
:1011F0003570BAE7206846612046FFF793FC94F803
:101200005C203F2191408160656584F83570002045
:10121000ACE700003F8010F02DE9F0410446866DF8
:1012200090F83400002501280DD0012084F8340006
:1012300094F835700020012F07D084F8340002257F
:101240002846BDE8F0810220FBE7022784F83570CC
:1012500060652046FFF7A4FC94F85C103F208840AE
:10126000B0602068016841F016010160206C20B177
:101270002068016841F0080101602068016841F0C0
:1012800001010160DCE7000070B5044600F0F0F8F1
:101290000546601C02D004480078044400F0E8F8D9
:1012A000401BA042FAD370BD980400202DE9F84FEE
:1012B00000224FF0010803254FF00F0E0B6808FACB
:1012C00002F42340A3426ED14E68012E05D0022EB7
:1012D00003D0112E01D0122E12D186684FEA420C93
:1012E00005FA0CF7BE43CF6807FA0CF7374387605F
:1012F0004668A6430C79C4F3001494403443446018
:10130000C668570005FA07FC8C6826EA0C06BC4044
:101310003443C4604C68022C01D0122C13D1D40881
:1013200000EB8404A346D4F8209054074FEAD46A13
:101330000EFA0AF629EA06090E6906FA0AF646EADC
:101340000906CBF8206006680C7926EA0C0604F042
:101350000304BC40344304604C68E40065D5364C5B
:10136000266846F480462660246822F0030604F4CA
:1013700080440094314C3444A446D4F8084896077D
:10138000370F0EFA07F6B4432D4EB04201D10026B6
:1013900024E02C4EB04201D101261FE02A4EB0427B
:1013A00002D102261AE040E0284EB04201D10326C5
:1013B00014E0274EB04201D104260FE0254EB04282
:1013C00001D105260AE0244EB04201D1062605E0EF
:1013D000224EB04201D1072600E00826BE40264337
:1013E000CCF808681E4E34684F689C43FF0300D554
:1013F0001C4334601A4C241D26684F689E43BF036B
:1014000000D51E432660164E083634684F689C434C
:10141000FF0200D51C433460114E0C3634684F680F
:101420009C43BF0200D51C433460521C102AFFF4B9
:1014300045AFBDE8F88F000044380240003001405D
:10144000000002400004024000080240000C02407C
:10145000001002400014024000180240001C02402C
:10146000003C01400AB1816170470904FBE70000BC
:101470000148806870470000980400200248816895
:101480000278114481607047980400200B4810B521
:10149000016841F400710160016841F480610160FC
:1014A000016841F480710160032000F08DF8002094
:1014B00000F006F800F03EF8002010BD003C0240AD
:1014C00010B5014688B00022372000F05DF83720C3
:1014D00000F04CF813480024016841F0200101603D
:1014E000006805A900F020000690684600F018F991
:1014F00000F036F90C494000B0FBF1F10C480B4A02
:10150000491E026040F2E732C0E90324C0E9011439
:1015100000F098FB10B1012008B010BD044800F0A5
:1015200001FCF9E74038024040420F00001400403F
:10153000242500200C4882B0016841F480410160FC
:10154000006800F4804000900748001F016841F0E7
:10155000805101600068002200F0805000900F214F
:10156000901E02B000F010B844380240002809DB99
:1015700000F01F02012191404009800000F1E020AD
:10158000C0F8001170470000F0B40E4B1B680C4609
:10159000C3F30223C3F10705042D00D90425191D47
:1015A000072901D2002300E0DB1E012606FA05F11F
:1015B000491E214099409E40761E16403143F0BCA2
:1015C00002F0B8BE0CED00E0064900F00702086822
:1015D0004FF6FF03184040EA0220034A1043086018
:1015E000704700000CED00E00000FA052DE9F0471F
:1015F0000E46050065D0DFF81481D8F80000F7B278
:1016000000F00F00B04207D288F80070D8F8000050
:1016100000F00F00B04254D128683D4C810712D52C
:10162000400703D5206840F4E05020602878000788
:1016300003D5206840F4604020602068A96820F04D
:10164000F000084320602878C0072DD03049686832
:101650000839012812D0022813D0032811D00968B4
:10166000890700292DDA216821F003010143216057
:10167000FFF7FEFE814641F2883A0EE009688903D1
:10168000EFE709688901ECE7FFF7F2FEA0EB09013B
:10169000514502D90320BDE8F0872068696800F051
:1016A0000C00B0EB810FEFD1D8F80010404601F0EC
:1016B0000F01B14207D90770006800F00F00B04277
:1016C00001D00120E7E72878400705D52068E968C0
:1016D00020F4E050084320602878000706D52068F1
:1016E000296920F4604040EAC100206000F058F809
:1016F0002168084AC1F30311515CC84006490860DB
:1017000006480068FFF7DCFE0020C4E7003C02400A
:101710000838024054800008A40400209C040020E3
:101720000F2202600C4A136803F00303436013683E
:1017300003F0F0038360136803F4E053C36012689E
:101740004FF4E05303EAD20202610448006800F05B
:101750000F0008607047000008380240003C02405B
:101760000448054900680968044AC1F38221515CB4
:10177000C8407047A4040020083802406480000874
:101780000448054900680968044AC1F34231515CC4
:10179000C8407047A4040020083802406480000854
:1017A000154810B5006810F00C02144813D0411011
:1017B000042A0FD0082A0ED10F4C241F2268236858
:1017C00002F03F025B0207D52068C0F38810A0FB3F
:1017D000010106E0084610BD2168C1F38811A1FB94
:1017E00000010023FEF74CFD2168C1F30141491CB3
:1017F0004900B0FBF1F010BD083802400024F400AD
:101800002DE9F84F04006ED02078DFF83C93C00734
:10181000A9F104054AD009F104000168C1F381016E
:10182000012908D00068C0F3810002280AD1D9F844
:101830000000400206D52868800337D5606800287C
:10184000E1D033E06068B0F5803F10D0B0F5A02F54
:10185000286810D020F480302860286820F4802088
:1018600028606068A8B1FFF703FE06460DE028680F
:1018700040F48030F4E740F480202860F7E700BFB0
:10188000FFF7F6FD801B642873D828688003F7D51E
:101890000CE0FFF7EDFD064605E000BFFFF7E8FDB1
:1018A000801B6428F0D828688003F7D42078DFF8FC
:1018B0009C8280074FF0000A3ED5A348001D0168B6
:1018C00011F00C0F08D00068C0F3810002280BD182
:1018D000D9F80000400207D42868800716D5E068D0
:1018E000012800D112E02BE1E068B8B10120C8F86E
:1018F0000000FFF7BDFD064605E000BFFFF7B8FD9D
:10190000801B0228C0D828688007F7D5286821697D
:1019100020F0F80040EAC10028600DE0C8F800A0FF
:10192000FFF7A6FD064604E0FFF7A2FD801B022894
:101930001FD828688007F7D42078000722D5824E68
:1019400083486169703671B101210160FFF790FD34
:10195000074604E0FFF78CFDC01B022809D8306859
:101960008007F7D50EE0C0F800A0FFF781FD07461D
:1019700005E082E0FFF77CFDC01B02287DD83068BF
:101980008007F7D42078400768D5DFF8BCB100277E
:101990000BF13C0BDBF80000C0000BD4DBF80010AF
:1019A00041F08051CBF80010DBF80000012700F077
:1019B00080500090674E3068C00510D4306840F405
:1019C00080703060FFF754FD009005E0FFF750FD98
:1019D0000099401A022850D83068C005F6D55A4EF2
:1019E000A0686C3601280FD00528306810D020F090
:1019F00001003060306820F004003060A068B8B1A9
:101A0000FFF736FD00900FE0306840F00100F4E78A
:101A100040F004003060F7E7FFF72AFD0099411A13
:101A200041F28830814266D830688007F4D50EE0F4
:101A3000FFF71EFD009007E0FFF71AFD0099411A1D
:101A400041F28830814256D830688007F4D42FB1F3
:101A5000DBF8001021F08051CBF80010A069C8B36A
:101A60003949091D0968C1F3810102294AD00228B8
:101A7000504607D0C8F8600000E03CE0FFF7F8FCF3
:101A800004463BE04746C8F86000FFF7F1FC064615
:101A900005E000BFFFF7ECFC801B02282BD828686C
:101AA0008001F7D4D4E907010843A16A2A4A49080A
:101AB00002EB0141626A41EA8211084394F82C105A
:101AC00040EA0161C9F8001001203866FFF7D0FC38
:101AD000044606E036E000BFFFF7CAFC001B022800
:101AE00009D828688001F7D52CE000BFFFF7C0FCBB
:101AF000001B022802D90320BDE8F88F2868800166
:101B0000F4D41FE00128F7D0D9F80000E26900F40E
:101B10008001914214D1226A00F03F0191420FD11D
:101B200047F6C071626A0140914209D1A26A00F48D
:101B30004031914204D1E16A00F07060884201D0E6
:101B40000120D9E70020D7E70438024000004742CF
:101B5000800E4742007000400000FFFF7047704752
:101B600010B590F83C20012A22D0012280F83C20B8
:101B7000CA688C6822F4407222434C6822F4806266
:101B800022430C6822F4006222430C6922F4805242
:101B900022434C6922F400522243C969002322F4F3
:101BA00080420A4301684A6480F83C30002010BD3E
:101BB000022010BD70B590F83C20012A32D00124DB
:101BC00080F83C40022280F83D2003685A689D68F6
:101BD00022F070060A6832435A60134B02689A4238
:101BE00014D0B2F1804F11D0104B9A420ED0104B4E
:101BF0009A420BD00F4B9A4208D00F4B9A4205D015
:101C00000E4B9A4202D00E4B9A4204D1496825F0FD
:101C100080031943916080F83D40002180F83C101A
:101C2000084670BD022070BD000001400004004065
:101C300000080040000C004000040140004001404A
:101C40000018004010B5040003D094F83D0010B116
:101C500007E0012010BD002084F83C00204600F081
:101C60000DF8022084F83D00211D206801F004FFDA
:101C7000012084F83D00002010BD000008B5234974
:101C8000026823488A4211D1016841F010010160C5
:101C90000068002200F01000009005213620FFF7B8
:101CA00073FCBDE808403620FFF760BC1849194BAB
:101CB000091D9A4207D1086840F40030086008689E
:101CC00000F4003009E0144B9A4208D1086840F44F
:101CD00080200860086800F48020009008BD0F494B
:101CE0008A4207D1016841F080010160006800F07C
:101CF0008000F2E70A498A42F0D1016841F480711C
:101D00000160006800F48070E7E700000010004008
:101D1000403802400044014000480140001C00409F
:101D2000002000400168CA6842F00102CA600068F1
:101D3000816801F00701062903D0016841F0010123
:101D40000160002070472DE9F0410D46040003D0EA
:101D500094F83D0018B108E00120BDE8F0810020B2
:101D600084F83C00204600F03BF8022084F83D0057
:101D70002068816844F2070291438160211D206838
:101D800001F07AFE226890689169166A2B68AF6943
:101D9000034340F20330814341EA0721A868EF6919
:101DA00008434FF6FC418843E96840EA07200143B5
:101DB00028692F6A000140EA0730084369686D69A5
:101DC00026F0AA0646EA0515294393602268906129
:101DD00020680162012084F83D000020BDE700007A
:101DE000F0B587B0044614216846FEF793FA5749C8
:101DF00023680024554810390225554A554EB3F141
:101E0000804F27D0544FBB4258D1026842F00202A3
:101E10000260006800F002000590086840F00200CF
:101E200008600868694600F00200059030200090C4
:101E3000CDE901543046CDE90345FFF737FA0022DA
:101E400005211D20FFF7A0FB5FF01D00FFF78EFBB3
:101E500007B0F0BD036843F001030360006800F0C1
:101E600001000590086840F001000860086800F073
:101E700001000590086840F002000860086801272A
:101E800000F00200059020200090CDE90154CDE93A
:101E9000034769461046FFF709FA08200090CDE98C
:101EA0000154CDE9034769463046FFF7FFF90022A8
:101EB00005211C20FFF768FB1C20C7E7274FBB420A
:101EC00020D1026842F004020260006800F00400C1
:101ED0000590086840F0020008600868694600F054
:101EE00002000590C0200090CDE901543046CDE9B4
:101EF0000345FFF7DBF9002205211E20FFF744FB15
:101F00001E20A3E7164EB342A2D1036843F0080394
:101F10000360006800F008000590086840F00100C8
:101F200008600868694600F00100059003200090F1
:101F3000CDE901541046CDE90345FFF7B7F900227A
:101F400005213220FFF720FB32207FE74038024096
:101F5000000002400004024000040040000800406D
:101F6000000C004010B50446006891B1042904D06B
:101F70000122002101F0E4FD206801225FF004014C
:101F800001F0DEFD2068016841F0010101600020E0
:101F900010BD01220021F3E7704770B504460068C8
:101FA00001694FF00005C943890715D4C168C943C9
:101FB000890711D4E91E016101202077206880691A
:101FC0008007204602D0FFF7E7FF04E000F02CF97D
:101FD000204600F0DDF9257720680169C9434907EB
:101FE00017D4C168C943490713D46FF004010161D4
:101FF000022020772068806910F4407F204602D0BC
:10200000FFF7CAFF04E000F00FF9204600F0C0F926
:10201000257720680169C943090716D4C168C943F7
:10202000090712D46FF008010161042020772068AD
:10203000C0698007204602D0FFF7AEFF04E000F041
:10204000F3F8204600F0A4F9257720680169C94318
:10205000C90617D4C168C943C90613D46FF010016B
:102060000161082020772068C06910F4407F204675
:1020700002D0FFF791FF04E000F0D6F8204600F010
:1020800087F9257720680169C943C90708D1C16864
:10209000C943C90704D1891E0161204600F09CF99B
:1020A00020680169C943090609D4C168C943090602
:1020B00005D46FF0800101612046FFF74FFD2068D5
:1020C0000169C943490609D4C168C943490605D411
:1020D0006FF040010161204600F098F92068016925
:1020E000C94389060BD4C168C943890607D46FF078
:1020F000200101612046BDE87040FFF730BD70BD92
:1021000070B586B0044614216846FEF703F92468CA
:102110003A4D00223A4902233A48AC4211D10C68A8
:1021200044F010040C60096801F0100105914FF4AF
:10213000D4410091CDE901320121CDE90321694665
:102140000DE0314E0325B4420DD10C6844F010046B
:102150000C60096801F010010591602146E0FFF76D
:10216000A5F806B070BD294E2948B44209D10C68C3
:1021700044F002040C60096801F002010591811528
:1021800034E0244EB44209D10C6844F002040C60DF
:10219000096801F002010591711527E01E4E09251D
:1021A000B44209D10C6844F002040C60096801F0E3
:1021B00002010591F10019E0184E1948B44209D105
:1021C0000C6844F001040C60096801F001010591FC
:1021D00040210BE0134EB442C3D10C6844F001041B
:1021E0000C60096801F00101059180210091CDE9A1
:1021F0000132CDE903256946B1E700000000014046
:1022000030380240001002400040014000440140CC
:10221000000402400048014000180040001C00403B
:102220000000024000200040704770B5044690F85E
:102230003C000D4601280DD0012684F83C600220A8
:1022400084F83D0042B1042A18D0082A2AD00C2A6A
:102250004DD139E0022070BD206801F07FFC20687C
:10226000816941F0080181612068816921F00401E0
:102270008161206881692A69114311E0206801F0B9
:102280009DFC2068816941F4006181612068816959
:1022900021F480618161206881692A6941EA022113
:1022A000816124E0206801F0BFFC2068C16941F031
:1022B0000801C1612068C16921F00401C161206881
:1022C000C1692A69114311E0206801F0E1FC20682E
:1022D000C16941F40061C1612068C16921F4806174
:1022E000C1612068C1692A6941EA0221C16184F89B
:1022F0003D60002084F83C0070BD10B5040003D0A0
:1023000094F83D0010B107E0012010BD002084F8D2
:102310003C00204600F00CF8022084F83D00211D0E
:10232000206801F0A9FB012084F83D00002010BDC9
:1023300008B5134A01681348914207D1016841F07A
:1023400001010160006800F0010009E00E4A9142BD
:1023500008D1016841F480310160006800F48030E8
:10236000009008BD09488142FBD10648001F016862
:1023700041F040010160006800F04000F0E700001B
:102380000000014044380240004001400018004075
:102390007047000010B504460068012201F0D0FB30
:1023A0000B492068884202D00A49884203D1416C17
:1023B00041F4004141642068816801F00701062969
:1023C00003D0016841F001010160002010BD000050
:1023D000000001400004014010B5044600680849AF
:1023E000884201D1FFF74AF806492068884205D1A2
:1023F0000548016809B10168491E016010BD00006F
:10240000001400400010004000000020704770479A
:1024100070B5026804461068D168536910F00F0F58
:1024200052D003F0010501F490762E435FD0C2072D
:1024300005D0CA0503D5E26B42F00102E263420710
:1024400005D5DA0703D0E26B42F00202E2638207AD
:1024500005D5DA0703D0E26B42F00402E26302071B
:1024600007D501F020022A4303D0E26B42F00802B4
:10247000E263E26B002A33D0800604D5880602D5D9
:10248000204601F0BCFC20684069E16BC0F380107D
:10249000090700D428B3204601F09AFC206841695E
:1024A00049061AD5416921F040014161606BA0B134
:1024B0001B490165606BFEF763FD002810D0606B5F
:1024C000016DBDE870400847830610D58B060ED518
:1024D0002046BDE8704001F092BC2046FFF797FF10
:1024E00070BD2046FFF793FF0020E06370BD030638
:1024F00006D50B0604D52046BDE8704001F05EBD50
:102500004006F3D54806F1D5D168204621F04001B8
:10251000D160202184F8391000F060FB70BD00000C
:10252000F93C000870B5040004D094F83900002587
:1025300010B106E0012070BD84F83850204600F04C
:1025400023F8242084F839002068C16821F4005160
:10255000C160204601F09EFC2068016921F4904191
:1025600001612068416921F02A0141612068C16848
:1025700041F40051C160E563202084F8390084F8FB
:102580003A00002070BD00002DE9F04F87B00446EE
:1025900014216846FDF7BEFEE948DFF8A083103835
:1025A000D4F800C0E64A022103270823DFF894E3A9
:1025B000002506154FF0010B4FF00069C44535D1D9
:1025C000D2F800C04CF4002CC2F800C0126802F42B
:1025D00000220592026842F004020260006800F0E6
:1025E00004000590B8028DE80308CDE9037369463D
:1025F0007046FEF75BFED54FD3483860C7E90195BA
:10260000C7E903567D61BD61FD613D6238467D626B
:10261000FEF798FD08B1FEF7DAFA6763002205219C
:102620003420BC63FEF7B0FF342052E0DFF8208393
:10263000C44553D1D2F800C04CF4801CC2F800C08D
:10264000126802F480120592026842F004020260ED
:10265000026802F004020592026842F00802026079
:1026600000688A4600F0080005904FF48050D84674
:10267000CDE9000ACDE902879B466946049370467E
:10268000FEF714FE0420CDE9000ACDE90287694671
:10269000CDF810B0AF48FEF709FEAC4FAA4860373E
:1026A00030383860C7E90195C7E903567D61BD61DF
:1026B000FD613D6238467D62FEF744FD08B1FEF7DC
:1026C00086FA6763002205213520BC63FEF75CFFB4
:1026D0003520FEF74BFF07B0BDE8F08FDFF87882BA
:1026E0004FF0070A4FF0400BC4454CD1944A121DDD
:1026F000136843F010031360126802F01002059291
:10270000026842F001020260006800F001000590DA
:102710004FF4C0608DE8A30469469048FEF7C6FDFB
:102720008A4F8F48C037B0463860C7E90195C7E97E
:1027300003567D614FF48036BD61C7E907563846C0
:102740007D62FEF7FFFC08B1FEF741FA6763BC63E8
:10275000844F8348C7E903587D61BD61C7E90756C7
:1027600078307D6287E8010A3846FEF7EBFC08B155
:10277000FEF72DFA2763002205212520BC63FEF712
:1027800003FF2520A5E7DFF8E081C44535D11368B4
:1027900043F400331360126802F4003205920268B9
:1027A00042F001020260006800F0010005900C2078
:1027B0008DE8A30469466948FEF778FD694F6248D1
:1027C000603748303860C7E90195C7E903567D6135
:1027D0004FF48030BD61C7E9075038467D62FEF78F
:1027E000B1FC08B1FEF7F3F967630022052126204A
:1027F000BC63FEF7C9FE26206BE7DFF87081C44595
:1028000048D1136843F480231360126802F48022D5
:102810000592026842F002020260006800F00200C5
:1028200005904FF440608DE8A30469465048FEF7D8
:102830003DFD4C4F4448C03718383860C7E9019512
:10284000C7E903567D61BD61FD613D6238467D6229
:10285000FEF778FC08B1FEF7BAF96763BC63454F31
:102860003948C7E903567D61BD61FD613D6218309D
:102870007D6287E8010A3846FEF764FC08B1FEF77E
:10288000A6F92763002205212720BC63FEF77CFE02
:1028900027201EE7384A94457FF41DAF284A121DB1
:1028A000D2F800C04CF0200CC2F800C0126802F050
:1028B00020020592026842F004020260006804935C
:1028C00000F004000590C0208DE8A3006946704622
:1028D000FEF7ECFC274F22486037183838604FF07D
:1028E0002068C7E90185C7E903567D61BD61FD61C7
:1028F0003D6238467D62FEF725FC08B1FEF767F9B8
:102900006763BC631B4F1648C0376030C7E9035686
:102910007D61BD61FD613D627D6287E801093846E8
:10292000FEF710FC08B1FEF752F9276300220521DB
:102930004720BC63FEF728FE4720CAE6004C004053
:10294000403802400008024040600240C42100209C
:1029500000500040000C0240001001400000024006
:1029600040640240E422002000440040004800404F
:10297000000402400424002000140140F8B504467D
:1029800090F83A0020283CD1C1B3BAB394F838008B
:10299000012836D0012084F83800A162A2850025E4
:1029A000E563222084F83A00636B1748D863636BB1
:1029B00016481864636B1648D864606B1346056547
:1029C0000846666B216802463046091DFEF724FC66
:1029D000206801684168009184F83850C16841F46A
:1029E0008071C1602068416941F001014161206846
:1029F000416941F0400141610020F8BDFFE701203D
:102A0000FBE70220F9E70000533D00088F3D000876
:102A1000093D000890F83A30202B22D1F9B1F2B1EB
:102A200090F83830012B1CD081628285C28500214C
:102A3000C163222280F83A2080F838100168CA6801
:102A400042F48072CA6001684A6942F001024A6138
:102A50000068C16841F02001C1600020704701207A
:102A6000704702207047000010B50068084988428E
:102A70000CD1084808498068097800F0B7FEBDE825
:102A80001040012204490548FFF7C4BF10BD0000F3
:102A9000004C0040DC17002094040020442000205B
:102AA00070472DE9F843044690F839001F46164652
:102AB0000D46202850D1B5B1AEB194F838000128A8
:102AC0004AD0012084F838004FF00008C4F83C8058
:102AD000212084F83900FEF7CBFCA6848146E684E9
:102AE00084F8388026E00120BDE8F883E08C401EA1
:102AF000E084A0684B46B0F5805F4FF000024FF0D5
:102B000080012046009703D001F089FAE8B90DE072
:102B100001F085FAC8B928882168C0F30800486028
:102B2000206908B16D1C05E0AD1C03E0216815F8B3
:102B3000010B4860E08C0028D8D14B460022402190
:102B40002046009701F06BFA08B10320CCE7202063
:102B500084F839000020C7E70220C5E770B50446B5
:102B600090F83900202830D169B362B394F8380066
:102B700001282AD0012084F838002162A284E2844E
:102B80000025E563212084F83900236B1048D863C1
:102B9000236B10481864236B0F48D864206B1346CE
:102BA00005652668206B321DFEF736FB21686FF045
:102BB0004000086084F838502068416941F0800185
:102BC0004161002070BD012070BD022070BD000079
:102BD000993D0008C73D0008093D0008704770474F
:102BE000FEE700000EB5254D012050222870244933
:102BF0002448FFF7C3FE224E4FF0FF373946E868FE
:102C000004F08AFD04F02CF80024305D01F0CEFAC7
:102C1000641C502CF9DB1C480078D0B11B4A9FED96
:102C20001C0ADFED1C0A0020694600BF02EB4003CE
:102C3000B3F97A3001EE103A01EB8003401CB8EE94
:102C4000C11A032821EE001A21EE201A83ED001A82
:102C5000ECDB50220A490B48FFF790FE04F020F805
:102C600000231A466946686A04F022FB00231A46CC
:102C70006946E86A04F01CFBC0E70000200400205D
:102C8000401A002004210020050000203E060020FC
:102C900000000038000034432D4808B5016841F4B5
:102CA00080010160016801F480010091016841F434
:102CB000001101600068002200F40010009005215E
:102CC0000B20FEF761FC0B20FEF750FC00220521D3
:102CD0000C20FEF759FC0C20FEF748FC00220521D1
:102CE0000D20FEF751FC0D20FEF740FC00220521CF
:102CF0000E20FEF749FC0E20FEF738FC00220521CD
:102D00001020FEF741FC1020FEF730FC00220521C8
:102D10003920FEF739FC3920FEF728FC0022052176
:102D20003A20FEF731FC3A20FEF720FC0022052174
:102D30004520FEF729FC4520FEF718FC002205215E
:102D40004620FEF721FCBDE808404620FEF70EBCF9
:102D50003038024010B5D4B003220021012004F025
:102D60003FFA674C03220021E060012004F038FAAA
:102D7000206103220021012004F032FA6061032265
:102D80000021012004F02CFAA06100221021012072
:102D900004F026FAE06100221021022004F020FA5B
:102DA000206200220C21012004F01AFA6062002245
:102DB0001021012004F014FAA06200220C2101204D
:102DC00004F00EFAE06200221C21012004F008FA4F
:102DD000206300221021012004F002FA6063002227
:102DE0000821012004F0FCF9A06300220821012041
:102DF00004F0F6F9E0631C2242496846FDF771FAD7
:102E00000021684603F0ECF83E4960641C221C3146
:102E100007A8FDF766FA002107A803F0E1F8394991
:102E2000A0641C2238310EA8FDF75BFA00210EA821
:102E300003F0D6F83349E0641C22543115A8FDF79D
:102E400050FA002115A803F0CBF82E4920651C226A
:102E500070311CA8FDF745FA00211CA803F0C0F84A
:102E6000284960651C228C3123A8FDF73AFA00211D
:102E700023A803F0B5F82349A0651C22A8312AA88D
:102E8000FDF72FFA00212AA803F0AAF81D49E065F2
:102E90001C22C43131A8FDF724FA002131A803F027
:102EA0009FF8184920661C22E03138A8FDF719FA6E
:102EB000002138A803F094F8124960661C22FC3106
:102EC0003FA8FDF70EFA00213FA803F089F8A0669D
:102ED0001C220D4946A8FDF704FA002146A803F07C
:102EE0007FF80949E0661C221C314DA8FDF7F9F96D
:102EF00000214DA803F074F8206754B010BD000005
:102F000020040020FC7E0008148000082DE9F04316
:102F100087B014216846FDF7FDF93B48002401689D
:102F200041F010010160016801F010010591016894
:102F300041F004010160016801F00401059101689C
:102F400041F080010160016801F080010591016894
:102F500041F001010160016801F001010591016882
:102F600041F002010160016801F002010591016870
:102F700041F0080101600068244F00F008004FF4A0
:102F8000C4450590002229463846FEF76BFADFF863
:102F90008090002241F202014846FEF763FADFF812
:102FA00074804FF47F46002231464046FEF75AFABD
:102FB00000950125CDE90154694638460394FEF792
:102FC00075F928030090CDE90154694648460394F9
:102FD000FEF76CF90096CDE901546946404603942A
:102FE000FEF764F9E8038DE8310069460A48FEF708
:102FF0005DF902208DE8310069464846FEF756F932
:1030000007B0BDE8F08300003038024000080240FD
:1030100000100240000C02400000024010B588B0D1
:103020001C216846FDF776F9154814490024016013
:10303000A721C0E9011444F61F61C0E903148461AB
:10304000FEF700FE08B1FDF7C2FD0D48FFF755F988
:1030500008B1FDF7BCFD6020CDE900040294002218
:10306000694607480494FFF7E0F808B1FDF7AFFDA3
:103070000348FFF745F808B010BD000000440140C8
:10308000041F002010B588B01C216846FDF742F9E6
:103090001548144900240160A721C0E9011444F631
:1030A0001F61C0E903148461FEF7CCFD08B1FDF790
:1030B0008EFD0D48FFF721F908B1FDF788FD60206E
:1030C000CDE9000402940022694607480494FFF702
:1030D000ACF808B1FDF77BFD0348FFF711F808B025
:1030E00010BD000000480140441F002010B588B00A
:1030F0001C216846FDF70EF91648154900240160A9
:103100005321C0E9011444F61F61C0E9031484612E
:10311000FFF7F3F808B1FDF75AFD6020CDE9000490
:103120000294002269460B480494FFF77EF808B128
:10313000FDF74DFD042269460648FFF776F808B111
:10314000FDF745FD0348FEF7DBFF08B010BD0000AA
:1031500000180040841F002010B588B01C2168466C
:10316000FDF7D8F8154814490024016040F28F613A
:10317000C0E9011440F2E731C0E903148461FEF7AD
:1031800061FD08B1FDF723FD0C48FFF7B6F808B163
:10319000FDF71DFD6020CDE9000402940022694680
:1031A00006480494FFF741F808B1FDF710FD034805
:1031B000FEF7A6FF08B010BD001C0040C41F002091
:1031C00010B588B01C216846FDF7A4F815481449CD
:1031D0000024016040F28F61C0E9011440F2E73140
:1031E000C0E903148461FEF72DFD08B1FDF7EFFC83
:1031F0000C48FFF782F808B1FDF7E9FC6020CDE943
:10320000000402940022694606480494FFF70DF872
:1032100008B1FDF7DCFC0348FEF772FF08B010BDF3
:10322000002000400420002010B592B000240F942C
:103230001C2168461094FDF76DF8202107A8FDF7C2
:1032400069F82C482A4901601021C0E9011440F2B4
:10325000E731C0E9031444618461FFF74EF808B117
:10326000FDF7B5FC0F940FA922481094FEF7A2FCBD
:1032700008B1FDF7ACFC6020CDE900040294039492
:1032800004940594002269461A480694FEF7CDFF7F
:1032900008B1FDF79CFC042269461648FEF7C5FFFD
:1032A00008B1FDF794FC082269461248FEF7BDFFFD
:1032B00008B1FDF78CFC0C2269460E48FEF7B5FFFD
:1032C00008B1FDF784FC0794089409944FF400506A
:1032D0000A94CDE90B4007A906480E94FEF740FC7E
:1032E00008B1FDF774FC0348FEF70AFF12B010BDE9
:1032F00000000140441D002010B58CB02421684618
:10330000FDF708F80024154809944FF080410A940D
:10331000C0E900144FF45251C0E9024104618461D4
:103320000320CDE900040120CDE902040494CDE995
:1033300005400794694609480894FEF704FD08B162
:10334000FDF745FC099409A904480A94FEF732FCEC
:10335000002801D0FDF73BFC0CB010BD841D0020FF
:1033600010B58CB024216846FCF7D4FF0024164821
:10337000099414490A94C0E900144FF45251C0E969
:103380000241046184610320CDE900040120CDE9FC
:1033900002040494CDE90540079469460A4808945C
:1033A000FEF7D1FC08B1FDF712FC099409A9064803
:1033B0000A94FEF7FFFB002801D0FDF708FC0CB0D3
:1033C00010BD000000040040C41D002010B58CB0EA
:1033D00024216846FCF79EFF0024164809941449EE
:1033E0000A94C0E900144FF45251C0E9024104614B
:1033F00084610320CDE900040120CDE90204049496
:10340000CDE90540079469460A480894FEF79BFCFD
:1034100008B1FDF7DCFB099409A906480A94FEF7F8
:10342000C9FB002801D0FDF7D2FB0CB010BD000095
:1034300000080040041E002010B58CB0242168460E
:10344000FCF768FF00241648099414490A94C0E95F
:1034500000144FF45251C0E9024104618461032019
:10346000CDE900040120CDE902040494CDE9054032
:10347000079469460A480894FEF765FC08B1FDF711
:10348000A6FB099409A906480A94FEF793FB0028B5
:1034900001D0FDF79CFB0CB010BD0000000C0040FB
:1034A000441E00201CB500240E4800940C490194D1
:1034B00001605321C0E9011442F20F718461C160BF
:1034C000FEF7C0FB08B1FDF782FB00946946054892
:1034D0000194FEF76FFB002801D0FDF778FB1CBDBF
:1034E00000100040841E002010B588B01C216846E2
:1034F000FCF710FF1648154900240160A721C0E918
:10350000011444F61F61C0E903148461FEF7F5FE5F
:1035100008B1FDF75CFB6020CDE9000402940022B5
:1035200069460B480494FEF780FE08B1FDF74FFB97
:10353000042269460648FEF778FE08B1FDF747FB0E
:103540000348FEF7DDFD08B010BD0000004001405B
:10355000C41E00200C4810B50A4901604FF4E13147
:103560004160002181600C22C160C0E904128161C8
:10357000C161FEF7D7FF002803D0BDE81040FDF77A
:1035800026BB10BD004C0040442000200C4810B564
:103590000A4901604FF4E1314160002181600C2251
:1035A000C160C0E904128161C161FEF7BBFF002860
:1035B00003D0BDE81040FDF70ABB10BD005000402D
:1035C000842000200C4810B50A4901604FF4E13115
:1035D0004160002181600C22C160C0E90412816158
:1035E000C161FEF79FFF002803D0BDE81040FDF742
:1035F000EEBA10BD00100140C42000200C4810B5E8
:103600000A4901604FF4E1314160002181600C22E0
:10361000C160C0E904128161C161FEF783FF002827
:1036200003D0BDE81040FDF7D2BA10BD0044004001
:10363000042100200C4810B50A4901604FF4E13123
:103640004160002181600C22C160C0E904128161E7
:10365000C161FEF767FF002803D0BDE81040FDF709
:10366000B6BA10BD00480040442100200C4810B5F7
:103670000A4901604FF4E1314160002181600C2270
:10368000C160C0E904128161C161FEF74BFF0028EF
:1036900003D0BDE81040FDF79ABA10BD00140140F8
:1036A00084210020FEE70000144A08280ED00A28D2
:1036B00014D00C281AD00E2807D1106820F44040EE
:1036C0001060106840EA813010607047106820F484
:1036D00040701060106840EA0120F5E7106820F49F
:1036E00040601060106840EA8120EDE7106820F427
:1036F00040501060106840EA0130E5E7140C0240C9
:10370000FEE700B503895B1E00F003F8181A80B2CB
:1037100000BD8288C1888A4203D90089511A401AA3
:1037200000E0881A80B27047F0B50746FFF7F1FF56
:1037300000240646254606E0A9B2384600F007F800
:103740002044C4B26D1CB542F6DB2046F0BD10B576
:103750000C460346FFF7DDFFA04201D8002010BD54
:103760009888641C19892044B0FBF1F201FB120017
:10377000196880B2085C10BD026000228280C2809D
:10378000491C0181114603E003685A54491C89B25F
:1037900003898B42F8D8704710B50446FFF7B1FF94
:1037A0002189491E89B2884201D1012010BD002023
:1037B00010BD00B5FFF7A5FF08B1002000BD012036
:1037C00000BD10B50446FFF7E7FF08B1002010BDAB
:1037D000A0882189401CB0FBF1F201FB120081B2EC
:1037E000A18022680023505C535410BD30B50D46B3
:1037F0000446FFF7DEFF10B12046FFF7E2FFE08846
:103800002189401CB0FBF1F201FB120080B2E08084
:1038100021680D5430BDFFF7D4BFFFF7E7BFF0B507
:1038200015460E460746002405E0315D3846FFF791
:10383000DDFF641CA4B2AC42F7D3F0BD03B501A90F
:103840000222FFF7ECFF0CBD03B501A90222FFF72E
:10385000E6FF0CBD10B50023104A15E0362809D04C
:1038600039280BD03C2812D054783F2813D044F08C
:10387000800406E0547844F0010402E0547844F0F7
:103880000204401C54705B1C8B42E7D310BD54787B
:1038900044F00804F5E744F00404F2E704000020D3
:1038A0008AB2014664230148FFF7FBB804210020D7
:1038B000044C054D206880F400502060A88802F078
:1038C00083FBF7E7140802402004002001B50449F7
:1038D000009808600348016841F00101016008BDDB
:1038E0000000002000100040044900200860044847
:1038F00001684FF6FE721140016070470000002021
:10390000001000400348006808B100207047012003
:10391000704700000000002001B4034900980860CF
:1039200001B000F019B800000000002010B55020D0
:1039300080F31188BFF34F8FBFF36F8F04F048F807
:1039400018B104494FF080500860002080F31188BE
:1039500010BD000004ED00E00748016841F00101DE
:10396000016006490A68002AFCD101684FF6FE7220
:10397000114001607047000000100040000000206E
:1039800030B593B030216846FCF7C4FC14210CA874
:10399000FCF7C0FC1D480025016841F08051016022
:1039A000006800F0805011901948016841F480418E
:1039B00001600068022400F480401190012003900F
:1039C00010200490009406940820CDE90750A82008
:1039D000CDE9090404200B906846FDF711FF08B1FA
:1039E00072B6FEE70CA90F2081E831004FF4A05019
:1039F0000F904FF48050109005210CA8FDF7F6FDB4
:103A0000002801D072B6FEE713B030BD4038024046
:103A1000007000400548016841F4700101600349ED
:103A20004FF00060803908607047000088ED00E0CA
:103A30000148FEF7B2BA0000841D00200148FEF7DD
:103A4000ACBA0000C41D00200148FEF7A6BA000071
:103A5000041E00200148FEF7A0BA0000441E00200A
:103A60000148FEF79ABA0000841E00200148FEF7C4
:103A700094BA000024250020F0B50268254C264D9C
:103A8000264E274F274B4FF0804CA04209D060456F
:103A900007D0A84205D0B04203D0B84201D0984226
:103AA00004D122F0700E4A6842EA0E02A0421BD0F6
:103AB000604519D0A84217D0B04215D0B84213D0F3
:103AC000984211D0184DA8420ED0184DA8420BD0E4
:103AD000174DA84208D0174DA84205D0164DA84250
:103AE00002D0164DA84203D122F44075CA682A4379
:103AF0004D6922F080022A4302608A68C2620A6825
:103B00008262A04201D0984201D10969016301217A
:103B10004161F0BD00000140000400400008004089
:103B2000000C0040000401400040014000440140FE
:103B30000048014000180040001C004000200040E8
:103B400010B501F01F030121046A99408C430462FF
:103B5000016A9A401143016210BD0000F0B5026A8B
:103B600022F001020262036A42688469124E24F064
:103B700073050C682C4323F002058B682B430D4D15
:103B8000A84201D0B04205D123F00807CB683B43DF
:103B900023F00403A84201D0B04205D14D6922F4BC
:103BA000407215438A692A434260846149684163CF
:103BB0000362F0BD0000014000040140F0B5026A5C
:103BC00022F010020262026A436884690D6824F4DC
:103BD000E64444EA05248D6822F0200242EA0512F8
:103BE0000F4D104EA84201D0B04206D1CF6822F04E
:103BF000800242EA071222F04002A84201D0B042FD
:103C000007D14D6923F4406343EA85038D6943EA94
:103C1000850343608461496881630262F0BD0000EE
:103C20000000014000040140F0B5026A22F48072F5
:103C30000262026A4368C46922F4007224F07305C8
:103C40000C68124E2C438D6842EA05220E4DA842A4
:103C500001D0B04206D1CF6822F4006242EA0722C6
:103C600022F48062A84201D0B04207D14D6923F40A
:103C7000405343EA05138D6943EA05134360C46169
:103C80004968C1630262F0BD0000014000040140C8
:103C900030B5026A22F480520262046A4268C36943
:103CA0000D6823F4E64343EA05238D6824F40054A9
:103CB00044EA0534084DA84202D0084DA84204D178
:103CC0004D6922F4804242EA85124260C36149682C
:103CD0000164046230BD00000000014000040140A6
:103CE0000148FEF795BB0000442000200148FEF784
:103CF0008FBB00008420002010B5806B0021C1859F
:103D0000C184FEF784FB10BD70B5846B20684069E8
:103D100094F83910C0F3C0100025212904D118B13E
:103D2000E584204600F062F82068406994F83A1073
:103D3000C0F38010222904D118B1E585204600F097
:103D400047F8E06B40F01000E0632046FEF75FFBB1
:103D500070BD10B50146806B09680968C90513D4A8
:103D60000021C1850168CA6822F48072CA600168B6
:103D70004A6922F001024A6101684A6922F0400260
:103D80004A61202180F83A10FEF76EFE10BD10B592
:103D9000806BFEF785FE10BD10B50146806B09688B
:103DA0000968C9050CD40021C18401684A6922F060
:103DB00080024A610068C16841F04001C16010BDE5
:103DC000FEF70CFF10BD10B5806BFEF708FF10BDAD
:103DD0000168CA6822F49072CA6001684A6922F0D8
:103DE00001024A61202180F83A1070470168CA68D0
:103DF00022F0C002CA60202180F83910704710B547
:103E000090F83A10222901D0022010BD8168B1F546
:103E1000805F11D00169002901681FD0496801F055
:103E20007F03816A4A1C82620B70C18D491E09049E
:103E3000090CC18518D02BE00269816A002A02684A
:103E4000526805D0D2B20A80816A491C8162ECE7CF
:103E5000C2F308020A80816A891CF7E74A68816A0E
:103E60004B1C83620A70E0E70168CA6822F02002F6
:103E7000CA600168CA6822F48072CA6001684A692F
:103E800022F001024A61202180F83A10FEF7ECFD91
:103E9000002010BD2DE9F041044600680169E26888
:103EA00021F44051114301612169A068E26908438E
:103EB0006169114308432168CA6849F20C639A4357
:103EC0000243CA6020684169A26921F4407111432C
:103ED0004161E069192764253226B0F5004F354A63
:103EE000354920684FF0000806D0884201D0904242
:103EF00036D1FDF745FC35E0884201D0904202D131
:103F0000FDF73EFC01E0FDF72BFC61684A18A0FBC1
:103F1000070148EB0803FCF7B3F90146B0FBF5F0E5
:103F20000201B1FBF5F06FF01803584301EB80007C
:103F300006EBC000B0FBF5F000F0F80002EB400229
:103F4000B1FBF5F0584301EB800006EBC000B0FB7D
:103F5000F5F000F00700216810448860BDE8F081AA
:103F6000FDF7FEFB61688B0F8A00A0FB0701FCF7E1
:103F700087F90146B0FBF5F06FF01802504301EBF2
:103F8000800006EB0010B0FBF5F000F0F002B1FB92
:103F9000F5F002EB0012B1FBF5F06FF01803584397
:103FA00001EB800006EB0010B0FBF5F000F00F0015
:103FB000D1E70000001401400010014090F83910D2
:103FC000212901D0022070478168B1F5805F016A24
:103FD0000BD04A1C0262026809785160C18C491EEC
:103FE0000904090CC1840ED017E009880268C1F3E6
:103FF0000801516001690029016A02D0491C01626F
:10400000ECE7891CFBE70168CA6822F08002CA60FD
:104010000068C16841F04001C160002070472DE98F
:10402000F041984617460E460446069D1DE0681C62
:104030001BD02DB1FDF71CFAA0EB0800A84214D943
:104040002068C16821F4D071C1602068416921F005
:1040500001014161202084F8390084F83A000020F1
:1040600084F838000320BDE8F0812068006836EA53
:10407000000004D00020B842D9D00020F3E701208E
:10408000F9E700000148FEF7C3B90000C420002092
:104090000148FEF7BDB90000042100200148FEF7E9
:1040A000B7B90000442100200148FEF7B1B9000073
:1040B00084210020FEE7000070B505460024291980
:1040C000642301220348FEF7ECFC641C285D0028F1
:1040D000F5D170BD8421002010B5044606E060686B
:1040E000FFF76FFB0146206800F006F86068FFF7F5
:1040F00010FB0028F3D110BD13B56423012201A9E0
:10410000FEF7CFFC1CBD000070B5054600244FF43F
:104110007A762919334601220348FEF7C2FC641C53
:10412000285D0028F5D170BD4421002001A0FFF7D3
:10413000C3BF00004100000001A0FFF7BDBF0000A9
:104140004400000001A0FFF7DFBF000042000000B4
:1041500001A0FFF7D9BF00004100000001A0FFF758
:10416000D3BF00004400000018B10349886100205B
:1041700070476FF00500704704000020032802D943
:104180006FF005007047034A106211700020D06183
:10419000704700000400002018B103494861002066
:1041A00070476FF005007047040000202DE9FC41C6
:1041B0003B4C6169002955D03A49E2698854521C48
:1041C000E261206A002630B101282FD0022865D094
:1041D000032860D162E00878552804D0521E314887
:1041E000491CE2613CE00B2A55D30A252D4F0020E3
:1041F0004FEA000317F803C05B1C6044C0B2AB4237
:10420000F8D38B7A8342E9D14888ADF800008888DA
:10421000ADF80200C888ADF804000889ADF80600C2
:10422000487804226946FCF799FB37E0022A32D924
:1042300048780328D2D18878401D904212D8881837
:104240000D4630F8020C921E47BA91B2154800F0A4
:104250005BF8874208D0E269691C521E1148E2618E
:10426000FCF73FF8BDE8FC81A8780F4B420800211D
:10427000606A0AE005EB410701EB000CB7F8037038
:10428000491C7FBA23F81C7089B29142F2D31146BF
:104290006269904702E0B2F5807FE3D1E661E1E731
:1042A000040000203E0500203E06002018B103490E
:1042B0004860002070476FF0050070470400002040
:1042C0000FB4054B10B503A9044A029800F014F985
:1042D00010BC5DF814FB0000295C000808050020F4
:1042E0000FB4084B10B504A902AA039800F004F912
:1042F000044602A9002000F096FC204610BC5DF8A0
:1043000014FB0000274C0008F0B5FF23084E1C46A4
:10431000002206F5807705E0855C5D40735D6340B3
:104320007C5D521C8A42F7DB44EA0320F0BD0000AA
:10433000FC7C00080907090E002804DB00F1E020DE
:1043400080F80014704700F00F0000F1E02080F8C2
:10435000141D704702E008C8121F08C1002AFAD1D4
:1043600070477047002001E001C1121F002AFBD1F5
:10437000704700002DE9FF5F82B00021DDE90430C5
:10438000020DDDF840B0034318D044F61050A2F2FD
:10439000FF3242431514119801281FD0A5EB0B00E2
:1043A000401C5FEA000A4FF000064E4FDFF83891DC
:1043B000B046504615D5CAF1000413E01198012407
:1043C0004AA3012801D16FEA0B010298119AC0E9B2
:1043D0000031C0E9024206B0BDE8F09FCBF1000019
:1043E000DFE704460021404A491842EB0450CDE97A
:1043F000001012E0E00707D032463B4640464946EF
:10440000FCF7B9F98046894632463B4610461946C4
:10441000FCF7B1F906460F466410002CEAD1DDE93D
:104420000401DDE90023BAF1000F06DAFCF7A3F975
:1044300042464B46FCF79FF905E0FBF77DFF4246FD
:104440004B46FBF779FF04460E460022284BFCF74B
:104450001DFA03D84FF0FF30014607E00022254B3C
:1044600020463146FCF7E0F8FCF7F7F9102409E0A4
:10447000002C0ADB0A220023FBF702FF039B3032E9
:104480001A55641E50EA0102F2D1641C039AC4F169
:1044900011031444119A012A03D0012208430DD1BB
:1044A0000AE0084304D000204FF0110B119072E78E
:1044B000A3EB0B056D1E0DE05B4504DD4FF0000224
:1044C00005F1010504E003DA4FF00002A5F1010552
:1044D000002AECD002981199C0E90231C0E90045E8
:1044E00079E70000000014400000F03F30000000B9
:1044F0000000F0430000E03F2DE9FF4F95B09B46E0
:104500008946064600250FE2252877D10024274654
:10451000F84A0121059400E0044316F8013F203BCE
:1045200001FA03F01042F7D130782A2811D06FF049
:104530002F033078A0F13002092A16D8059A44F0EA
:10454000020402EB820203EB42021044761C059047
:10455000EFE759F8042B0592002A03DA504244F49D
:104560000054059044F00204761C30782E2816D1B1
:1045700016F8010F44F004042A280DD06FF02F0222
:104580003078A0F13003092B09D807EB870302EB41
:104590004303C718761CF3E759F8047B761C307880
:1045A0006C280FD006DC4C2817D068280DD06A285C
:1045B00014D104E0742810D07A280FD10DE044F40F
:1045C00000140AE044F4801401E044F440147278CA
:1045D000824202D104F58014761C761C307866285D
:1045E0000BD013DC582877D009DC002875D045287B
:1045F000F6D04628F4D047281AD19DE118E0632868
:1046000035D0642879D0652812D195E1702873D00F
:1046100008DC6728F1D069286FD06E280DD06F288C
:1046200006D1B5E073282CD0752875D0782874D0C1
:104630005A46179990476D1C75E1C4F30250022841
:1046400009D003280DD0D9F8001004280DD00D6032
:1046500009F1040967E1D9F80010EA17C1E900522D
:10466000F6E7D9F800100D80F2E70D70F0E719F8C1
:10467000041B8DF8001000208DF80100EA4601208F
:1046800003E059F804AB4FF0FF3061074FF0000131
:1046900002D40DE008F101018846B9420FDA8045E5
:1046A000F8DB1AF808100029F4D108E008F101013C
:1046B00088468142FADB1AF808100029F6D10598DD
:1046C0005B46A0EB080721463846179A00F094FA9B
:1046D000284400EB080507E04DE029E10DE01AF859
:1046E000010B5A4617999047B8F10108F7D25B467B
:1046F00021463846179A13E142E00A220092C4F399
:1047000002524FF0000A022A08D059F804CB032ABB
:104710004FEAEC710AD00DE029E02AE009F1070127
:1047200021F00702F2E802C1914609E00FFA8CFC81
:104730004FEAEC71042A03D14FFA8CFC4FEAEC717A
:10474000002907DA0A460021DCF1000C61EB0201C6
:104750002D2202E0220504D52B228DF8042001220F
:1047600003E0E20701D02022F7E7904659E00A2152
:1047700002E010220DE010214FF0000A00910BE042
:1047800010224FF0000A44F004040827009203E0CE
:1047900008224FF0000A0092C4F30252022A05D008
:1047A00059F804CB0021032A08D009E009F10701D8
:1047B00021F00702F2E802C1914605E01FFA8CFCE5
:1047C000042A01D10CF0FF0C4FF00008220728D575
:1047D000702806D0009B83F0100353EA0A0305D02B
:1047E0000EE040228DF80420012208E05CEA01027C
:1047F00006D030228DF804208DF805000222904664
:10480000009B83F0080353EA0A030AD15CEA010221
:1048100001D1620705D530228DF804204FF0010840
:104820007F1E582804D034A003900EA802900DE0FB
:1048300036A0F9E753466046009AFBF721FD84460F
:104840000398825C0298401E029002705CEA0100AC
:10485000F0D1029806A9081A00F1200A600702D5D3
:1048600024F4803400E00127574502DDA7EB0A005D
:1048700000E0002000EB0A01009005984144401A36
:104880000590E00306D45B462146179A059800F090
:10489000B3F90544002706E001A85A46C05D179900
:1048A00090476D1C7F1C4745F6DBE0030CD55B464B
:1048B0002146179A059800F09FF9054404E030203E
:1048C0005A46179990476D1C0099481E0090002980
:1048D000F5DC08E0029802995A460078491C0291DA
:1048E000179990476D1CBAF10001AAF1010AF1DC99
:1048F00065E10000092801003031323334353637A4
:10490000383961626364656600000000303132331B
:1049100034353637383941424344454600000000BB
:1049200000F058F90544761C307800287FF4ECAD8F
:1049300019B02846BDE8F08F620700D4062709F1B8
:10494000070222F0070CFCE80223E14603F00048CE
:104950005FEA080C02D00FF2702C0DE05FEA045CF5
:1049600002D50FF2682C07E05FEAC47C02D00FF298
:10497000602C01E0AFF2700C4FF0FF3823F00043E1
:10498000CDF850C065280CD006DC452809D0462853
:104990001DD047283DD13DE0662818D067287ED13C
:1049A00038E00021112F01DB112000E0781CCDE957
:1049B000000106A90EA8FFF7DDFCDDE90F010E9A44
:1049C00003910021009207F1010A04914DE04FF09C
:1049D00000400097CDE9011006A90EA8FFF7CAFC18
:1049E000DDE90F0203920E9B11990022DDF80CA065
:1049F0000093049211B9791C00EB010AB7EB0A008D
:104A000004D4C0F1FF3007F1010A0490AAEB0700BB
:104A1000019044E0012F00DA01270021112F01DD70
:104A2000112000E03846CDE9000106A90EA8FFF7E5
:104A3000A1FCDDE90F010E9A03910021049100927F
:104A4000BA4621070CD40399514500DA8A46BAF1D7
:104A5000010F05DD009AAAF10101515C302908D04F
:104A6000B84202DA10F1040F06DA0121CDE9011093
:104A700015E0AAF10101E9E7002805DC04990144E9
:104A80000491AAEB000102E0411C514500DD8A4679
:104A90000499401A401C01904FF0004002902007FA
:104AA00004D40198504501DBCDF8048000208DF836
:104AB0004F0002980DF14F07B0F1004F25D02B2089
:104AC0000E9002984FF0020800280CDA4042029043
:104AD0002D200E9007E00A210298FBF7DCFC303114
:104AE000029007F8011DB8F10001A8F10108F2DCFD
:104AF00002980028EFD1791E0E980870307800F0E7
:104B0000200040F0450007F8020D12A8C01B00F17C
:104B100007081498007800B1012000EB0A01019801
:104B200001EBE07105984144401A401E0590E003F6
:104B300006D45B462146179A059800F05DF80544B7
:104B40001498007818B15A46179990476D1CE003E5
:104B500024D55B462146179A059800F04DF8054488
:104B60001CE00498002807DBDDE90301884203DD2F
:104B70000098405C179901E0179930205A469047F9
:104B8000049805F10105401C04900198401E019015
:104B900004D12E205A46179990476D1CBAF1000196
:104BA000AAF1010ADDDC05E017F8010B5A46179956
:104BB00090476D1CB8F10001A8F10108F4DC5B46D8
:104BC0002146179A0598ABE62D0000002B00000047
:104BD000200000002DE9F041044600251E4617463E
:104BE000880404D405E039462020B0476D1C641EBB
:104BF000F9D52846BDE8F0812DE9F04104460025AD
:104C00001E469046C80301D5302700E020278804BF
:104C100004D505E041463846B0476D1C641EF9D501
:104C20002846BDE8F0810A68531C0B60107070477D
:104C300010B5F0EE603A0346B0EE404A9FED293AD7
:104C4000DFED292A9FED292AF0EE610A00F098FA9B
:104C500010EE100A2649884207DDBDE81040F0EE4C
:104C6000630AB0EE440A00F019BBF0EE610AB0EE40
:104C7000440A00F085FA1F491F4AD1ED020A70EE7E
:104C8000800A10EE900AC1ED020A904202DDDFEDCB
:104C90001B0A06E010EE900A194A904201D3DFED9C
:104CA000190A20EE031AC1ED020A81ED030A30EE63
:104CB000400A00EEA21A4FF47A7000EE021ABDEE1E
:104CC000C10A10EE102A824202DC4042824200DC1D
:104CD00002469918981ABDE810400B46024601F0AA
:104CE0009DBD0000666666408FC2F53D0000000075
:104CF0000000F0412C0000200060EA460060EA4617
:104D00000060EAC60060EAC62DE9F04140F21D16D7
:104D1000069CB0EE604A04FB0657F0EE404A4FF4A2
:104D2000487500269FED583ADFED582A9FED582A26
:104D3000DFED583ADFED580A584CD4F824C0BC4592
:104D400005D0DFF85CC18CE80F00676211E0544EBB
:104D5000D6F800C0A0EB0C0008447168401AB16896
:104D60001044401AF1681844401AC11700EB9170C2
:104D70008610B91B00EE101AA06A4A4B0844B8EE20
:104D8000C00AA062226A2E4663EE803A8A1A00EEBA
:104D9000102AB8EEC05AB0EE420A40EE053A00EED4
:104DA000100AB8EEC00A40EE803ABDEEE30A10EEFB
:104DB000102AAA4201DD324602E09A4200DC1A467D
:104DC00043F69823984202DC5B42984200DC184686
:104DD00021620931A062132908D200231A4619461C
:104DE000184601F01BFD0120BDE8F081F0EE610ADC
:104DF000B0EE640A00F0C4F910EE100A2A498842A5
:104E000006DDF0EE440AB0EE640A00F047FA38E03E
:104E1000F0EE610AB0EE640A00F0B2F9D4ED060AD1
:104E2000224970EE800A10EE900AC4ED060A88420C
:104E300002DDDFED1F0A06E010EE900A1D498842F0
:104E400001D3DFED1D0A20EE031AC4ED060A84ED3E
:104E5000070A30EE400A00EEA21A4FF4C87100EEC5
:104E6000021ABDEEC10A10EE100A884202DC494265
:104E7000884200DC08461118101A0B46024601F061
:104E8000CDFC0020B0E70000666666408FC2F53DAD
:104E900000000000CDCCCC3D0AD7233C2C000020E4
:104EA00090070020E0FCFFFF0000F04100606A4630
:104EB00000606A4600606AC600606AC670B5F0EEBF
:104EC000603A0546B0EE404A9FED2A3ADFED2A2AC5
:104ED000B7EE002AF0EE610A00F052F910EE100A67
:104EE0002649884207DDBDE87040F0EE630AB0EE67
:104EF000440A00F0D3B9F0EE610AB0EE440A00F0C3
:104F00003FF91F491F4AD1ED040A70EE800A10EEE6
:104F1000900AC1ED040A904202DDDFED1B0A06E0B3
:104F200010EE900A194A904201D3DFED190A20EEE3
:104F3000031AC1ED040A81ED050A30EE400A00EEC5
:104F4000A21A4FF47A7000EE021ABDEEC10A10EEFA
:104F5000101A814202DC4042814200DC01466C1A98
:104F60006B186242481941422046BDE8704001F08A
:104F700055BC000066662640000000000000F041BD
:104F80002C0000200060EA460060EA460060EAC6A5
:104F90000060EAC62DE9F0410024069E40F231157A
:104FA00006FB0546B0EE604AF0EE404A4FF4167537
:104FB0002746B3EE043A9FED5E2AF7EE002ADFEDB6
:104FC0005D3ADFED5D0A5D4C4FF0000ED4F838C05D
:104FD000B4450DD0DFF868C1B0EE420A8CE80F008E
:104FE000A66384ED0C0AC4F83CE084ED0B0A08E0EB
:104FF00053490A68C968801A1844401A00EBD070F7
:105000004710F11B00EE101AE06B4E4B0844B8EE4F
:10501000C00AE063626B63EE803A8A1A00EE102ADF
:10502000B8EEC05AB0EE420A40EE053A00EE100A61
:10503000B8EEC00A40EE803ABDEEE30A10EE102A48
:10504000AA4204DC9A4201DD154600E01D4647F203
:105050003052904202DC5242904200DC10466163C2
:105060000931E063132908D200231A46194618466D
:1050700001F0D4FB0120BDE8F081F0EE610AB0EE52
:10508000640A00F07DF810EE100A2F49884206DD10
:10509000F0EE440AB0EE640A00F000F946E0F0EEEB
:1050A000610AB0EE640A00F06BF810EE100A10F11D
:1050B000814F04D810EE100AB0F17E5F2EDDD4EDE2
:1050C0000B0A224970EE800A10EE900AC4ED0B0A1A
:1050D000884202DDDFED1E0A06E010EE900A1D494F
:1050E000884201D3DFED1C0A20EE031AC4ED0B0A3F
:1050F00084ED0C0A30EE400A00EE821A00EE221A0D
:10510000BDEEC10A10EE100A962801DD962006E0D9
:105110006FF09501884202DC084600E0002041194A
:105120002B184A42281A414201F078FB0020A2E7DE
:1051300000000000CDCCCC3D0AD7233C2C00002041
:10514000A0070020A8FDFFFF0000F04100401C4622
:1051500000401C4600401CC600401CC60A2000F04F
:1051600033FFFBE710B5002145F2082405E0224695
:1051700002235B1C9342FCD3491C8142F7D310BD30
:1051800030EE600AB5EEC00AF1EE10FA04DD10EE62
:10519000100A0C49884211DD10EE101A0A488142AB
:1051A00004D8B5EEC00AF1EE10FA07D910EE101AC5
:1051B000DFED060A814202D930EE200A704730EE58
:1051C000600A704700003443000034C30000B44359
:1051D00098B0284C0A2215A9606A02F001FA0A2246
:1051E00011A9A06A02F0FCF90A220DA9E06902F0F7
:1051F0005DF900250DF1200606EB85026D1CE9B274
:10520000A068FBF735FD642000F0DEFEADB2042D92
:10521000F2D301F025FD0C98FBF70EF982468B4680
:105220000B98FBF709F9804689460A98FBF704F9C1
:1052300006460F460998FBF7FFF804460D46089806
:10524000FBF7FAF88DE8F00F41EC100B0AA153ECD4
:10525000102B1048FFF744F80E48FBF766F882B2AF
:105260000C490D48FDF77AFC01F01AFD0A2000F008
:10527000ABFEAEE720040020252E31662C252E3112
:10528000662C252E31662C252E31662C252E316676
:105290000A000000E8170020C420002010B5F0EE3E
:1052A0000C2AB5EE002A9FED2A1AF0EE610AFFF7EC
:1052B00067FF2848284AD0ED000A70EE800A10EEF9
:1052C000901AC0ED000A914202DDDFED240A06E0EB
:1052D00010EE901A224A914201D3DFED220AC0ED6E
:1052E000000A80ED010A10EE100AB0F13F4F0ED215
:1052F000F0EE401A11EE900AB0F17C5F07DA00235D
:105300001A461946184601F089FA012010BDF0EE40
:10531000401A4FF47A7161EEA21A40EE821AF0EE52
:10532000400A30EEC00A40EE011ABDEEE10A10EE6E
:10533000100A884202DC4942884200DC08464042AA
:1053400043421946024601F069FA002010BD0000F0
:10535000000000002C0000200060EA460060EA46E1
:105360000060EAC60060EAC62DED028B4FF000082F
:1053700092B0C146CDF84080CDF844804546C34642
:1053800046464346424641464046CDF80C8001F031
:1053900045FA4FF0FF379FEDF78AF74C3A4609A9D7
:1053A000E06A02F01DF93A4604A9606B02F018F9B0
:1053B0000021A06902F0B0F9012800D18246002244
:1053C0000EA9A06B02F00CF9012805D1BDF83A0036
:1053D0000125401CADF83A0000220CA9E06B02F058
:1053E000FFF8012800D10126A0786178884200D01A
:1053F0000846A0700E287DD2DFE800F0072037575E
:105400009CBCF1F0EFEEEDECEBEA6FF0B3000DF1C8
:10541000100C00909CE80F000DF1240CB0EE480A2F
:10542000DCEC030AFFF7B6FD012846D100231A463B
:105430001946184601F0F2F901208FE209A8B0EEF2
:10544000480AD0EC030AFFF729FF0128EDD1002319
:105450001A461946184601F0E1F901F011FE022042
:10546000A0706070FEF774FEACE34FF4F0700DF1C5
:10547000100C00909CE80F000DF1240CB0EE480ACF
:10548000DCEC030AFFF740FC0128CED100231A46CA
:105490001946184601F0C2F901F0F2FD0320A07090
:1054A0006070FEF755FE00258CE33DB1BDF83C0071
:1054B000162806D0FEF752FE002592E3FEF748FEBE
:1054C000B0E000231A461946184601F0A7F901F08A
:1054D000D7FDBDF83E00C0F381218DF84010C0F328
:1054E00001218DF84110C0F381118DF84210C0F3F5
:1054F000011100E072E38DF84310C0F381018DF8D3
:10550000441000F003008DF84500FEF727FE04204C
:10551000A07060709948002507C88DE8070097487B
:1055200010380FC801F06CF902F086FB0420A0705F
:10553000607056E34FF411700DF1100C00909CE870
:105540000F000DF1240CB0EE480ADCEC030AFFF763
:10555000DBFB0128B1D100231A461946184601F099
:105560005DF901F08DFD0520A07060700025FEF74B
:10557000F5FD27E34DB1BDF83C000B280CD0FEF73C
:10558000EDFD00254FF4FA70DBE14FF4FA7000F006
:105590001BFDFEF7D7FD24E3BBF1020F2FD2BDF9AF
:1055A0003800411C03291BD200231A46194618460D
:1055B00001F034F94FF4FA7000F006FDBDF938003F
:1055C000401D0A28B5D80BF1010000F0FF0B08E3DD
:1055D000FBE268E24FE2C4E1B6E19BE194E01AE04D
:1055E00010F1050F02DA6FF0310000E0322009A956
:1055F000B0EE480AD1EC030AFFF71AFBF1E20023F0
:105600001A461946184601F009F901F039FD06203D
:105610006070A070D6E2002E74D0BDF834000B2864
:1056200071D101E0C8208CE10398C8B1B8F1020F34
:1056300032DABDF93000811C05291ED200231A463A
:105640001946184601F0EAF84FF4FA7000F0BCFC75
:10565000BDF930004FF0000B401D0A2872D9C0E29E
:10566000BDF83000FF2803D1BDF83200FF2802D07A
:1056700001200390B5E2502006E010F1030F02DC98
:105680006FF0310000E0322009A9B0EE480AD1ECF9
:10569000030AFFF713FCA4E2BDF93200032806DD7C
:1056A0006FF027014FF028020B46104660E206DA41
:1056B0004FF028036FF027000246194658E24FF0DA
:1056C00000031A461946184601F0A8F84FF49670E0
:1056D00000F07AFCBDF83200032803D10BF1010081
:1056E00000F0FF0BBBF1020F88D924489DED0B0A97
:1056F000483884ED100A4FF0000A808E00F064FCF8
:1057000007202BE15EE1D3E14846B9F10E0F70D0DE
:105710000BDCB9F10E0F1FD2DFE809F02032425541
:10572000606C771E1E1E1E8D98A3212875D00ADC82
:10573000162873D0172872D0182871D0B9F1190F14
:105740000AD1B5E017E222286BD023286AD024289A
:1057500069D0B9F1FA0F67D00820FFE0BAF1010F64
:1057600003D006484838008BEBE04FF0000A0120D8
:10577000814636E20000000020040020E8000020FE
:10578000BAF1010F06D0E078032807D0FA48B0F844
:105790008800D6E04FF0000A0220E9E7FA20E7E7A8
:1057A00010A9E078BDF93A200956914206D1401C73
:1057B000E070D0B24FF00309089012E2EFA0FEF7BC
:1057C0007FFD6420BDE0BAF1010F03D0EA48B0F8D4
:1057D000A400B6E04FF0000A0420C9E7BAF1010FB7
:1057E00003D0E548B0F8C000ABE04FF0000A052058
:1057F000BEE741E0BAF1010F03D0DF48B0F8DC00AA
:105800009FE04FF0000A0620B2E7089801280CD06C
:1058100002280CD00328ACD10BE050E033E039E093
:105820003FE053E059E065E06FE00B20A0E7162071
:105830009EE721209CE7BAF1010F03D0CE48B0F8D3
:10584000F8007EE04FF0000A0C2091E7BAF1010F5A
:1058500003D0C948B0F8140173E04FF0000A0D20DE
:1058600086E7BAF1010F03D0C348B0F8300168E011
:105870004FF0000A0E207BE7BAF1010F41D0BE487D
:10588000B0F84C015DE0BAF1010F2DD0BA48B0F884
:10589000680156E0BAF1010F26D0B748B0F884018C
:1058A0004FE0BAF1010F1FD0B348B0F8A00148E0B3
:1058B000BAF1010F25D0B048B0F8BC0141E0BAF10F
:1058C000010F11D0AC48B0F8D8013AE0BAF1010F9D
:1058D0000AD0A948B0F8F40133E0BAF1010F03D0BF
:1058E000A548B0F810022CE04FF0000A09F10100C1
:1058F000C0B23DE7BAF1010F03D09F48B0F82C02C7
:105900001FE04FF0000A504632E79B48808E00F0BF
:105910005BFBEBE74FF4C8700DF1100C00909CE8B6
:105920000F000DF1240C94ED100ADCEC030AFFF7D4
:10593000EBF9012807D109206070A0708E48B0F8FB
:10594000640200F041FB4CE109A894ED100AD0EC90
:10595000030AFFF7A3FC012802D10A206070A0709F
:105960003FE17EB3BDF834000B2801D0002679E07A
:10597000B8F1030F27DABDF93000FF2803D1BDF8D5
:105980003210FF2902D0002806D014DA4FF032037B
:105990001A461946184641E04FF000031A461946C8
:1059A000184600F03BFF4FF4967000F00DFBBDF879
:1059B0003000B0B356E055DD6FF0310003461A46B3
:1059C00011462BE076E0B8F1060F12DABDF932008D
:1059D000012806DD6FF027014FF028020B46104624
:1059E0001CE01FDA4FF028036FF02700024619462B
:1059F00014E0B8F1080F28DABDF93200012806DDFD
:105A00006FF013014FF014020B46104606E009DA5E
:105A10004FF014036FF013000246194600F0FEFE2B
:105A200020E00DE000231A461946184600F0F6FE65
:105A30004FF4967000F0C8FABDF83200012811D179
:105A400008F101004FFA80F80CE001F019FB9DED20
:105A50000B0A0B2084ED100AA0704FF0000A607052
:105A600002F0EAF8BDF93220BDF9301043A000BFC2
:105A7000FEF726FCB5E043480DF1100C00909CE8C1
:105A80000F000DF1240C94ED100ADCEC030AFFF773
:105A900081FA01280DD101F0F3FA0C206070A0709A
:105AA0004FF000088EE02EB1BDF834000B2804D072
:105AB000002696E0FEF73AFBB4E5B8F1030F2BDAC7
:105AC000BDF93000FF2803D1BDF83210FF2907D0FF
:105AD00000280BD019DA4FF01E031A46194627E0AA
