:020000040800F2
:10000000D004002001010008391C00087710000806
:10001000351C00084D0D0008072C000800000000EA
:10002000000000000000000000000000511E000859
:10003000510D000800000000E91C00082120000804
:100040001B0100081B0100081B0100081B01000820
:100050001B0100081B0100081B0100081B01000810
:100060001B0100081B0100081B0100081B01000800
:100070001B0100081B0100081B0100081B010008F0
:100080001B0100081B0100081B0100081B010008E0
:100090001B0100081B0100081B0100081B010008D0
:1000A0001B0100081B0100081B0100081B010008C0
:1000B0001B0100082D240008452400081B0100082E
:1000C0001B0100081B0100081B0100081B010008A0
:1000D0001B0100086D2800081B0100081B01000817
:1000E0001B0100081B0100081B010008DFF80CD0F1
:1000F00000F028FC0048004741390008D0040020E7
:100100000648804706480047FEE7FEE7FEE7FEE7B1
:10011000FEE7FEE7FEE7FEE7FEE7FEE75520000804
:10012000ED000008F0B480EA0102D40F4200B2EB07
:10013000410F02D20246084611464A0042D0C30D82
:10014000DDB2C1F3C752AD1A202D35DAC1F3160165
:1001500041F4000204B15242C5F1200602FA06F150
:100160002A411044B3EBD05F23D0C4B1012DA0EBE2
:10017000C35009DCF0BC4FF0004202EAC352DBB2CC
:1001800000F5000000F00BBB400000F1807000EBB8
:10019000C350A0F1807040EAD170490009E04908DD
:1001A00041EAC071A0EBC35000F50000400800EB2D
:1001B000C350F0BC00F0EABA6142012202EB4101F7
:1001C000001BF6E7F0BC704781F00041AAE780F021
:1001D0000040A7E780EA010210B502F000434000AA
:1001E00022D04A001FD0010E01EB1261C0F356006D
:1001F000C2F3560240F4000042F40002A0FB0220C9
:1002000000047F39140400D0401C50EA124001D48D
:100210004000491EC2B20C0604EBD010401C40083E
:10022000802A02D003E0002010BD20F00100002948
:1002300000DA0020184310BD30B480EA010202F059
:10024000004530F0004221F0004013D090B1C30DC2
:10025000D40DC2F31601C0F31600E41A41F40001F4
:1002600040F400027D34914201D3641C00E0490057
:10027000002C02DA30BC002070474FF4000000234D
:10028000914201D3891A034340084FEA4101F7D153
:1002900051B1914202D14FF0004105E002D24FF03E
:1002A000010101E06FF0010103EBC450284430BCB0
:1002B00000F06CBA2DE9FE4F804681EA0300C00FC2
:1002C0000C46009021F0004123F00045B8EB0200FD
:1002D000A94105D24046214690461C460B4602469F
:1002E00023F00040104347D0270DC7F30A00C3F3A3
:1002F0000A510290401A019040286BDAC3F31300B0
:1003000040F4801B0098924620B10023D2EB030AF0
:1003100063EB0B0B01985946C0F14002504600F0C8
:1003200014FA06460D4650465946019A00F01CFA4A
:1003300010EB08006141002487EA115284EAE77358
:100340001A4340D0009A62B3019A012A4FEA075239
:1003500015DC001B61EB02014FF0004202EA07527C
:10036000CDE90042001C41F5801132462B4600F0D9
:1003700053FA03B0BDE8F08F40462146F9E7001B71
:1003800061EB0201001C41F5801300185B4120184D
:10039000A2F5001747EB030140EAD570B6196D418D
:1003A00011E06D084FEA360645EAC0754FEA07527C
:1003B000001B61EB0201001C41F5801149084FEA66
:1003C00030000019514132462B4603B0BDE8F04FD2
:1003D00000F013BA0098012240000023D0EB020283
:1003E00063EBE073009821464FEAE074B8EB00003D
:1003F00061EB0401E9E783F000435BE781F0004132
:1004000058E72DE9FE4F81EA030404F0004421F08F
:10041000004100944FF0000B23F0004350EA010428
:100420005ED052EA03045BD0C3F30A54C1F30A5509
:100430002C44A4F2F3340194A0FB0254C1F3130141
:1004400041F48011C3F3130343F4801301FB02440E
:1004500000FB034E840A970A44EA815447EA835713
:10046000A4FB076802958D0A05FB07854FEA932CCC
:1004700004FB0C542705029D4FEA065847EA16373D
:10048000B5EB08056EEB070C870E920E47EA811755
:1004900042EA8312A7FB0201B6EB0B0164EB0004F6
:1004A0002B0D43EA0C335E1844EB1C50DA465146E0
:1004B000E7FB0201C5F313044FEA0B3343EA14537D
:1004C0004FEA0432019C43EA0603A4F10C040294AF
:1004D000009CCDE900B400F09FF903B0BDE8F08FB7
:1004E00000200146F9E72DE9F04D81EA030404F00C
:1004F000004B21F0004514464FF0000A23F0004164
:1005000050EA050220D054EA01021DD0C5F30A5773
:100510000246C5F31303C1F31300C1F30A5640F4B6
:10052000801543F48013A7EB0608101BD64608F28B
:10053000FD3873EB050002D308F1010801E09218C1
:100540005B41B8F1000F03DA00200146BDE8F08DF1
:1005500000204FF48011064684460EE0171B73EB13
:10056000050705D3121B63EB050306434CEA010C98
:1005700049084FEA300092185B4150EA0107EDD17B
:1005800052EA030012D082EA040083EA050108431C
:1005900005D0101BAB4106D20122002306E0002249
:1005A0004FF0004302E06FF0010253101AEB060017
:1005B0004CEB085110EB0A0041EB0B01BDE8F04D8C
:1005C00000F01BB9C10F80EAE0700844CA07962307
:1005D000002100F0E4B896230022114600F0DFB8B5
:1005E0000EB5C10F80EAE0700844CA07002140F24E
:1005F00033438DE80E000A460B4600F00DF903B0B8
:1006000000BD00F0004220F00040C10DC0F3160014
:1006100040F400007F2901DA00207047962903DCAE
:10062000C1F19601C84001E096398840002AF4D013
:100630004042704700F0004230F000400AD0C10D47
:1006400001F56071C0F3160042EA0151C20840078B
:100650001143704700200146704701F0004330B459
:1006600021F0004150EA010206D00A0DA2F56072A5
:10067000C1F31301002A02DC30BC00207047440F94
:1006800044EAC104C100E01830BC00EBC25000F0E5
:100690007DB80000002801DBC0F10040002901DB2B
:1006A000C1F1004181427047002801DBC0F10040E8
:1006B000002901DBC1F100418842704730B50B468B
:1006C000014600202022012409E021FA02F59D4282
:1006D00005D303FA02F5491B04FA02F52844151E56
:1006E000A2F10102F1DC30BD2DE9F05F05460020EA
:1006F00092469B4688460646814640241BE0284693
:1007000041464746224600F02FF953465A46C01A42
:10071000914110D311461846224600F016F82D1AC2
:1007200067EB01084F4622460120002100F00DF83A
:1007300017EB00094E41201EA4F10104DFDC4846FE
:1007400031462A464346BDE8F09F202A04DB203A82
:1007500000FA02F1002070479140C2F1200320FA14
:1007600003F3194390407047202A06DBCB17203A49
:1007700041FA02F043EAE07306E041FA02F3D040A6
:10078000C2F1200291400843194670470029A8BFD2
:100790007047401C490008BF20F00100704710B4AA
:1007A000B0FA80FC00FA0CF050EA010404BF10BC5F
:1007B000704749B1CCF1200421FA04F411FA0CF18C
:1007C00018BF012121430843A3EB0C01CB1D4FEAC5
:1007D00000614FEA102042BF002010BC704700EBC0
:1007E000C35010440029A4BF10BC7047401C4900EE
:1007F00008BF20F0010010BC704710B5141E73F143
:10080000000408DA401C41F1000192185B411A43D0
:1008100001D120F0010010BD2DE9F04D92469B461C
:1008200011B1B1FA81F202E0B0FA80F220329046C2
:10083000FFF78BFF04460F4640EA0A0041EA0B012E
:1008400053465A46084313D0114653EA010019D0C3
:10085000C8F14002504600F087F805460E46504663
:1008600059464246FFF771FF084305D0012004E0D6
:1008700020463946BDE8F08D0020054346EAE07683
:100880002C4337430A986305E40AA0EB08000022D2
:10089000FD0A44EA47540A3002D500200146E9E740
:1008A000010510196941DDE9084500196941BDE8F4
:1008B000F04DA2E770B521F0004303430CD0C1F323
:1008C0000A550024D5EB040564EB0403D617AD1AD2
:1008D000B34102DB0020014670BD201841EB0251FC
:1008E00070BDC1F30A52C1F3130140F2FF3341F46A
:1008F00080119A4202DA00200146704740F23343E9
:100900009A42A2F2334202DC524200F02DB8FFF7C5
:100910001CBF000030B5041E71F1000404DB4FF071
:100920000044404264EB0101141E73F1000405DB36
:100930001C464FF00043524263EB0403994208BF48
:10094000904230BD064C074D06E0E06840F00103E0
:1009500094E8070098471034AC42F6D3FFF7CAFB7F
:100960003C3C00085C3C0008202A04DB203A21FAC9
:1009700002F00021704721FA02F3D040C2F12002B8
:1009800091400843194670472DE9F04F87B004465F
:100990000D46B4F90000FFF715FED7490860B4F919
:1009A0000200FFF70FFED5490860B4F90400FFF715
:1009B00009FED3490860B5F90000FFF703FED149ED
:1009C0000860B5F90200FFF7FDFDCF490860B5F9F1
:1009D0000400FFF7F7FDCD490860C7480068FFF73E
:1009E00010FE00B2CA490880C4480068FFF709FE3B
:1009F00000B2C8490880C2480068FFF702FE00B292
:100A0000C5490880BF480068FFF7FBFD00B2C34935
:100A10000880BD480068FFF7F4FD00B2C0490880B7
:100A2000BA480068FFF7EDFD00B2BE490880BE4934
:100A3000B1480068FFF72EFE07D24FF08D41AE4857
:100A40000068FFF7F9FB81460FE0B849AA48006843
:100A5000FFF7BAFB80464FF08D41FFF7EDFB0746ED
:100A60004FF07E51FFF7B3FB8146AF49A3480068C2
:100A7000FFF710FE07D24FF08D41A0480068FFF746
:100A8000DBFB82460FE0A9499C480068FFF79CFB0E
:100A900080464FF08D41FFF7CFFB07464FF07E5168
:100AA000FFF795FB8246A04995480068FFF7F2FDE5
:100AB00007D24FF08D4192480068FFF7BDFB064614
:100AC0000AE09A498E480068FFF77EFB07464FF020
:100AD0008D41FFF7B1FB064631465046FFF7ACFBB0
:100AE0008346FFF7A7FD074602F07EFD0022904BEC
:100AF000CDE90001FFF785FC8E4A8F4BCDE902015D
:100B0000FFF7F1FCCDE90401FFF7A7FD8B49086071
:100B100031464846FFF790FB8346FFF78BFDCDE952
:100B2000000102F061FD0022814BCDE90201FFF7D7
:100B300068FC07467F4A804BFFF7D5FCCDE90401EE
:100B4000FFF78BFD7E49086077496B480068FFF727
:100B5000A1FD03D27A480068794908607249664865
:100B60000068FFF7A1FD05D27548006880F00040DD
:100B7000734908606C4961480068FFF78BFD03D238
:100B80006E4800686D49086067495C480068FFF777
:100B90008BFD05D26948006880F000406749086015
:100BA0004FF08E4157480068FFF774FD11D2554849
:100BB0000068FFF73FFD4FF06632624BCDE904015C
:100BC000FFF791FC81F000410746FFF746FD4D49D4
:100BD00008604FF08E414B480068FFF765FD13D267
:100BE000484801685848FFF7EFFA8346FFF722FDAF
:100BF0004FF06632534BCDE90401FFF774FC074612
:100C0000FFF72BFD3F4908604FF08E413E480068DA
:100C1000FFF740FD11D23C480068FFF70BFD4FF095
:100C20006632484BCDE90401FFF75DFC81F00041DD
:100C30000746FFF712FD344908604FF08E413248F5
:100C40000068FFF731FD13D22F4801683E48FFF7D7
:100C5000BBFA8346FFF7EEFC07464FF06632394B8E
:100C6000FFF741FCCDE90401FFF7F7FC26490860D6
:100C70004FF08E4125480068FFF70CFD11D2234844
:100C80000068FFF7D7FC4FF066322E4BCDE9040128
:100C9000FFF729FC81F000410746FFF7DEFC1B4906
:100CA00008604FF08E4119480068FFF7FDFC13D231
:100CB000164801682448FFF787FA8346FFF7BAFC15
:100CC0004FF066321F4BCDE90401FFF70CFC0746DD
:100CD000FFF7C3FC0D4908600A480168174800681F
:100CE00000F040FC084801681548006800F076FDF7
:100CF00007B0BDE8F08F0000480000204C00002045
:100D00005000002054000020580000205C0000200B
:100D1000380000203A0000203C0000203E00002067
:100D2000400000204200002000F8FF46000040473D
:100D3000008066401F85EB51B81E0940600000200E
:100D4000640000206666304000FF7F4700BFFEE77A
:100D50007047000000B589B00121022000F0C6FFF5
:100D60000121082000F0D2FF3020ADF8040004205B
:100D70008DF8070001A9214800F09CF81D208DF88E
:100D8000200001208DF823008DF8210003208DF82C
:100D9000220008A800F066FF05A801F04DFD902094
:100DA000ADF814004FF47A70ADF818000020ADF8DB
:100DB0001A00ADF8160005A9114801F0EBFC00235C
:100DC0001A4603210E4801F076FB02A801F0F4FB5D
:100DD0000A20ADF8100002A9094801F097FB012193
:100DE000074801F047FB01221146054801F0EDFBE1
:100DF0000121034801F044FB09B000BD000C014093
:100E00000004004000B589B00121042000F06EFF0D
:100E10000121082000F07AFFC020ADF80400042072
:100E20008DF8070001A9214800F044F81E208DF834
:100E3000200001208DF823008DF8210003208DF87B
:100E4000220008A800F00EFF05A801F0F5FC902094
:100E5000ADF814004FF47A70ADF818000020ADF82A
:100E60001A00ADF8160005A9114801F093FC002303
:100E70001A4603210E4801F01EFB02A801F09CFB5C
:100E80000A20ADF8100002A9094801F03FFB01213A
:100E9000074801F0EFFA01221146054801F095FBE1
:100EA0000121034801F0ECFA09B000BD000C01403B
:100EB000000800402DE9F0410246002500260020F0
:100EC00000230024002791F803C00CF00F0591F8CF
:100ED00003C00CF0100CBCF1000F03D091F802C05D
:100EE0004CEA050591F800C0BCF1000F31D0146840
:100EF00000202BE04FF0010C0CFA00F3B1F800C019
:100F00000CEA03069E4220D183004FF00F0C0CFA2E
:100F100003F7BC4305FA03FC4CEA040491F803C050
:100F2000BCF1280F06D14FF0010C0CFA00FCC2F8FE
:100F300014C00AE091F803C0BCF1480F05D14FF08E
:100F4000010C0CFA00FCC2F810C0401C0828D1D3D8
:100F50001460B1F800C0BCF1FF0F34DD546800200C
:100F60002EE000F1080C4FF0010808FA0CF3B1F87C
:100F700000C00CEA03069E4221D183004FF00F0C03
:100F80000CFA03F7BC4305FA03FC4CEA040491F89D
:100F900003C0BCF1280F05D100F1080C08FA0CF8C9
:100FA000C2F8148091F803C0BCF1480F07D100F1DA
:100FB000080C4FF0010808FA0CF8C2F81080401C29
:100FC0000828CED35460BDE8F0810000F0B50A4691
:100FD000002300240021002500F00046B6F1004F58
:100FE00002D11D4EF16901E01B4E7168C0F303454B
:100FF00083B200F44016B6F5401F08D121F07061AD
:10100000154E766826F07066134F7E6012E000F48D
:101010008016B6F5801F06D1032606FA05F4A14313
:1010200041F0706106E0460D360103FA06F6B14361
:1010300041F0706122B1460D360103FA06F63143E4
:1010400000F00046B6F1004F02D1034EF16101E01D
:10105000014E7160F0BD000000000140024600201A
:1010600093680B400BB1012000E000207047416104
:1010700070470161704700BFFEE721B1028842F46A
:101080008062028004E002884FF6FF331A4002803B
:101090007047000070B505460E4614464FF42040D8
:1010A0005949086008E058490868411E564A1160CD
:1010B00010B900F052FA70BD4FF40031534800F0FF
:1010C00087F90028EFD10121504800F069F94FF469
:1010D00080504D49086008E04B490868411E4A4A63
:1010E000116010B900F039FAE5E74949474800F0C6
:1010F0000DF90028F0D00022D021444800F022FA57
:101100004FF480504049086008E03F490868411E9C
:101110003D4A116010B900F020FACCE73D493B4848
:1011200000F0F4F80028F0D00121384800F003F96D
:101130003146364800F00FFA4FF4805032490860CB
:1011400008E031490868411E2F4A116010B900F0CB
:1011500004FAB0E72F49891C2C4800F0D7F8002882
:10116000EFD00121294800F01BF94FF480502649A7
:10117000086008E024490868411E234A116010B93C
:1011800000F0EBF997E72249204800F0BFF800286B
:10119000F0D00122D0211D4800F0D4F94FF4805046
:1011A0001949086008E018490868411E164A11608C
:1011B00010B900F0D2F97EE71549491C134800F038
:1011C000A5F80028EFD016E0012C07D100210F4828
:1011D000FFF753FF01210D4800F0EEF80C493F31B5
:1011E0000A4800F093F830B1084800F0A7F92870D9
:1011F0006D1C601E84B2002CE6D101210348FFF76C
:101200003CFF012057E70000280000200058004064
:10121000010003008200070010B500F099F800F00B
:101220006BF910BD70B504460D460121334800F03E
:10123000B7F84FF480503249086008E03049086838
:10124000411E2F4A116010B900F087F970BD2D4979
:101250002A4800F05BF80028F0D00022D02127486F
:1012600000F070F94FF480502549086008E02449E7
:101270000868411E224A116010B900F06EF9E5E7D6
:1012800021491E4800F042F80028F0D029461B48AA
:1012900000F061F94FF480501949086008E01849DE
:1012A0000868411E164A116010B900F056F9CDE7E2
:1012B0001549891C114800F029F80028EFD0214673
:1012C0000E4800F048F94FF480500D49086008E0DE
:1012D0000B490868411E0A4A116010B900F03DF937
:1012E000B4E70949891C054800F010F80028EFD040
:1012F0000121024800F060F80120A7E700580040F3
:1013000028000020010003008200070070B502469B
:101310000024002500230020958A138B1B0445EA36
:10132000030626F07F4404EA01068E4201D1012023
:1013300000E0002070BD21B1028842F0010202806D
:1013400004E002884FF6FE731A40028070470000E6
:1013500008B50121880500F0C9FC0121082000F032
:10136000D5FC4FF48060ADF8000003208DF802003A
:101370001C208DF8030069460848FFF79BFD4FF4D9
:101380000060ADF8000003208DF802001C208DF8ED
:10139000030069460148FFF78DFD08BD000C0140C0
:1013A00021B1028842F48072028004E002884FF684
:1013B000FF631A400280704721B1028842F4007234
:1013C000028004E002884FF6FF531A400280704703
:1013D0000CB50246002000230193009300920B0FEE
:1013E000019321F07F41019B1BB1009B14330093BB
:1013F00003E0090C009B18330093009B1B680B4013
:101400000BB1012000E000200CBD00002DE9F043ED
:1014100085B004460D460026B1460427DFF8CC808F
:10142000A6884FF6C0700640684600F07FFCDDF8E5
:1014300008802F48B8FBF0F01FFA80F946EA090649
:10144000A68020884FF6FE7108402080002629499A
:10145000286888420CD828684000B8FBF0F087B2B2
:10146000042F00DA04273E4309F10100208427E01D
:10147000E8884BF6FF71884206D1286800EB4000EF
:10148000B8FBF0F087B209E0286800EBC00101EB7F
:101490000010B8FBF0F087B247F48047C7F30B00A9
:1014A00008B947F0010747F4004006434FF496702F
:1014B00009FB00F04FF47A7190FBF1F0401C20849E
:1014C000A683208840F00100208026884FF6F53062
:1014D0000640A8886989084306432680A889298987
:1014E0000843208105B0BDE8F083000000127A00B7
:1014F00040420F00A08601001FB50020ADF8040097
:101500004BF6FF70ADF806000A20ADF808004FF466
:101510008060ADF80A000001ADF80C0005480090AD
:1015200069460548FFF772FF01210348FFF703FFF3
:101530001FBD0000801A0600005800400146088ABE
:10154000C0B2704712B141F0010102E04FF6FE73E4
:101550001940018270470182704710B5FFF75CFEA9
:10156000002010BD2DE9F04105460C468948016870
:101570002046FEF729FE0746874801683846FEF7F1
:1015800029FE0646854801683046FEF7CBFD8349B3
:1015900008608348416883480068FEF715FE0646E8
:1015A0007F4881683046FEF70FFE7F4908607C481F
:1015B000C06880F0004048607948C06880F0004012
:1015C00088607A480068C860086873490968FEF74F
:1015D00001FE0646724801683046FEF7A3FD7049D9
:1015E0000860714948686C490968FEF7F3FD0646D2
:1015F0006B4841683046FEF795FD694948606A4985
:10160000886865490968FEF7E5FD06466448816813
:101610003046FEF787FD624988606349C8685E49C5
:101620000968FEF7D7FD06465D48C1683046FEF7FB
:1016300079FD5B49C860594801682846FEF7C4FD3A
:101640005B4908605B480078FEF7C5FF06465448D2
:1016500001683046FEF7BEFD5749086055480078DE
:10166000FEF7B9FF06464E4881683046FEF7B2FDE8
:10167000524908604F480078FEF7ADFF07464E48D4
:1016800001683846FEF7A6FD06464D48016830461B
:10169000FEF748FD4B490860084601684648006867
:1016A000FEF7CAFD4849086046480168434800689B
:1016B000FEF7C2FD454908603F480068444908609C
:1016C0003C480078FEF787FF0646354841683046BB
:1016D000FEF780FD3F4908603D4801683A480068D0
:1016E000FEF778FD06462E4801683046FEF76FFD8E
:1016F0002B4908603748016833480068FEF76AFDE7
:101700000646274841683046FEF761FD2449486097
:101710002F4801682D480068FEF75CFD064620480A
:1017200081683046FEF753FD1D49886029480168ED
:1017300026480068FEF74EFD06461948C168304647
:10174000FEF745FD1649C860194801681E48006843
:10175000FEF740FD0646114801683046FEF7E2FC00
:101760000E4908601248016818480068FEF732FD0B
:101770000646084801683046FEF7D4FC0549086073
:10178000084601682046FEF71FFD13490860BDE8C2
:10179000F0810000840000207C0000206800002010
:1017A000A800002070000020BC0000207400002071
:1017B00088000020800000208C0000209000002085
:1017C0007800002094000020980000209C00002059
:1017D000A0000020A4000020540000202DE9F041CA
:1017E00005460C46894801682046FEF7EDFC074691
:1017F000874801683846FEF7EDFC064685480168D3
:101800003046FEF78FFC834908608348416883486F
:101810000068FEF7D9FC06467F4881683046FEF72F
:10182000D3FC7F4908607C48C06880F00040486075
:101830007948C06880F0004088607A480068C860D5
:10184000086873490968FEF7C5FC064672480168D6
:101850003046FEF767FC70490860714948686C497A
:101860000968FEF7B7FC06466B4841683046FEF74C
:1018700059FC694948606A49886865490968FEF702
:10188000A9FC0646644881683046FEF74BFC624975
:1018900088606349C8685E490968FEF79BFC064694
:1018A0005D48C1683046FEF73DFC5B49C860594859
:1018B00001682846FEF788FC5B4908605B480078B1
:1018C000FEF789FE0646544801683046FEF782FC62
:1018D0005749086055480078FEF77DFE06464E4899
:1018E00081683046FEF776FC524908604F48007820
:1018F000FEF771FE07464E4801683846FEF76AFC5F
:1019000006464D4801683046FEF70CFC4B4908601E
:101910000846016846480068FEF78EFC48490860A2
:101920004648016843480068FEF786FC4549086060
:101930003F480068444908603C480078FEF74BFE89
:101940000646354841683046FEF744FC3F4908608A
:101950003D4801683A480068FEF73CFC06462E48C0
:1019600001683046FEF733FC2B49086037480168B0
:1019700033480068FEF72EFC06462748416830468B
:10198000FEF725FC244948602F4801682D4800686F
:10199000FEF720FC0646204881683046FEF717FC1B
:1019A0001D4988602948016826480068FEF712FC36
:1019B00006461948C1683046FEF709FC1649C8605A
:1019C000194801681E480068FEF704FC06461148E5
:1019D00001683046FEF7A6FB0E4908601248016810
:1019E00018480068FEF7F6FB0646084801683046CE
:1019F000FEF798FB05490860084601682046FEF797
:101A0000E3FB13490860BDE8F0810000840000207A
:101A10007C0000206C000020A80000207000002046
:101A2000BC000020740000208800002080000020FE
:101A30008C000020900000207800002094000020FE
:101A4000980000209C000020A0000020A40000209E
:101A50005800002008B50121102000F057F94FF47C
:101A60000050ADF8000010208DF8030003208DF821
:101A7000020069460448FFF71DFA4FF4005102487E
:101A8000FFF7F5FA08BD0000001001401CB5044640
:101A9000062269463B2000F091F89DF801009DF870
:101AA000001040EA012000B220809DF803009DF85C
:101AB000021040EA012000B260809DF805009DF808
:101AC000041040EA012000B2A0801CBD1CB50446F1
:101AD00006226946432000F071F89DF801009DF848
:101AE000001040EA012000B220809DF803009DF81C
:101AF000021040EA012000B260809DF805009DF8C8
:101B0000041040EA012000B2A0801CBD08B50020EE
:101B1000009001226946752000F050F89DF8000001
:101B2000982809D0084801F071F89DF8001007A026
:101B300001F06CF8002008BD9DF8001004A001F031
:101B400065F80120F7E70000E03B00082578000079
:101B50003C3C2D4D50552D494E464F2D3E3E204D7F
:101B6000505536303530204944203D2025780D0A27
:101B70000A00000070B50024002500BF06E0002523
:101B800000E06D1CB5F57A7FFBDB641CB4F57A7F51
:101B9000F5DB00216B2000F045F80721192000F04B
:101BA00041F806211A2000F03DF801211C2000F028
:101BB00039F818211B2000F035F870BD70B50446C7
:101BC0000D461646324621462846FFF763FA70BD99
:101BD0002DE9F84F8246022269464120FFF7EEFFC9
:101BE0009DF801009DF8001040EA01200FFA80FBEB
:101BF0005846FEF7F5FC80460022074BFEF773FCC3
:101C00000646064A064BFEF755FB0446FEF725FD41
:101C1000CAF80000BDE8F88F00407540A4703D0A86
:101C2000D743424070B504460D4621462846FFF78B
:101C3000F9FA70BD00BFFEE7704708B54FF4E060E9
:101C400000F048F825208DF8000000208DF80100F4
:101C500001208DF802008DF80300684600F002F8BC
:101C600008BD000070B5002100230F22C47804B322
:101C7000154C246804F4E064C4F5E064210AC1F161
:101C80000403CA40447804FA03F1847814402143E1
:101C900009010E4C0678A155047804F01F050124B3
:101CA000AC4005786D11AD0005F1E025C5F80041A7
:101CB00009E0047804F01F050124AC40044D0678C7
:101CC000761145F8264070BD0CED00E000E400E020
:101CD00080E100E002490143024A116070470000C0
:101CE0000000FA050CED00E07047000029B1064A3B
:101CF000D2690243044BDA6104E0034AD2698243A9
:101D0000014BDA61704700000010024029B1064A19
:101D100092690243044B9A6104E0034A9269824348
:101D2000014B9A61704700000010024030B500215D
:101D30000022002400232D4D6D6805F00C0121B117
:101D4000042905D0082923D105E0294D056022E0AA
:101D5000274D05601FE0254D6D6805F47012234D79
:101D60006D6805F48034022505EB92421CB9214DC3
:101D7000554305600BE01D4D6D6805F400351DB140
:101D80001C4D5543056002E0194D5543056002E0C6
:101D9000174D056000BF00BF144D6D6805F0F001E0
:101DA0000909154D6B5C0568DD4045600F4D6D6898
:101DB00005F4E061090A104D6B5C4568DD40856003
:101DC0000A4D6D6805F46051C90A0B4D6B5C45689E
:101DD000DD40C560054D6D6805F44041890B074D38
:101DE0006B5CC568B5FBF3F5056130BD00100240C2
:101DF00000127A0000093D00140000202400002099
:101E00000146022904D003290BD0042917D10FE081
:101E10004FF08042928C10B200224FF080439A849F
:101E20000FE0094A128810B20022074B1A8008E01E
:101E3000064A128810B20022044B1A8001E00020EA
:101E400000BF00BF70470000240400402408004089
:101E5000704710B500F002F810BD00000CB500206E
:101E6000019000903348006840F4803031490860A8
:101E700000BF3048006800F4003000900198401C1A
:101E80000190009818B90198B0F5A06FF1D12948D8
:101E9000006800F4003010B10120009001E0002043
:101EA00000900098012843D12348006840F01000BA
:101EB000214908600846006820F0030008600846D1
:101EC000006840F0020008601A48406819494860FC
:101ED0000846406848600846406840F480604860B2
:101EE0000846406820F47C1048600846406840F48A
:101EF000E81048600846006840F08070086000BF45
:101F00000C48006800F000700028F9D009484068CB
:101F100020F00300074948600846406840F002008E
:101F2000486000BF0348406800F00C000828F9D161
:101F30000CBD0000001002400020024030B50146F8
:101F4000B1F1807F01D3012030BD21F07F40401EE0
:101F50004FF0E022506150170F22002807DA1307D4
:101F60001D0E094B00F00F04241F1D5503E013073D
:101F70001C0E064B1C5400BF00204FF0E022906165
:101F8000072010610020DFE718ED00E000E400E02A
:101F900031B5104800684FF47A71B0FBF1F528466E
:101FA000FFF7CCFF002408E000BF4FF0E0200069FD
:101FB00000F480300028F8D0641C00988442F3D3E9
:101FC0004FF0E020006920F001004FF0E0210861AF
:101FD00038BD00000000002031B50F4800680F49EF
:101FE000B0FBF1F52846FFF7A9FF002408E000BF89
:101FF0004FF0E020006900F480300028F8D0641C25
:1020000000988442F3D34FF0E020006920F00100F3
:102010004FF0E021086138BD0000002040420F0071
:102020007047000010B50A4800684FF47A71B0FBA1
:10203000F1F42046FFF782FF08B100BFFEE74FF042
:10204000E020006920F001004FF0E021086110BDA0
:102050000000002010B51348006840F0010011494D
:10206000086008464068104908400E494860084624
:1020700000680E4908400B4908600846006820F4D3
:10208000802008600846406820F4FE0048604FF455
:102090001F008860FFF7DDFE4FF000600449086014
:1020A00010BD0000001002400000FFF8FFFFF6FE28
:1020B00008ED00E0F0B50C46154600220021068C24
:1020C0004FF6FE773E400684028B018C4FF60C766D
:1020D00032407E1C06EA03162E433243104EB042B5
:1020E0000ED0104EB0420BD0B0F1804F08D00E4E43
:1020F000B04205D00D4EB04202D00D4EB04206D1D6
:102100004FF6FD76314044F00106314305E04FF6CD
:10211000F576314044F00106314302830184F0BD7D
:10212000002C014000340140000400400008004041
:10213000000C0040F0B50C46154600220021002698
:10214000078C4FF6EF7C07EA0C070784028B018CA3
:102150004FF6FF7707EA041640F6FF473A404FF67E
:10216000FF7707EA03373A434FF6FF7707EA052779
:102170003A43114FB8420ED0104FB8420BD0B0F1D5
:10218000804F08D00E4FB84205D00E4FB84202D053
:102190000D4FB84206D14FF6DF77394046F01007B1
:1021A000394305E04FF65F77394044F01007394373
:1021B00002830184F0BD0000002C01400034014086
:1021C0000004004000080040000C0040F0B50C4640
:1021D0001546002200210026078C4FF6FF6C07EA07
:1021E0000C070784828B018C4FF6FF7707EA0426E1
:1021F0004FF60C773A404FF6FF7707EA03172F4365
:102200003A43114FB8420ED0104FB8420BD0B0F144
:10221000804F08D00E4FB84205D00E4FB84202D0C2
:102220000D4FB84206D14FF6FF57394046F480773C
:10223000394305E04FF2FF57394044F48077394382
:1022400082830184F0BD0000002C01400034014075
:102250000004004000080040000C0040F0B50C46AF
:102260001546002200210026078C4EF6FF7C07EA67
:102270000C070784828B018C4FF6FF7707EA043640
:1022800040F6FF473A404FF6FF7707EA05273A4303
:102290004FF6FF7707EA03373A43114FB8420ED0A3
:1022A000104FB8420BD0B0F1804F08D00E4FB8425B
:1022B00005D00E4FB84202D00D4FB84206D14DF6B0
:1022C000FF77394046F48057394305E047F6FF571A
:1022D000394044F48057394382830184F0BD0000C3
:1022E000002C014000340140000400400008004080
:1022F000000C004030B589B005460C460121C802EB
:10230000FFF704FD01210420FFF700FD4FF40060FA
:10231000ADF8200018208DF8230003208DF822004E
:1023200008A91848FEF7C6FDADF81850ADF81440DE
:102330000020ADF81A00ADF8160005A9124800F00B
:1023400029FA7020ADF804000120ADF80600002045
:10235000ADF80A00ADF80C0001A90B4800F09EF999
:102360000121094800F098F80821074800F0D4F945
:102370000121054800F072F80121034800F080F8BF
:1023800009B030BD00080140002C014030B589B0D3
:1023900005460C4601210846FFF7A8FC012108204C
:1023A000FFF7B4FC01210846FFF7B0FC01211C48EF
:1023B000FEF70CFE01211B48FEF708FE0820ADF8D1
:1023C000200018208DF8230003208DF8220008A992
:1023D0001548FEF76FFDADF80850ADF80440002039
:1023E000ADF80600ADF80A0001A94FF0804000F0FA
:1023F000D1F96020ADF810000020ADF818000120E0
:10240000ADF8120004A9800700F0E8F80821C8061A
:1024100000F036F90121880700F032F809B030BD2C
:102420000002300000011800000C014010B501212D
:10243000034800F061F80121014800F01EF810BDCA
:102440000004004010B50121034800F055F80121B7
:10245000014800F012F810BD0008004021B10288C8
:1024600042F08002028004E002884FF67F731A4037
:1024700002807047CA4302827047CA430282704793
:1024800021B1028842F00102028004E002884FF686
:10249000FE731A400280704731B1B0F8442042F414
:1024A0000042A0F8442005E0B0F84420C2F30E0238
:1024B000A0F844207047F0B50C4615461E46002192
:1024C000002200230189028B038C4FF6F8773940F4
:1024D00021434FF6FC473A4040F201173A434FF68A
:1024E000DD773B404FF6FF7707EA06172F433B4364
:1024F000018102830384F0BD02460020138A0B4051
:102500000BB1012000E000207047000070B50546C7
:102510000C46244885420ED0234885420BD0B5F1A5
:10252000804F08D02148854205D02148854202D0FD
:102530002048854200D100E000BF208850B923899F
:10254000A28861882846FFF7B5FDE188284600F09B
:10255000F5F825E0208804280AD12389A28861881B
:102560002846FFF7E7FDE188284600F0F0F817E07D
:10257000208808280AD12389A28861882846FFF785
:1025800025FEE188284600F0EFF809E02389A288BB
:1025900061882846FFF762FEE188284600F0EDF8E2
:1025A00070BD0000002C01400034014000040040D8
:1025B00000080040000C0040002101804180012102
:1025C00081800021C180018170471AB183890B434A
:1025D000838102E083898B438381704770B5002437
:1025E00000220023058C4FF6EF7635400584028CDF
:1025F0008388048B48F6FF752C404FF6FF452C402E
:102600000D884FF6FF7606EA05252C434FF6DF7559
:102610002A400D8906EA05152A434D8806EA051564
:102620002A43154DA84202D0144DA8421DD14FF6A1
:102630007F752A404D894FF6FF7606EA05152A4335
:102640004FF6BF752A408D8806EA05152A434FF6D6
:10265000FF352B404FF2FF752B408D8906EA85052B
:102660002B43CD8906EA85052B4383800483CD88DF
:102670000587028470BD0000002C01400034014039
:102680000A460021018B4FF2FF7319404FF6FF738A
:1026900003EA0223194301837047000070B500224A
:1026A00000230024058C4EF6FF7635400584038C0C
:1026B0008488828B48F6FF752A404FF6FF452A40F2
:1026C0000D884FF6FF7606EA05252A434DF6FF757D
:1026D0002B400D8906EA05352B434D8806EA053562
:1026E0002B430B4DA84202D00A4DA84208D14BF60D
:1026F000FF752C408D894FF6FF7606EA85152C4331
:1027000084808283CD88A0F84050038470BD00008F
:10271000002C0140003401400A460021818B4FF219
:10272000FF7319404FF6FF7303EA022319438183B5
:10273000704701877047A0F840107047028B4FF632
:10274000F3731A400283028B0A4302837047028BA1
:102750004FF2FF331A400283028B4FF6FF7303EAF6
:1027600001231A4302837047828B4FF6F3731A409A
:102770008283828B0A4382837047828B4FF2FF33BE
:102780001A408283828B4FF6FF7303EA01231A43B8
:1027900082837047002202881D4B98420ED01D4B49
:1027A00098420BD0B0F1804F08D01B4B984205D017
:1027B0001A4B984202D01A4B984204D14FF68F73AD
:1027C0001A404B881A43174B984207D0164B984231
:1027D00004D04FF6FF431A40CB881A4302808B88FF
:1027E00083850B8803850A4B98420BD0094B98428E
:1027F00008D00E4B984205D00D4B984202D00D4B9D
:10280000984201D10B7A038601238382704700002E
:10281000002C01400034014000040040000800404A
:10282000000C004000100040001400400040014037
:1028300000440140004801404FF6FF7181800021B3
:102840000180C180418001727047000010B54021B5
:102850000548FEF70EFC1420FFF7BEFB402102489E
:10286000FEF705FC10BD0000000801402DE9F0470F
:1028700040F225514B4800F002F9002870D0494839
:1028800000F0B8F9C7B2662F39D00EDC632F29D01B
:1028900006DC312F4AD0612F16D0622F7ED11DE089
:1028A000642F24D0652F79D125E06A2F39D006DC3A
:1028B000672F29D0682F2BD0692F6FD12CE06D2F77
:1028C0004FD0732F6AD138E0002001F0A1F83648CC
:1028D000C06880F400503449C8605FE0012001F016
:1028E00097F85BE04FF0FF3001F092F856E00020DF
:1028F00001F0B8F852E0012001F0B4F84EE04FF0DA
:10290000FF3001F0AFF849E0642001F0F1F845E054
:10291000642001F0F7F841E04FF4FA7001F0E8F8B4
:102920003CE04FF4FA7001F0EDF837E01E48C06863
:1029300080F400501C49C86030E01B48C06880F437
:1029400000501949C86000F071FF8046FDF772FE23
:1029500005460E462A46334614A000F057F91DE0FE
:102960001DE0002417E04FF47A70FFF711FB0420FC
:10297000FFF746FA80460320FFF742FA81464246B7
:1029800049460BA000F042F90748C06880F40050A7
:102990000549C860641C052CE5DB00BF00BFBDE82D
:1029A000F0870000003801400010014025660A0051
:1029B000413A256420423A25640A000021B1828907
:1029C00042F40052828104E082894DF6FF731A407E
:1029D0008281704700B585B001210420FFF796F988
:1029E00001218803FFF792F94FF40070ADF8100051
:1029F00018208DF8130003208DF8120004A9174841
:102A0000FEF758FA4FF48060ADF8100004208DF8FE
:102A1000130004A91148FEF74DFA4FF4E13000907D
:102A20000020ADF80400ADF80600ADF80800ADF8E0
:102A30000C000C20ADF80A006946094800F06EF859
:102A4000FFF7FBF8012240F22551054800F041F85C
:102A500001210348FFF7B2FF05B000BD00080140A7
:102A60000038014002460020B1F5007F00D100BFD0
:102A700013880B400BB1012000E00020704770B5B7
:102A80000246002400230025002040F66A16B142C9
:102A900000D100BFC1F3421501F01F03012606FA61
:102AA00003F3012D02D19689334006E0022D02D1B5
:102AB000168A334001E0968A33400C12012606FA4A
:102AC00004F41688344013B10CB1012000E000205A
:102AD00070BDF0B50346002400260025002040F616
:102AE0006A17B94200D100BF1846C1F3421401F081
:102AF0001F06012707FA06F5012C01D10C3004E06E
:102B0000022C01D1103000E014301AB107682F43B5
:102B1000076002E00768AF430760F0BD2DE9F047AA
:102B200086B005460E460024A24600BFA1460027F7
:102B3000B08900B100BF2F462C8A4CF6FF700440CC
:102B4000F08804432C82AC894EF6F3100440B08820
:102B500031890843718908430443AC81AC8A4FF63C
:102B6000FF400440B0890443AC8201A8FFF7DEF8BF
:102B70001F48874202D1DDF810A001E0DDF80CA06B
:102B8000A88900F4004040B10AEBCA0000EB0A102B
:102B900031684900B0FBF1F807E00AEBCA0000EB2E
:102BA0000A1031688900B0FBF1F86420B8FBF0F03E
:102BB00004012009642101FB1089A88900F4004068
:102BC00040B1322000EBC900B0FBF1F000F007008B
:102BD000044308E0322000EB09106421B0FBF1F05F
:102BE00000F00F0004432C8106B0BDE8F087000020
:102BF0000038014001468888C0F308007047C1F3DF
:102C000008028280704700BFFEE700000FB4054B4A
:102C100010B503A9044A029800F04EF910BC5DF803
:102C200014FB000009380008B8000020490050EAF1
:102C3000C12018BF04204A0D18BF40F0010040F227
:102C4000FF72B2EB515F08BF40F00200012808BFDD
:102C5000052070472DE9F0414F1E00EBC7010446E7
:102C6000D1E9000115461E4637F006020DD02A466E
:102C70003346FDF7C6FB7F1E04EBC703D3E90023F1
:102C8000FDF718FB37F00602F1D1022F25D0042FF3
:102C900013D0062F18BFBDE8F0812A463346FDF752
:102CA000B0FBD4E90A23FDF705FB2A463346FDF7BE
:102CB000A8FBD4E90823FDF7FDFA2A463346FDF7C1
:102CC000A0FBD4E90623FDF7F5FA2A463346FDF7C3
:102CD00098FBD4E90423FDF7EDFA2A463346FDF7C5
:102CE00090FBD4E90223FDF7E5FA2A463346FDF7C7
:102CF00088FBD4E90023BDE8F041FDF7DBBA0122EF
:102D0000FDF7D8BD024A00201107FDF7D3BD000032
:102D100001FDFFFF02E008C8121F08C1002AFAD116
:102D200070477047002001E001C1121F002AFBD14B
:102D3000704700002DE9FF5F82B00021DDE904301B
:102D4000020DDDF840B0034318D044F61050A2F253
:102D5000FF3242431514119801281FD0A5EB0B0038
:102D6000401C5FEA000A4FF000064E4FDFF8389132
:102D7000B046504615D5CAF1000413E0119801245D
:102D80004AA3012801D16FEA0B010298119AC0E908
:102D90000031C0E9024206B0BDE8F09FCBF100006F
:102DA000DFE704460021404A491842EB0450CDE9D0
:102DB000001012E0E00707D032463B464046494645
:102DC000FDF71FFB8046894632463B4610461946B2
:102DD000FDF717FB06460F466410002CEAD1DDE92B
:102DE0000401DDE90023BAF1000F06DAFDF709FB63
:102DF00042464B46FDF705FB05E0FDF774FB4246F6
:102E00004B46FDF770FB04460E460022284BFDF7AB
:102E100081FD03D84FF0FF30014607E00022254B2B
:102E200020463146FDF746FAFDF75BFD102409E028
:102E3000002C0ADB0A220023FDF756FC039B3032EC
:102E40001A55641E50EA0102F2D1641C039AC4F1BF
:102E500011031444119A012A03D0012208430DD111
:102E60000AE0084304D000204FF0110B119072E7E4
:102E7000A3EB0B056D1E0DE05B4504DD4FF000027A
:102E800005F1010504E003DA4FF00002A5F10105A8
:102E9000002AECD002981199C0E90231C0E900453E
:102EA00079E70000000014400000F03F300000000F
:102EB0000000F0430000E03F2DE9FF4F95B09B4636
:102EC0008946064600250FE2252877D100242746AB
:102ED000F84A0121059400E0044316F8013F203B25
:102EE00001FA03F01042F7D130782A2811D06FF0A0
:102EF0002F033078A0F13002092A16D8059A44F041
:102F0000020402EB820203EB42021044761C05909D
:102F1000EFE759F8042B0592002A03DA504244F4F3
:102F20000054059044F00204761C30782E2816D107
:102F300016F8010F44F004042A280DD06FF02F0278
:102F40003078A0F13003092B09D807EB870302EB97
:102F50004303C718761CF3E759F8047B761C3078D6
:102F60006C280FD006DC4C2817D068280DD06A28B2
:102F700014D104E0742810D07A280FD10DE044F465
:102F800000140AE044F4801401E044F44014727820
:102F9000824202D104F58014761C761C30786628B3
:102FA0000BD013DC582877D009DC002875D04528D1
:102FB000F6D04628F4D047281AD19DE118E06328BE
:102FC00035D0642879D0652812D195E1702873D066
:102FD00008DC6728F1D069286FD06E280DD06F28E3
:102FE00006D1B5E073282CD0752875D0782874D018
:102FF0005A46179990476D1C75E1C4F30250022898
:1030000009D003280DD0D9F8001004280DD00D6088
:1030100009F1040967E1D9F80010EA17C1E9005283
:10302000F6E7D9F800100D80F2E70D70F0E719F817
:10303000041B8DF8001000208DF80100EA460120E5
:1030400003E059F804AB4FF0FF3061074FF0000187
:1030500002D40DE008F101018846B9420FDA80453B
:10306000F8DB1AF808100029F4D108E008F1010192
:1030700088468142FADB1AF808100029F6D1059833
:103080005B46A0EB080721463846179A00F094FAF1
:10309000284400EB080507E04DE029E10DE01AF8AF
:1030A000010B5A4617999047B8F10108F7D25B46D1
:1030B00021463846179A13E142E00A220092C4F3EF
:1030C00002524FF0000A022A08D059F804CB032A12
:1030D0004FEAEC710AD00DE029E02AE009F107017E
:1030E00021F00702F2E802C1914609E00FFA8CFCD8
:1030F0004FEAEC71042A03D14FFA8CFC4FEAEC71D1
:10310000002907DA0A460021DCF1000C61EB02011C
:103110002D2202E0220504D52B228DF80420012265
:1031200003E0E20701D02022F7E7904659E00A21A8
:1031300002E010220DE010214FF0000A00910BE098
:1031400010224FF0000A44F004040827009203E024
:1031500008224FF0000A0092C4F30252022A05D05E
:1031600059F804CB0021032A08D009E009F107012E
:1031700021F00702F2E802C1914605E01FFA8CFC3B
:10318000042A01D10CF0FF0C4FF00008220728D5CB
:10319000702806D0009B83F0100353EA0A0305D081
:1031A0000EE040228DF80420012208E05CEA0102D2
:1031B00006D030228DF804208DF8050002229046BA
:1031C000009B83F0080353EA0A030AD15CEA010278
:1031D00001D1620705D530228DF804204FF0010897
:1031E0007F1E582804D034A003900EA802900DE052
:1031F00036A0F9E753466046009AFDF775FA844613
:103200000398825C0298401E029002705CEA010002
:10321000F0D1029806A9081A00F1200A600702D529
:1032200024F4803400E00127574502DDA7EB0A00B3
:1032300000E0002000EB0A01009005984144401A8C
:103240000590E00306D45B462146179A059800F0E6
:10325000B3F90544002706E001A85A46C05D179956
:1032600090476D1C7F1C4745F6DBE0030CD55B46A1
:103270002146179A059800F09FF9054404E0302094
:103280005A46179990476D1C0099481E00900029D6
:10329000F5DC08E0029802995A460078491C029130
:1032A000179990476D1CBAF10001AAF1010AF1DCEF
:1032B00065E10000092801003031323334353637FA
:1032C0003839616263646566000000003031323372
:1032D0003435363738394142434445460000000012
:1032E00000F058F90544761C307800287FF4ECADE6
:1032F00019B02846BDE8F08F620700D4062709F10F
:10330000070222F0070CFCE80223E14603F0004824
:103310005FEA080C02D00FF2702C0DE05FEA045C4B
:1033200002D50FF2682C07E05FEAC47C02D00FF2EE
:10333000602C01E0AFF2700C4FF0FF3823F0004337
:10334000CDF850C065280CD006DC452809D04628A9
:103350001DD047283DD13DE0662818D067287ED192
:1033600038E00021112F01DB112000E0781CCDE9AD
:10337000000106A90EA8FFF7DDFCDDE90F010E9A9A
:1033800003910021009207F1010A04914DE04FF0F2
:1033900000400097CDE9011006A90EA8FFF7CAFC6E
:1033A000DDE90F0203920E9B11990022DDF80CA0BB
:1033B0000093049211B9791C00EB010AB7EB0A00E3
:1033C00004D4C0F1FF3007F1010A0490AAEB070012
:1033D000019044E0012F00DA01270021112F01DDC7
:1033E000112000E03846CDE9000106A90EA8FFF73C
:1033F000A1FCDDE90F010E9A0391002104910092D6
:10340000BA4621070CD40399514500DA8A46BAF12D
:10341000010F05DD009AAAF10101515C302908D0A5
:10342000B84202DA10F1040F06DA0121CDE90110E9
:1034300015E0AAF10101E9E7002805DC049901443F
:103440000491AAEB000102E0411C514500DD8A46CF
:103450000499401A401C01904FF000400290200750
:1034600004D40198504501DBCDF8048000208DF88C
:103470004F0002980DF14F07B0F1004F25D02B20DF
:103480000E9002984FF0020800280CDA4042029099
:103490002D200E9007E00A210298FDF70FF9303138
:1034A000029007F8011DB8F10001A8F10108F2DC53
:1034B00002980028EFD1791E0E980870307800F03D
:1034C000200040F0450007F8020D12A8C01B00F1D3
:1034D00007081498007800B1012000EB0A01019858
:1034E00001EBE07105984144401A401E0590E0034D
:1034F00006D45B462146179A059800F05DF805440E
:103500001498007818B15A46179990476D1CE0033B
:1035100024D55B462146179A059800F04DF80544DE
:103520001CE00498002807DBDDE90301884203DD85
:103530000098405C179901E0179930205A4690474F
:10354000049805F10105401C04900198401E01906B
:1035500004D12E205A46179990476D1CBAF10001EC
:10356000AAF1010ADDDC05E017F8010B5A461799AC
:1035700090476D1CB8F10001A8F10108F4DC5B462E
:103580002146179A0598ABE62D0000002B0000009D
:10359000200000002DE9F041044600251E46174694
:1035A000880404D405E039462020B0476D1C641E11
:1035B000F9D52846BDE8F0812DE9F0410446002503
:1035C0001E469046C80301D5302700E02027880416
:1035D00004D505E041463846B0476D1C641EF9D558
:1035E0002846BDE8F08100002DE9F84F04460D465D
:1035F00021F0004000917349814211DC72498842F8
:1036000001DC06D12CB120462946BDE8F84FFFF772
:1036100076BB6E48002DCCBF6D496E49BDE8F88F72
:103620006D49814211DD6D498142D8BF4FF0FF36AF
:103630006DDD20462946FFF7F9FA042808BFFFF799
:1036400061FB20462946BDE8F88F6549654F25F0A6
:103650000045814233DD6449814219DD002632464E
:103660004FF0804320462946FCF724FE80468A46D8
:10367000012220462946FDF71DF900223B46FCF7B2
:10368000BAFE42465346FCF72EFF04460D463EE086
:1036900001260022BA463B4620462946FCF70AFE90
:1036A00080460F460022534620462946FCF7A3FEDB
:1036B00042463B46FCF717FF04460D4627E04B49C0
:1036C00081421BDDDFF828A1022600225346204656
:1036D0002946FCF796FE00223B46FCF7EBFD8046B0
:1036E0000F460022534620462946FCF784FE4246F8
:1036F0003B46FCF7F8FE04460D4608E0032622464A
:103700002B4600203B49FCF7EEFE04460D462246C0
:103710002B4610461946FCF774FE8B46824602463D
:103720000B46FCF76EFE07460246334888460B46BA
:1037300006217844FFF78EFA52465B46FCF761FE9D
:1037400082462E488B463A46434605217844FFF789
:1037500081FA3A464346FCF754FE02460B46002ED9
:10376000504659460CDAFCF7A5FD22462B46FCF7DD
:1037700048FE01B022462B46BDE8F04FFCF73EBEA6
:10378000FCF798FD22462B46FCF73BFE1C4A7A4488
:1037900002EBC603D3E90023FCF72DFE22462B469D
:1037A000FCF729FE174A7A4402EBC603D3E900234B
:1037B000FCF724FE009A002AB8BF81F00041BDE862
:1037C000F88F0000000010440000F07F182D4454D2
:1037D000FB21F93FFB21F9BF0000DC3F0000203E48
:1037E0000000F33F0000F03F0000E63F0080034090
:1037F0000000F83F0000F0BF7A0400003804000029
:10380000D60300009E03000070B504460D46E1B2E9
:103810000548FFF7F4F900BF80210348FFF722F9BC
:103820000028F9D0204670BD003801402DE9F04154
:1038300000250024FFF70AF800BF80212E48FDF77D
:103840000DFC0028F9D02D4800682D4AB0FBF2F19C
:10385000B1F1807F00D31DE021F07F40401E4FF08A
:10386000E022506150170F22002807DA13071F0EBD
:10387000244B00F00F06361F9F5503E013071E0E62
:10388000214B1E5400BF00204FF0E0229061072022
:10389000106100BF08E000BF4FF0E020006900F4B5
:1038A00080300028F8D0641C80211348FDF7D6FB37
:1038B0000128F0D02046FCF785FE05464FF0E020B9
:1038C000006920F001004FF0E02108614FF08041D5
:1038D0002846FCF7B1FC80460C49FCF77BFC074608
:1038E0000B49FCF7A9FC06460A49FCF7A5FC05466E
:1038F0002846BDE8F08100000008014000000020DB
:1039000040420F0018ED00E000E400E00080AB430F
:1039100000007A440000204108B501210420FEF790
:10392000F5F98020ADF8000004208DF80300694609
:103930000248FDF7BFFA00F0EDF808BD00080140AD
:1039400030B585B0FEF76EFB00F0B6F8FFF742F831
:10395000FEF780F84FF4B4614FF47A70FEF716FD6D
:103960004FF4B4614FF47A70FEF7C4FCFDF7F2F93E
:10397000FDF748FAFFF7D0FFFDF74EFCFEF7FAF827
:10398000FEF7C4F8012820D11EE003A8FEF77EF858
:1039900001A8FEF79BF801A903A8FCF7F5FF68460C
:1039A000FEF716F90C480068FCF72BFE05460B489D
:1039B0000068FCF726FE04462246294608A0FFF7C9
:1039C00025F96420FEF7E4FADFE709A0FFF71EF906
:1039D000002005B030BD0000680000206C00002011
:1039E000583A2025642020593A2025640A00000016
:1039F0000D0AC3BBD3D0BCECB2E2B5BD4D505536B9
:103A0000303530B4ABB8D0C6F7A3A10D0A00000022
:103A100010B50446B4F1FF3F14D014B1012C1CD1F1
:103A200005E04FF440510E48FDF723FB15E04FF43D
:103A300080510B48FDF71DFB4FF400510848FDF77E
:103A400016FB0AE04FF400510548FDF712FB4FF456
:103A500080510348FDF70BFB00BF00BF10BD000005
:103A6000000C014010B50446B4F1FF3F14D014B16E
:103A7000012C1CD105E04FF440410E48FDF7F9FA46
:103A800015E04FF400410B48FDF7F3FA4FF4804185
:103A90000848FDF7ECFA0AE04FF480410548FDF7CD
:103AA000E8FA4FF400410348FDF7E1FA00BF00BF18
:103AB00010BD0000000C014008B501210820FEF7F0
:103AC00025F94FF47040ADF8000010208DF8030088
:103AD00003208DF8020069460448FDF7EBF94FF426
:103AE00070410248FDF7C3FA08BD0000000C014018
:103AF00010B50446A1B20248FEF71DFE10BD00003D
:103B0000002C014010B50446A1B24FF08040FEF7F2
:103B100010FE10BD08B501210420FEF7F7F8402083
:103B2000ADF8000010208DF8030003208DF802008E
:103B300069460448FDF7BEF940210248FDF797FAAF
:103B400008BD0000000801404FBB610567ACDD3FC8
:103B5000182D4454FB21E93F9BF681D20B73EF3FB4
:103B6000182D4454FB21F93FE2652F227F2B7A3C2C
:103B7000075C143326A6813CBDCBF07A8807703CE5
:103B8000075C143326A6913CC4EB98999999C9BF58
:103B9000711623FEC671BCBF6D9A74AFF2B0B3BF8D
:103BA0009AFDDE522DDEADBF2F6C6A2C44B4A2BF4D
:103BB0000D5555555555D53FFF8300922449C23FB9
:103BC0006E204CC5CD45B73F513DD0A0660DB13FED
:103BD000EB0D76244B7BA93F11DA22E33AAD903FFF
:103BE0003C3C2D4D50552D4552524F522D3E3E20BE
:103BF0004D505536303530206465637465637465A7
:103C000064206572726F72210D0ABCECB2E2B2BB25
:103C1000B5BD4D505536303530C4A3BFE9A3ACC750
:103C2000EBBCECB2E9C4A3BFE9D3EBBFAAB7A2B027
:103C3000E5B5C4BDD3CFDF0A0A0000005C3C000834
:103C400000000020BC000000142D0008183D0008F2
:103C5000BC00002014040000242D000800A24A0427
:103C6000000000000000000001020304060708092C
:103C70000000000001020304010203040607080912
:103C80000204060800A00000000000000000000080
:103C90000000000000000000000000000000000024
:103CA0000000000000000000000000000000000014
:103CB0000000000000000000000000000000000004
:103CC0000000000000000000000000006F12833AB6
:103CD000A69B443B0000003F0AD7A33C0100000024
:103CE00000000000000000000000000000000000D4
:103CF00000000000000000000000000000000000C4
:103D0000000000000000803F0000000000000000F4
:083D10000000803F00000000EC
:04000005080000ED02
:00000001FF
