:020000040800F2
:10000000485000205D0200085D2D00083D220008D8
:10001000012D00080F040008D9340008000000007A
:100020000000000000000000000000009D0100082A
:100030007D06000800000000F9010008792D000885
:1000400077020008770200087702000877020008AC
:10005000770200087702000877020008770200089C
:10006000770200087702000877020008C50400083C
:10007000D1040008150500082105000877020008D2
:100080002D050008770200087702000877020008B3
:10009000770200087702000877020008770200085C
:1000A000770200087702000877020008770200084C
:1000B000552E0008612E00086D2E000877020008FA
:1000C000770200087702000877020008770200082C
:1000D00077020008A9340008B5340008C1340008CC
:1000E000770200087702000877020008770200080C
:1000F00077020008770200087702000877020008FC
:100100007702000877020008792E000877020008BD
:100110000531000811310008852E0008912E0008D5
:100120007702000871050008B5050008770200088D
:1001300077020008770200087702000877020008BB
:1001400077020008770200087702000877020008AB
:1001500077020008C1050008CD050008CD3400086D
:10016000770200087702000877020008770200088B
:1001700077020008770200087702000800000000FC
:100180007702000877020008DFF80CD000F002F9CF
:10019000004800477D400008485000202C4B19685B
:1001A0000868B0E8F04F80F30988BFF36F8F4FF015
:1001B000000080F3118870470000000008480068C4
:1001C000006880F308884FF0000080F3148862B65E
:1001D00061B6BFF34F8FBFF36F8F00DF00BF00BF6B
:1001E00008ED00E0DFF80C00016841F470010160E7
:1001F000704700BF88ED00E0EFF30980BFF36F8F19
:10020000134B1A681EF0100F08BF20ED108A20E96A
:10021000F04F106009B44FF0500080F31188BFF325
:100220004F8FBFF36F8F05F0E5F84FF0000080F3BC
:10023000118809BC19680868B0E8F04F1EF0100F6B
:1002400008BFB0EC108A80F30988BFF36F8F704746
:1002500034010020EFF30580704700000648804716
:1002600006480047FEE7FEE7FEE7FEE7FEE7FEE79B
:10027000FEE7FEE7FEE7FEE7392E000889010008E9
:100280002DE9F05F0546002092469B4688460646CB
:10029000814640241BE0284641464746224600F05E
:1002A00069F853465A46C01A914110D31146184670
:1002B000224600F050F82D1A67EB01084F462246FF
:1002C0000120002100F047F817EB00094E41201EE5
:1002D000A4F10104DFDC484631462A464346BDE826
:1002E000F09F40EA01039B0703D009E008C9121FF1
:1002F00008C0042AFAD203E011F8013B00F8013BE0
:10030000521EF9D27047D2B201E000F8012B491E0B
:10031000FBD270470022F6E710B513460A460446A2
:100320001946FFF7F0FF204610BD30B50B460146D9
:1003300000202022012409E021FA02F59D4205D384
:1003400003FA02F5491B04FA02F52844151EA2F12E
:100350000102F1DC30BD202A04DB203A00FA02F170
:10036000002070479140C2F1200320FA03F31943A3
:1003700090407047202A04DB203A21FA02F0002145
:10038000704721FA02F3D040C2F1200291400843A5
:1003900019467047064C074D06E0E06840F001033F
:1003A00094E8070098471034AC42F6D3FFF7F0FE0C
:1003B000786400089864000870B58C1810F8015B28
:1003C00015F0070301D110F8013B2A1106D110F8EE
:1003D000012B03E010F8016B01F8016B5B1EF9D1F2
:1003E0002B0705D40023521E0DD401F8013BFAE778
:1003F00010F8013BCB1A921C03E013F8015B01F8E3
:10040000015B521EF9D5A142D8D3002070BDFEE792
:100410002DE9F04700270425DFF8A080DFF8A09041
:1004200050383E4601F1060A102845D2DFE800F0B8
:100430001108130C1517191B1D1F21444444442394
:1004400034240325402702E03D2403252E270126DE
:1004500013E0302411E037242BE03A2429E0412432
:100460000BE0452409E0492407E04D2405E0512430
:1004700003E0552401E0D8F82440032A19D04DB1F7
:100480006A0009EB4400FFF72CFFD8F81420294636
:1004900020469047002E0FD0720009EB47005146CE
:1004A000FFF71FFF31463846D8F81420BDE8F04763
:1004B000104703250026E3E7BDE8F0870000002091
:1004C000CA020020014800F0EFB80000140C002020
:1004D00008B5002000900B48007870B10A486946C2
:1004E000006805F047F9009838B108494FF080508E
:1004F0000860BFF34F8FBFF36F8F054800F0D4F84B
:1005000008BD0000B8000020C000002004ED00E09D
:10051000940D0020014800F0C7B80000B40B002083
:10052000014800F0C1B80000F40D002008B500201B
:1005300000900B48007870B10A486946006805F0E1
:1005400019F9009838B108494FF080500860BFF39E
:100550004F8FBFF36F8F054800F0A6F808BD00006D
:10056000B8000020BC00002004ED00E0340D0020A5
:1005700008B5002000900B48007870B10A48694621
:10058000006805F0F7F8009838B108494FF080503E
:100590000860BFF34F8FBFF36F8F054800F084F8FA
:1005A00008BD0000B8000020C400002004ED00E0F9
:1005B000540E0020014800F077B80000740C0020B1
:1005C000014800F071B80000B40E0020014800F0AE
:1005D0006BB80000D40C002001681823CAB2103A8E
:1005E000B2FBF3F2054B6FF30901032A9B5CC36571
:1005F00000D9091D8165084670470000B0630008F6
:1006000010B5014600208B698A6A4FF0C07453B15F
:10061000B3F5005F15D072B1012A0CD0022A0AD0BE
:10062000032A09D104E01AB1012A06D0022A03D113
:10063000C96AC90100D5012010BDC96AA142FAD01A
:1006400010BD002AF7D0012AF2D0022AF3D0032AE3
:10065000F3D010BD30B50468256825F480252560E9
:10066000046863608368402B036803D09960006866
:10067000C26030BD9A600068C16030BD704772B61C
:10068000FEE790F83510022903D080214165012052
:100690007047052180F835100068016821F00101DC
:1006A00001600020704700002DE9F84304464FF038
:1006B0000009CDF8009063484FF41651A56D00680D
:1006C000B0FBF1F72E6894F85C10082000FA01F1F5
:1006D00031420FD021680A6852070BD50A6822F010
:1006E00004020A6094F85C108840A860606D40F0D5
:1006F0000100606594F85C104FF0010808FA01F001
:10070000304208D021684969090604D5A860606DA7
:1007100040F00200606594F85C100420884030428C
:1007200008D021680968890704D5A860606D40F089
:100730000400606594F85C1010208840304218D0A6
:1007400021680968090714D5A86020680168490371
:1007500004D50068000308D5A16C07E00168C9054D
:1007600003D4016821F008010160216C09B1204621
:10077000884794F85C1020208840304231D02168AE
:100780000968C9062DD5A86094F8350005282068A9
:10079000016806D0490347D5006800031DD4616C89
:1007A0001CE021F0160101602068416921F0800100
:1007B0004161206C08B9A06C20B12068016821F06B
:1007C0000801016094F85C103F208840A86084F81C
:1007D000349084F83580216D1FE0E16B09B120462B
:1007E0008847606D00282BD0606DC00714D00520AD
:1007F00084F835002068016821F00101016000984B
:10080000401C0090B84203D820680068C007F6D1A9
:1008100084F8349084F83580E16C002910D001B060
:100820002046BDE8F04308470168C905D5D40168F2
:1008300021F01001016084F8349084F83580CCE711
:10084000BDE8F883300100202DE9F041044600F0B6
:1008500091F906465CB1002584F83450022084F8F2
:1008600035002068016821F0010101600DE00120E0
:10087000BDE8F08100F07EF9801B052805D9202015
:100880006065032084F83500F2E720680068C0073F
:10089000F0D12268116820480140D4E901031843CF
:1008A000D4E903363343184363691843A3691843F3
:1008B000E3691843236A18430843616A042903D192
:1008C000D4E90B1319430843106020684069666A35
:1008D00020F0070130460E43012704280CD1A06AFE
:1008E0000643E06A40B12046FFF78AFE20B140206F
:1008F000606584F83570BAE7206846612046FFF7E6
:100900006BFE94F85C203F2191408160656584F81E
:1009100035700020ACE700003F8010F02DE9F04179
:100920000446866D90F83400002501280DD0012082
:1009300084F8340094F835700020012F07D084F833
:10094000340002252846BDE8F0810220FBE702279B
:1009500084F8357060652046FFF77CFE94F85C10E3
:100960003F208840B0602068016841F016010160B6
:10097000206C20B12068016841F008010160206806
:10098000016841F001010160DCE7000070B5044638
:1009900000F0F0F80546601C02D0044800780444DA
:1009A00000F0E8F8401BA042FAD370BD24010020FB
:1009B0002DE9F84F00224FF0010803254FF00F0EEC
:1009C0000B6808FA02F42340A3426ED14E68012E50
:1009D00005D0022E03D0112E01D0122E12D186681E
:1009E0004FEA420C05FA0CF7BE43CF6807FA0CF742
:1009F000374387604668A6430C79C4F300149440DB
:100A000034434460C668570005FA07FC8C6826EA40
:100A10000C06BC403443C4604C68022C01D0122C3C
:100A200013D1D40800EB8404A346D4F820905407D3
:100A30004FEAD46A0EFA0AF629EA06090E6906FA9E
:100A40000AF646EA0906CBF8206006680C7926EA21
:100A50000C0604F00304BC40344304604C68E4001A
:100A600065D5364C266846F480462660246822F018
:100A7000030604F480440094314C3444A446D4F872
:100A800008489607370F0EFA07F6B4432D4EB042CA
:100A900001D1002624E02C4EB04201D101261FE0F6
:100AA0002A4EB04202D102261AE040E0284EB0425F
:100AB00001D1032614E0274EB04201D104260FE0F5
:100AC000254EB04201D105260AE0244EB04201D1A4
:100AD000062605E0224EB04201D1072600E0082696
:100AE000BE402643CCF808681E4E34684F689C43CD
:100AF000FF0300D51C4334601A4C241D26684F6840
:100B00009E43BF0300D51E432660164E0836346848
:100B10004F689C43FF0200D51C433460114E0C36D5
:100B200034684F689C43BF0200D51C433460521C9C
:100B3000102AFFF445AFBDE8F88F000044380240AA
:100B40000030014000000240000402400008024062
:100B5000000C024000100240001402400018024045
:100B6000001C0240003C01400AB181617047090449
:100B7000FBE7000001488068704700002401002066
:100B80000248816802781144816070472401002086
:100B90000B4810B5016841F400710160016841F42F
:100BA00080610160016841F480710160032000F000
:100BB0008DF8002000F006F800F03EF8002010BD8F
:100BC000003C024010B5014688B00022372000F0FA
:100BD0005DF8372000F04CF813480024016841F01C
:100BE00020010160006805A900F020000690684619
:100BF00000F018F900F036F90C494000B0FBF1F1B3
:100C00000C480B4A491E026040F2E732C0E9032457
:100C1000C0E9011400F098FB10B1012008B010BD2C
:100C2000044800F001FCF9E74038024040420F0060
:100C300000140040140F00200C4882B0016841F4F9
:100C400080410160006800F4804000900748001F68
:100C5000016841F0805101600068002200F080507E
:100C600000900F21901E02B000F010B844380240EE
:100C7000002809DB00F01F0201219140400980009B
:100C800000F1E020C0F8001170470000F0B40E4BF6
:100C90001B680C46C3F30223C3F10705042D00D9DA
:100CA0000425191D072901D2002300E0DB1E0126BF
:100CB00006FA05F1491E214099409E40761E1640D5
:100CC0003143F0BC02F0D4BC0CED00E0064900F06A
:100CD000070208684FF6FF03184040EA0220034A63
:100CE00010430860704700000CED00E00000FA05BA
:100CF0002DE9F0470E46050065D0DFF81481D8F8DD
:100D00000000F7B200F00F00B04207D288F8007080
:100D1000D8F8000000F00F00B04254D128683D4CD4
:100D2000810712D5400703D5206840F4E0502060C9
:100D30002878000703D5206840F4604020602068D0
:100D4000A96820F0F000084320602878C0072DD063
:100D5000304968680839012812D0022813D00328C6
:100D600011D00968890700292DDA216821F00301D3
:100D700001432160FFF7FEFE814641F2883A0EE012
:100D800009688903EFE709688901ECE7FFF7F2FEDC
:100D9000A0EB0901514502D90320BDE8F087206886
:100DA000696800F00C00B0EB810FEFD1D8F80010AB
:100DB000404601F00F01B14207D90770006800F00A
:100DC0000F00B04201D00120E7E72878400705D5A1
:100DD0002068E96820F4E050084320602878000784
:100DE00006D52068296920F4604040EAC1002060EF
:100DF00000F058F82168084AC1F30311515CC8405B
:100E00000649086006480068FFF7DCFE0020C4E7DA
:100E1000003C024008380240B8630008300100205E
:100E2000280100200F2202600C4A136803F003031C
:100E30004360136803F0F0038360136803F4E05326
:100E4000C36012684FF4E05303EAD202026104481F
:100E5000006800F00F00086070470000083802408A
:100E6000003C02400448054900680968044AC1F38F
:100E70008221515CC8407047300100200838024090
:100E8000C86300080448054900680968044AC1F3BA
:100E90004231515CC84070473001002008380240A0
:100EA000C8630008154810B5006810F00C0214481B
:100EB00013D04110042A0FD0082A0ED10F4C241F42
:100EC0002268236802F03F025B0207D52068C0F366
:100ED0008810A0FB010106E0084610BD2168C1F39F
:100EE0008811A1FB00010023FFF7CAF92168C1F3B3
:100EF0000141491C4900B0FBF1F010BD0838024027
:100F00000024F4002DE9F84F04006ED02078DFF8BB
:100F10003C93C007A9F104054AD009F10400016817
:100F2000C1F38101012908D00068C0F381000228C3
:100F30000AD1D9F80000400206D52868800337D5C9
:100F400060680028E1D033E06068B0F5803F10D0E1
:100F5000B0F5A02F286810D020F4803028602868D1
:100F600020F4802028606068A8B1FFF703FE0646E1
:100F70000DE0286840F48030F4E740F480202860D9
:100F8000F7E700BFFFF7F6FD801B642873D82868D9
:100F90008003F7D50CE0FFF7EDFD064605E000BF46
:100FA000FFF7E8FD801B6428F0D828688003F7D499
:100FB0002078DFF89C8280074FF0000A3ED5A348D6
:100FC000001D016811F00C0F08D00068C0F381000B
:100FD00002280BD1D9F80000400207D42868800706
:100FE00016D5E068012800D112E02BE1E068B8B125
:100FF0000120C8F80000FFF7BDFD064605E000BF70
:10100000FFF7B8FD801B0228C0D828688007F7D5F5
:101010002868216920F0F80040EAC10028600DE04E
:10102000C8F800A0FFF7A6FD064604E0FFF7A2FD02
:10103000801B02281FD828688007F7D42078000773
:1010400022D5824E83486169703671B101210160F9
:10105000FFF790FD074604E0FFF78CFDC01B022858
:1010600009D830688007F7D50EE0C0F800A0FFF778
:1010700081FD074605E082E0FFF77CFDC01B0228EA
:101080007DD830688007F7D42078400768D5DFF82E
:10109000BCB100270BF13C0BDBF80000C0000BD407
:1010A000DBF8001041F08051CBF80010DBF80000B5
:1010B000012700F080500090674E3068C00510D4C2
:1010C000306840F480703060FFF754FD009005E018
:1010D000FFF750FD0099401A022850D83068C0052B
:1010E000F6D55A4EA0686C3601280FD00528306816
:1010F00010D020F001003060306820F00400306033
:10110000A068B8B1FFF736FD00900FE0306840F0FE
:101110000100F4E740F004003060F7E7FFF72AFD34
:101120000099411A41F28830814266D830688007C0
:10113000F4D50EE0FFF71EFD009007E0FFF71AFD63
:101140000099411A41F28830814256D830688007B0
:10115000F4D42FB1DBF8001021F08051CBF800104F
:10116000A069C8B33949091D0968C1F38101022981
:101170004AD00228504607D0C8F8600000E03CE0A2
:10118000FFF7F8FC04463BE04746C8F86000FFF76D
:10119000F1FC064605E000BFFFF7ECFC801B0228CF
:1011A0002BD828688001F7D4D4E907010843A16A45
:1011B0002A4A490802EB0141626A41EA8211084366
:1011C00094F82C1040EA0161C9F80010012038663B
:1011D000FFF7D0FC044606E036E000BFFFF7CAFC8C
:1011E000001B022809D828688001F7D52CE000BF31
:1011F000FFF7C0FC001B022802D90320BDE8F88FCE
:1012000028688001F4D41FE00128F7D0D9F8000045
:10121000E26900F48001914214D1226A00F03F019A
:1012200091420FD147F6C071626A0140914209D1E3
:10123000A26A00F44031914204D1E16A00F070608A
:10124000884201D00120D9E70020D7E704380240C6
:1012500000004742800E4742007000400000FFFF40
:101260007047704710B590F83C20012A22D0012227
:1012700080F83C20CA688C6822F4407222434C6893
:1012800022F4806222430C6822F4006222430C693B
:1012900022F4805222434C6922F400522243C9694D
:1012A000002322F480420A4301684A6480F83C30FB
:1012B000002010BD022010BD70B590F83C20012A1E
:1012C00032D0012480F83C40022280F83D2003689F
:1012D0005A689D6822F070060A6832435A60134BC0
:1012E00002689A4214D0B2F1804F11D0104B9A424A
:1012F0000ED0104B9A420BD00F4B9A4208D00F4B96
:101300009A4205D00E4B9A4202D00E4B9A4204D11B
:10131000496825F080031943916080F83D40002121
:1013200080F83C10084670BD022070BD00000140EE
:101330000004004000080040000C00400004014090
:10134000004001400018004010B5040003D094F89C
:101350003D0010B107E0012010BD002084F83C00E2
:10136000204600F00DF8022084F83D00211D206881
:1013700001F094FD012084F83D00002010BD000024
:1013800008B52349026823488A4211D1016841F017
:10139000100101600068002200F01000009005219B
:1013A0003620FFF773FCBDE808403620FFF760BC2D
:1013B0001849194B091D9A4207D1086840F40030BA
:1013C0000860086800F4003009E0144B9A4208D124
:1013D000086840F480200860086800F480200090CD
:1013E00008BD0F498A4207D1016841F080010160C0
:1013F000006800F08000F2E70A498A42F0D10168F3
:1014000041F480710160006800F48070E7E700003B
:1014100000100040403802400044014000480140B4
:10142000001C0040002000400168CA6842F0010230
:10143000CA600068816801F00701062903D00168CD
:1014400041F001010160002070472DE9F0410D4697
:10145000040003D094F83D0018B108E00120BDE875
:10146000F081002084F83C00204600F03BF8022088
:1014700084F83D002068816844F20702914381604E
:10148000211D206801F00AFD226890689169166AA2
:101490002B68AF69034340F20330814341EA0721DF
:1014A000A868EF6908434FF6FC418843E96840EAC1
:1014B0000720014328692F6A000140EA07300843EA
:1014C00069686D6926F0AA0646EA05152943936006
:1014D0002268906120680162012084F83D000020AC
:1014E000BDE70000F0B587B0044614216846FEF75A
:1014F00011FF574923680024554810390225554AE1
:10150000554EB3F1804F27D0544FBB4258D102689B
:1015100042F002020260006800F0020005900868D4
:1015200040F0020008600868694600F0020005907B
:1015300030200090CDE901543046CDE90345FFF756
:1015400037FA002205211D20FFF7A0FB5FF01D00E8
:10155000FFF78EFB07B0F0BD036843F001030360A3
:10156000006800F001000590086840F00100086084
:10157000086800F001000590086840F0020008606B
:101580000868012700F00200059020200090CDE9B6
:101590000154CDE9034769461046FFF709FA0820D0
:1015A0000090CDE90154CDE9034769463046FFF785
:1015B000FFF9002205211C20FFF768FB1C20C7E76C
:1015C000274FBB4220D1026842F00402026000684B
:1015D00000F004000590086840F002000860086808
:1015E000694600F002000590C0200090CDE901544A
:1015F0003046CDE90345FFF7DBF9002205211E2027
:10160000FFF744FB1E20A3E7164EB342A2D10368A6
:1016100043F008030360006800F0080005900868C4
:1016200040F0010008600868694600F0010005907C
:1016300003200090CDE901541046CDE90345FFF7A2
:10164000B7F9002205213220FFF720FB32207FE787
:101650004038024000000240000402400004004004
:1016600000080040000C004010B50446006891B12D
:10167000042904D00122002101F074FC2068012219
:101680005FF0040101F06EFC2068016841F0010187
:101690000160002010BD01220021F3E7704770B502
:1016A0000446006801694FF00005C943890715D455
:1016B000C168C943890711D4E91E0161012020775F
:1016C000206880698007204602D0FFF7E7FF04E02A
:1016D00000F02CF9204600F0DDF92577206801693B
:1016E000C943490717D4C168C943490713D46FF0E8
:1016F00004010161022020772068806910F4407F96
:10170000204602D0FFF7CAFF04E000F00FF92046A0
:1017100000F0C0F9257720680169C943090716D48C
:10172000C168C943090712D46FF0080101610420A0
:1017300020772068C0698007204602D0FFF7AEFFFF
:1017400004E000F0F3F8204600F0A4F925772068C3
:101750000169C943C90617D4C168C943C90613D46E
:101760006FF010010161082020772068C06910F433
:10177000407F204602D0FFF791FF04E000F0D6F84A
:10178000204600F087F9257720680169C943C90719
:1017900008D1C168C943C90704D1891E0161204627
:1017A00000F09CF920680169C943090609D4C168A1
:1017B000C943090605D46FF0800101612046FFF797
:1017C0004FFD20680169C943490609D4C168C9436E
:1017D000490605D46FF040010161204600F088F908
:1017E00020680169C94389060BD4C168C9438906C9
:1017F00007D46FF0200101612046BDE87040FFF77B
:1018000030BD70BD70B586B0044614216846FEF741
:1018100081FD24683A4D00223A4902233A48AC42FD
:1018200011D10C6844F010040C60096801F010013B
:1018300005914FF4D4410091CDE901320121CDE968
:10184000032169460DE0314E0325B4420DD10C68E9
:1018500044F010040C60096801F01001059160214A
:1018600046E0FFF7A5F806B070BD294E2948B442FE
:1018700009D10C6844F002040C60096801F002010F
:101880000591811534E0244EB44209D10C6844F02E
:1018900002040C60096801F002010591711527E04E
:1018A0001E4E0925B44209D10C6844F002040C60B4
:1018B000096801F002010591F10019E0184E19487C
:1018C000B44209D10C6844F001040C60096801F0CD
:1018D0000101059140210BE0134EB442C3D10C68C5
:1018E00044F001040C60096801F0010105918021B8
:1018F0000091CDE90132CDE903256946B1E7000049
:101900000000014030380240001002400040014019
:10191000004401400004024000480140001800401B
:10192000001C00400000024000200040704770B5DD
:10193000044690F83C000D4601280DD0012684F89D
:101940003C60022084F83D0042B1042A18D0082AE5
:101950002AD00C2A4DD139E0022070BD206801F058
:101960000FFB2068816941F008018161206881696D
:1019700021F004018161206881692A69114311E025
:10198000206801F02DFB2068816941F400618161CC
:101990002068816921F480618161206881692A69F8
:1019A00041EA0221816124E0206801F04FFB2068B8
:1019B000C16941F00801C1612068C16921F00401D9
:1019C000C1612068C1692A69114311E0206801F0F2
:1019D00071FB2068C16941F40061C1612068C1697F
:1019E00021F48061C1612068C1692A6941EA02214C
:1019F000C16184F83D60002084F83C0070BD10B5E2
:101A0000040003D094F83D0010B107E0012010BDA0
:101A1000002084F83C00204600F00CF8022084F8F6
:101A20003D00211D206801F039FA012084F83D00B5
:101A3000002010BD08B5134A01681348914207D130
:101A4000016841F001010160006800F0010009E057
:101A50000E4A914208D1016841F48031016000686A
:101A600000F48030009008BD09488142FBD106484F
:101A7000001F016841F040010160006800F0400073
:101A8000F0E70000000001404438024000400140FF
:101A9000001800407047000010B50446006801229D
:101AA00001F060FA0B492068884202D00A49884256
:101AB00003D1416C41F4004141642068816801F028
:101AC0000701062903D0016841F0010101600020EF
:101AD00010BD0000000001400004014000680349FF
:101AE000884201D1FFF74CB8704700000014004055
:101AF0007047704770B5026804461068D168536932
:101B000010F00F0F52D003F0010501F490762E4330
:101B10005FD0C20705D0CA0503D5E26B42F00102CF
:101B2000E263420705D5DA0703D0E26B42F0020216
:101B3000E263820705D5DA0703D0E26B42F00402C4
:101B4000E263020707D501F020022A4303D0E26BCB
:101B500042F00802E263E26B002A33D0800604D52B
:101B6000880602D5204601F05CFB20684069E16BE5
:101B7000C0F38010090700D428B3204601F03AFBD7
:101B80002068416949061AD5416921F04001416147
:101B9000606BA0B11B490165606BFEF772FD002808
:101BA00010D0606B016DBDE870400847830610D50A
:101BB0008B060ED52046BDE8704001F032BB2046B2
:101BC000FFF797FF70BD2046FFF793FF0020E0630B
:101BD00070BD030606D50B0604D52046BDE870404F
:101BE00001F0FEBB4006F3D54806F1D5D16820468A
:101BF00021F04001D160202184F8391000F01CFB55
:101C000070BD00001D31000870B5040004D094F8C8
:101C10003900002510B106E0012070BD84F838506D
:101C2000204600F023F8242084F839002068C16899
:101C300021F40051C160204601F03EFB206801699B
:101C400021F4904101612068416921F02A0141613C
:101C50002068C16841F40051C160E563202084F828
:101C6000390084F83A00002070BD00002DE9F04FE3
:101C700087B0044614216846FEF74CFBE948DFF8BC
:101C8000A0831038D4F800C0E64A022103270823B5
:101C9000DFF894E3002506154FF0010B4FF00069C3
:101CA000C44535D1D2F800C04CF4002CC2F800C0B5
:101CB000126802F400220592026842F004020260F7
:101CC000006800F004000590B8028DE80308CDE933
:101CD000037369467046FEF76BFED54FD3483860F4
:101CE000C7E90195C7E903567D61BD61FD613D62AC
:101CF00038467D62FEF7A8FD08B1FEF7C0FC6763B9
:101D0000002205213420BC63FEF7C0FF342052E0DE
:101D1000DFF82083C44553D1D2F800C04CF4801CB6
:101D2000C2F800C0126802F480120592026842F004
:101D300004020260026802F004020592026842F0A6
:101D40000802026000688A4600F0080005904FF41F
:101D50008050D846CDE9000ACDE902879B46694606
:101D600004937046FEF724FE0420CDE9000ACDE975
:101D700002876946CDF810B0AF48FEF719FEAC4FA8
:101D8000AA48603730383860C7E90195C7E903567B
:101D90007D61BD61FD613D6238467D62FEF754FDA7
:101DA00008B1FEF76CFC6763002205213520BC6397
:101DB000FEF76CFF3520FEF75BFF07B0BDE8F08F44
:101DC000DFF878824FF0070A4FF0400BC4454CD142
:101DD000944A121D136843F010031360126802F056
:101DE00010020592026842F001020260006800F0F1
:101DF000010005904FF4C0608DE8A3046946904847
:101E0000FEF7D6FD8A4F8F48C037B0463860C7E925
:101E10000195C7E903567D614FF48036BD61C7E97E
:101E2000075638467D62FEF70FFD08B1FEF727FC26
:101E30006763BC63844F8348C7E903587D61BD6114
:101E4000C7E9075678307D6287E8010A3846FEF711
:101E5000FBFC08B1FEF713FC2763002205212520B7
:101E6000BC63FEF713FF2520A5E7DFF8E081C4453A
:101E700035D1136843F400331360126802F4003262
:101E80000592026842F001020260006800F0010061
:101E900005900C208DE8A30469466948FEF788FD8B
:101EA000694F6248603748303860C7E90195C7E933
:101EB00003567D614FF48030BD61C7E90750384655
:101EC0007D62FEF7C1FC08B1FEF7D9FB6763002213
:101ED00005212620BC63FEF7D9FE26206BE7DFF83C
:101EE0007081C44548D1136843F48023136012689D
:101EF00002F480220592026842F002020260006849
:101F000000F0020005904FF440608DE8A30469469C
:101F10005048FEF74DFD4C4F4448C03718383860E4
:101F2000C7E90195C7E903567D61BD61FD613D6269
:101F300038467D62FEF788FC08B1FEF7A0FB6763B8
:101F4000BC63454F3948C7E903567D61BD61FD61FA
:101F50003D6218307D6287E8010A3846FEF774FC5E
:101F600008B1FEF78CFB2763002205212720BC6304
:101F7000FEF78CFE27201EE7384A94457FF41DAFFC
:101F8000284A121DD2F800C04CF0200CC2F800C044
:101F9000126802F020020592026842F00402026018
:101FA0000068049300F004000590C0208DE8A300B1
:101FB00069467046FEF7FCFC274F22486037183808
:101FC00038604FF02068C7E90185C7E903567D6195
:101FD000BD61FD613D6238467D62FEF735FC08B1AA
:101FE000FEF74DFB6763BC631B4F1648C03760307C
:101FF000C7E903567D61BD61FD613D627D6287E891
:1020000001093846FEF720FC08B1FEF738FB2763CC
:10201000002205214720BC63FEF738FE4720CAE6B0
:10202000004C00404038024000080240406002403E
:10203000B40B002000500040000C02400010014092
:102040000000024040640240D40C002000440040E4
:102050000048004000040240F40D0020001401403C
:10206000F8B5044690F83A0020283CD1C1B3BAB381
:1020700094F83800012836D0012084F83800A16295
:10208000A2850025E563222084F83A00636B174897
:10209000D863636B16481864636B1648D864606B2A
:1020A000134605650846666B216802463046091DE1
:1020B000FEF734FC206801684168009184F83850CC
:1020C000C16841F48071C1602068416941F001013B
:1020D00041612068416941F0400141610020F8BD43
:1020E000FFE70120FBE70220F9E700007731000855
:1020F000B33100082D310008704770472DE9F843CF
:10210000044690F839001F4616460D46202850D147
:10211000B5B1AEB194F8380001284AD0012084F856
:1021200038004FF00008C4F83C80212084F83900C2
:10213000FEF720FDA6848146E68484F8388026E0F8
:102140000120BDE8F883E08C401EE084A0684B4687
:10215000B0F5805F4FF000024FF0800120460097FD
:1021600003D001F06EF9E8B90DE001F06AF9C8B9E1
:1021700028882168C0F308004860206908B16D1CF8
:1021800005E0AD1C03E0216815F8010B4860E08C08
:102190000028D8D14B46002240212046009701F06C
:1021A00050F908B10320CCE7202084F83900002042
:1021B000C7E70220C5E7000070B5044690F8390073
:1021C000202830D169B362B394F8380001282AD0AE
:1021D000012084F838002162A284E2840025E563AE
:1021E000212084F83900236B1048D863236B1048F2
:1021F0001864236B0F48D864206B13460565266866
:10220000206B321DFEF78AFB21686FF040000860EA
:1022100084F838502068416941F080014161002014
:1022200070BD012070BD022070BD0000BD310008EE
:10223000EB3100082D31000870477047FEE70000C1
:102240000EB5254D01205022287024492448FFF75F
:1022500007FF224E4FF0FF373946686803F00EFC47
:1022600002F0EEFE0024305D01F05CF9641C502C9D
:10227000F9DB1C480078D0B11B4A9FED1C0ADFED4A
:102280001C0A0020694600BF02EB4003B3F97A3014
:1022900001EE103A01EB8003401CB8EEC11A03288E
:1022A00021EE001A21EE201A83ED001AECDB5022F9
:1022B0000A490B48FFF7D4FE02F0E2FE00231A465B
:1022C0006946E86903F0A6F900231A466946686A78
:1022D00003F0A0F9C0E70000B80000203C04002093
:1022E000F40A002001000020CA020020000000388B
:1022F000000034432D4808B5016841F480010160B5
:10230000016801F480010091016841F4001101604D
:102310000068002200F40010009005210B20FEF759
:10232000B5FC0B20FEF7A4FC002205210C20FEF7D3
:10233000ADFC0C20FEF79CFC002205210D20FEF7D1
:10234000A5FC0D20FEF794FC002205210E20FEF7CF
:102350009DFC0E20FEF78CFC002205211020FEF7CC
:1023600095FC1020FEF784FC002205213920FEF7A1
:102370008DFC3920FEF77CFC002205213A20FEF777
:1023800085FC3A20FEF774FC002205214520FEF76B
:102390007DFC4520FEF76CFC002205214620FEF75F
:1023A00075FCBDE808404620FEF762BC30380240AC
:1023B00010B5D4B003220021012003F0C3F8674C0C
:1023C000032200216060012003F0BCF8A06003221A
:1023D0000021012003F0B6F8E06003220021012073
:1023E00003F0B0F8206100221021012003F0AAF8C8
:1023F000606100221021022003F0A4F8A0610022F5
:102400000C21012003F09EF8E06100221021012040
:1024100003F098F8206200220C21012003F092F8CA
:10242000606200221021012003F08CF8A0620022DB
:102430001021012003F086F8E0620022082101202B
:1024400003F080F8206300220821012003F07AF8CD
:1024500060631C2242496846FDF743FF002168463D
:1024600001F0ECFE3E49E0631C221C3107A8FDF799
:1024700038FF002107A801F0E1FE394920641C2241
:1024800038310EA8FDF72DFF00210EA801F0D6FE71
:10249000334960641C22543115A8FDF722FF002146
:1024A00015A801F0CBFE2E49A0641C2270311CA897
:1024B000FDF717FF00211CA801F0C0FE2849E064C9
:1024C0001C228C3123A8FDF70CFF002123A801F06A
:1024D000B5FE234920651C22A8312AA8FDF701FF7B
:1024E00000212AA801F0AAFE1D4960651C22C43102
:1024F00031A8FDF7F6FE002131A801F09FFE184932
:10250000A0651C22E03138A8FDF7EBFE002138A8B9
:1025100001F094FE1249E0651C22FC313FA8FDF752
:10252000E0FE00213FA801F089FE20661C220D4933
:1025300046A8FDF7D6FE002146A801F07FFE094916
:1025400060661C221C314DA8FDF7CBFE00214DA872
:1025500001F074FEA06654B010BD0000B800002069
:1025600060620008786300082DE9F04387B0142109
:102570006846FDF7CFFE3B480024016841F010019A
:102580000160016801F010010591016841F004014A
:102590000160016801F004010591016841F08001CA
:1025A0000160016801F080010591016841F00101BD
:1025B0000160016801F001010591016841F002012B
:1025C0000160016801F002010591016841F0080114
:1025D00001600068244F00F008004FF4C4450590E6
:1025E000002229463846FEF7BFFADFF88090002225
:1025F00041F202014846FEF7B7FADFF874804FF463
:102600007F46002231464046FEF7AEFA009501258E
:10261000CDE90154694638460394FEF7C9F9280309
:102620000090CDE90154694648460394FEF7C0F98D
:102630000096CDE90154694640460394FEF7B8F987
:10264000E8038DE8310069460A48FEF7B1F9022037
:102650008DE8310069464846FEF7AAF907B0BDE8A3
:10266000F0830000303802400008024000100240B1
:10267000000C02400000024010B588B01C216846E2
:10268000FDF748FE1548144900240160A721C0E960
:10269000011444F61F61C0E903148461FEF754FE7F
:1026A00008B1FDF7ECFF0D48FFF7A9F908B1FDF7F8
:1026B000E6FF6020CDE90004029400226946074845
:1026C0000494FFF734F908B1FDF7D9FF0348FFF789
:1026D00099F808B010BD000000440140F408002043
:1026E00010B588B01C216846FDF714FE1548144942
:1026F00000240160A721C0E9011444F61F61C0E96C
:1027000003148461FEF720FE08B1FDF7B8FF0D4801
:10271000FFF775F908B1FDF7B2FF6020CDE90004BD
:1027200002940022694607480494FFF700F908B1B3
:10273000FDF7A5FF0348FFF765F808B010BD0000DE
:10274000004801403409002010B588B01C216846BB
:10275000FDF7E0FD16481549002401605321C0E94A
:10276000011444F61F61C0E903148461FFF747F9BF
:1027700008B1FDF784FF6020CDE900040294002237
:1027800069460B480494FFF7D2F808B1FDF777FFCC
:10279000042269460648FFF7CAF808B1FDF76FFF43
:1027A0000348FFF72FF808B010BD000000180040E4
:1027B0007409002010B588B01C216846FDF7AAFDF9
:1027C000154814490024016040F28F61C0E90114EA
:1027D00040F2E731C0E903148461FEF7B5FD08B1AA
:1027E000FDF74DFF0C48FFF70AF908B1FDF747FF69
:1027F0006020CDE900040294002269460648049452
:10280000FFF795F808B1FDF73AFF0348FEF7FAFF26
:1028100008B010BD001C0040B409002010B588B0FD
:102820001C216846FDF776FD154814490024016017
:1028300040F28F61C0E9011440F2E731C0E90314AE
:102840008461FEF781FD08B1FDF719FF0C48FFF721
:10285000D6F808B1FDF713FF6020CDE9000402941B
:102860000022694606480494FFF761F808B1FDF7B5
:1028700006FF0348FEF7C6FF08B010BD0020004069
:10288000F409002010B592B000240F941C21684672
:102890001094FDF73FFD202107A8FDF73BFD2C48D4
:1028A0002A4901601021C0E9011440F2E731C0E972
:1028B000031444618461FFF7A2F808B1FDF7DFFE5D
:1028C0000F940FA922481094FEF7F6FC08B1FDF70B
:1028D000D6FE6020CDE9000402940394049405948C
:1028E000002269461A480694FFF721F808B1FDF75F
:1028F000C6FE042269461648FFF719F808B1FDF72D
:10290000BEFE082269461248FFF711F808B1FDF72C
:10291000B6FE0C2269460E48FFF709F808B1FDF72C
:10292000AEFE0794089409944FF400500A94CDE940
:102930000B4007A906480E94FEF794FC08B1FDF77A
:102940009EFE0348FEF75EFF12B010BD000001407E
:102950003407002010B58CB024216846FDF7DAFC5E
:102960000024154809944FF080410A94C0E90014EE
:102970004FF45251C0E90241046184610320CDE962
:1029800000040120CDE902040494CDE90540079438
:10299000694609480894FEF758FD08B1FDF76FFE37
:1029A000099409A904480A94FEF786FC002801D07E
:1029B000FDF765FE0CB010BD7407002010B58CB09B
:1029C00024216846FDF7A6FC002416480994144902
:1029D0000A94C0E900144FF45251C0E90241046165
:1029E00084610320CDE900040120CDE902040494B0
:1029F000CDE90540079469460A480894FEF725FD8D
:102A000008B1FDF73CFE099409A906480A94FEF7AF
:102A100053FC002801D0FDF732FE0CB010BD0000C1
:102A200000040040B407002010B58CB02421684693
:102A3000FDF770FC00241648099414490A94C0E973
:102A400000144FF45251C0E9024104618461032033
:102A5000CDE900040120CDE902040494CDE905404C
:102A6000079469460A480894FEF7EFFC08B1FDF7A1
:102A700006FE099409A906480A94FEF71DFC0028E1
:102A800001D0FDF7FCFD0CB010BD000000080040B7
:102A9000F407002010B58CB024216846FDF73AFCFD
:102AA00000241648099414490A94C0E900144FF40C
:102AB0005251C0E90241046184610320CDE9000460
:102AC0000120CDE902040494CDE90540079469464C
:102AD0000A480894FEF7B9FC08B1FDF7D0FD099447
:102AE00009A906480A94FEF7E7FB002801D0FDF784
:102AF000C6FD0CB010BD0000000C004034080020E2
:102B00001CB500240E4800940C4901940160532127
:102B1000C0E9011442F20F718461C160FEF714FC38
:102B200008B1FDF7ACFD0094694605480194FEF735
:102B3000C3FB002801D0FDF7A2FD1CBD0010004022
:102B40007408002010B588B01C216846FDF7E2FB30
:102B50001648154900240160A721C0E9011444F674
:102B60001F61C0E903148461FEF749FF08B1FDF756
:102B700086FD6020CDE900040294002269460B48DE
:102B80000494FEF7D4FE08B1FDF779FD04226946EE
:102B90000648FEF7CCFE08B1FDF771FD0348FEF7CD
:102BA00031FE08B010BD000000400140B408002014
:102BB0000C4810B50A4901604FF4E1314160002131
:102BC00081600C22C160C0E904128161C161FFF71C
:102BD0001BF8002803D0BDE81040FDF750BD10BD24
:102BE000004C0040340A00200C4810B50A4901602E
:102BF0004FF4E1314160002181600C22C160C0E9E5
:102C000004128161C161FEF7FFFF002803D0BDE817
:102C10001040FDF734BD10BD00500040740A002084
:102C20000C4810B50A4901604FF4E13141600021C0
:102C300081600C22C160C0E904128161C161FEF7AC
:102C4000E3FF002803D0BDE81040FDF718BD10BD1C
:102C500000100140B40A00200C4810B50A49016078
:102C60004FF4E1314160002181600C22C160C0E974
:102C700004128161C161FEF7C7FF002803D0BDE8DF
:102C80001040FDF7FCBC10BD00440040F40A0020D9
:102C90000C4810B50A4901604FF4E1314160002150
:102CA00081600C22C160C0E904128161C161FEF73C
:102CB000ABFF002803D0BDE81040FDF7E0BC10BD1D
:102CC00000480040340B00200C4810B50A49016050
:102CD0004FF4E1314160002181600C22C160C0E904
:102CE00004128161C161FEF78FFF002803D0BDE8A7
:102CF0001040FDF7C4BC10BD00140140740B00204F
:102D0000FEE70000144A08280ED00A2814D00C2828
:102D10001AD00E2807D1106820F4404010601068C7
:102D200040EA813010607047106820F440701060F5
:102D3000106840EA0120F5E7106820F44060106058
:102D4000106840EA8120EDE7106820F440501060E0
:102D5000106840EA0130E5E7140C0240FEE700008D
:102D6000044C206880F400502060642001F05AFA7E
:102D7000F7E700001408024010B5502080F31188D6
:102D8000BFF34F8FBFF36F8F02F0D4FF18B1044928
:102D90004FF080500860002080F3118810BD0000C3
:102DA00004ED00E030B593B030216846FDF7B2FA8B
:102DB00014210CA8FDF7AEFA1D480025016841F06A
:102DC00080510160006800F080501190194801683E
:102DD00041F4804101600068022400F480401190B9
:102DE0000120039010200490009406940820CDE95F
:102DF0000750A820CDE9090404200B906846FEF78F
:102E000081F808B172B6FEE70CA90F2081E8310005
:102E10004FF4A0500F904FF48050109005210CA853
:102E2000FDF766FF002801D072B6FEE713B030BD93
:102E300040380240007000400548016841F47001CC
:102E4000016003494FF0006080390860704700005E
:102E500088ED00E00148FEF722BC00007407002066
:102E60000148FEF71CBC0000B40700200148FEF733
:102E700016BC0000F40700200148FEF710BC00005B
:102E8000340800200148FEF70ABC00007408002046
:102E90000148FEF704BC0000140F0020F0B50268E2
:102EA000254C264D264E274F274B4FF0804CA042F5
:102EB00009D0604507D0A84205D0B04203D0B8423F
:102EC00001D0984204D122F0700E4A6842EA0E0204
:102ED000A0421BD0604519D0A84217D0B04215D0EF
:102EE000B84213D0984211D0184DA8420ED0184DB8
:102EF000A8420BD0174DA84208D0174DA84205D0C4
:102F0000164DA84202D0164DA84203D122F44075B6
:102F1000CA682A434D6922F080022A4302608A6807
:102F2000C2620A688262A04201D0984201D1096956
:102F3000016301214161F0BD000001400004004037
:102F400000080040000C0040000401400040014027
:102F5000004401400048014000180040001C0040AF
:102F60000020004010B501F01F030121046A9940C0
:102F70008C430462016A9A401143016210BD000053
:102F8000F0B5026A22F001020262036A42688469B3
:102F9000124E24F073050C682C4323F002058B6855
:102FA0002B430D4DA84201D0B04205D123F00807B4
:102FB000CB683B4323F00403A84201D0B04205D1C3
:102FC0004D6922F4407215438A692A434260846144
:102FD000496841630362F0BD000001400004014004
:102FE000F0B5026A22F010020262026A4368846944
:102FF0000D6824F4E64444EA05248D6822F020029A
:1030000042EA05120F4D104EA84201D0B04206D13F
:10301000CF6822F0800242EA071222F04002A84262
:1030200001D0B04207D14D6923F4406343EA8503E0
:103030008D6943EA85034360846149688163026264
:10304000F0BD00000000014000040140F0B5026A3C
:1030500022F480720262026A4368C46922F4007238
:1030600024F073050C68124E2C438D6842EA052249
:103070000E4DA84201D0B04206D1CF6822F40062C2
:1030800042EA072222F48062A84201D0B04207D16E
:103090004D6923F4405343EA05138D6943EA051350
:1030A0004360C4614968C1630262F0BD0000014031
:1030B0000004014030B5026A22F480520262046AC0
:1030C0004268C3690D6823F4E64343EA05238D682B
:1030D00024F4005444EA0534084DA84202D0084DB7
:1030E000A84204D14D6922F4804242EA851242602E
:1030F000C36149680164046230BD00000000014002
:10310000000401400148FEF7F5BC0000340A00202D
:103110000148FEF7EFBC0000740A002010B5806B78
:103120000021C185C184FEF7E4FC10BD70B5846B3D
:103130002068406994F83910C0F3C0100025212997
:1031400004D118B1E584204600F062F82068406997
:1031500094F83A10C0F38010222904D118B1E58503
:10316000204600F047F8E06B40F01000E063204696
:10317000FEF7BFFC70BD10B50146806B0968096899
:10318000C90513D40021C1850168CA6822F4807280
:10319000CA6001684A6922F001024A6101684A690D
:1031A00022F040024A61202180F83A10FEF7A4FF85
:1031B00010BD10B5806BFEF7A0FF10BD10B5014625
:1031C000806B09680968C9050CD40021C1840168B5
:1031D0004A6922F080024A610068C16841F04001FA
:1031E000C16010BDFFF728F810BD10B5806BFFF768
:1031F00024F810BD0168CA6822F49072CA600168A0
:103200004A6922F001024A61202180F83A10704791
:103210000168CA6822F0C002CA60202180F8391013
:10322000704710B590F83A10222901D0022010BD45
:103230008168B1F5805F11D00169002901681FD054
:10324000496801F07F03816A4A1C82620B70C18D5C
:10325000491E0904090CC18518D02BE00269816A56
:10326000002A0268526805D0D2B20A80816A491CDD
:103270008162ECE7C2F308020A80816A891CF7E7E1
:103280004A68816A4B1C83620A70E0E70168CA6879
:1032900022F02002CA600168CA6822F48072CA6003
:1032A00001684A6922F001024A61202180F83A103F
:1032B000FEF722FF002010BD2DE9F0410446006812
:1032C0000169E26821F44051114301612169A0685C
:1032D000E26908436169114308432168CA6849F2F9
:1032E0000C639A430243CA6020684169A26921F4D1
:1032F000407111434161E069192764253226B0F518
:10330000004F354A354920684FF0000806D0884202
:1033100001D0904236D1FDF7B5FD35E0884201D0AD
:10332000904202D1FDF7AEFD01E0FDF79BFD616823
:103330004A18A0FB070148EB0803FCF7A1FF014670
:10334000B0FBF5F00201B1FBF5F06FF01803584344
:1033500001EB800006EBC000B0FBF5F000F0F800D8
:1033600002EB4002B1FBF5F0584301EB800006EBA5
:10337000C000B0FBF5F000F0070021681044886041
:10338000BDE8F081FDF76EFD61688B0F8A00A0FB40
:103390000701FCF775FF0146B0FBF5F06FF018026E
:1033A000504301EB800006EB0010B0FBF5F000F09D
:1033B000F002B1FBF5F002EB0012B1FBF5F06FF09B
:1033C0001803584301EB800006EB0010B0FBF5F04A
:1033D00000F00F00D1E70000001401400010014090
:1033E00090F83910212901D0022070478168B1F589
:1033F000805F016A0BD04A1C026202680978516042
:10340000C18C491E0904090CC1840ED017E009883B
:103410000268C1F30801516001690029016A02D004
:10342000491C0162ECE7891CFBE70168CA6822F0CD
:103430008002CA600068C16841F04001C16000209C
:1034400070472DE9F041984617460E460446069D02
:103450001DE0681C1BD02DB1FDF78CFBA0EB080014
:10346000A84214D92068C16821F4D071C1602068D5
:10347000416921F001014161202084F8390084F87C
:103480003A00002084F838000320BDE8F08120686D
:10349000006836EA000004D00020B842D9D00020ED
:1034A000F3E70120F9E700000148FEF723BB000025
:1034B000B40A00200148FEF71DBB0000F40A0020FA
:1034C0000148FEF717BB0000340B00200148FEF74F
:1034D00011BB0000740B0020FEE7000070B505462C
:1034E00000244FF47A762919334601220348FEF767
:1034F00005FE641C285D0028F5D170BD340B00204A
:1035000001A0FFF7EBBF00004200000001A0FFF7A1
:10351000E5BF00004100000001A0FFF7DFBF000091
:10352000440000002DE9FC413B4C6169002955D065
:103530003A49E2698854521CE261206A002630B19F
:1035400001282FD0022865D0032860D162E00878D6
:10355000552804D0521E3148491CE2613CE00B2A38
:1035600055D30A252D4F00204FEA000317F803C05A
:103570005B1C6044C0B2AB42F8D38B7A8342E9D182
:103580004888ADF800008888ADF80200C888ADF81A
:1035900004000889ADF80600487804226946FCF763
:1035A00037FF37E0022A32D948780328D2D1887809
:1035B000401D904212D888180D4630F8020C921E19
:1035C00047BA91B2154800F03DF8874208D0E26949
:1035D000691C521E1148E261FCF783FEBDE8FC81C4
:1035E000A8780F4B42080021606A0AE005EB41070A
:1035F00001EB000CB7F80370491C7FBA23F81C706C
:1036000089B29142F2D311466269904702E0B2F565
:10361000807FE3D1E661E1E700000020CA010020DD
:10362000CA0200200FB4054B10B503A9044A029842
:1036300000F03EF810BC5DF814FB0000D93F000814
:1036400094010020F0B5FF23084E1C46002206F529
:10365000807705E0855C5D40735D63407C5D521C56
:103660008A42F7DB44EA0320F0BD000060600008F6
:103670000907090E002804DB00F1E02080F800149F
:10368000704700F00F0000F1E02080F8141D704733
:1036900002E008C8121F08C1002AFAD1704770471B
:1036A000002001E001C1121F002AFBD17047000079
:1036B0002DE9FF4F89B09B460446002506E02528EA
:1036C0000BD05A460B999047641C6D1C207800283B
:1036D000F5D10DB02846BDE8F08F0027B84601228D
:1036E000474900E0074314F8013F203B02FA03F08A
:1036F0000842F7D120782E2819D114F8010F47F08D
:1037000004072A280ED06FF02F022078A0F1300194
:1037100009290CD808EB880102EB410100EB0108F4
:10372000641CF2E70A98641C50F8048B0A90207815
:103730000028CED0642808D0692806D075281ED06D
:103740005A460B9990476D1C58E00A994FF00A09A8
:1037500001C90A91002802DA40422D2102E0390510
:1037600004D52B218DF82010012103E0F90704D0A6
:103770002021F7E78A4608AE0DE00021FAE70A9912
:103780004FF00A0901C90A91F7E74946FCF7CDFD58
:10379000303106F8011D0028F7D1ADEB060000F12D
:1037A0002009780701D44FF00108C84502DDA8EBD5
:1037B000090000E000208046002706E008A85A46DD
:1037C000C05D0B9990476D1C7F1C5745F6DB04E0EC
:1037D00030205A460B9990476D1CB8F10001A8F1B2
:1037E0000108F5DC05E016F8010B5A460B999047E5
:1037F0006D1CB9F10001A9F10109F4DC641C65E755
:10380000092801002DE9F04140F21D16069CB0EE9A
:10381000604A04FB0657F0EE404A4FF44875002614
:103820009FED583ADFED582A9FED582ADFED583AC0
:10383000DFED580A584CD4F824C0BC4505D0DFF859
:103840005CC18CE80F00676211E0544ED6F800C0EE
:10385000A0EB0C0008447168401AB1681044401A8B
:10386000F1681844401AC11700EB91708610B91B1B
:1038700000EE101AA06A4A4B0844B8EEC00AA062D3
:10388000226A2E4663EE803A8A1A00EE102AB8EEBB
:10389000C05AB0EE420A40EE053A00EE100AB8EE09
:1038A000C00A40EE803ABDEEE30A10EE102AAA42AA
:1038B00001DD324602E09A4200DC1A4643F69823C4
:1038C000984202DC5B42984200DC18462162633178
:1038D000A062C72908D200231A461946184601F0EB
:1038E00083F90120BDE8F081F0EE610AB0EE640AD0
:1038F00000F046F910EE100A2A49884206DDF0EE83
:10390000440AB0EE640A00F07FF938E0F0EE610A94
:10391000B0EE640A00F034F9D4ED060A224970EEE4
:10392000800A10EE900AC4ED060A884202DDDFED3F
:103930001F0A06E010EE900A1D49884201D3DFED10
:103940001D0A20EE031AC4ED060A84ED070A30EEC4
:10395000400A00EEA21A4FF4C87100EE021ABDEE42
:10396000C10A10EE100A884202DC4942884200DC9B
:1039700008461118101A0B46024601F035F90020CE
:10398000B0E70000666666408FC2F53D00000000AB
:10399000CDCCCC3D0AD7233C280000201C040020BD
:1039A000E0FCFFFF0000F04100606A4600606A46EC
:1039B00000606AC600606AC62DE9F0410024069ED8
:1039C00040F2311506FB0546B0EE604AF0EE404A83
:1039D0004FF416752746B3EE043A9FED5E2AF7EED4
:1039E000002ADFED5D3ADFED5D0A5D4C4FF0000E21
:1039F000D4F838C0B4450DD0DFF868C1B0EE420A43
:103A00008CE80F00A66384ED0C0AC4F83CE084ED5A
:103A10000B0A08E053490A68C968801A1844401A1A
:103A200000EBD0704710F11B00EE101AE06B4E4B0C
:103A30000844B8EEC00AE063626B63EE803A8A1A0B
:103A400000EE102AB8EEC05AB0EE420A40EE053A37
:103A500000EE100AB8EEC00A40EE803ABDEEE30A6E
:103A600010EE102AAA4204DC9A4201DD154600E05D
:103A70001D4647F23052904202DC5242904200DC36
:103A8000104661636331E063C72908D200231A46F8
:103A90001946184601F0A8F80120BDE8F081F0EEC3
:103AA000610AB0EE640A00F06BF810EE100A2F49BC
:103AB000884206DDF0EE440AB0EE640A00F0A4F895
:103AC00046E0F0EE610AB0EE640A00F059F810EE3C
:103AD000100A10F1814F04D810EE100AB0F17E5F89
:103AE0002EDDD4ED0B0A224970EE800A10EE900A0A
:103AF000C4ED0B0A884202DDDFED1E0A06E010EE7F
:103B0000900A1D49884201D3DFED1C0A20EE031AFA
:103B1000C4ED0B0A84ED0C0A30EE400A00EE821A66
:103B200000EE221ABDEEC10A10EE100A962801DD41
:103B3000962006E06FF09501884202DC084600E01E
:103B4000002041192B184A42281A414201F04CF832
:103B50000020A2E700000000CDCCCC3D0AD7233CDA
:103B6000280000202C040020A8FDFFFF0000F041E9
:103B700000401C4600401C4600401CC600401CC6BD
:103B800030EE600AB5EEC00AF1EE10FA04DD10EE78
:103B9000100A0C49884211DD10EE101A0A488142C1
:103BA00004D8B5EEC00AF1EE10FA07D910EE101ADB
:103BB000DFED060A814202D930EE200A704730EE6E
:103BC000600A704700003443000034C30000B4436F
:103BD0000C4C8CB00A2208A9E06901F0B3FE0A225D
:103BE00004A9206A01F0AEFE0A226946606901F06C
:103BF0000FFE01F025FA01F043FA462000F012FB17
:103C0000E8E70000B800002010B5F0EE0C2AB5EE91
:103C1000002A9FED2A1AF0EE610AFFF7B1FF28484B
:103C2000284AD0ED000A70EE800A10EE901AC0ED1E
:103C3000000A914202DDDFED240A06E010EE901A40
:103C4000224A914201D3DFED220AC0ED000A80ED45
:103C5000010A10EE100A10F1814F0ED2F0EE401A58
:103C600011EE900AB0F17E5F07DA00231A4619467A
:103C7000184600F0B9FF012010BDF0EE401A4FF4D5
:103C80007A7161EEA21A40EE821AF0EE400A30EE2E
:103C9000C00A40EE011ABDEEE10A10EE100A884299
:103CA00002DC4942884200DC084640424342194651
:103CB000024600F099FF002010BD00000000000047
:103CC000280000200060EA460060EA460060EAC67C
:103CD0000060EAC62DED028B4FF00009B94F8EB09F
:103CE0000126C8464D464FF0050B4FF4FA7A9FED7A
:103CF000B68AB64C4FF0FF3207A9606A01F022FE87
:103D0000002202A9E06A01F01DFE0021206901F0F5
:103D1000B5FE00220CA9206B01F014FE012800D191
:103D2000012500220AA9606B01F00CFE60781028C2
:103D300076D2DFE800F0081A2C42546BAFC1CCDD1C
:103D4000E8FFFDFC75FB6FF0C7000DF1080C00905B
:103D50009CE80F000DF11C0CB0EE480ADCEC030AE5
:103D6000FFF72AFE012877D028E107A8B0EE480A1D
:103D7000D0EC030AFFF748FF0128F5D101F032FB30
:103D800002206070FFF7C2FB02F008F916E14FF461
:103D90002A700DF1080C00909CE80F000DF11C0C2E
:103DA000B0EE480ADCEC030AFFF72CFD0128DBD15A
:103DB00003206070FFF7AAFB0FE035B1BDF83400B7
:103DC000162806D0FFF7A8FB07E0FFF79FFBC820E7
:103DD0003FE0FFF7A1FB042060700025EEE04FF408
:103DE00039700DF1080C00909CE80F000DF11C0CCF
:103DF000B0EE480ADCEC030AFFF704FD012804D109
:103E000084F801B00025FFF787FBD7E04DB1BDF87E
:103E100034000B280BD0FFF77FFB0025504618E03D
:103E2000C9E0504600F0FEF9FFF76AFBC6E0B9F1C1
:103E3000020F27D2B8F10A0F1EDDBDF930004FF096
:103E40000008411D0A2908D809F1010000F0FF0906
:103E5000642000F0E7F9B1E0A9E010F1050F4FF0A0
:103E60000F00607001DA701F00E0701D608070420A
:103E700046B2C4F838B0A1E008F101004FFA80F86A
:103E80009620E6E7BDF92A20BDF9281050A0FFF7DB
:103E9000C9FB93E00DF1080CCDF800A09CE80F00E1
:103EA0000DF11C0CB0EE480ADCEC030AFFF7AAFC8B
:103EB00001287DD107207AE007A8B0EE480AD0ECAF
:103EC000030AFFF7A1FE012878D108206FE00DF169
:103ED000080C00979CE80F000DF11C0CB0EE480A8E
:103EE000DCEC030AFFF768FD012867D109205EE0DA
:103EF00007A8B0EE480AD0EC030AFFF785FE0128B8
:103F00003FD10A203CE02F480DF1080C32300090E0
:103F10009CE80F000DF11C0CB0EE480ADCEC030A23
:103F2000FFF74AFD012849D10B2040E02CE01DE0BD
:103F30000BE0FFE707A8B0EE480AD0EC030AFFF752
:103F400063FE01283AD10C2031E00DF1080C0097F6
:103F50009CE80F000DF11C0CB0EE480ADCEC030AE3
:103F6000FFF750FC012829D10D2020E007A8B0EE72
:103F7000480AD0EC030AFFF747FE012801D11020C0
:103F800060704FF47A7064E7B4F902000DF1080C28
:103F900000909CE80F000DF11C0CB0EE480ADCEC20
:103FA000030AFFF72FFC012808D194F8380000E03D
:103FB00004E0607002E0002001F0B6F90A2000F091
:103FC00031F997E6E0FCFFFF00000000B800002098
:103FD00025642C25640A000013B564230122694678
:103FE0000248FEF78BF800981CBD0000B40A0020C0
:103FF0001FB51C4C1C4D2069000415D40A2000F08C
:1040000011F92069000403D50EE0012000F00AF93F
:1040100020690004F9D5102214496846FCF761F9BB
:104020009DE80F0000F092FD2869800715D40A2052
:1040300000F0F8F82869800703D50EE0012000F0B1
:10404000F1F828698007F9D5102208496846FCF77D
:1040500048F99DE80F0000F079FD012000F0E2F83A
:10406000C9E7000000000240001002408800002064
:104070004FF47A74204600F0D5F8FBE7FCF788FD92
:10408000FEF790FEFEF770FAFEF734F9FEF7C8FD72
:10409000FEF7E2FDFEF7F6FBFEF75CFCFEF78EFC9A
:1040A000FEF7C2FCFEF7F6FCFEF72AFDFEF74AFD1E
:1040B000FEF7E2FAFEF714FBFEF746FBFEF77AFB8B
:1040C000FEF7ACFBFEF774FDFEF78EFDFEF7E0FD9C
:1040D000FEF7FAFD00F04EF800F044FD0021082044
:1040E00000F0ECFD00210A2000F0E8FD00210C208A
:1040F00000F0E4FD00210E2000F0E0FD0FA0FFF72E
:1041000091FA0024114D09E0642C02D9FFF704FA5A
:104110000024641CE4B20A20FCF738FC28698007FC
:10412000F2D44FF47A70FCF731FC0948FDF77CF9C2
:10413000FEF73EF900F07DF8FEE70000425350B371
:10414000F5CABCBBAF4F4B0A000000000010024094
:104150007408002001460020842900D0C81C704744
:1041600041F28834002001F0DFF8204600F05AF8D0
:10417000F8E7000010B53C212048FDF775FA1F480C
:104180000068C16841F00101C1603C211C48FDF795
:104190006BFA1B480068C16841F00101C1603C2115
:1041A0001848FDF761FA17480068C16841F001013D
:1041B000C1603C211448FDF757FA13480068C168F4
:1041C00041F00101C16000211048FDF765FC0421A8
:1041D0000E48FDF761FC08210C48FDF75DFC0C2141
:1041E0000A48FDF759FC4FF4D250010648620849CD
:1041F0000860084908600849086010BD740700207D
:10420000B4070020F4070020340800203407002001
:104210002404004024080040240C0040642000F0E6
:1042200001F8FBE710B500B9012000F0A7FF00205E
:1042300010BD10B501F042F8002010BD7FB50D464D
:1042400004464169B0F9080081B1A16971B1FFF775
:1042500081FFD4E905128DE80700D4E900102B4650
:10426000226901F02EFD039004B070BDFFF772FFCC
:1042700003A9CDE90001208A2B4682B2D4E90010BF
:1042800001F0F2FC012801D00020EDE70398EBE7F4
:104290000F4C8CB0052208A9606901F053FB052280
:1042A00004A9A06901F04EFB00F0CAFE0DF1200C3C
:1042B0009CE80F008DE80F000DF1100C9CE80F003A
:1042C00000F008F800F0DCFE0A20FFF7ABFFE1E7A2
:1042D000B80000202DE9FF4782B000209FED4E0A74
:1042E0004E49F6EE000A81EC020A81ED020A9FEDCA
:1042F0004C0A81ED030ADFED4B0AC1ED040AC1ED62
:10430000050A9FED490A81ED060AC1ED070A9FEDF6
:10431000470A474A81ED080A81ED090A81ED0A0A38
:1043200042F2107C81ED0B0A0DF1080A0DF13809FB
:10433000CCF100086B46A2F11006A2F1080500BFFF
:104340003AF8207039F820403C1B24B223F8104082
:1043500032F8107027443FB222F81070674501DD33
:10436000674602E0474500DA474622F8107036F803
:10437000107025F8107026F81040401CC0B20428B8
:10438000DED32B4C0020083433F910C001EB80073A
:1043900000EE10CAD7ED000A32F91080B8EEC00A5C
:1043A00097ED041A20EE800A00EE908A35F910800D
:1043B000F8EEE00AC44436F91080C8F1000801EEB6
:1043C000200A0CEB480C00EE90CA97ED081AF8EEA4
:1043D000E00A01EE200ABDEEC00A10EE107A24F8C1
:1043E0001070401CC0B20428CED3B4F900100820CD
:1043F00000F064FCB4F902100A2000F05FFCB4F98C
:1044000004100C2000F05AFCB4F906100E2000F045
:1044100055FC06B0BDE8F0879A99193FEC030020DF
:104420001F85EB3ECDCCCC3D8FC2F53D000000009A
:10443000780000202DE9F041184C0F4605466669CA
:104440002068001D00F0ACFD38B9206890F82C10F1
:1044500001208840A1698143A161681C07D137B15F
:104460002168BDE8F0410E48091D00F0DDBD20685F
:104470003544B5424560216805D2A068BDE8F041E9
:10448000091D00F0B9BD6068091D00F0B5FD206B85
:10449000854200D22563BDE8F08100003401002090
:1044A000301000202DE9F041054600F0C9FD2E4CEA
:1044B0002069401C206120682C4F10B1E06940B396
:1044C0002DE025602069012829D1002606EB860011
:1044D00007EB800000F082FD761C072EF6D3234800
:1044E0008C3000F07BFD2148A03000F077FD1F48A4
:1044F000B43000F073FD1D48C83000F06FFD1B485C
:10450000DC3000F06BFD19488C3060601430A06026
:1045100005E02068E96AC06A884200D82560E06A40
:10452000401CE062E96A0120A26988401043A06152
:1045300001EB810007EB8000291D00F075FD00F004
:104540009FFDE06900280CD02068E96AC06A8842B3
:1045500007D207494FF080500860BFF34F8FBFF379
:104560006F8FBDE8F081000034010020540F00205F
:1045700004ED00E030B4026C0B46002A0BD0C16899
:104580001144C1608468A14201D30168C16030BC9C
:104590001846FBF7A6BE30BC70472DE9F041856B8D
:1045A000174604460026026C82B1C7B1E068FBF7EB
:1045B00098FEE168206C091AE1602268914202D2FB
:1045C000A168081AE060022F16D017E02068A8B989
:1045D000A06801F013FC06460020A0600EE06068B1
:1045E000FBF77FFE216C606808446060A168884228
:1045F00004D32068606001E005B16D1E6D1CA563E9
:104600003046BDE8F08110B5044690F8510058B12D
:1046100001280CD002280FD0502080F31188BFF35E
:104620004F8FBFF36F8FFEE7206B00F03DFD2046FC
:10463000BDE8104000F038BD10BD000010484FF438
:104640007051420706D0C01D0D4920F00700411AE5
:10465000C1F570510B4A00230144C2E90003083937
:10466000103A21F0070111604B600B600B1AC0E992
:10467000001393604FF000405360D060704700001B
:104680004410002080010020144E154CA6F1C807EC
:104690004FF08058DFF84C9012E000BF00F0D0FCE3
:1046A000F068C568281D00F07BFC2069401E206171
:1046B000E068401EE06000F0E3FC2846FFF7A3FF3F
:1046C000E0680028EAD138680128F9D9C9F80080E3
:1046D000BFF34F8FBFF36F8FF2E700001C10002075
:1046E0003401002004ED00E00346009829B1026087
:1046F000C0E90F31012100F049BF0060F8E72DE962
:10470000F0479A46DDE9098481466FF00303206B88
:1047100003EB82021044089E20F00707780707D0B9
:10472000502080F31188BFF34F8FBFF36F8FFEE7E8
:10473000002561B1002023180A5C83F834200A5C4C
:1047400012B1401C1028F6D384F8435001E084F8DD
:104750003450072E00D30626E662C4E91165201DF9
:1047600000F047FC04F1180000F043FC2461C6F19E
:1047700007006462A061E56484F8505052464946DF
:10478000384600F00FF92060B8F1000F01D0C8F8EA
:104790000040BDE8F087000030B5114900E0114647
:1047A0000A688242FBD34B685C18844203D140689C
:1047B00018444860084643681C18944209D1084CC4
:1047C000103C2468A24209D052681A4442600A6828
:1047D00012680260814200D0086030BD0460F9E7D1
:1047E0008001002010B5044600F02AFCA06B28B11F
:1047F0005FF0000400F044FC204610BD0124F9E7FE
:1048000006484168096829B14168C968C9684968AA
:10481000016370474FF0FF31FAE7000034010020D8
:1048200008484068401C4FF0500080F3118804D0C5
:10483000BFF34F8FBFF36F8FFEE7BFF34F8FBFF311
:104840006F8FFEE7880100202DE9F041044600F05B
:10485000F7FB94F9455004F1240609E0606A48B179
:10486000304601F061FB08B100F0B6FC6D1E6DB280
:10487000002DF3DC4FF0FF3684F8456000F000FCBB
:1048800000F0DEFB94F9445004F1100709E02069C0
:1048900048B1384601F048FB08B100F09DFC6D1EA0
:1048A0006DB2002DF3DC84F84460BDE8F04100F007
:1048B000E7BB00002DE9F0410546002700F092FD1E
:1048C000314E306808B9FFF7B9FEF06805424BD1A8
:1048D000C5B3083568070ED005F00700C0F1080021
:1048E0000544680707D0502080F31188BFF34F8F2D
:1048F000BFF36F8FFEE72DB37068854234D822482E
:10490000103001460C6801E020460C466168A9425F
:1049100002D221680029F7D131688C4224D007687F
:104920002168016060680837411B10290FD96019A0
:10493000420708D0502080F31188BFF34F8FBFF398
:104940006F8FFEE710E041606560FFF725FF61684B
:104950007068401A7060B268904200D2B060F0682F
:1049600001430020C4E9000101F018FB780707D0DB
:10497000502080F31188BFF34F8FBFF36F8FFEE796
:104980003846BDE8F0810000700100200449086845
:1049900018B10868826C521C826408687047000075
:1049A0003401002010B5031F4FF080741C601B1FE2
:1049B00021F001011960191F044B0B6014390A60C2
:1049C000091F6FF0020244380A6010BD2148000838
:1049D00008B5DFF86081DFF860A1DFF860B100BFE3
:1049E0004FF0FF325649D8F8280000F0ABFF544F83
:1049F000B88908B94FF47A704FF06409B0FBF9F048
:104A00000090388800287DD000F0ECFC3988B1F5A2
:104A1000BE6F01D94FF4BE6149480180DAF8002029
:104A200043888A1A494692FBF1F262F30F04DBF8DD
:104A300000209A1A92FBF1F262F31F44414A8388E4
:104A400012689A1A92FBF1F262F30F053D4AC3888D
:104A5000121D1268DFF8F0909A1A92FBF1F20389A6
:104A6000D9F8387062F31F45DB1B93FBF1F34089E3
:104A7000D9F8342063F30F06801A90FBF1F060F34D
:104A80001F4601F08BFA002700F0ACFCDAF80010AA
:104A900022B21144CAF80010DBF8001001EB2441E7
:104AA000CBF80010274801682AB211440160001DAC
:104AB000016801EB25410160D9F8381032B2114488
:104AC000C9F83810D9F8341001EB2641C9F8341070
:104AD00001F064FA0098FFF7A5FB7F1CBFB2642FBA
:104AE000D2D300F07FFC16484FF4BE620188914299
:104AF00000D91146CAF800104288CBF800208288FD
:104B0000104900E012E00A60091DC2880A600289AB
:104B1000C9F838204089C9F8340001F03FFA002371
:104B20001A461946D8F8100000F074FD0A20FFF765
:104B300079FB55E7B8000020344401403448014077
:104B4000BE04002034180040004001401FB5044856
:104B500000231A466946006800F05CFD1FBD000096
:104B6000E000002010B500211748FCF795FF042154
:104B70001548FCF791FF00211448FCF78DFF002138
:104B80001348FCF789FF00211248FCF785FF042138
:104B90001048FCF781FF10494FF4167008600F4968
:104BA00040F6921008600E4940F29C400860091DD2
:104BB0004FF4FA6008600B484FF49661816340F24D
:104BC000DC51416310BD0000B4080020F40800204F
:104BD0003409002074090020344401403448014065
:104BE00034180040004001401FB58DE80F00074811
:104BF00000231A466946006800F00CFD04480023B3
:104C00001A466946006800F005FD1FBDD00000206F
:104C1000D80000201FB5244EDFF89080DFF890A068
:104C2000DFF890904FF080454FF4D254EB4600BF30
:104C300000F0D8FB686AC0F5D25000906C62306812
:104C4000A0F5D25001903460D8F80010C1F5D251CF
:104C50000291C8F80040DAF80010A1F5D251039192
:104C6000CAF8004000205A464FEA090152F8207065
:104C700051F820303B4441F82030401CC0B2042899
:104C8000F4D301F08BF90C4F00231A46694678697A
:104C900000F0C0FC00231A460649F86A00F0BAFC8E
:104CA0000A20FFF7BFFAC3E72404004024080040AD
:104CB000240C0040D0040020B800002010B50446A9
:104CC0004FF47A700B46814201DD034606E0154839
:104CD000834201DA034603E0002B01DD022100E0FC
:104CE000D90F2046FEF70EF80F49082C0AD00A2CDF
:104CF0000DD00C2C10D00E2C03D1002B00DA5B420F
:104D00000B6410BD002B00DA5B424B6310BD002B1F
:104D100000DA5B428B6310BD002B00DA5B42CB6391
:104D200010BD000018FCFFFF0000014088B04FF0EC
:104D3000000BADF800B0ADF804B0ADF808B0ADF8B8
:104D40000CB06E4601AD0DF1080803AF16228F4975
:104D50008F48FDF785F98D49162219318D48FDF7E9
:104D60007FF9DFF834920A21D9F8080000F086FEB6
:104D700001287DD100F036FB844900200A5C2C2AF2
:104D800003D10A18927A5B2A03D0401C0828F5DB6D
:104D900007E0824601EB0A046078122804D021283B
:104DA00040D001F0FBF87EE001F0F8F80020211877
:104DB00089783154401C0228F9DB00202118097938
:104DC0002954401C0228F9DB002021188A7908F8B0
:104DD0000020401C0228F8DB00202118097A3954F1
:104DE000401C0228F9DBBDF900104FF4027081422B
:104DF00059D0BDF90420824255D0092A53D0ADF8CC
:104E000010100B20ADF81400ADF81220BDF80C0006
:104E1000ADF8160000231A4604A9D9F8300000F0B6
:104E2000F9FB40E001F0BAF8E079A071207AE07176
:104E3000607A207255495B46ADF800B05FF0000023
:104E40000AEB00020A44D278312A39D0322A3CD007
:104E5000332A3FD0ADF80030BDF90020F2B102F0A6
:104E60000301C2F38103994213D0C2F3011000E0A1
:104E70001EE081420DD083420BD0ADF816201620E3
:104E8000ADF8140000231A4604A9D9F8300000F048
:104E9000C1FB16223D494148FDF78EF916223B49D8
:104EA0003E48FDF789F9162238493948FDF7D8F808
:104EB0000A21D9F80C0000F0E1FD012818D060E0CB
:104EC000C0F105025400012208E0C0F105025400BF
:104ED000022203E0C0F1050254000322A240BDF803
:104EE0000040401C2243ADF800200628A8DBB3E7B1
:104EF00000F078FA2549002019310A5C2C2A03D1E8
:104F00000A18927A5B2A03D0401C0828F5DB03E0DC
:104F10000C186078122802D001F040F82BE001F064
:104F20003DF80020211889783154401C0228F9DB13
:104F30000020211809792954401C0228F9DBBDF909
:104F400000004FF40271884215D0BDF904208A4256
:104F500011D0092A0FD0ADF818000B20ADF81A2097
:104F6000ADF81C00ADF81EB000231A4606A9D9F80A
:104F7000340000F04FFB0549162219310548FDF7B2
:104F80006FF80A20FFF74EF9EDE600008C040020D0
:104F9000340B0020740B0020B8000020B40A00205D
:104FA000D0E9013201699A60D0E901235A604A6868
:104FB000824201D182684A60002202610868401E74
:104FC0000860086870470000034B036003F1540059
:104FD0000860802010607047E004002000F10801A4
:104FE0004FF0FF32C0E90112C16001610021016090
:104FF000704700210161704730B50B685A1C02D020
:1050000000F1080202E0026904E0224654682568C3
:105010009D42FAD953684B6099608A60516008617B
:105020000168491C016030BD42684A6093688B602A
:1050300093685960916008610168491C016070477C
:10504000502080F31188BFF34F8FBFF36F8F0A4951
:105050004868401C486001280CD10848006810F0DE
:10506000FF0F07D0502080F31188BFF34F8FBFF39D
:105070006F8FFEE7704700008801002004ED00E01C
:105080000849486828B1401E486001D180F3118862
:105090007047502080F31188BFF34F8FBFF36F8F9D
:1050A000FEE700008801002070B5002827D0144DCD
:1050B000A0F108046168E868014207D1502080F33C
:1050C0001188BFF34F8FBFF36F8FFEE722683AB1AD
:1050D000502080F31188BFF34F8FBFF36F8FFEE72F
:1050E0008143616000F07EF9606869680844686027
:1050F0002046FFF751FBBDE8704000F04FBF70BD88
:10510000700100204FF0E02000210161816105491C
:105110004FF47A720968B1FBF2F1491E416107212F
:10512000016170473001002010B5FBF793F8114979
:1051300010280ED300F1E02090F8F0030A78904296
:1051400007D2502080F31188BFF34F8FBFF36F8FCA
:10515000FEE709480068896800F4E060884207D9E2
:10516000502080F31188BFF34F8FBFF36F8FFEE79E
:1051700010BD0000880100200CED00E010B5020019
:1051800014D00F48806B38B1502080F31188BFF3E2
:105190004F8FBFF36F8FFEE700F024F90021104618
:1051A000FFF748F900F0FAFE002807D105494FF053
:1051B00080500860BFF34F8FBFF36F8F10BD0000AA
:1051C0003401002004ED00E002498A6A0260496966
:1051D0004160704734010020014901204862704756
:1051E0003401002010B50C4650B109490968183146
:1051F000FFF702FF2046BDE810400121FFF71AB972
:10520000502080F31188BFF34F8FBFF36F8FFEE7FD
:105210003401002070B504004BD0A26CA2B1606CC8
:10522000884200D30146E06A884242D0012A40D138
:10523000204D2A6894420FD1502080F31188BFF38B
:105240004F8FBFF36F8FFEE7502080F31188BFF3BD
:105250004F8FBFF36F8FFEE7E162A269002A02DB86
:10526000C1F10701A161144E00EB8000616906EBFA
:10527000800081421DD1201DFFF792FE012150B90F
:10528000E06A00EB800256F8222022B9AA6901FAEE
:1052900000F08243AA61E06AAA6981401143A961D2
:1052A00000EB800006EB8000211DBDE87040FFF799
:1052B000BBBE70BD34010020540F002010B586B075
:1052C0000024039405AA04A903A80494FFF77CFE14
:1052D000DDE903010094CDE9011000230EA110487F
:1052E000059A00F0EEFC0F490028486311D05020C9
:1052F00080F31188BFF34F8FBFF36F8F4FF0FF30F4
:1053000008630120C8614C6106B0BDE8104000F0A0
:105310009FB806B010BD000049444C450000000095
:10532000894600083401002070B50446FFF788FE66
:10533000294D04B92C68201DFFF732FE58B9E06AE8
:10534000264A00EB800152F8211021B90121814049
:10535000A8698843A861A06A18B104F11800FFF792
:105360001FFE1E48211DDC30FFF75EFE94F8500042
:105370000026012801D184F85060FFF781FEE8691A
:1053800028B1FFF75DFEFFF73BFAFFF779FE2868CB
:10539000844213D1E86990B1A86B38B1502080F3F2
:1053A0001188BFF34F8FBFF36F8FFEE70C494FF0AB
:1053B00080500860BFF34F8FBFF36F8F70BD0748F9
:1053C000DC3000682969884201D12E6070BDBDE8DB
:1053D000704000F00FB8000034010020540F00208E
:1053E00004ED00E00248816B491C816370470000B6
:1053F000340100201448816B11B1012141627047D2
:10540000002141628169B1FA81F1C1F11F0101EB13
:1054100081020E4951F822306BB101EB820101F19A
:1054200008034A6852684A609A4201D152684A6049
:10543000D16801607047502080F31188BFF34F8F0F
:10544000BFF36F8FFEE7000034010020540F0020EF
:105450001CB537480168374A914207D1502080F384
:105460001188BFF34F8FBFF36F8FFEE7006831499C
:10547000491E884207D1502080F31188BFF34F8F17
:10548000BFF36F8FFEE72C4908780190FF2008706A
:1054900008788DF800009DF800009DF8002000F0CD
:1054A000F000904207D0502080F31188BFF34F8F57
:1054B000BFF36F8FFEE79DF80000204B00F0500017
:1054C00018700720986005E09DF8002052008DF8C4
:1054D0000020401E9DF800201206F5D49860032895
:1054E00007D0502080F31188BFF34F8FBFF36F8F29
:1054F000FEE74FF440709860019808700C48203027
:10550000016841F470010160016841F0704101607F
:10551000FFF7F8FD00205860FAF764FE08480168BC
:1055200041F040410160FAF749FE00201CBD000037
:1055300000ED00E071C20F4100E400E088010020AE
:1055400034EF00E0F8B517460E46050014D0DEB182
:1055500005FB06F04830FFF7ADF904000AD0002043
:1055600084F8460004F148023B4631462846009440
:10557000FFF7BAF82046F8BD502080F31188BFF33A
:105580004F8FBFF36F8FFEE70020E3E770B50D4646
:10559000040025D0FFF754FDD4E90F20216802FB59
:1055A0000011A1600021A163216861600A46D4E96D
:1055B0000F01401E00FB0121E16021464FF0FF304A
:1055C00001F8440F487004F110008DB1FFF706FD9B
:1055D00004F12400FFF702FDFFF752FD012070BD2A
:1055E000502080F31188BFF34F8FBFF36F8FFEE71A
:1055F00021690029F0D000F097FC0028ECD0044984
:105600004FF080500860BFF34F8FBFF36F8FE3E719
:1056100004ED00E02DE9FF4782B01D468A464FF0B9
:105620000008040003D0BAF1000F08D011E05020A8
:1056300080F31188BFF34F8FBFF36F8FFEE7206CAD
:1056400038B1502080F31188BFF34F8FBFF36F8FB5
:10565000FEE7022D0AD1E06B012807D0502080F32D
:105660001188BFF34F8FBFF36F8FFEE700F054FB3D
:105670003F4F4FF000094FF0805648B9049838B1B9
:10568000502080F31188BFF34F8FBFF36F8FFEE779
:10569000FFF7D6FCA06BE16B884207D3022D05D043
:1056A0000498D0B1B8F1000F1AD01EE02A46514636
:1056B0002046FEF772FF616A19B104F1240000F080
:1056C00033FC20B13E60BFF34F8FBFF36F8FFFF706
:1056D000D7FC012006B0BDE8F087FFF7D1FC22E03F
:1056E0006846FFF771FD4FF00108FFF7C9FCFFF7AF
:1056F00079FEFFF7A5FC94F94400401C01D184F821
:10570000449094F94500401C01D184F84590FFF77E
:10571000B7FC04A9684600F06DFA30B12046FFF7E7
:1057200093F800F03BFC0020D4E7FFF789FCA06B66
:10573000E16B884213D1FFF7A3FC04F11000049938
:10574000FFF750FD2046FFF77FF800F027FC002808
:105750009ED13E60BFF34F8FBFF36F8F98E7FFF787
:105760008FFC2046FFF770F800F018FC90E700006F
:1057700004ED00E070B50E46040009D0206C78B14D
:10578000502080F31188BFF34F8FBFF36F8FFEE778
:10579000502080F31188BFF34F8FBFF36F8FFEE768
:1057A000206848B9A06838B1502080F31188BFF351
:1057B0004F8FBFF36F8FFEE7FFF7B6FC5020EFF37C
:1057C000118580F31188BFF34F8FBFF36F8FA16BEB
:1057D000E06B884218D994F94500491CA163411C2B
:1057E00004D0401C84F8450001200EE0606A0028C7
:1057F000FAD004F1240000F097FB0028F4D0002E2A
:10580000F2D001203060EFE7002085F3118870BDF1
:105810002DE9F743002582B08946040003D0B9F191
:10582000000F08D011E0502080F31188BFF34F8F94
:10583000BFF36F8FFEE7206C38B1502080F31188E2
:10584000BFF34F8FBFF36F8FFEE700F065FA3C4F59
:105850004FF000084FF0805648B9049838B15020F6
:1058600080F31188BFF34F8FBFF36F8FFEE7FFF711
:10587000E7FBA06BB8B149462046E568FEF77AFE23
:10588000E560606A48B104F1240000F04DFB20B1EE
:105890003E60BFF34F8FBFF36F8FFFF7F1FB012027
:1058A00005B0BDE8F083049808B11DB106E0FFF72C
:1058B000E7FB27E06846FFF787FC0125FFF7E0FBE1
:1058C000FFF790FDFFF7BCFB94F94400401C01D1A9
:1058D00084F8448094F94500401C01D184F8458047
:1058E000FFF7CEFB04A9684600F084F900282046A3
:1058F0000AD0FEF7A9FF00F051FB2046FEF772FF29
:105900000028B4D00020CBE7FEF76CFF88B104F18B
:1059100024000499FFF766FC2046FEF795FF00F08F
:105920003DFB0028A3D13E60BFF34F8FBFF36F8FC5
:105930009DE72046FEF788FF00F030FB97E7000068
:1059400004ED00E02DE9F747002683B08A46040005
:1059500003D0BAF1000F08D011E0502080F3118875
:10596000BFF34F8FBFF36F8FFEE7206C38B150202D
:1059700080F31188BFF34F8FBFF36F8FFEE700F006
:10598000CBF9DFF8F4804FF000094FF0805748B9A9
:10599000059838B1502080F31188BFF34F8FBFF3C3
:1059A0006F8FFEE7FFF74CFBA56BC5B15146204654
:1059B000FEF7E0FD6D1EA563206950B104F11000F3
:1059C00000F0B2FA28B1C8F80070BFF34F8FBFF3F0
:1059D0006F8FFFF755FB012006B0BDE8F0870598F3
:1059E00008B11EB106E0FFF74BFB27E06846FFF762
:1059F000EBFB0126FFF744FBFFF7F4FCFFF720FB6E
:105A000094F94400401C01D184F8449094F9450075
:105A1000401C01D184F84590FFF732FB05A9684688
:105A200000F0E8F8002820460AD0FEF70DFF00F04D
:105A3000B5FA2046FEF7D6FE0028B3D00020CBE70B
:105A4000FEF7D0FE90B104F124000599FFF7CAFBE0
:105A50002046FEF7F9FE00F0A1FA0028A2D1C8F80E
:105A60000070BFF34F8FBFF36F8F9BE72046FEF7A9
:105A7000EBFE00F093FA95E704ED00E02DE9F34327
:105A8000002683B00400354609D0206C78B1502040
:105A900080F31188BFF34F8FBFF36F8FFEE7502065
:105AA00080F31188BFF34F8FBFF36F8FFEE700F0D5
:105AB00033F9DFF83C814FF000094FF0805748B9C7
:105AC000049838B1502080F31188BFF34F8FBFF393
:105AD0006F8FFEE7FFF7B4FAA06BC8B1401EA0635A
