:020000040800F2
:10000000580C002001010008450A00083D0A0008BC
:10001000410A0008570500082F12000800000000E0
:10002000000000000000000000000000990D000822
:100030005B05000800000000CD0A00083D0F000825
:100040001B0100081B0100081B0100081B01000820
:100050001B0100081B0100081B0100081B01000810
:100060001B0100081B0100081B0100081B01000800
:100070001B0100081B0100081B0100081B010008F0
:100080001B0100081B0100081B0100081B010008E0
:100090001B0100081B0100081B0100081B010008D0
:1000A0001B0100081B0100081B0100081B010008C0
:1000B0001B0100081B0100081B0100081B010008B0
:1000C0001B0100081B0100081B0100081B010008A0
:1000D0001B0100081D100008491000081B01000842
:1000E0001B0100081B0100081B010008DFF80CD0F1
:1000F00000F000FA0048004755140008580C002092
:100100000648804706480047FEE7FEE7FEE7FEE7B1
:10011000FEE7FEE7FEE7FEE7FEE7FEE7BD0F0008AD
:10012000ED000008F0B480EA0102D40F4200B2EB07
:10013000410F02D20246084611464A0042D0C30D82
:10014000DDB2C1F3C752AD1A202D35DAC1F3160165
:1001500041F4000204B15242C5F1200602FA06F150
:100160002A411044B3EBD05F23D0C4B1012DA0EBE2
:10017000C35009DCF0BC4FF0004202EAC352DBB2CC
:1001800000F5000000F02BB9400000F1807000EB9A
:10019000C350A0F1807040EAD170490009E04908DD
:1001A00041EAC071A0EBC35000F50000400800EB2D
:1001B000C350F0BC00F00AB96142012202EB4101D8
:1001C000001BF6E7F0BC704781F00041AAE780F021
:1001D0000040A7E780EA010210B502F000434000AA
:1001E00022D04A001FD0010E01EB1261C0F356006D
:1001F000C2F3560240F4000042F40002A0FB0220C9
:1002000000047F39140400D0401C50EA124001D48D
:100210004000491EC2B20C0604EBD010401C40083E
:10022000802A02D003E0002010BD20F00100002948
:1002300000DA0020184310BD2DE9F04D81EA0304D7
:1002400004F0004B21F0004514464FF0000A23F063
:10025000004150EA050220D054EA01021DD0C5F346
:100260000A570246C5F31303C1F31300C1F30A563C
:1002700040F4801543F48013A7EB0608101BD64604
:1002800008F2FD3873EB050002D308F1010801E024
:1002900092185B41B8F1000F03DA00200146BDE877
:1002A000F08D00204FF48011064684460EE0171BA7
:1002B00073EB050705D3121B63EB050306434CEAFA
:1002C000010C49084FEA300092185B4150EA0107DF
:1002D000EDD152EA030012D082EA040083EA05015C
:1002E000084305D0101BAB4106D20122002306E0D3
:1002F00000224FF0004302E06FF0010253101AEBAE
:1003000006004CEB085110EB0A0041EB0B01BDE875
:10031000F04D00F092B80EB5C10F80EAE0700844CD
:10032000CA07002140F233438DE80E000A460B460F
:1003300000F092F803B000BD00F0004220F0004051
:10034000C10DC0F3160040F400007F2901DA00203F
:100350007047962903DCC1F19601C84001E0963947
:100360008840002AF4D04042704701F0004330B486
:1003700021F0004150EA010206D00A0DA2F5607298
:10038000C1F31301002A02DC30BC00207047440F87
:1003900044EAC104C100E01830BC00EBC25000F0D8
:1003A00015B80000002801DBC0F10040002901DB86
:1003B000C1F1004181427047002801DBC0F10040DB
:1003C000002901DBC1F10041884270470029A8BF24
:1003D0007047401C490008BF20F00100704710B46E
:1003E000B0FA80FC00FA0CF050EA010404BF10BC23
:1003F000704749B1CCF1200421FA04F411FA0CF150
:1004000018BF012121430843A3EB0C01CB1D4FEA88
:1004100000614FEA102042BF002010BC704700EB83
:10042000C35010440029A4BF10BC7047401C4900B1
:1004300008BF20F0010010BC704710B5141E73F106
:10044000000408DA401C41F1000192185B411A4394
:1004500001D120F0010010BD2DE9F04D92469B46E0
:1004600011B1B1FA81F202E0B0FA80F22032904686
:1004700000F052F804460F4640EA0A0041EA0B0138
:1004800053465A46084313D0114653EA010019D087
:10049000C8F14002504600F04EF805460E46504660
:1004A0005946424600F038F8084305D0012004E0E0
:1004B00020463946BDE8F08D0020054346EAE07647
:1004C0002C4337430A986305E40AA0EB0800002296
:1004D000FD0A44EA47540A3002D500200146E9E704
:1004E000010510196941DDE9084500196941BDE8B8
:1004F000F04DA2E7064C074D06E0E06840F001032E
:1005000094E8070098471034AC42F6D3FFF7F2FDA9
:100510007415000894150008202A04DB203A00FA1C
:1005200002F1002070479140C2F1200320FA03F34A
:10053000194390407047202A04DB203A21FA02F048
:100540000021704721FA02F3D040C2F1200291400D
:1005500008431946704700BFFEE7704770B590B07A
:1005600004466A4632210DA800F08CFB0DA92046F6
:1005700000F00DF80DA800F041FB401E86B2314698
:100580000DA800F069FB0546284610B070BD70B597
:1005900004460D462188284600F0F5FBA178284640
:1005A00000F0D1FBE178284600F0CDFBE278211D78
:1005B000284600F0D0FB284600F03AFB06463146BC
:1005C000284600F0C0FB70BD2DE9F74F90B01446EF
:1005D00001200F9011AB01220A21109800F002F9BE
:1005E00001A9109800F062F88346BBF1000F1DD1FD
:1005F0009DF808909DF84400814503D0072013B072
:10060000BDE8F08F9DF809109DF80A0041EA00202E
:100610000FFA80FA5046FFF77EFE07460022044B91
:10062000FFF70AFE0546FFF7A0FE20605846E6E702
:10063000000024402DE9F74F90B0144601200F90A0
:1006400011AB01221021109800F0CCF801A91098EC
:1006500000F02CF88346BBF1000F23D19DF80890E1
:100660009DF84400814503D0072013B0BDE8F08F0A
:100670009DF809109DF80A0041EA00219DF80B0041
:1006800041EA00419DF80C0041EA006A5046FFF73C
:1006900042FE07460022044BFFF7CEFD0546FFF75A
:1006A00064FE20605846E0E7000024402DE9F04158
:1006B00005460C46002084F83700002700266420F9
:1006C00000F00AFC87E0A86800F098FA00B982E020
:1006D00094F8370000F00800C8B1A86800F02DFBBE
:1006E00004F8360F607840F010006070363C204609
:1006F000FFF734FF94F83610884204D000F0FCFB7A
:100700000620BDE8F08100F0F7FB0020F9E794F83F
:10071000370000F0040080B1A86800F00EFB211D36
:10072000C855781CC7B2E078B84253D194F8370066
:1007300040F0080084F837004CE094F8370000F0EF
:10074000020088B1A86800F0F8FAE070E0782D287F
:1007500003DD00F0D1FB0520D3E794F8370040F02B
:10076000040084F8370035E094F8370000F0010009
:1007700088B1A86800F0E1FAA070A078112803DD24
:1007800000F0BAFB0420BCE794F8370040F0020008
:1007900084F837001EE03EB9A86800F0CEFA06469D
:1007A000052E17D0002615E0052E12D1A86800F0FE
:1007B000C4FA46EA002641F60540864201D00026EA
:1007C00008E0268094F8370040F0010084F83700F4
:1007D00000E0002600BF00F09DFB00283FF473AF4F
:1007E00002208EE7F0B58FB005460E4614461F4630
:1007F00044F61240ADF804008DF806608DF807400D
:10080000002003E03A5C02A90A54401CA042F9DB34
:1008100001A86968FFF7BBFE284600F0EBFD0FB0AA
:10082000F0BD00002DE9F04F87B006460F46144694
:100830001D46DDE910894FF0070B05AA072102A824
:1008400000F020FA1D492046FFF7B6FD01D21B4CEF
:1008500005E01B492046FFF7A5FD00D2184C39469C
:1008600002A800F070FA21461648FFF7B3FC019089
:10087000FFF762FD0FFA80FA514602A800F07AFAFB
:10088000294602A800F07FFA414602A800F07BFA50
:100890000DF11503072208213046FFF7A3FFB9F138
:1008A000000F08D0002322463946304600F00CF8ED
:1008B00007B0BDE8F08F0020FAE7000000003443E5
:1008C000000034C3000020412DE9F84380468946EA
:1008D00014461D46002625E02DB16A46494640468D
:1008E000FFF7A8FE04E06A4649464046FFF76CFE63
:1008F00020460099FFF768FC20F000474FF07E513A
:100900003846FFF74FFD02D80020BDE8F883701C81
:1009100086B242F21070864201DB0120F5E76420C6
:1009200000F002FBD8E72DE9F04102460025002641
:10093000002000230024002791F803C00CF00F05CD
:1009400091F803C00CF0100CBCF1000F03D091F82B
:1009500002C04CEA050591F800C0BCF1000F31D08F
:10096000146800202BE04FF0010C0CFA00F3B1F8F2
:1009700000C00CEA03069E4220D183004FF00F0C0A
:100980000CFA03F7BC4305FA03FC4CEA040491F8A3
:1009900003C0BCF1280F06D14FF0010C0CFA00FC8B
:1009A000C2F814C00AE091F803C0BCF1480F05D1A9
:1009B0004FF0010C0CFA00FCC2F810C0401C0828D3
:1009C000D1D31460B1F800C0BCF1FF0F34DD54681E
:1009D00000202EE000F1080C4FF0010808FA0CF39B
:1009E000B1F800C00CEA03069E4221D183004FF00B
:1009F0000F0C0CFA03F7BC4305FA03FC4CEA0404A1
:100A000091F803C0BCF1280F05D100F1080C08FAD9
:100A10000CF8C2F8148091F803C0BCF1480F07D15C
:100A200000F1080C4FF0010808FA0CF8C2F8108029
:100A3000401C0828CED35460BDE8F08100BFFEE71B
:100A400000BFFEE77047000070B5002100230F22B1
:100A5000C47804B3154C246804F4E064C4F5E0647D
:100A6000210AC1F10403CA40447804FA03F18478EE
:100A70001440214309010E4C0678A155047804F076
:100A80001F050124AC4005786D11AD0005F1E0258E
:100A9000C5F8004109E0047804F01F050124AC40CA
:100AA000044D0678761145F8264070BD0CED00E047
:100AB00000E400E080E100E002490143024A1160E5
:100AC000704700000000FA050CED00E070470000E0
:100AD00029B1064AD2690243044BDA6104E0034AB1
:100AE000D2698243014BDA61704700000010024076
:100AF00029B1064A92690243044B9A6104E0034A11
:100B000092698243014B9A617047000000100240D5
:100B100030B500210022002400232D4D6D6805F022
:100B20000C0121B1042905D0082923D105E0294D64
:100B3000056022E0274D05601FE0254D6D6805F436
:100B40007012234D6D6805F48034022505EB924246
:100B50001CB9214D554305600BE01D4D6D6805F432
:100B600000351DB11C4D5543056002E0194D55433C
:100B7000056002E0174D056000BF00BF144D6D68B1
:100B800005F0F0010909154D6B5C0568DD40456015
:100B90000F4D6D6805F4E061090A104D6B5C456806
:100BA000DD4085600A4D6D6805F46051C90A0B4D42
:100BB0006B5C4568DD40C560054D6D6805F44041DE
:100BC000890B074D6B5CC568B5FBF3F5056130BD5E
:100BD0000010024000127A0000093D0014000020BD
:100BE0002400002030B50446204600F01CF80546DD
:100BF000204600F003F8281A80B230BD00B5024646
:100C00009088D188884209DD104600F00CF8918860
:100C1000D388C91A491E401A80B200BDD088918875
:100C2000401A80B2F9E701460889401E80B2704739
:100C3000F0B506463046FFF7E1FF074600250024E1
:100C400006E0A1B2304600F007F82844C5B2641CA3
:100C5000BC42F6DBE8B2F0BD70B504460D46204656
:100C6000FFF7CCFFA84201DC002070BDA08828441B
:100C7000401C218990FBF1F201FB120086B2206832
:100C8000805DF2E730B50B46026000218180C180B3
:100C9000591C0181002104E0002405686C544C1C9F
:100CA000A1B204898C42F7DC30BD10B50446204661
:100CB000FFF798FF02462046FFF7B5FF824201D1B9
:100CC000012010BD0020FCE710B504462046FFF7C8
:100CD00089FF08B9012010BD0020FCE730B50446AB
:100CE0002046FFF7E2FF08B1002030BDA088401C7D
:100CF000218990FBF1F201FB1200A080A1882068FD
:100D0000455C0020A288216888542846EDE730B56C
:100D100004460D462046FFF7D7FF10B12046FFF7E7
:100D2000DDFFE088401C218990FBF1F201FB1200FD
:100D3000E080E1882068455430BD10B50446204667
:100D4000FFF7CCFF10BD30B504460D4629462046BE
:100D5000FFF7DDFF30BDF0B507460D46164600240F
:100D600005E0295D3846FFF7D2FF601C84B2B4422B
:100D7000F7DBF0BD33B5044601AD0222294620461B
:100D8000FFF7E9FF3CBD33B5044601AD0222294619
:100D90002046FFF7E0FF3CBD704710B500F002F8B9
:100DA00010BD00000CB50020019000903348006891
:100DB00040F480303149086000BF3048006800F4DA
:100DC000003000900198401C0190009818B90198DB
:100DD000B0F5A06FF1D12948006800F4003010B1DF
:100DE0000120009001E0002000900098012843D1EC
:100DF0002348006840F01000214908600846006858
:100E000020F0030008600846006840F00200086017
:100E10001A484068194948600846406848600846D2
:100E2000406840F4806048600846406820F47C10C8
:100E300048600846406840F4E8104860084600688A
:100E400040F08070086000BF0C48006800F000703F
:100E50000028F9D00948406820F00300074948609D
:100E60000846406840F00200486000BF0348406800
:100E700000F00C000828F9D10CBD00000010024061
:100E80000020024030B50146B1F1807F01D301203E
:100E900030BD21F07F40401E4FF0E02250615017DE
:100EA0000F22002807DA13071D0E094B00F00F046C
:100EB000241F1D5503E013071C0E064B1C5400BFD6
:100EC00000204FF0E0229061072010610020DFE752
:100ED00018ED00E000E400E001B506490098086064
:100EE0004FF0E020006940F001004FF0E021086180
:100EF00008BD0000340000200020054908604FF0C4
:100F0000E020006920F001004FF0E0210861704707
:100F1000340000200348006808B901207047002011
:100F2000FCE700003400002001B503490098086088
:100F300000F02CF808BD00003400002006480068CE
:100F400028B105480068401E0349086002E00020FF
:100F500001490860704700003400002010B50A48BD
:100F600000684FF47A71B0FBF1F42046FFF78AFF76
:100F700008B100BFFEE74FF0E020006920F001005B
:100F80004FF0E021086110BD000000204FF0E0208C
:100F9000006940F001004FF0E021086100BF064801
:100FA00000680028FBD14FF0E020006920F001002C
:100FB0004FF0E021086170473400002010B513485D
:100FC000006840F001001149086008464068104977
:100FD00008400E494860084600680E4908400B4921
:100FE00008600846006820F48020086008464068D1
:100FF00020F4FE0048604FF41F008860FFF7CDFE2C
:101000004FF000600449086010BD0000001002406D
:101010000000FFF8FFFFF6FE08ED00E010B540F21B
:101020002551074800F03FF840B1054800F0F6F8B8
:10103000C4B2044988682146FFF769FE10BD00006C
:10104000003801403C04002010B540F2255107480B
:1010500000F029F848B10649086800F0DFF8C4B28A
:10106000034988682146FFF752FE10BD0044004046
:101070004C08002021B1828942F40052828104E0B0
:1010800082894DF6FF731A40828170470246002024
:10109000B1F5007F00D100BF13880B400BB10120D8
:1010A00000E00020704770B50246002400230025B0
:1010B000002040F66A16B14200D100BFC1F34215CC
:1010C00001F01F03012606FA03F3012D02D19689D0
:1010D000334006E0022D02D1168A334001E0968AA1
:1010E00033400C12012606FA04F41688344013B17A
:1010F0000CB1012000E0002070BDF0B503460024D3
:1011000000260025002040F66A17B94200D100BF32
:101110001846C1F3421401F01F06012707FA06F52D
:10112000012C01D10C3004E0022C01D1103000E080
:1011300014301AB107682F43076002E00768AF4315
:101140000760F0BD2DE9F04786B005460E46002445
:10115000A24600BFA1460027B08900B100BF2F46BC
:101160002C8A4CF6FF700440F08804432C82AC8932
:101170004EF6F3100440B088318908437189084362
:101180000443AC81AC8A4FF6FF400440B08904436D
:10119000AC8201A8FFF7BCFC1F48874202D1DDF8F2
:1011A00010A001E0DDF80CA0A88900F4004040B1D7
:1011B0000AEBCA0000EB0A1031684900B0FBF1F8F5
:1011C00007E00AEBCA0000EB0A1031688900B0FBA7
:1011D000F1F86420B8FBF0F004012009642101FB60
:1011E0001089A88900F4004040B1322000EBC9000A
:1011F000B0FBF1F000F00700044308E0322000EB00
:1012000009106421B0FBF1F000F00F0004432C81C1
:1012100006B0BDE8F087000000380140014688882C
:10122000C0F308007047C1F308028280704700BF16
:10123000FEE7000000B587B0614862490860624A75
:101240004FF4FA716148FFF71DFD614A4FF4FA71DE
:101250006048FFF717FD5F485A4988605B4848605F
:1012600001218803FFF744FC01210420FFF740FC23
:101270004FF40070ADF8180003208DF81A00182004
:101280008DF81B0006A95448FFF74DFB4FF4806012
:10129000ADF8180004208DF81B0006A94E48FFF792
:1012A00042FB4FF4E13002900020ADF80C00ADF8A5
:1012B0000E00ADF81000ADF814000C20ADF81200CF
:1012C0004FF4A060FFF7F8FB25208DF80400012003
:1012D0008DF805008DF806008DF8070001A8FFF7CE
:1012E000B3FB02A93648FFF72DFF012240F225513A
:1012F0003348FFF702FF01213148FFF7BBFE3748B3
:1013000037490860374A4FF4FA713748FFF7BAFC9B
:10131000364A4FF4FA713648FFF7B4FC3448304986
:1013200088603148486001214804FFF7D1FB012162
:101330000420FFF7DDFB0420ADF8180003208DF832
:101340001A0018208DF81B0006A92348FFF7EBFAB6
:101350000820ADF8180004208DF81B0006A91E48CF
:10136000FFF7E1FA26208DF8040003208DF8050030
:101370008DF8060001208DF8070001A8FFF764FB37
:101380004FF4E13002900020ADF80C00ADF80E00F3
:10139000ADF81000ADF814000C20ADF8120002A951
:1013A0000E48FFF7CFFE012240F225510B48FFF710
:1013B000A4FE01210948FFF75DFE07B000BD000053
:1013C000003801403C0400203800002024040020A4
:1013D0002D0200203004002000080140004400409D
:1013E0004C08002048040020340800203D0600205E
:1013F0004008002070B5044607E06068FFF76EFC07
:1014000005462946206800F006F86068FFF7F6FBFD
:101410000028F2D170BD70B504460D46294620461D
:10142000FFF701FF00BF80212046FFF72FFE0028B5
:10143000F9D070BD02E008C8121F08C1002AFAD115
:1014400070477047002001E001C1121F002AFBD144
:10145000704700001CB5FFF781FDFFF7EBFE73E05E
:101460003A4800783A490988CDE90010394803889C
:10147000394A032139480068FFF7D4F93548008814
:10148000FFF752FD3148007831490988CDE9001055
:1014900030480388324A012130480068FFF7C2F91A
:1014A0002C480088FFF740FD284800782849098823
:1014B000CDE90010274803882A4A022127480068FE
:1014C000FFF7B0F923480088FFF72EFD4FF4FA60CC
:1014D000FFF72AFD1D4800781D490988CDE9001055
:1014E0001C480388204A03211C480068FFF79AF92A
:1014F00018480088FFF718FD144800781449098837
:10150000CDE9001013480388184A012113480068E8
:10151000FFF788F90F480088FFF706FD0B480078B1
:101520000B490988CDE900100A480388104A0221B6
:101530000A480068FFF776F906480088FFF7F4FCD0
:101540004FF4FA60FFF7F0FC8AE70000300000205B
:101550002E0000202C00002000000743280000205F
:10156000000034420000B442000007C3000034C24F
:101570000000B4C2941500080000002038000000EC
:1015800034140008CC15000838000020200C00009E
:101590004414000800A24A040000000000000000FB
:1015A0000102030406070809000000000102030409
:1015B0000102030406070809020406083C0400208F
:0C15C000D0070000000000000000000048
:04000005080000ED02
:00000001FF
